{
  "_format": "hh-sol-artifact-1",
  "contractName": "SizeStaking",
  "sourceName": "contracts/SizeStaking.sol",
  "abi": [
    {
      "inputs": [
        {
          "internalType": "address",
          "name": "_sizeToken",
          "type": "address"
        }
      ],
      "stateMutability": "nonpayable",
      "type": "constructor"
    },
    {
      "inputs": [
        {
          "internalType": "uint256",
          "name": "resultingBalance",
          "type": "uint256"
        },
        {
          "internalType": "uint256",
          "name": "minimum",
          "type": "uint256"
        }
      ],
      "name": "BelowMinimumTier",
      "type": "error"
    },
    {
      "inputs": [],
      "name": "EnforcedPause",
      "type": "error"
    },
    {
      "inputs": [
        {
          "internalType": "uint256",
          "name": "requested",
          "type": "uint256"
        },
        {
          "internalType": "uint256",
          "name": "staked",
          "type": "uint256"
        }
      ],
      "name": "ExceedsStake",
      "type": "error"
    },
    {
      "inputs": [],
      "name": "ExpectedPause",
      "type": "error"
    },
    {
      "inputs": [],
      "name": "NotDepositor",
      "type": "error"
    },
    {
      "inputs": [],
      "name": "NothingToClaim",
      "type": "error"
    },
    {
      "inputs": [
        {
          "internalType": "address",
          "name": "owner",
          "type": "address"
        }
      ],
      "name": "OwnableInvalidOwner",
      "type": "error"
    },
    {
      "inputs": [
        {
          "internalType": "address",
          "name": "account",
          "type": "address"
        }
      ],
      "name": "OwnableUnauthorizedAccount",
      "type": "error"
    },
    {
      "inputs": [],
      "name": "ReentrancyGuardReentrantCall",
      "type": "error"
    },
    {
      "inputs": [
        {
          "internalType": "address",
          "name": "token",
          "type": "address"
        }
      ],
      "name": "SafeERC20FailedOperation",
      "type": "error"
    },
    {
      "inputs": [],
      "name": "ZeroAmount",
      "type": "error"
    },
    {
      "anonymous": false,
      "inputs": [
        {
          "indexed": true,
          "internalType": "address",
          "name": "depositor",
          "type": "address"
        },
        {
          "indexed": false,
          "internalType": "bool",
          "name": "status",
          "type": "bool"
        }
      ],
      "name": "DepositorUpdated",
      "type": "event"
    },
    {
      "anonymous": false,
      "inputs": [
        {
          "indexed": true,
          "internalType": "address",
          "name": "user",
          "type": "address"
        },
        {
          "indexed": false,
          "internalType": "uint256",
          "name": "amount",
          "type": "uint256"
        }
      ],
      "name": "EmergencyWithdraw",
      "type": "event"
    },
    {
      "anonymous": false,
      "inputs": [
        {
          "indexed": true,
          "internalType": "address",
          "name": "previousOwner",
          "type": "address"
        },
        {
          "indexed": true,
          "internalType": "address",
          "name": "newOwner",
          "type": "address"
        }
      ],
      "name": "OwnershipTransferStarted",
      "type": "event"
    },
    {
      "anonymous": false,
      "inputs": [
        {
          "indexed": true,
          "internalType": "address",
          "name": "previousOwner",
          "type": "address"
        },
        {
          "indexed": true,
          "internalType": "address",
          "name": "newOwner",
          "type": "address"
        }
      ],
      "name": "OwnershipTransferred",
      "type": "event"
    },
    {
      "anonymous": false,
      "inputs": [
        {
          "indexed": false,
          "internalType": "address",
          "name": "account",
          "type": "address"
        }
      ],
      "name": "Paused",
      "type": "event"
    },
    {
      "anonymous": false,
      "inputs": [
        {
          "indexed": true,
          "internalType": "address",
          "name": "user",
          "type": "address"
        },
        {
          "indexed": false,
          "internalType": "uint256",
          "name": "amount",
          "type": "uint256"
        }
      ],
      "name": "RewardsClaimed",
      "type": "event"
    },
    {
      "anonymous": false,
      "inputs": [
        {
          "indexed": true,
          "internalType": "address",
          "name": "depositor",
          "type": "address"
        },
        {
          "indexed": false,
          "internalType": "uint256",
          "name": "amount",
          "type": "uint256"
        }
      ],
      "name": "RewardsDeposited",
      "type": "event"
    },
    {
      "anonymous": false,
      "inputs": [
        {
          "indexed": true,
          "internalType": "address",
          "name": "user",
          "type": "address"
        },
        {
          "indexed": false,
          "internalType": "uint256",
          "name": "amount",
          "type": "uint256"
        },
        {
          "indexed": false,
          "internalType": "uint256",
          "name": "newTier",
          "type": "uint256"
        }
      ],
      "name": "Staked",
      "type": "event"
    },
    {
      "anonymous": false,
      "inputs": [
        {
          "indexed": false,
          "internalType": "address",
          "name": "account",
          "type": "address"
        }
      ],
      "name": "Unpaused",
      "type": "event"
    },
    {
      "anonymous": false,
      "inputs": [
        {
          "indexed": true,
          "internalType": "address",
          "name": "user",
          "type": "address"
        },
        {
          "indexed": false,
          "internalType": "uint256",
          "name": "amount",
          "type": "uint256"
        },
        {
          "indexed": false,
          "internalType": "uint256",
          "name": "newTier",
          "type": "uint256"
        }
      ],
      "name": "Unstaked",
      "type": "event"
    },
    {
      "inputs": [],
      "name": "GROWER_BOOST",
      "outputs": [
        {
          "internalType": "uint256",
          "name": "",
          "type": "uint256"
        }
      ],
      "stateMutability": "view",
      "type": "function"
    },
    {
      "inputs": [],
      "name": "GROWER_MIN",
      "outputs": [
        {
          "internalType": "uint256",
          "name": "",
          "type": "uint256"
        }
      ],
      "stateMutability": "view",
      "type": "function"
    },
    {
      "inputs": [],
      "name": "SHLONG_BOOST",
      "outputs": [
        {
          "internalType": "uint256",
          "name": "",
          "type": "uint256"
        }
      ],
      "stateMutability": "view",
      "type": "function"
    },
    {
      "inputs": [],
      "name": "SHLONG_MIN",
      "outputs": [
        {
          "internalType": "uint256",
          "name": "",
          "type": "uint256"
        }
      ],
      "stateMutability": "view",
      "type": "function"
    },
    {
      "inputs": [],
      "name": "SHOWER_BOOST",
      "outputs": [
        {
          "internalType": "uint256",
          "name": "",
          "type": "uint256"
        }
      ],
      "stateMutability": "view",
      "type": "function"
    },
    {
      "inputs": [],
      "name": "SHOWER_MIN",
      "outputs": [
        {
          "internalType": "uint256",
          "name": "",
          "type": "uint256"
        }
      ],
      "stateMutability": "view",
      "type": "function"
    },
    {
      "inputs": [],
      "name": "WHALE_BOOST",
      "outputs": [
        {
          "internalType": "uint256",
          "name": "",
          "type": "uint256"
        }
      ],
      "stateMutability": "view",
      "type": "function"
    },
    {
      "inputs": [],
      "name": "WHALE_MIN",
      "outputs": [
        {
          "internalType": "uint256",
          "name": "",
          "type": "uint256"
        }
      ],
      "stateMutability": "view",
      "type": "function"
    },
    {
      "inputs": [],
      "name": "accRewardPerShare",
      "outputs": [
        {
          "internalType": "uint256",
          "name": "",
          "type": "uint256"
        }
      ],
      "stateMutability": "view",
      "type": "function"
    },
    {
      "inputs": [],
      "name": "acceptOwnership",
      "outputs": [],
      "stateMutability": "nonpayable",
      "type": "function"
    },
    {
      "inputs": [],
      "name": "bufferedRewards",
      "outputs": [
        {
          "internalType": "uint256",
          "name": "",
          "type": "uint256"
        }
      ],
      "stateMutability": "view",
      "type": "function"
    },
    {
      "inputs": [],
      "name": "claimRewards",
      "outputs": [],
      "stateMutability": "nonpayable",
      "type": "function"
    },
    {
      "inputs": [
        {
          "internalType": "uint256",
          "name": "_amount",
          "type": "uint256"
        }
      ],
      "name": "depositRewards",
      "outputs": [],
      "stateMutability": "nonpayable",
      "type": "function"
    },
    {
      "inputs": [],
      "name": "emergencyWithdraw",
      "outputs": [],
      "stateMutability": "nonpayable",
      "type": "function"
    },
    {
      "inputs": [
        {
          "internalType": "address",
          "name": "_user",
          "type": "address"
        }
      ],
      "name": "getBoost",
      "outputs": [
        {
          "internalType": "uint256",
          "name": "",
          "type": "uint256"
        }
      ],
      "stateMutability": "view",
      "type": "function"
    },
    {
      "inputs": [
        {
          "internalType": "address",
          "name": "_user",
          "type": "address"
        }
      ],
      "name": "getStakeInfo",
      "outputs": [
        {
          "internalType": "uint256",
          "name": "stakedAmount",
          "type": "uint256"
        },
        {
          "internalType": "uint256",
          "name": "pendingRewards",
          "type": "uint256"
        },
        {
          "internalType": "uint256",
          "name": "tier",
          "type": "uint256"
        },
        {
          "internalType": "uint256",
          "name": "boost",
          "type": "uint256"
        },
        {
          "internalType": "uint256",
          "name": "effectiveStake",
          "type": "uint256"
        }
      ],
      "stateMutability": "view",
      "type": "function"
    },
    {
      "inputs": [
        {
          "internalType": "address",
          "name": "_user",
          "type": "address"
        }
      ],
      "name": "getTier",
      "outputs": [
        {
          "internalType": "uint256",
          "name": "",
          "type": "uint256"
        }
      ],
      "stateMutability": "view",
      "type": "function"
    },
    {
      "inputs": [
        {
          "internalType": "address",
          "name": "",
          "type": "address"
        }
      ],
      "name": "isDepositor",
      "outputs": [
        {
          "internalType": "bool",
          "name": "",
          "type": "bool"
        }
      ],
      "stateMutability": "view",
      "type": "function"
    },
    {
      "inputs": [],
      "name": "owner",
      "outputs": [
        {
          "internalType": "address",
          "name": "",
          "type": "address"
        }
      ],
      "stateMutability": "view",
      "type": "function"
    },
    {
      "inputs": [],
      "name": "pause",
      "outputs": [],
      "stateMutability": "nonpayable",
      "type": "function"
    },
    {
      "inputs": [],
      "name": "paused",
      "outputs": [
        {
          "internalType": "bool",
          "name": "",
          "type": "bool"
        }
      ],
      "stateMutability": "view",
      "type": "function"
    },
    {
      "inputs": [],
      "name": "pendingOwner",
      "outputs": [
        {
          "internalType": "address",
          "name": "",
          "type": "address"
        }
      ],
      "stateMutability": "view",
      "type": "function"
    },
    {
      "inputs": [],
      "name": "renounceOwnership",
      "outputs": [],
      "stateMutability": "nonpayable",
      "type": "function"
    },
    {
      "inputs": [
        {
          "internalType": "address",
          "name": "_depositor",
          "type": "address"
        },
        {
          "internalType": "bool",
          "name": "_status",
          "type": "bool"
        }
      ],
      "name": "setDepositor",
      "outputs": [],
      "stateMutability": "nonpayable",
      "type": "function"
    },
    {
      "inputs": [],
      "name": "sizeToken",
      "outputs": [
        {
          "internalType": "contract IERC20",
          "name": "",
          "type": "address"
        }
      ],
      "stateMutability": "view",
      "type": "function"
    },
    {
      "inputs": [
        {
          "internalType": "uint256",
          "name": "_amount",
          "type": "uint256"
        }
      ],
      "name": "stake",
      "outputs": [],
      "stateMutability": "nonpayable",
      "type": "function"
    },
    {
      "inputs": [
        {
          "internalType": "address",
          "name": "",
          "type": "address"
        }
      ],
      "name": "stakes",
      "outputs": [
        {
          "internalType": "uint256",
          "name": "amount",
          "type": "uint256"
        },
        {
          "internalType": "uint256",
          "name": "rewardDebt",
          "type": "uint256"
        },
        {
          "internalType": "uint256",
          "name": "pendingRewards",
          "type": "uint256"
        },
        {
          "internalType": "uint64",
          "name": "firstStakedAt",
          "type": "uint64"
        },
        {
          "internalType": "uint64",
          "name": "lastStakedAt",
          "type": "uint64"
        },
        {
          "internalType": "uint64",
          "name": "lastClaimAt",
          "type": "uint64"
        }
      ],
      "stateMutability": "view",
      "type": "function"
    },
    {
      "inputs": [],
      "name": "totalEffectiveStaked",
      "outputs": [
        {
          "internalType": "uint256",
          "name": "",
          "type": "uint256"
        }
      ],
      "stateMutability": "view",
      "type": "function"
    },
    {
      "inputs": [],
      "name": "totalStaked",
      "outputs": [
        {
          "internalType": "uint256",
          "name": "",
          "type": "uint256"
        }
      ],
      "stateMutability": "view",
      "type": "function"
    },
    {
      "inputs": [
        {
          "internalType": "address",
          "name": "newOwner",
          "type": "address"
        }
      ],
      "name": "transferOwnership",
      "outputs": [],
      "stateMutability": "nonpayable",
      "type": "function"
    },
    {
      "inputs": [],
      "name": "unpause",
      "outputs": [],
      "stateMutability": "nonpayable",
      "type": "function"
    },
    {
      "inputs": [
        {
          "internalType": "uint256",
          "name": "_amount",
          "type": "uint256"
        }
      ],
      "name": "unstake",
      "outputs": [],
      "stateMutability": "nonpayable",
      "type": "function"
    }
  ],
  "bytecode": "0x60a03461014e57601f6114b538819003918201601f19168301916001600160401b038311848410176101535780849260209460405283398101031261014e57516001600160a01b03908181169081900361014e5760017f9b779b17422d0df92223018b32b4d1fa46e071723d6817e2486d003becc55f0055331561013557600180546001600160a01b031916905560008054610100600160a81b0319811633600881811b610100600160a81b0316929092178455604080519690959391929190911c167f8be0079c531659141344cd1fd0a4f28419497f9722a3daafe3b4186f6b6457e08480a3608052338152600760205220805460ff1916600117905561134b908161016a82396080518181816102fe015281816104b5015281816106340152818161084401528181610ce30152610eaf0152f35b604051631e4fbdf760e01b815260006004820152602490fd5b600080fd5b634e487b7160e01b600052604160045260246000fdfe60806040908082526004918236101561001757600080fd5b600092833560e01c92836316934fc414610f56575082632b2893ba14610f395782632e17de7814610db15782632f70d1ba14610d735782633427919214610d54578263372500ab14610c6e5782633f4ba83a14610c0557826347d6280914610be65782635152f67f14610bc85782635c975abb14610ba6578263679f541814610b8057826367ba3d9014610b465782636f860d7414610ac4578263715018a614610a5657826379ba5097146109b5578263817b1cd2146109965782638456cb591461093d5782638bdf67f2146107fe5782638da5cb5b146107d2578263939d6237146107b35782639a14ef0d1461078e578263a694fc3a146104e4578263a6df0831146104a0578263b45aae521461045f578263c345315314610399578263d4e6c5c414610373578263db2e21bc1461028857508163de0f90931461026b578163e080f07114610246578163e18c7dfc14610229578163e30c3978146101fc575063f2fde38b1461018757600080fd5b346101f95760203660031901126101f9576101a0610fcf565b6101a861118a565b60018060a01b0380911690816bffffffffffffffffffffffff60a01b6001541617600155825460081c167f38d16b8cac22d99fc7c124b9cd0de2d3fa1faef420bfe791d8c362d765e227008380a380f35b80fd5b90503461022557816003193601126102255760015490516001600160a01b039091168152602090f35b5080fd5b90503461022557816003193601126102255760209051614e208152f35b9050346102255781600319360112610225576020905169d3c21bcecceda10000008152f35b905034610225578160031936011261022557602090516127108152f35b91503461036f578260031936011261036f576102a261104d565b338352600260205280832080549283156103615784916002916102db6127106102d36102cd896111b9565b8961101a565b048254610fea565b90556102e985600354610fea565b600355828155826001820155015561032282337f0000000000000000000000000000000000000000000000000000000000000000611109565b519081527f5fafa99d0643513820be26656b45130b01e1c03062e1266bf36f88cbd3bd969560203392a260016000805160206112f68339815191525580f35b8251631f2a200560e01b8152fd5b8280fd5b838234610225578160031936011261022557602090516a52b7d2dcc80cd2e40000008152f35b838234610225576020366003190112610225578060a0926103b8610fcf565b600180861b031681526002602052208054916103d383611290565b6103dc846111b9565b91612710806103eb858861101a565b049460028101549187610414575b50508151958652602086015284015260608301526080820152f35b670de0b6b3a764000061043760019261042d898c61101a565b046005549061101a565b0491015490818111156103f957610458929161045291610fea565b9061100d565b87806103f9565b838234610225576020366003190112610225576020916104999082906001600160a01b0361048b610fcf565b168152600285522054611290565b9051908152f35b838234610225578160031936011261022557517f00000000000000000000000000000000000000000000000000000000000000006001600160a01b03168152602090f35b8382346102255760203660031901126102255782359061050261104d565b61050a61107d565b811561077f57338352600260205280832061052683825461100d565b69152d02c7e14af680000080821061076257506105a9906105463361109b565b825480610739575b5080835561055e8560035461100d565b60035561056a816111b9565b612710906105848261057c838661101a565b048a5461100d565b8955600382610593838661101a565b04670de0b6b3a76400009586916005549061101a565b04956001810196875501805467ffffffffffffffff80821615610721575b505080546fffffffffffffffff0000000000000000191642881b6fffffffffffffffff0000000000000000161790556006548015801580610717575b61068e575b89897f1449c6dd7851abc30abf37f57715f492010519147cc2652fbc38202c18a6ee908a6106588330337f0000000000000000000000000000000000000000000000000000000000000000611223565b338452600260205261066c81852054611290565b815193845260208401523392a260016000805160206112f68339815191525580f35b85820291820486141715610704576106ef9392916106df6106d76106e9937f1449c6dd7851abc30abf37f57715f492010519147cc2652fbc38202c18a6ee909b9c9d549061102d565b60055461100d565b938460055561101a565b0461101a565b04905583600655839291858080808080610608565b634e487b7160e01b895260118a52602489fd5b508a541515610603565b42169067ffffffffffffffff19161781558a806105c7565b6127106107528261074c61075a946111b9565b9061101a565b048854610fea565b87558761054e565b8351630ad6177f60e01b8152808801929092526024820152604490fd5b51631f2a200560e01b81528390fd5b8382346102255781600319360112610225576020905169152d02c7e14af68000008152f35b8382346102255781600319360112610225576020906005549051908152f35b8382346102255781600319360112610225579054905160089190911c6001600160a01b03168152602090f35b91503461036f57602036600319011261036f5781359161081c61104d565b338452600760205260ff82852054161580610923575b610915578215610907576108688330337f0000000000000000000000000000000000000000000000000000000000000000611223565b8054156108f257670de0b6b3a7640000830290670de0b6b3a763ffff19848304016108df5761089c916106d791549061102d565b6005555b519081527fb8b27d0db504fa5d914f1fd330347096e88d5ff94b6c612d32797e7c12a8f66f60203392a260016000805160206112f68339815191525580f35b634e487b7160e01b855260119052602484fd5b506108ff8260065461100d565b6006556108a0565b9051631f2a200560e01b8152fd5b9051633cc50b4560e01b8152fd5b5083543360089190911c6001600160a01b03161415610832565b83823461022557816003193601126102255760207f62e78cea01bee320cd4e420270b5ea74000d11b0c9f74754ebdbfc544b05a2589161097b61118a565b61098361107d565b835460ff1916600117845551338152a180f35b8382346102255781600319360112610225576020906003549051908152f35b9091503461036f578260031936011261036f576001546001600160a01b03929091903384841603610a3f5750506001600160a01b0319166001558154610100600160a81b0319811633600881811b610100600160a81b03169290921785559291901c167f8be0079c531659141344cd1fd0a4f28419497f9722a3daafe3b4186f6b6457e08380a380f35b60249250519063118cdaa760e01b82523390820152fd5b83346101f957806003193601126101f957610a6f61118a565b600180546001600160a01b03191690558054610100600160a81b031981168255819060081c6001600160a01b03167f8be0079c531659141344cd1fd0a4f28419497f9722a3daafe3b4186f6b6457e08280a380f35b838234610225578060031936011261022557610ade610fcf565b60243590811515809203610b42577f39a9d042226d79715733ad9813464b1dc2ac69065753fd66d6678d28371480be91602091610b1961118a565b6001600160a01b031680865260078352848620805460ff191660ff84161790559351908152a280f35b8380fd5b838234610225576020366003190112610225576020916104999082906001600160a01b03610b72610fcf565b1681526002855220546111b9565b838234610225578160031936011261022557602090516a084595161401484a0000008152f35b83823461022557816003193601126102255760ff602092541690519015158152f35b838234610225578160031936011261022557602090516201d4c08152f35b9091503461036f578260031936011261036f5760209250549051908152f35b9091503461036f578260031936011261036f57610c2061118a565b82549060ff821615610c60575060ff19168255513381527f5db9ee0a495bf2e6ff9c91a7834c1ba4fdd244a5e8aa4e537bd38aeae4b073aa90602090a180f35b8251638dfc202b60e01b8152fd5b91503461036f578260031936011261036f57610c8861104d565b610c9061107d565b610c993361109b565b3383526002602052808320600281018054938415610d465750849055600301805467ffffffffffffffff60801b19164260801b67ffffffffffffffff60801b16179055610d0782337f0000000000000000000000000000000000000000000000000000000000000000611109565b519081527ffc30cddea38e2bf4d6ea7d3f9ed3b6ad7f176419f4963bd81318067a4aee73fe60203392a260016000805160206112f68339815191525580f35b83516312d37ee560e31b8152fd5b8382346102255781600319360112610225576020906006549051908152f35b8382346102255760203660031901126102255760209160ff9082906001600160a01b03610d9e610fcf565b1681526007855220541690519015158152f35b83823461022557602036600319011261022557823590610dcf61104d565b610dd761107d565b33835260026020528083208215610f29578054808411610f0d5750610dfb3361109b565b8054610e078482610fea565b9081151580610efa575b610ed357610ea4610e6161042d7f7fc4727e062e336010f2c282598ef5f14facb3de68cf8195c2f23e1454b2b74e979899600195610e69670de0b6b3a764000096612710958161074c88936111b9565b048354610fea565b8255808855610e7a8b600354610fea565b600355610e86816111b9565b91610e9d85610e95858561101a565b04825461100d565b905561101a565b0491015561065883337f0000000000000000000000000000000000000000000000000000000000000000611109565b8351630ad6177f60e01b815280880183905269152d02c7e14af68000006024820152604490fd5b5069152d02c7e14af68000008210610e11565b8560449185855192630fc7737160e31b84528301526024820152fd5b8151631f2a200560e01b81528590fd5b8382346102255781600319360112610225576020905161c3508152f35b9250503461036f57602036600319011261036f5760c09281906001600160a01b03610f7f610fcf565b1681526002602052209081546001830154926003600282015491015492839167ffffffffffffffff958694885260208801528187015282821660608701521c16608084015260801c1660a0820152f35b600435906001600160a01b0382168203610fe557565b600080fd5b91908203918211610ff757565b634e487b7160e01b600052601160045260246000fd5b91908201809211610ff757565b81810292918115918404141715610ff757565b8115611037570490565b634e487b7160e01b600052601260045260246000fd5b6000805160206112f6833981519152600281541461106b5760029055565b604051633ee5aeb560e01b8152600490fd5b60ff6000541661108957565b60405163d93c066560e01b8152600490fd5b6001600160a01b0316600090815260026020526040902080548015611105576110d661271061042d8361074c670de0b6b3a7640000956111b9565b0460018201548082116110e857505050565b6110f760029161110193610fea565b920191825461100d565b9055565b5050565b60405163a9059cbb60e01b60009081526001600160a01b039384166004526024949094529260209060448180855af160016000511481161561116a575b836040521561115457505050565b635274afe760e01b835216600482015260249150fd5b600181151661118057813b15153d151616611146565b833d6000823e3d90fd5b60005460081c6001600160a01b031633036111a157565b60405163118cdaa760e01b8152336004820152602490fd5b6a52b7d2dcc80cd2e400000081101561121b576a084595161401484a0000008110156112145769d3c21bcecceda100000081101561120d5769152d02c7e14af6800000111561120757600090565b61271090565b50614e2090565b5061c35090565b506201d4c090565b6040516323b872dd60e01b60009081526001600160a01b03938416600452938316602452604494909452909160209060648180855af160016000511481161561127a575b8360405260006060521561115457505050565b600181151661118057813b15153d151616611267565b6a52b7d2dcc80cd2e40000008110156112ef576a084595161401484a0000008110156112e95769d3c21bcecceda10000008110156112e35769152d02c7e14af680000011156112de57600090565b600190565b50600290565b50600390565b5060049056fe9b779b17422d0df92223018b32b4d1fa46e071723d6817e2486d003becc55f00a2646970667358221220e447558ff4be0d456d3fb541edc18d6c7bcdbe0ae3d6a77689571524944ae63364736f6c63430008180033",
  "linkReferences": {},
  "deployedLinkReferences": {}
}