{
  "_format": "hh-sol-artifact-1",
  "contractName": "SizeStaking",
  "sourceName": "contracts/SizeStaking.sol",
  "abi": [
    {
      "inputs": [
        {
          "internalType": "address",
          "name": "_sizeToken",
          "type": "address"
        }
      ],
      "stateMutability": "nonpayable",
      "type": "constructor"
    },
    {
      "inputs": [
        {
          "internalType": "uint256",
          "name": "resultingBalance",
          "type": "uint256"
        },
        {
          "internalType": "uint256",
          "name": "minimum",
          "type": "uint256"
        }
      ],
      "name": "BelowMinimumTier",
      "type": "error"
    },
    {
      "inputs": [],
      "name": "EnforcedPause",
      "type": "error"
    },
    {
      "inputs": [
        {
          "internalType": "uint256",
          "name": "requested",
          "type": "uint256"
        },
        {
          "internalType": "uint256",
          "name": "staked",
          "type": "uint256"
        }
      ],
      "name": "ExceedsStake",
      "type": "error"
    },
    {
      "inputs": [],
      "name": "ExpectedPause",
      "type": "error"
    },
    {
      "inputs": [],
      "name": "NotDepositor",
      "type": "error"
    },
    {
      "inputs": [],
      "name": "NothingToClaim",
      "type": "error"
    },
    {
      "inputs": [
        {
          "internalType": "address",
          "name": "owner",
          "type": "address"
        }
      ],
      "name": "OwnableInvalidOwner",
      "type": "error"
    },
    {
      "inputs": [
        {
          "internalType": "address",
          "name": "account",
          "type": "address"
        }
      ],
      "name": "OwnableUnauthorizedAccount",
      "type": "error"
    },
    {
      "inputs": [],
      "name": "ReentrancyGuardReentrantCall",
      "type": "error"
    },
    {
      "inputs": [
        {
          "internalType": "address",
          "name": "token",
          "type": "address"
        }
      ],
      "name": "SafeERC20FailedOperation",
      "type": "error"
    },
    {
      "inputs": [],
      "name": "ZeroAddress",
      "type": "error"
    },
    {
      "inputs": [],
      "name": "ZeroAmount",
      "type": "error"
    },
    {
      "anonymous": false,
      "inputs": [
        {
          "indexed": true,
          "internalType": "address",
          "name": "depositor",
          "type": "address"
        },
        {
          "indexed": false,
          "internalType": "bool",
          "name": "status",
          "type": "bool"
        }
      ],
      "name": "DepositorUpdated",
      "type": "event"
    },
    {
      "anonymous": false,
      "inputs": [
        {
          "indexed": true,
          "internalType": "address",
          "name": "user",
          "type": "address"
        },
        {
          "indexed": false,
          "internalType": "uint256",
          "name": "amount",
          "type": "uint256"
        },
        {
          "indexed": false,
          "internalType": "uint256",
          "name": "penalty",
          "type": "uint256"
        }
      ],
      "name": "EmergencyWithdraw",
      "type": "event"
    },
    {
      "anonymous": false,
      "inputs": [
        {
          "indexed": true,
          "internalType": "address",
          "name": "previousOwner",
          "type": "address"
        },
        {
          "indexed": true,
          "internalType": "address",
          "name": "newOwner",
          "type": "address"
        }
      ],
      "name": "OwnershipTransferStarted",
      "type": "event"
    },
    {
      "anonymous": false,
      "inputs": [
        {
          "indexed": true,
          "internalType": "address",
          "name": "previousOwner",
          "type": "address"
        },
        {
          "indexed": true,
          "internalType": "address",
          "name": "newOwner",
          "type": "address"
        }
      ],
      "name": "OwnershipTransferred",
      "type": "event"
    },
    {
      "anonymous": false,
      "inputs": [
        {
          "indexed": false,
          "internalType": "address",
          "name": "account",
          "type": "address"
        }
      ],
      "name": "Paused",
      "type": "event"
    },
    {
      "anonymous": false,
      "inputs": [
        {
          "indexed": true,
          "internalType": "address",
          "name": "user",
          "type": "address"
        },
        {
          "indexed": false,
          "internalType": "uint256",
          "name": "penaltyAmount",
          "type": "uint256"
        }
      ],
      "name": "PenaltyRedistributed",
      "type": "event"
    },
    {
      "anonymous": false,
      "inputs": [
        {
          "indexed": true,
          "internalType": "address",
          "name": "user",
          "type": "address"
        },
        {
          "indexed": false,
          "internalType": "uint256",
          "name": "amount",
          "type": "uint256"
        }
      ],
      "name": "RewardsClaimed",
      "type": "event"
    },
    {
      "anonymous": false,
      "inputs": [
        {
          "indexed": true,
          "internalType": "address",
          "name": "depositor",
          "type": "address"
        },
        {
          "indexed": false,
          "internalType": "uint256",
          "name": "amount",
          "type": "uint256"
        }
      ],
      "name": "RewardsDeposited",
      "type": "event"
    },
    {
      "anonymous": false,
      "inputs": [
        {
          "indexed": true,
          "internalType": "address",
          "name": "user",
          "type": "address"
        },
        {
          "indexed": false,
          "internalType": "uint256",
          "name": "amount",
          "type": "uint256"
        },
        {
          "indexed": false,
          "internalType": "uint256",
          "name": "newTier",
          "type": "uint256"
        }
      ],
      "name": "Staked",
      "type": "event"
    },
    {
      "anonymous": false,
      "inputs": [
        {
          "indexed": false,
          "internalType": "address",
          "name": "account",
          "type": "address"
        }
      ],
      "name": "Unpaused",
      "type": "event"
    },
    {
      "anonymous": false,
      "inputs": [
        {
          "indexed": true,
          "internalType": "address",
          "name": "user",
          "type": "address"
        },
        {
          "indexed": false,
          "internalType": "uint256",
          "name": "amount",
          "type": "uint256"
        },
        {
          "indexed": false,
          "internalType": "uint256",
          "name": "penalty",
          "type": "uint256"
        },
        {
          "indexed": false,
          "internalType": "uint256",
          "name": "newTier",
          "type": "uint256"
        }
      ],
      "name": "Unstaked",
      "type": "event"
    },
    {
      "inputs": [],
      "name": "GROWER_BOOST",
      "outputs": [
        {
          "internalType": "uint256",
          "name": "",
          "type": "uint256"
        }
      ],
      "stateMutability": "view",
      "type": "function"
    },
    {
      "inputs": [],
      "name": "GROWER_MIN",
      "outputs": [
        {
          "internalType": "uint256",
          "name": "",
          "type": "uint256"
        }
      ],
      "stateMutability": "view",
      "type": "function"
    },
    {
      "inputs": [],
      "name": "LOCK_PERIOD",
      "outputs": [
        {
          "internalType": "uint256",
          "name": "",
          "type": "uint256"
        }
      ],
      "stateMutability": "view",
      "type": "function"
    },
    {
      "inputs": [],
      "name": "MAX_PENALTY_BPS",
      "outputs": [
        {
          "internalType": "uint256",
          "name": "",
          "type": "uint256"
        }
      ],
      "stateMutability": "view",
      "type": "function"
    },
    {
      "inputs": [],
      "name": "SHLONG_BOOST",
      "outputs": [
        {
          "internalType": "uint256",
          "name": "",
          "type": "uint256"
        }
      ],
      "stateMutability": "view",
      "type": "function"
    },
    {
      "inputs": [],
      "name": "SHLONG_MIN",
      "outputs": [
        {
          "internalType": "uint256",
          "name": "",
          "type": "uint256"
        }
      ],
      "stateMutability": "view",
      "type": "function"
    },
    {
      "inputs": [],
      "name": "SHOWER_BOOST",
      "outputs": [
        {
          "internalType": "uint256",
          "name": "",
          "type": "uint256"
        }
      ],
      "stateMutability": "view",
      "type": "function"
    },
    {
      "inputs": [],
      "name": "SHOWER_MIN",
      "outputs": [
        {
          "internalType": "uint256",
          "name": "",
          "type": "uint256"
        }
      ],
      "stateMutability": "view",
      "type": "function"
    },
    {
      "inputs": [],
      "name": "WHALE_BOOST",
      "outputs": [
        {
          "internalType": "uint256",
          "name": "",
          "type": "uint256"
        }
      ],
      "stateMutability": "view",
      "type": "function"
    },
    {
      "inputs": [],
      "name": "WHALE_MIN",
      "outputs": [
        {
          "internalType": "uint256",
          "name": "",
          "type": "uint256"
        }
      ],
      "stateMutability": "view",
      "type": "function"
    },
    {
      "inputs": [],
      "name": "accRewardPerShare",
      "outputs": [
        {
          "internalType": "uint256",
          "name": "",
          "type": "uint256"
        }
      ],
      "stateMutability": "view",
      "type": "function"
    },
    {
      "inputs": [],
      "name": "acceptOwnership",
      "outputs": [],
      "stateMutability": "nonpayable",
      "type": "function"
    },
    {
      "inputs": [],
      "name": "bufferedRewards",
      "outputs": [
        {
          "internalType": "uint256",
          "name": "",
          "type": "uint256"
        }
      ],
      "stateMutability": "view",
      "type": "function"
    },
    {
      "inputs": [],
      "name": "claimRewards",
      "outputs": [],
      "stateMutability": "nonpayable",
      "type": "function"
    },
    {
      "inputs": [
        {
          "internalType": "uint256",
          "name": "_amount",
          "type": "uint256"
        }
      ],
      "name": "depositRewards",
      "outputs": [],
      "stateMutability": "nonpayable",
      "type": "function"
    },
    {
      "inputs": [],
      "name": "emergencyWithdraw",
      "outputs": [],
      "stateMutability": "nonpayable",
      "type": "function"
    },
    {
      "inputs": [
        {
          "internalType": "address",
          "name": "_user",
          "type": "address"
        }
      ],
      "name": "getBoost",
      "outputs": [
        {
          "internalType": "uint256",
          "name": "",
          "type": "uint256"
        }
      ],
      "stateMutability": "view",
      "type": "function"
    },
    {
      "inputs": [
        {
          "internalType": "address",
          "name": "_user",
          "type": "address"
        }
      ],
      "name": "getEarlyWithdrawalPenalty",
      "outputs": [
        {
          "internalType": "uint256",
          "name": "penaltyBps",
          "type": "uint256"
        },
        {
          "internalType": "uint256",
          "name": "penaltyPct",
          "type": "uint256"
        },
        {
          "internalType": "uint256",
          "name": "daysStaked",
          "type": "uint256"
        },
        {
          "internalType": "uint256",
          "name": "daysRemaining",
          "type": "uint256"
        }
      ],
      "stateMutability": "view",
      "type": "function"
    },
    {
      "inputs": [
        {
          "internalType": "address",
          "name": "_user",
          "type": "address"
        }
      ],
      "name": "getStakeInfo",
      "outputs": [
        {
          "internalType": "uint256",
          "name": "stakedAmount",
          "type": "uint256"
        },
        {
          "internalType": "uint256",
          "name": "pendingRewards",
          "type": "uint256"
        },
        {
          "internalType": "uint256",
          "name": "tier",
          "type": "uint256"
        },
        {
          "internalType": "uint256",
          "name": "boost",
          "type": "uint256"
        },
        {
          "internalType": "uint256",
          "name": "effectiveStake",
          "type": "uint256"
        }
      ],
      "stateMutability": "view",
      "type": "function"
    },
    {
      "inputs": [
        {
          "internalType": "address",
          "name": "_user",
          "type": "address"
        }
      ],
      "name": "getTier",
      "outputs": [
        {
          "internalType": "uint256",
          "name": "",
          "type": "uint256"
        }
      ],
      "stateMutability": "view",
      "type": "function"
    },
    {
      "inputs": [
        {
          "internalType": "address",
          "name": "",
          "type": "address"
        }
      ],
      "name": "isDepositor",
      "outputs": [
        {
          "internalType": "bool",
          "name": "",
          "type": "bool"
        }
      ],
      "stateMutability": "view",
      "type": "function"
    },
    {
      "inputs": [],
      "name": "owner",
      "outputs": [
        {
          "internalType": "address",
          "name": "",
          "type": "address"
        }
      ],
      "stateMutability": "view",
      "type": "function"
    },
    {
      "inputs": [],
      "name": "pause",
      "outputs": [],
      "stateMutability": "nonpayable",
      "type": "function"
    },
    {
      "inputs": [],
      "name": "paused",
      "outputs": [
        {
          "internalType": "bool",
          "name": "",
          "type": "bool"
        }
      ],
      "stateMutability": "view",
      "type": "function"
    },
    {
      "inputs": [],
      "name": "pendingOwner",
      "outputs": [
        {
          "internalType": "address",
          "name": "",
          "type": "address"
        }
      ],
      "stateMutability": "view",
      "type": "function"
    },
    {
      "inputs": [
        {
          "internalType": "address",
          "name": "_user",
          "type": "address"
        },
        {
          "internalType": "uint256",
          "name": "_amount",
          "type": "uint256"
        }
      ],
      "name": "previewUnstake",
      "outputs": [
        {
          "internalType": "uint256",
          "name": "userReceives",
          "type": "uint256"
        },
        {
          "internalType": "uint256",
          "name": "penalty",
          "type": "uint256"
        },
        {
          "internalType": "uint256",
          "name": "penaltyBps",
          "type": "uint256"
        }
      ],
      "stateMutability": "view",
      "type": "function"
    },
    {
      "inputs": [],
      "name": "renounceOwnership",
      "outputs": [],
      "stateMutability": "nonpayable",
      "type": "function"
    },
    {
      "inputs": [
        {
          "internalType": "address",
          "name": "_depositor",
          "type": "address"
        },
        {
          "internalType": "bool",
          "name": "_status",
          "type": "bool"
        }
      ],
      "name": "setDepositor",
      "outputs": [],
      "stateMutability": "nonpayable",
      "type": "function"
    },
    {
      "inputs": [],
      "name": "sizeToken",
      "outputs": [
        {
          "internalType": "contract IERC20",
          "name": "",
          "type": "address"
        }
      ],
      "stateMutability": "view",
      "type": "function"
    },
    {
      "inputs": [
        {
          "internalType": "uint256",
          "name": "_amount",
          "type": "uint256"
        }
      ],
      "name": "stake",
      "outputs": [],
      "stateMutability": "nonpayable",
      "type": "function"
    },
    {
      "inputs": [
        {
          "internalType": "address",
          "name": "",
          "type": "address"
        }
      ],
      "name": "stakes",
      "outputs": [
        {
          "internalType": "uint256",
          "name": "amount",
          "type": "uint256"
        },
        {
          "internalType": "uint256",
          "name": "rewardDebt",
          "type": "uint256"
        },
        {
          "internalType": "uint256",
          "name": "pendingRewards",
          "type": "uint256"
        },
        {
          "internalType": "uint64",
          "name": "firstStakedAt",
          "type": "uint64"
        },
        {
          "internalType": "uint64",
          "name": "lastStakedAt",
          "type": "uint64"
        },
        {
          "internalType": "uint64",
          "name": "lastClaimAt",
          "type": "uint64"
        }
      ],
      "stateMutability": "view",
      "type": "function"
    },
    {
      "inputs": [],
      "name": "totalEffectiveStaked",
      "outputs": [
        {
          "internalType": "uint256",
          "name": "",
          "type": "uint256"
        }
      ],
      "stateMutability": "view",
      "type": "function"
    },
    {
      "inputs": [],
      "name": "totalPenaltiesCollected",
      "outputs": [
        {
          "internalType": "uint256",
          "name": "",
          "type": "uint256"
        }
      ],
      "stateMutability": "view",
      "type": "function"
    },
    {
      "inputs": [],
      "name": "totalStaked",
      "outputs": [
        {
          "internalType": "uint256",
          "name": "",
          "type": "uint256"
        }
      ],
      "stateMutability": "view",
      "type": "function"
    },
    {
      "inputs": [
        {
          "internalType": "address",
          "name": "newOwner",
          "type": "address"
        }
      ],
      "name": "transferOwnership",
      "outputs": [],
      "stateMutability": "nonpayable",
      "type": "function"
    },
    {
      "inputs": [],
      "name": "unpause",
      "outputs": [],
      "stateMutability": "nonpayable",
      "type": "function"
    },
    {
      "inputs": [
        {
          "internalType": "uint256",
          "name": "_amount",
          "type": "uint256"
        }
      ],
      "name": "unstake",
      "outputs": [],
      "stateMutability": "nonpayable",
      "type": "function"
    }
  ],
  "bytecode": "0x60a03461016857601f611abf38819003918201601f19168301916001600160401b0383118484101761016d5780849260209460405283398101031261016857516001600160a01b0390818116908190036101685760017f9b779b17422d0df92223018b32b4d1fa46e071723d6817e2486d003becc55f0055331561014f57600180546001600160a01b031916905560008054610100600160a81b0319811633600881811b610100600160a81b031692909217845560405195939493909290911c167f8be0079c531659141344cd1fd0a4f28419497f9722a3daafe3b4186f6b6457e08480a380156101405760409250608052338152600860205220600160ff1982541617905560405161193b908161018482396080518181816104b801528181610633015281816107b3015281816109bc01528181610f5a01526113270152f35b63d92e233d60e01b8352600483fd5b604051631e4fbdf760e01b815260006004820152602490fd5b600080fd5b634e487b7160e01b600052604160045260246000fdfe60806040908082526004918236101561001757600080fd5b600092833560e01c9283630225d3cc1461145d5750826316934fc4146113e45782631820cabb146113c55782632b2893ba146113a85782632e17de78146110285782632f70d1ba14610fea5782633427919214610fcb578263372500ab14610ebc5782633f4ba83a14610e5357826347d6280914610e345782635152f67f14610e165782635c975abb14610df4578263679f541814610dce57826367ba3d9014610d945782636f843f5914610cf75782636f860d7414610c5f578263715018a614610bf157826379ba509714610b505782637eaacdb014610b31578263817b1cd214610b125782638456cb5914610ab95782638bdf67f2146109765782638da5cb5b1461094a578263939d62371461092b5782639a14ef0d14610905578263a694fc3a14610662578263a6df08311461061e578263b45aae52146105dd578263c345315314610517578263d4e6c5c4146104f1578263db2e21bc146102fe57508163de0f9093146102e1578163e080f071146102bb578163e18c7dfc1461029e578163e30c397814610275578163f2760e9d14610233575063f2fde38b146101be57600080fd5b34610230576020366003190112610230576101d7611479565b6101df611776565b60018060a01b0380911690816bffffffffffffffffffffffff60a01b6001541617600155825460081c167f38d16b8cac22d99fc7c124b9cd0de2d3fa1faef420bfe791d8c362d765e227008380a380f35b80fd5b90503461027157602036600319011261027157608090610259610254611479565b6114f7565b92939091815194855260208501528301526060820152f35b5080fd5b90503461027157816003193601126102715760015490516001600160a01b039091168152602090f35b90503461027157816003193601126102715760209051614e208152f35b905034610271578160031936011261027157602090516a14adf4b7320334b90000008152f35b905034610271578160031936011261027157602090516127108152f35b8382346102715781600319360112610271576103186115b1565b338252600260205280822090815480156104e1578360026127109461038d8661035961035367ffffffffffffffff60038601548a1c16611671565b876114b7565b04946103836103688783611494565b9861037b610375846117a5565b846114b7565b048b54611494565b8a55600354611494565b6003558281558260018201550155826104b1575b801580156103f0575b50907fbb757047c2b5f3974fe26b7c10f732e7bce710b0952a71082702781e62ae059591815193845260208401523392a260016000805160206118e68339815191525580f35b6103fc826007546114ea565b60075585541561047757670de0b6b3a7640000908183029183830414171561046457610450610458917fbb757047c2b5f3974fe26b7c10f732e7bce710b0952a71082702781e62ae059595969754906114ca565b6005546114ea565b6005555b8493926103aa565b634e487b7160e01b855260118652602485fd5b507fbb757047c2b5f3974fe26b7c10f732e7bce710b0952a71082702781e62ae0595929394506104a9816006546114ea565b60065561045c565b6104dc83337f00000000000000000000000000000000000000000000000000000000000000006116f5565b6103a1565b8151631f2a200560e01b81528590fd5b838234610271578160031936011261027157602090516acecb8f27f4200f3a0000008152f35b838234610271576020366003190112610271578060a092610536611479565b600180861b031681526002602052208054916105518361187e565b61055a846117a5565b916127108061056985886114b7565b049460028101549187610592575b50508151958652602086015284015260608301526080820152f35b670de0b6b3a76400006105b56001926105ab898c6114b7565b04600554906114b7565b049101549081811115610577576105d692916105d091611494565b906114ea565b8780610577565b838234610271576020366003190112610271576020916106179082906001600160a01b03610609611479565b16815260028552205461187e565b9051908152f35b838234610271578160031936011261027157517f00000000000000000000000000000000000000000000000000000000000000006001600160a01b03168152602090f35b838234610271576020366003190112610271578235906106806115b1565b6106886115e1565b81156108f65733835260026020528083206106a48382546114ea565b6a084595161401484a0000008082106108d95750610728906106c5336115ff565b8254806108b0575b508083556106dd856003546114ea565b6003556106e9816117a5565b61271090610703826106fb83866114b7565b048a546114ea565b895560038261071283866114b7565b04670de0b6b3a7640000958691600554906114b7565b04956001810196875501805467ffffffffffffffff80821615610898575b505080546fffffffffffffffff0000000000000000191642881b6fffffffffffffffff000000000000000016179055600654801580158061088e575b61080d575b89897f1449c6dd7851abc30abf37f57715f492010519147cc2652fbc38202c18a6ee908a6107d78330337f0000000000000000000000000000000000000000000000000000000000000000611811565b33845260026020526107eb8185205461187e565b815193845260208401523392a260016000805160206118e68339815191525580f35b8582029182048614171561087b57610866939291610856610450610860937f1449c6dd7851abc30abf37f57715f492010519147cc2652fbc38202c18a6ee909b9c9d54906114ca565b93846005556114b7565b046114b7565b04905583600655839291858080808080610787565b634e487b7160e01b895260118a52602489fd5b508a541515610782565b42169067ffffffffffffffff19161781558a80610746565b6127106108c9826108c36108d1946117a5565b906114b7565b048854611494565b8755876106cd565b8351630ad6177f60e01b8152808801929092526024820152604490fd5b51631f2a200560e01b81528390fd5b838234610271578160031936011261027157602090516a084595161401484a0000008152f35b8382346102715781600319360112610271576020906005549051908152f35b8382346102715781600319360112610271579054905160089190911c6001600160a01b03168152602090f35b915034610ab5576020366003190112610ab5578135916109946115b1565b338452600860205260ff82852054161580610a9b575b610a8d578215610a7f576109e08330337f0000000000000000000000000000000000000000000000000000000000000000611811565b805415610a6a57670de0b6b3a7640000830290670de0b6b3a763ffff1984830401610a5757610a14916104509154906114ca565b6005555b519081527fb8b27d0db504fa5d914f1fd330347096e88d5ff94b6c612d32797e7c12a8f66f60203392a260016000805160206118e68339815191525580f35b634e487b7160e01b855260119052602484fd5b50610a77826006546114ea565b600655610a18565b9051631f2a200560e01b8152fd5b9051633cc50b4560e01b8152fd5b5083543360089190911c6001600160a01b031614156109aa565b8280fd5b83823461027157816003193601126102715760207f62e78cea01bee320cd4e420270b5ea74000d11b0c9f74754ebdbfc544b05a25891610af7611776565b610aff6115e1565b835460ff1916600117845551338152a180f35b8382346102715781600319360112610271576020906003549051908152f35b8382346102715781600319360112610271576020906007549051908152f35b90915034610ab55782600319360112610ab5576001546001600160a01b03929091903384841603610bda5750506001600160a01b0319166001558154610100600160a81b0319811633600881811b610100600160a81b03169290921785559291901c167f8be0079c531659141344cd1fd0a4f28419497f9722a3daafe3b4186f6b6457e08380a380f35b60249250519063118cdaa760e01b82523390820152fd5b8334610230578060031936011261023057610c0a611776565b600180546001600160a01b03191690558054610100600160a81b031981168255819060081c6001600160a01b03167f8be0079c531659141344cd1fd0a4f28419497f9722a3daafe3b4186f6b6457e08280a380f35b915034610ab55780600319360112610ab557610c79611479565b9060243591821515809303610cf357610c90611776565b6001600160a01b0316928315610ce557507f39a9d042226d79715733ad9813464b1dc2ac69065753fd66d6678d28371480be916020918486526008835280862060ff1981541660ff841617905551908152a280f35b905163d92e233d60e01b8152fd5b8480fd5b83823461027157806003193601126102715780610d12611479565b6001600160a01b0316835260026020529091208054602435929190808411610d8a575b50610d5267ffffffffffffffff6003610d86930154841c16611671565b610d6a612710610d6283876114b7565b048095611494565b9251938493846040919493926060820195825260208201520152565b0390f35b9250610d52610d35565b838234610271576020366003190112610271576020916106179082906001600160a01b03610dc0611479565b1681526002855220546117a5565b838234610271578160031936011261027157602090516a52b7d2dcc80cd2e40000008152f35b83823461027157816003193601126102715760ff602092541690519015158152f35b838234610271578160031936011261027157602090516201d4c08152f35b90915034610ab55782600319360112610ab55760209250549051908152f35b90915034610ab55782600319360112610ab557610e6e611776565b82549060ff821615610eae575060ff19168255513381527f5db9ee0a495bf2e6ff9c91a7834c1ba4fdd244a5e8aa4e537bd38aeae4b073aa90602090a180f35b8251638dfc202b60e01b8152fd5b915034610ab55782600319360112610ab557610ed66115b1565b610ede6115e1565b610ee7336115ff565b3383526002602052808320600281018054938415610fbd57509084610f539255670de0b6b3a7640000610f246127106105ab84546108c3816117a5565b046001820155600301805467ffffffffffffffff60801b19164260801b67ffffffffffffffff60801b16179055565b610f7e82337f00000000000000000000000000000000000000000000000000000000000000006116f5565b519081527ffc30cddea38e2bf4d6ea7d3f9ed3b6ad7f176419f4963bd81318067a4aee73fe60203392a260016000805160206118e68339815191525580f35b83516312d37ee560e31b8152fd5b8382346102715781600319360112610271576020906006549051908152f35b8382346102715760203660031901126102715760209160ff9082906001600160a01b03611015611479565b1681526008855220541690519015158152f35b838234610271576020366003190112610271578235906110466115b1565b61104e6115e1565b33835260026020528083209180156104e157825480821161138d5750611073336115ff565b6002830184815491558354936110898386611494565b9081151580611379575b61135157600381019061271067ffffffffffffffff93818585548a1c166110b990611671565b6110c390896114b7565b0496826110d08983611494565b9a6110da816117a5565b6110e3916114b7565b048c54906110f091611494565b8c558184556003549061110291611494565b60035561110e816117a5565b8261111982846114b7565b048c5490611126916114ea565b8c55611131916114b7565b0490670de0b6b3a7640000809260055461114a916114b7565b04906001015561115a84886114ea565b80611320575b5084158015611244575b50507f204fccf0d92ed8d48f204adb39b2e81e92bad0dedb93f5716ca9478cfb57de0095969750826111e7575b50505033855260026020526111cf6111b18387205461187e565b92519283923396846040919493926060820195825260208201520152565b0390a260016000805160206118e68339815191525580f35b805467ffffffffffffffff60801b19164290921660801b67ffffffffffffffff60801b1691909117905582519081527ffc30cddea38e2bf4d6ea7d3f9ed3b6ad7f176419f4963bd81318067a4aee73fe60203392a2858080611197565b611250866007546114ea565b6007558954156112e557818602918683041417156112d25761045061129a917f204fccf0d92ed8d48f204adb39b2e81e92bad0dedb93f5716ca9478cfb57de0098999a54906114ca565b60055584518481527f288446c5197716b76e9cbff1efd986dc6c319f565760a84cf660944cb2879c7c60203392a25b8796958961116a565b634e487b7160e01b885260118952602488fd5b50507f204fccf0d92ed8d48f204adb39b2e81e92bad0dedb93f5716ca9478cfb57de0095969750611318846006546114ea565b6006556112c9565b61134b90337f00000000000000000000000000000000000000000000000000000000000000006116f5565b89611160565b8451630ad6177f60e01b81528089018390526a084595161401484a0000006024820152604490fd5b506a084595161401484a0000008210611093565b85916044935192630fc7737160e31b84528301526024820152fd5b8382346102715781600319360112610271576020905161c3508152f35b838234610271578160031936011261027157602090516301e133808152f35b8382346102715760203660031901126102715760c09181906001600160a01b0361140c611479565b168152600260205220805491600182015460036002840154930154809267ffffffffffffffff948593825197885260208801528187015282821660608701521c16608084015260801c1660a0820152f35b84903461027157816003193601126102715780611af460209252f35b600435906001600160a01b038216820361148f57565b600080fd5b919082039182116114a157565b634e487b7160e01b600052601160045260246000fd5b818102929181159184041417156114a157565b81156114d4570490565b634e487b7160e01b600052601260045260246000fd5b919082018092116114a157565b6001600160a01b031660009081526002602052604080822060030154919291901c67ffffffffffffffff1680156115a9576115328142611494565b91620151809361154485850493611671565b946064860286810460641487151715611595576127109004946301e13380908181106115705750505090565b819293910391821161158157500490565b634e487b7160e01b81526011600452602490fd5b634e487b7160e01b83526011600452602483fd5b508180918190565b6000805160206118e683398151915260028154146115cf5760029055565b604051633ee5aeb560e01b8152600490fd5b60ff600054166115ed57565b60405163d93c066560e01b8152600490fd5b6001600160a01b031660009081526002602052604090208054801561166d5761163a6127106105ab836108c3670de0b6b3a7640000956117a5565b04906001810190815480841161164f57505055565b600261165e6116689286611494565b92019182546114ea565b905555565b5050565b67ffffffffffffffff1680156116ef5761168b9042611494565b6301e13380808210156116e8578181038181116114a157670de0b6b3a764000092838202918204841490831417156114a15782916116cf91048261086082806114b7565b04611af4908181029181830414901517156114a1570490565b5050600090565b50600090565b60405163a9059cbb60e01b60009081526001600160a01b039384166004526024949094529260209060448180855af1600160005114811615611756575b836040521561174057505050565b635274afe760e01b835216600482015260249150fd5b600181151661176c57813b15153d151616611732565b833d6000823e3d90fd5b60005460081c6001600160a01b0316330361178d57565b60405163118cdaa760e01b8152336004820152602490fd5b6acecb8f27f4200f3a000000811015611809576a52b7d2dcc80cd2e4000000811015611802576a14adf4b7320334b90000008110156117fb576a084595161401484a00000011156117f557600090565b61271090565b50614e2090565b5061c35090565b506201d4c090565b6040516323b872dd60e01b60009081526001600160a01b03938416600452938316602452604494909452909160209060648180855af1600160005114811615611868575b8360405260006060521561174057505050565b600181151661176c57813b15153d151616611855565b6acecb8f27f4200f3a0000008110156118df576a52b7d2dcc80cd2e40000008110156118d9576a14adf4b7320334b90000008110156118d3576a084595161401484a00000011156118ce57600090565b600190565b50600290565b50600390565b5060049056fe9b779b17422d0df92223018b32b4d1fa46e071723d6817e2486d003becc55f00a264697066735822122035a9ba99d1493923b2a5c3d201f00fbcbd656f8766fdd8cd1a52c60f75a6ac9364736f6c63430008180033",
  "linkReferences": {},
  "deployedLinkReferences": {}
}