{"contracts/SizeGifting.sol":{"SizeGifting":{"abi":[{"inputs":[{"internalType":"address","name":"_sizeToken","type":"address"}],"stateMutability":"nonpayable","type":"constructor"},{"inputs":[],"name":"BatchTooLarge","type":"error"},{"inputs":[],"name":"MessageTooLong","type":"error"},{"inputs":[],"name":"ReentrancyGuardReentrantCall","type":"error"},{"inputs":[{"internalType":"address","name":"token","type":"address"}],"name":"SafeERC20FailedOperation","type":"error"},{"inputs":[],"name":"SelfGift","type":"error"},{"inputs":[],"name":"ZeroAddress","type":"error"},{"inputs":[],"name":"ZeroAmount","type":"error"},{"anonymous":false,"inputs":[{"indexed":true,"internalType":"address","name":"from","type":"address"},{"indexed":true,"internalType":"address","name":"to","type":"address"},{"indexed":false,"internalType":"uint256","name":"amount","type":"uint256"},{"indexed":false,"internalType":"bytes32","name":"postId","type":"bytes32"},{"indexed":false,"internalType":"string","name":"message","type":"string"}],"name":"Gift","type":"event"},{"anonymous":false,"inputs":[{"indexed":true,"internalType":"address","name":"from","type":"address"},{"indexed":true,"internalType":"address","name":"postAuthor","type":"address"},{"indexed":false,"internalType":"uint256","name":"amount","type":"uint256"},{"indexed":false,"internalType":"bytes32","name":"postId","type":"bytes32"}],"name":"PostTip","type":"event"},{"inputs":[],"name":"MAX_BATCH","outputs":[{"internalType":"uint256","name":"","type":"uint256"}],"stateMutability":"view","type":"function"},{"inputs":[{"internalType":"address[]","name":"_recipients","type":"address[]"},{"internalType":"uint256[]","name":"_amounts","type":"uint256[]"}],"name":"batchGift","outputs":[],"stateMutability":"nonpayable","type":"function"},{"inputs":[{"internalType":"address","name":"_to","type":"address"},{"internalType":"uint256","name":"_amount","type":"uint256"},{"internalType":"bytes32","name":"_postId","type":"bytes32"},{"internalType":"string","name":"_message","type":"string"}],"name":"gift","outputs":[],"stateMutability":"nonpayable","type":"function"},{"inputs":[],"name":"sizeToken","outputs":[{"internalType":"contract IERC20","name":"","type":"address"}],"stateMutability":"view","type":"function"}],"evm":{"bytecode":{"linkReferences":{},"object":"60a0346100b557601f61078438819003918201601f19168301916001600160401b038311848410176100ba578084926020946040528339810103126100b557516001600160a01b038116908190036100b55760017f9b779b17422d0df92223018b32b4d1fa46e071723d6817e2486d003becc55f005580156100a3576080526040516106b390816100d18239608051818181606201528181610131015261043d0152f35b60405163d92e233d60e01b8152600490fd5b600080fd5b634e487b7160e01b600052604160045260246000fdfe6040608081526004908136101561001557600080fd5b600091823560e01c9081631386b2d51461038757816368cbe388146100b057508063950bff9f146100955763a6df08311461004f57600080fd5b34610091578160031936011261009157517f00000000000000000000000000000000000000000000000000000000000000006001600160a01b03168152602090f35b5080fd5b50346100915781600319360112610091576020905160648152f35b9190503461038357806003193601126103835767ffffffffffffffff90823582811161037f576100e3903690850161053e565b60249491949360243590811161037b57610100903690840161053e565b95909161010b6105ae565b8681036103465760648111610336578015610326578791885b88811061028157506101597f0000000000000000000000000000000000000000000000000000000000000000933033866105f0565b885b82811061018a578960017f9b779b17422d0df92223018b32b4d1fa46e071723d6817e2486d003becc55f005580f35b61019d610198828585610574565b61059a565b6101a8828b88610574565b885163a9059cbb60e01b8d526001600160a01b03928316895290358a5260209190828d604481808b5af18d600180915114821615610263575b50818b521561024e57509082918b8d61020b856102046101986001998c8c610574565b938c610574565b35818d51956060928752860152808d86015284015216907f9f1e2b2937aeef46b6320d93242ddf7992586ecb4f619ee50ce470877fffe7e960803392a30161015b565b635274afe760e01b8152908616818901528990fd5b81151661027857873b15153d151616386101e1565b503d8d823e3d90fd5b9261028d848a87610574565b3515610316576001600160a01b03806102aa610198878787610574565b16156103065733906102c0610198878787610574565b16146102f6576102d1848a87610574565b3581018091116102e45792600101610124565b634e487b7160e01b8a5260118652878afd5b8651636996c19360e01b81528690fd5b875163d92e233d60e01b81528790fd5b8651631f2a200560e01b81528690fd5b8451631f2a200560e01b81528490fd5b84516305beb17160e11b81528490fd5b845162461bcd60e51b8152602081860152600f60248201526e098cadccee8d040dad2e6dac2e8c6d608b1b6044820152606490fd5b8680fd5b8480fd5b8280fd5b9050346103835760803660031901126103835780356001600160a01b0381169283820361037f5760243592604435926064359067ffffffffffffffff9283831161053a573660238401121561053a578281013593841161053a57366024858501011161053a576103f56105ae565b861561052c57871561051e5733881461051057608c84116105025750869291610461877f9f1e2b2937aeef46b6320d93242ddf7992586ecb4f619ee50ce470877fffe7e993337f00000000000000000000000000000000000000000000000000000000000000006105f0565b82602486519289845288602085015260608885015282606085015201608083013788608084830101526080813394601f80199101168101030190a3816104ca575b8460017f9b779b17422d0df92223018b32b4d1fa46e071723d6817e2486d003becc55f005580f35b7f585d4deaddd0e69dcae4245296cd2f67ddf80496727fc4d93780c62311d7cd6091815193845260208401523392a3388080806104a2565b84516347e8b47560e11b8152fd5b8451636996c19360e01b8152fd5b845163d92e233d60e01b8152fd5b8451631f2a200560e01b8152fd5b8880fd5b9181601f8401121561056f5782359167ffffffffffffffff831161056f576020808501948460051b01011161056f57565b600080fd5b91908110156105845760051b0190565b634e487b7160e01b600052603260045260246000fd5b356001600160a01b038116810361056f5790565b7f9b779b17422d0df92223018b32b4d1fa46e071723d6817e2486d003becc55f0060028154146105de5760029055565b604051633ee5aeb560e01b8152600490fd5b6040516323b872dd60e01b60009081526001600160a01b03938416600452938316602452604494909452909160209060648180855af160016000511481161561065d575b8360405260006060521561064757505050565b635274afe760e01b835216600482015260249150fd5b600181151661067357813b15153d151616610634565b833d6000823e3d90fdfea26469706673582212203f046ad719f38f947f9584d00ae86e5f8d95dbc2d0fe9c0d337f82012039ce6a64736f6c63430008180033","opcodes":"PUSH1 0xA0 CALLVALUE PUSH2 0xB5 JUMPI PUSH1 0x1F PUSH2 0x784 CODESIZE DUP2 SWAP1 SUB SWAP2 DUP3 ADD PUSH1 0x1F NOT AND DUP4 ADD SWAP2 PUSH1 0x1 PUSH1 0x1 PUSH1 0x40 SHL SUB DUP4 GT DUP5 DUP5 LT OR PUSH2 0xBA JUMPI DUP1 DUP5 SWAP3 PUSH1 0x20 SWAP5 PUSH1 0x40 MSTORE DUP4 CODECOPY DUP2 ADD SUB SLT PUSH2 0xB5 JUMPI MLOAD PUSH1 0x1 PUSH1 0x1 PUSH1 0xA0 SHL SUB DUP2 AND SWAP1 DUP2 SWAP1 SUB PUSH2 0xB5 JUMPI PUSH1 0x1 PUSH32 0x9B779B17422D0DF92223018B32B4D1FA46E071723D6817E2486D003BECC55F00 SSTORE DUP1 ISZERO PUSH2 0xA3 JUMPI PUSH1 0x80 MSTORE PUSH1 0x40 MLOAD PUSH2 0x6B3 SWAP1 DUP2 PUSH2 0xD1 DUP3 CODECOPY PUSH1 0x80 MLOAD DUP2 DUP2 DUP2 PUSH1 0x62 ADD MSTORE DUP2 DUP2 PUSH2 0x131 ADD MSTORE PUSH2 0x43D ADD MSTORE RETURN JUMPDEST PUSH1 0x40 MLOAD PUSH4 0xD92E233D PUSH1 0xE0 SHL DUP2 MSTORE PUSH1 0x4 SWAP1 REVERT JUMPDEST PUSH1 0x0 DUP1 REVERT JUMPDEST PUSH4 0x4E487B71 PUSH1 0xE0 SHL PUSH1 0x0 MSTORE PUSH1 0x41 PUSH1 0x4 MSTORE PUSH1 0x24 PUSH1 0x0 REVERT INVALID PUSH1 0x40 PUSH1 0x80 DUP2 MSTORE PUSH1 0x4 SWAP1 DUP2 CALLDATASIZE LT ISZERO PUSH2 0x15 JUMPI PUSH1 0x0 DUP1 REVERT JUMPDEST PUSH1 0x0 SWAP2 DUP3 CALLDATALOAD PUSH1 0xE0 SHR SWAP1 DUP2 PUSH4 0x1386B2D5 EQ PUSH2 0x387 JUMPI DUP2 PUSH4 0x68CBE388 EQ PUSH2 0xB0 JUMPI POP DUP1 PUSH4 0x950BFF9F EQ PUSH2 0x95 JUMPI PUSH4 0xA6DF0831 EQ PUSH2 0x4F JUMPI PUSH1 0x0 DUP1 REVERT JUMPDEST CALLVALUE PUSH2 0x91 JUMPI DUP2 PUSH1 0x3 NOT CALLDATASIZE ADD SLT PUSH2 0x91 JUMPI MLOAD PUSH32 0x0 PUSH1 0x1 PUSH1 0x1 PUSH1 0xA0 SHL SUB AND DUP2 MSTORE PUSH1 0x20 SWAP1 RETURN JUMPDEST POP DUP1 REVERT JUMPDEST POP CALLVALUE PUSH2 0x91 JUMPI DUP2 PUSH1 0x3 NOT CALLDATASIZE ADD SLT PUSH2 0x91 JUMPI PUSH1 0x20 SWAP1 MLOAD PUSH1 0x64 DUP2 MSTORE RETURN JUMPDEST SWAP2 SWAP1 POP CALLVALUE PUSH2 0x383 JUMPI DUP1 PUSH1 0x3 NOT CALLDATASIZE ADD SLT PUSH2 0x383 JUMPI PUSH8 0xFFFFFFFFFFFFFFFF SWAP1 DUP3 CALLDATALOAD DUP3 DUP2 GT PUSH2 0x37F JUMPI PUSH2 0xE3 SWAP1 CALLDATASIZE SWAP1 DUP6 ADD PUSH2 0x53E JUMP JUMPDEST PUSH1 0x24 SWAP5 SWAP2 SWAP5 SWAP4 PUSH1 0x24 CALLDATALOAD SWAP1 DUP2 GT PUSH2 0x37B JUMPI PUSH2 0x100 SWAP1 CALLDATASIZE SWAP1 DUP5 ADD PUSH2 0x53E JUMP JUMPDEST SWAP6 SWAP1 SWAP2 PUSH2 0x10B PUSH2 0x5AE JUMP JUMPDEST DUP7 DUP2 SUB PUSH2 0x346 JUMPI PUSH1 0x64 DUP2 GT PUSH2 0x336 JUMPI DUP1 ISZERO PUSH2 0x326 JUMPI DUP8 SWAP2 DUP9 JUMPDEST DUP9 DUP2 LT PUSH2 0x281 JUMPI POP PUSH2 0x159 PUSH32 0x0 SWAP4 ADDRESS CALLER DUP7 PUSH2 0x5F0 JUMP JUMPDEST DUP9 JUMPDEST DUP3 DUP2 LT PUSH2 0x18A JUMPI DUP10 PUSH1 0x1 PUSH32 0x9B779B17422D0DF92223018B32B4D1FA46E071723D6817E2486D003BECC55F00 SSTORE DUP1 RETURN JUMPDEST PUSH2 0x19D PUSH2 0x198 DUP3 DUP6 DUP6 PUSH2 0x574 JUMP JUMPDEST PUSH2 0x59A JUMP JUMPDEST PUSH2 0x1A8 DUP3 DUP12 DUP9 PUSH2 0x574 JUMP JUMPDEST DUP9 MLOAD PUSH4 0xA9059CBB PUSH1 0xE0 SHL DUP14 MSTORE PUSH1 0x1 PUSH1 0x1 PUSH1 0xA0 SHL SUB SWAP3 DUP4 AND DUP10 MSTORE SWAP1 CALLDATALOAD DUP11 MSTORE PUSH1 0x20 SWAP2 SWAP1 DUP3 DUP14 PUSH1 0x44 DUP2 DUP1 DUP12 GAS CALL DUP14 PUSH1 0x1 DUP1 SWAP2 MLOAD EQ DUP3 AND ISZERO PUSH2 0x263 JUMPI JUMPDEST POP DUP2 DUP12 MSTORE ISZERO PUSH2 0x24E JUMPI POP SWAP1 DUP3 SWAP2 DUP12 DUP14 PUSH2 0x20B DUP6 PUSH2 0x204 PUSH2 0x198 PUSH1 0x1 SWAP10 DUP13 DUP13 PUSH2 0x574 JUMP JUMPDEST SWAP4 DUP13 PUSH2 0x574 JUMP JUMPDEST CALLDATALOAD DUP2 DUP14 MLOAD SWAP6 PUSH1 0x60 SWAP3 DUP8 MSTORE DUP7 ADD MSTORE DUP1 DUP14 DUP7 ADD MSTORE DUP5 ADD MSTORE AND SWAP1 PUSH32 0x9F1E2B2937AEEF46B6320D93242DDF7992586ECB4F619EE50CE470877FFFE7E9 PUSH1 0x80 CALLER SWAP3 LOG3 ADD PUSH2 0x15B JUMP JUMPDEST PUSH4 0x5274AFE7 PUSH1 0xE0 SHL DUP2 MSTORE SWAP1 DUP7 AND DUP2 DUP10 ADD MSTORE DUP10 SWAP1 REVERT JUMPDEST DUP2 ISZERO AND PUSH2 0x278 JUMPI DUP8 EXTCODESIZE ISZERO ISZERO RETURNDATASIZE ISZERO AND AND CODESIZE PUSH2 0x1E1 JUMP JUMPDEST POP RETURNDATASIZE DUP14 DUP3 RETURNDATACOPY RETURNDATASIZE SWAP1 REVERT JUMPDEST SWAP3 PUSH2 0x28D DUP5 DUP11 DUP8 PUSH2 0x574 JUMP JUMPDEST CALLDATALOAD ISZERO PUSH2 0x316 JUMPI PUSH1 0x1 PUSH1 0x1 PUSH1 0xA0 SHL SUB DUP1 PUSH2 0x2AA PUSH2 0x198 DUP8 DUP8 DUP8 PUSH2 0x574 JUMP JUMPDEST AND ISZERO PUSH2 0x306 JUMPI CALLER SWAP1 PUSH2 0x2C0 PUSH2 0x198 DUP8 DUP8 DUP8 PUSH2 0x574 JUMP JUMPDEST AND EQ PUSH2 0x2F6 JUMPI PUSH2 0x2D1 DUP5 DUP11 DUP8 PUSH2 0x574 JUMP JUMPDEST CALLDATALOAD DUP2 ADD DUP1 SWAP2 GT PUSH2 0x2E4 JUMPI SWAP3 PUSH1 0x1 ADD PUSH2 0x124 JUMP JUMPDEST PUSH4 0x4E487B71 PUSH1 0xE0 SHL DUP11 MSTORE PUSH1 0x11 DUP7 MSTORE DUP8 DUP11 REVERT JUMPDEST DUP7 MLOAD PUSH4 0x6996C193 PUSH1 0xE0 SHL DUP2 MSTORE DUP7 SWAP1 REVERT JUMPDEST DUP8 MLOAD PUSH4 0xD92E233D PUSH1 0xE0 SHL DUP2 MSTORE DUP8 SWAP1 REVERT JUMPDEST DUP7 MLOAD PUSH4 0x1F2A2005 PUSH1 0xE0 SHL DUP2 MSTORE DUP7 SWAP1 REVERT JUMPDEST DUP5 MLOAD PUSH4 0x1F2A2005 PUSH1 0xE0 SHL DUP2 MSTORE DUP5 SWAP1 REVERT JUMPDEST DUP5 MLOAD PUSH4 0x5BEB171 PUSH1 0xE1 SHL DUP2 MSTORE DUP5 SWAP1 REVERT JUMPDEST DUP5 MLOAD PUSH3 0x461BCD PUSH1 0xE5 SHL DUP2 MSTORE PUSH1 0x20 DUP2 DUP7 ADD MSTORE PUSH1 0xF PUSH1 0x24 DUP3 ADD MSTORE PUSH15 0x98CADCCEE8D040DAD2E6DAC2E8C6D PUSH1 0x8B SHL PUSH1 0x44 DUP3 ADD MSTORE PUSH1 0x64 SWAP1 REVERT JUMPDEST DUP7 DUP1 REVERT JUMPDEST DUP5 DUP1 REVERT JUMPDEST DUP3 DUP1 REVERT JUMPDEST SWAP1 POP CALLVALUE PUSH2 0x383 JUMPI PUSH1 0x80 CALLDATASIZE PUSH1 0x3 NOT ADD SLT PUSH2 0x383 JUMPI DUP1 CALLDATALOAD PUSH1 0x1 PUSH1 0x1 PUSH1 0xA0 SHL SUB DUP2 AND SWAP3 DUP4 DUP3 SUB PUSH2 0x37F JUMPI PUSH1 0x24 CALLDATALOAD SWAP3 PUSH1 0x44 CALLDATALOAD SWAP3 PUSH1 0x64 CALLDATALOAD SWAP1 PUSH8 0xFFFFFFFFFFFFFFFF SWAP3 DUP4 DUP4 GT PUSH2 0x53A JUMPI CALLDATASIZE PUSH1 0x23 DUP5 ADD SLT ISZERO PUSH2 0x53A JUMPI DUP3 DUP2 ADD CALLDATALOAD SWAP4 DUP5 GT PUSH2 0x53A JUMPI CALLDATASIZE PUSH1 0x24 DUP6 DUP6 ADD ADD GT PUSH2 0x53A JUMPI PUSH2 0x3F5 PUSH2 0x5AE JUMP JUMPDEST DUP7 ISZERO PUSH2 0x52C JUMPI DUP8 ISZERO PUSH2 0x51E JUMPI CALLER DUP9 EQ PUSH2 0x510 JUMPI PUSH1 0x8C DUP5 GT PUSH2 0x502 JUMPI POP DUP7 SWAP3 SWAP2 PUSH2 0x461 DUP8 PUSH32 0x9F1E2B2937AEEF46B6320D93242DDF7992586ECB4F619EE50CE470877FFFE7E9 SWAP4 CALLER PUSH32 0x0 PUSH2 0x5F0 JUMP JUMPDEST DUP3 PUSH1 0x24 DUP7 MLOAD SWAP3 DUP10 DUP5 MSTORE DUP9 PUSH1 0x20 DUP6 ADD MSTORE PUSH1 0x60 DUP9 DUP6 ADD MSTORE DUP3 PUSH1 0x60 DUP6 ADD MSTORE ADD PUSH1 0x80 DUP4 ADD CALLDATACOPY DUP9 PUSH1 0x80 DUP5 DUP4 ADD ADD MSTORE PUSH1 0x80 DUP2 CALLER SWAP5 PUSH1 0x1F DUP1 NOT SWAP2 ADD AND DUP2 ADD SUB ADD SWAP1 LOG3 DUP2 PUSH2 0x4CA JUMPI JUMPDEST DUP5 PUSH1 0x1 PUSH32 0x9B779B17422D0DF92223018B32B4D1FA46E071723D6817E2486D003BECC55F00 SSTORE DUP1 RETURN JUMPDEST PUSH32 0x585D4DEADDD0E69DCAE4245296CD2F67DDF80496727FC4D93780C62311D7CD60 SWAP2 DUP2 MLOAD SWAP4 DUP5 MSTORE PUSH1 0x20 DUP5 ADD MSTORE CALLER SWAP3 LOG3 CODESIZE DUP1 DUP1 DUP1 PUSH2 0x4A2 JUMP JUMPDEST DUP5 MLOAD PUSH4 0x47E8B475 PUSH1 0xE1 SHL DUP2 MSTORE REVERT JUMPDEST DUP5 MLOAD PUSH4 0x6996C193 PUSH1 0xE0 SHL DUP2 MSTORE REVERT JUMPDEST DUP5 MLOAD PUSH4 0xD92E233D PUSH1 0xE0 SHL DUP2 MSTORE REVERT JUMPDEST DUP5 MLOAD PUSH4 0x1F2A2005 PUSH1 0xE0 SHL DUP2 MSTORE REVERT JUMPDEST DUP9 DUP1 REVERT JUMPDEST SWAP2 DUP2 PUSH1 0x1F DUP5 ADD SLT ISZERO PUSH2 0x56F JUMPI DUP3 CALLDATALOAD SWAP2 PUSH8 0xFFFFFFFFFFFFFFFF DUP4 GT PUSH2 0x56F JUMPI PUSH1 0x20 DUP1 DUP6 ADD SWAP5 DUP5 PUSH1 0x5 SHL ADD ADD GT PUSH2 0x56F JUMPI JUMP JUMPDEST PUSH1 0x0 DUP1 REVERT JUMPDEST SWAP2 SWAP1 DUP2 LT ISZERO PUSH2 0x584 JUMPI PUSH1 0x5 SHL ADD SWAP1 JUMP JUMPDEST PUSH4 0x4E487B71 PUSH1 0xE0 SHL PUSH1 0x0 MSTORE PUSH1 0x32 PUSH1 0x4 MSTORE PUSH1 0x24 PUSH1 0x0 REVERT JUMPDEST CALLDATALOAD PUSH1 0x1 PUSH1 0x1 PUSH1 0xA0 SHL SUB DUP2 AND DUP2 SUB PUSH2 0x56F JUMPI SWAP1 JUMP JUMPDEST PUSH32 0x9B779B17422D0DF92223018B32B4D1FA46E071723D6817E2486D003BECC55F00 PUSH1 0x2 DUP2 SLOAD EQ PUSH2 0x5DE JUMPI PUSH1 0x2 SWAP1 SSTORE JUMP JUMPDEST PUSH1 0x40 MLOAD PUSH4 0x3EE5AEB5 PUSH1 0xE0 SHL DUP2 MSTORE PUSH1 0x4 SWAP1 REVERT JUMPDEST PUSH1 0x40 MLOAD PUSH4 0x23B872DD PUSH1 0xE0 SHL PUSH1 0x0 SWAP1 DUP2 MSTORE PUSH1 0x1 PUSH1 0x1 PUSH1 0xA0 SHL SUB SWAP4 DUP5 AND PUSH1 0x4 MSTORE SWAP4 DUP4 AND PUSH1 0x24 MSTORE PUSH1 0x44 SWAP5 SWAP1 SWAP5 MSTORE SWAP1 SWAP2 PUSH1 0x20 SWAP1 PUSH1 0x64 DUP2 DUP1 DUP6 GAS CALL PUSH1 0x1 PUSH1 0x0 MLOAD EQ DUP2 AND ISZERO PUSH2 0x65D JUMPI JUMPDEST DUP4 PUSH1 0x40 MSTORE PUSH1 0x0 PUSH1 0x60 MSTORE ISZERO PUSH2 0x647 JUMPI POP POP POP JUMP JUMPDEST PUSH4 0x5274AFE7 PUSH1 0xE0 SHL DUP4 MSTORE AND PUSH1 0x4 DUP3 ADD MSTORE PUSH1 0x24 SWAP2 POP REVERT JUMPDEST PUSH1 0x1 DUP2 ISZERO AND PUSH2 0x673 JUMPI DUP2 EXTCODESIZE ISZERO ISZERO RETURNDATASIZE ISZERO AND AND PUSH2 0x634 JUMP JUMPDEST DUP4 RETURNDATASIZE PUSH1 0x0 DUP3 RETURNDATACOPY RETURNDATASIZE SWAP1 REVERT INVALID LOG2 PUSH5 0x6970667358 0x22 SLT KECCAK256 EXTCODEHASH DIV PUSH11 0xD719F38F947F9584D00AE8 PUSH15 0x5F8D95DBC2D0FE9C0D337F82012039 0xCE PUSH11 0x64736F6C63430008180033 "},"methodIdentifiers":{"MAX_BATCH()":"950bff9f","batchGift(address[],uint256[])":"68cbe388","gift(address,uint256,bytes32,string)":"1386b2d5","sizeToken()":"a6df0831"}}}}}