{"contracts/SizeRewards.sol":{"SizeRewards":{"abi":[{"inputs":[{"internalType":"address","name":"_sizeToken","type":"address"},{"internalType":"address","name":"_protocolWallet","type":"address"},{"internalType":"address","name":"_gasWallet","type":"address"}],"stateMutability":"nonpayable","type":"constructor"},{"inputs":[],"name":"AlreadyClaimed","type":"error"},{"inputs":[],"name":"ArrayTooLong","type":"error"},{"inputs":[],"name":"EpochAlreadyFinalized","type":"error"},{"inputs":[],"name":"EpochNotFinalized","type":"error"},{"inputs":[],"name":"NotDistributor","type":"error"},{"inputs":[],"name":"NothingToClaim","type":"error"},{"inputs":[{"internalType":"address","name":"owner","type":"address"}],"name":"OwnableInvalidOwner","type":"error"},{"inputs":[{"internalType":"address","name":"account","type":"address"}],"name":"OwnableUnauthorizedAccount","type":"error"},{"inputs":[],"name":"ReentrancyGuardReentrantCall","type":"error"},{"inputs":[{"internalType":"address","name":"token","type":"address"}],"name":"SafeERC20FailedOperation","type":"error"},{"inputs":[],"name":"TooSoon","type":"error"},{"inputs":[],"name":"ZeroAddress","type":"error"},{"inputs":[],"name":"ZeroAmount","type":"error"},{"anonymous":false,"inputs":[{"indexed":true,"internalType":"address","name":"distributor","type":"address"},{"indexed":false,"internalType":"bool","name":"status","type":"bool"}],"name":"DistributorUpdated","type":"event"},{"anonymous":false,"inputs":[{"indexed":false,"internalType":"uint256","name":"epoch","type":"uint256"},{"indexed":false,"internalType":"uint256","name":"totalPool","type":"uint256"},{"indexed":false,"internalType":"uint256","name":"totalWeight","type":"uint256"}],"name":"EpochFinalized","type":"event"},{"anonymous":false,"inputs":[{"indexed":true,"internalType":"address","name":"previousOwner","type":"address"},{"indexed":true,"internalType":"address","name":"newOwner","type":"address"}],"name":"OwnershipTransferStarted","type":"event"},{"anonymous":false,"inputs":[{"indexed":true,"internalType":"address","name":"previousOwner","type":"address"},{"indexed":true,"internalType":"address","name":"newOwner","type":"address"}],"name":"OwnershipTransferred","type":"event"},{"anonymous":false,"inputs":[{"indexed":true,"internalType":"address","name":"user","type":"address"},{"indexed":false,"internalType":"uint256","name":"amount","type":"uint256"},{"indexed":false,"internalType":"uint256","name":"epoch","type":"uint256"}],"name":"RewardsClaimed","type":"event"},{"anonymous":false,"inputs":[{"indexed":false,"internalType":"uint256","name":"amount","type":"uint256"},{"indexed":false,"internalType":"uint256","name":"epoch","type":"uint256"}],"name":"RewardsDeposited","type":"event"},{"anonymous":false,"inputs":[{"indexed":false,"internalType":"uint256","name":"epoch","type":"uint256"},{"indexed":true,"internalType":"address","name":"user","type":"address"},{"indexed":false,"internalType":"uint256","name":"weight","type":"uint256"}],"name":"UserWeightSet","type":"event"},{"inputs":[],"name":"acceptOwnership","outputs":[],"stateMutability":"nonpayable","type":"function"},{"inputs":[{"internalType":"uint256[]","name":"_epochs","type":"uint256[]"}],"name":"claimMultipleEpochs","outputs":[],"stateMutability":"nonpayable","type":"function"},{"inputs":[{"internalType":"uint256","name":"_epoch","type":"uint256"}],"name":"claimRewards","outputs":[],"stateMutability":"nonpayable","type":"function"},{"inputs":[],"name":"currentEpoch","outputs":[{"internalType":"uint256","name":"","type":"uint256"}],"stateMutability":"view","type":"function"},{"inputs":[{"internalType":"uint256","name":"_amount","type":"uint256"}],"name":"depositRewards","outputs":[],"stateMutability":"nonpayable","type":"function"},{"inputs":[{"internalType":"uint256","name":"","type":"uint256"},{"internalType":"address","name":"","type":"address"}],"name":"epochClaimed","outputs":[{"internalType":"bool","name":"","type":"bool"}],"stateMutability":"view","type":"function"},{"inputs":[{"internalType":"uint256","name":"","type":"uint256"}],"name":"epochs","outputs":[{"internalType":"uint256","name":"totalPool","type":"uint256"},{"internalType":"uint256","name":"totalWeight","type":"uint256"},{"internalType":"uint256","name":"timestamp","type":"uint256"},{"internalType":"bool","name":"finalized","type":"bool"}],"stateMutability":"view","type":"function"},{"inputs":[{"internalType":"uint256","name":"_totalWeight","type":"uint256"}],"name":"finalizeEpoch","outputs":[],"stateMutability":"nonpayable","type":"function"},{"inputs":[],"name":"gasWallet","outputs":[{"internalType":"address","name":"","type":"address"}],"stateMutability":"view","type":"function"},{"inputs":[{"internalType":"address","name":"_user","type":"address"},{"internalType":"uint256","name":"_epoch","type":"uint256"}],"name":"getClaimable","outputs":[{"internalType":"uint256","name":"","type":"uint256"}],"stateMutability":"view","type":"function"},{"inputs":[],"name":"getCurrentEpochInfo","outputs":[{"internalType":"uint256","name":"epoch","type":"uint256"},{"internalType":"uint256","name":"pool","type":"uint256"},{"internalType":"uint256","name":"lastDist","type":"uint256"},{"internalType":"uint256","name":"nextDist","type":"uint256"}],"stateMutability":"view","type":"function"},{"inputs":[{"internalType":"address","name":"","type":"address"}],"name":"isDistributor","outputs":[{"internalType":"bool","name":"","type":"bool"}],"stateMutability":"view","type":"function"},{"inputs":[],"name":"lastDistributionTime","outputs":[{"internalType":"uint256","name":"","type":"uint256"}],"stateMutability":"view","type":"function"},{"inputs":[],"name":"minDistributionInterval","outputs":[{"internalType":"uint256","name":"","type":"uint256"}],"stateMutability":"view","type":"function"},{"inputs":[],"name":"owner","outputs":[{"internalType":"address","name":"","type":"address"}],"stateMutability":"view","type":"function"},{"inputs":[],"name":"pendingOwner","outputs":[{"internalType":"address","name":"","type":"address"}],"stateMutability":"view","type":"function"},{"inputs":[],"name":"pendingRewardPool","outputs":[{"internalType":"uint256","name":"","type":"uint256"}],"stateMutability":"view","type":"function"},{"inputs":[],"name":"protocolWallet","outputs":[{"internalType":"address","name":"","type":"address"}],"stateMutability":"view","type":"function"},{"inputs":[],"name":"renounceOwnership","outputs":[],"stateMutability":"nonpayable","type":"function"},{"inputs":[{"internalType":"address","name":"_addr","type":"address"},{"internalType":"bool","name":"_status","type":"bool"}],"name":"setDistributor","outputs":[],"stateMutability":"nonpayable","type":"function"},{"inputs":[{"internalType":"address","name":"_wallet","type":"address"}],"name":"setGasWallet","outputs":[],"stateMutability":"nonpayable","type":"function"},{"inputs":[{"internalType":"address","name":"_wallet","type":"address"}],"name":"setProtocolWallet","outputs":[],"stateMutability":"nonpayable","type":"function"},{"inputs":[{"internalType":"address[]","name":"_users","type":"address[]"},{"internalType":"uint256[]","name":"_weights","type":"uint256[]"}],"name":"setUserWeights","outputs":[],"stateMutability":"nonpayable","type":"function"},{"inputs":[],"name":"sizeToken","outputs":[{"internalType":"contract IERC20","name":"","type":"address"}],"stateMutability":"view","type":"function"},{"inputs":[{"internalType":"address","name":"newOwner","type":"address"}],"name":"transferOwnership","outputs":[],"stateMutability":"nonpayable","type":"function"},{"inputs":[{"internalType":"uint256","name":"","type":"uint256"},{"internalType":"address","name":"","type":"address"}],"name":"userEpochWeight","outputs":[{"internalType":"uint256","name":"","type":"uint256"}],"stateMutability":"view","type":"function"}],"evm":{"bytecode":{"linkReferences":{},"object":"60a034620001a957601f620012d838819003918201601f1916830191906001600160401b03831184841017620001ae578160609285926040958652833981010312620001a9576200005082620001c4565b6200006b826200006360208601620001c4565b9401620001c4565b9060017f9b779b17422d0df92223018b32b4d1fa46e071723d6817e2486d003becc55f005533156200019157600180546001600160a01b03199081169091556000805433818416811783558651929593946001600160a01b0394939285929083167f8be0079c531659141344cd1fd0a4f28419497f9722a3daafe3b4186f6b6457e08980a36201437060065516908115801562000186575b80156200017b575b6200016c5750859683916080521683600254161760025516906003541617600355338152600b60205220600160ff19825416179055516110fe9081620001da82396080518181816105c80152818161082001528181610b8d0152610dab0152f35b63d92e233d60e01b8152600490fd5b50838316156200010b565b508388161562000103565b8251631e4fbdf760e01b815260006004820152602490fd5b600080fd5b634e487b7160e01b600052604160045260246000fd5b51906001600160a01b0382168203620001a95756fe60806040908082526004918236101561001757600080fd5b600092833560e01c92836306d6e63f14610e2f575082630962ef7914610cd95782632855314814610b2b578263455543ea14610ae857826352e199c514610abf5782636f5244b114610a8f578263715018a614610a2a57826375b1735014610a0b57826376671808146109ec57826379ba50971461096a578263899af3b1146109225782638bdf67f2146107e15782638da5cb5b146107b95782638f0c86fa1461077b578263986bce2c146105f7578263a6df0831146105b3578263babc394f14610571578263c6b61e4c14610521578263c7ce250114610502578263d2ec602a14610353578263d3e0400014610334578263d59ba0df14610294578263e30c397814610267578263e45c17e114610216578263f01e9a8b146101b457505063f2fde38b1461014557600080fd5b346101b15760203660031901126101b15761015e610ea0565b61016661107c565b600180546001600160a01b0319166001600160a01b0392831690811790915582549091167f38d16b8cac22d99fc7c124b9cd0de2d3fa1faef420bfe791d8c362d765e227008380a380f35b80fd5b90915034610212576020366003190112610212576101d0610ea0565b6101d861107c565b6001600160a01b03169182156102055750506bffffffffffffffffffffffff60a01b600254161760025580f35b5163d92e233d60e01b8152fd5b8280fd5b9091503461021257602036600319011261021257610232610ea0565b61023a61107c565b6001600160a01b03169182156102055750506bffffffffffffffffffffffff60a01b600354161760035580f35b83823461029057816003193601126102905760015490516001600160a01b039091168152602090f35b5080fd5b9150346102125780600319360112610212576102ae610ea0565b9060243580151592838203610330576102c561107c565b6001600160a01b031693841561032257509160209161031a7f19e1fee2e38695e60ad3ef8c81759c22d6d7ee56f9b8805363820a50da468a1894868852600b85528288209060ff801983541691151516179055565b51908152a280f35b825163d92e233d60e01b8152fd5b8580fd5b8382346102905781600319360112610290576020906006549051908152f35b9091503461021257816003193601126102125767ffffffffffffffff9181358381116104fe576103869036908401610e54565b90936024359081116103305761039f9036908501610e54565b919091338752602091600b835260ff858920541615806104ea575b6104da578181036104a5576101f48111610495578554958689526008845260ff6003878b20015416610487575087805b8281106103f5575080f35b847f5a47b7a358352b5564f2fd0ef2a388168645b52716fa636b1e66328cbfb6b5018861046461045485888f8f868f9b6104338f879060019f610eb6565b3592815260098b528181208d8060a01b039b8c6104596104548a8a8a610eb6565b610fb7565b168352522055610eb6565b9261047085898c610eb6565b35938251948d86528a8601521692a20188906103ea565b8551630cd9898f60e21b8152fd5b84516317a4d98760e31b81528690fd5b845162461bcd60e51b8152808701849052600f60248201526e098cadccee8d040dad2e6dac2e8c6d608b1b6044820152606490fd5b845163385296d560e01b81528690fd5b5087546001600160a01b03163314156103ba565b8480fd5b8382346102905781600319360112610290576020906007549051908152f35b909150346102125760203660031901126102125760809282913581526008602052209081549160018101549160ff6003600284015493015416928151948552602085015283015215156060820152f35b90915034610212578260031936011261021257608092505490600754906005549061059e60065483610f25565b92815194855260208501528301526060820152f35b838234610290578160031936011261029057517f00000000000000000000000000000000000000000000000000000000000000006001600160a01b03168152602090f35b838234610290576020366003190112610290578235338352600b60205260ff82842054161580610767575b610757576005548015159081610741575b506107315780156107215783549160075481516080810181811067ffffffffffffffff82111761070e57906106b0918452828152600360208201868152858301428152606084019160018352898b526008602052878b209451855551600185015551600284015551151591019060ff801983541691151516179055565b8460075542600555600184018085116106fb578655815193845260208401528201527fb463d19ecf455be65365092cf8e1db6934a0334cf8cd532ddf9964d01f36b5b290606090a180f35b634e487b7160e01b865260118752602486fd5b634e487b7160e01b875260418852602487fd5b8151631f2a200560e01b81528490fd5b8151636fed7d8560e01b81528490fd5b61074f915060065490610f25565b421085610633565b815163385296d560e01b81528490fd5b5082546001600160a01b0316331415610622565b8382346102905760203660031901126102905760209160ff9082906001600160a01b036107a6610ea0565b168152600b855220541690519015158152f35b838234610290578160031936011261029057905490516001600160a01b039091168152602090f35b8382346102905760203660031901126102905782356107fe610fcb565b338352600b60205260ff8284205416158061090e575b610757578015610721577f00000000000000000000000000000000000000000000000000000000000000009382516323b872dd60e01b85523382523060245282604452602085606481808a5af160018651148116156108ef575b81855285606052156108cf57507f8ad0c4905aa5603107e860e0c2b1a78e23eba312c30f8114a70d94d9e187f5af9394506108ab82600754610f25565b6007555482519182526020820152a160016000805160206110a98339815191525580f35b635274afe760e01b81526001600160a01b03861691810191909152602490fd5b600181151661090557863b15153d15161661086e565b503d85823e3d90fd5b5082546001600160a01b0316331415610814565b909150346102125781600319360112610212578160209360ff92610944610e8a565b90358252600a86528282206001600160a01b039091168252855220549151911615158152f35b915034610212578260031936011261021257600154916001600160a01b039133838516036109d55750506001600160a01b031991821660015582543392811683178455167f8be0079c531659141344cd1fd0a4f28419497f9722a3daafe3b4186f6b6457e08380a380f35b60249250519063118cdaa760e01b82523390820152fd5b9091503461021257826003193601126102125760209250549051908152f35b8382346102905781600319360112610290576020906005549051908152f35b83346101b157806003193601126101b157610a4361107c565b600180546001600160a01b03199081169091558154908116825581906001600160a01b03167f8be0079c531659141344cd1fd0a4f28419497f9722a3daafe3b4186f6b6457e08280a380f35b838234610290578060031936011261029057602090610ab8610aaf610ea0565b60243590610f32565b9051908152f35b83823461029057816003193601126102905760035490516001600160a01b039091168152602090f35b909150346102125781600319360112610212576020928291610b08610e8a565b90358252600985528282206001600160a01b039091168252845220549051908152f35b909150346102125760209182600319360112610cd557813567ffffffffffffffff81116104fe57610b5f9036908401610e54565b93610b68610fcb565b60648511610cc6578594865b818110610bd357505050508215610bc65783610bb184337f0000000000000000000000000000000000000000000000000000000000000000610ffb565b60016000805160206110a98339815191525580f35b516312d37ee560e31b8152fd5b610bde818386610eb6565b3596878952600884528589209060ff918260038201541615610cba57600a92838752888c20338d528752888c205416610cba57898b5260098652878b20338c5286528a888120548015610cac57610c39610c45918454610edc565b60018094015490610f05565b938415610cac5792610c76928a8387968f60019a9996528b528181203382528b52209060ff19825416179055610f25565b988751918252858201527fdacbdde355ba930696a362ea6738feb9f8bd52dfb3d81947558fd3217e23e325873392a25b01610b74565b505050975050600190610ca6565b50975050600190610ca6565b5050516317a4d98760e31b8152fd5b8380fd5b8382346102905760209081600319360112610212578335610cf8610fcb565b8084526008835281842060ff60038201541615610e1f57818552600a8452828520338652845260ff8386205416610e0f57818552600984528285203386528452828520548015610dff57906001610d53610d5c938354610edc565b91015490610f05565b928315610def57907fdacbdde355ba930696a362ea6738feb9f8bd52dfb3d81947558fd3217e23e3259291818652600a81528286203387528152828620600160ff19825416179055610dcf85337f0000000000000000000000000000000000000000000000000000000000000000610ffb565b82519485528401523392a260016000805160206110a98339815191525580f35b82516312d37ee560e31b81528690fd5b83516312d37ee560e31b81528790fd5b8251630c8d9eab60e31b81528690fd5b8251638cf7570760e01b81528690fd5b8490346102905781600319360112610290576002546001600160a01b03168152602090f35b9181601f84011215610e855782359167ffffffffffffffff8311610e85576020808501948460051b010111610e8557565b600080fd5b602435906001600160a01b0382168203610e8557565b600435906001600160a01b0382168203610e8557565b9190811015610ec65760051b0190565b634e487b7160e01b600052603260045260246000fd5b81810292918115918404141715610eef57565b634e487b7160e01b600052601160045260246000fd5b8115610f0f570490565b634e487b7160e01b600052601260045260246000fd5b91908201809211610eef57565b906000918183526008602052604083209160ff600384015416158015610fab575b610fa557600a602052604084209160018060a01b03169182855260205260ff604085205416610fa557604084600193610d5393610fa29752600960205282822090825260205220548354610edc565b90565b50505090565b50600183015415610f53565b356001600160a01b0381168103610e855790565b6000805160206110a98339815191526002815414610fe95760029055565b604051633ee5aeb560e01b8152600490fd5b60405163a9059cbb60e01b60009081526001600160a01b039384166004526024949094529260209060448180855af160016000511481161561105c575b836040521561104657505050565b635274afe760e01b835216600482015260249150fd5b600181151661107257813b15153d151616611038565b833d6000823e3d90fd5b6000546001600160a01b0316330361109057565b60405163118cdaa760e01b8152336004820152602490fdfe9b779b17422d0df92223018b32b4d1fa46e071723d6817e2486d003becc55f00a2646970667358221220f79b82a193e0dde7284a8396137763a331dccf23a1d8b000997013800446a1cb64736f6c63430008180033","opcodes":"PUSH1 0xA0 CALLVALUE PUSH3 0x1A9 JUMPI PUSH1 0x1F PUSH3 0x12D8 CODESIZE DUP2 SWAP1 SUB SWAP2 DUP3 ADD PUSH1 0x1F NOT AND DUP4 ADD SWAP2 SWAP1 PUSH1 0x1 PUSH1 0x1 PUSH1 0x40 SHL SUB DUP4 GT DUP5 DUP5 LT OR PUSH3 0x1AE JUMPI DUP2 PUSH1 0x60 SWAP3 DUP6 SWAP3 PUSH1 0x40 SWAP6 DUP7 MSTORE DUP4 CODECOPY DUP2 ADD SUB SLT PUSH3 0x1A9 JUMPI PUSH3 0x50 DUP3 PUSH3 0x1C4 JUMP JUMPDEST PUSH3 0x6B DUP3 PUSH3 0x63 PUSH1 0x20 DUP7 ADD PUSH3 0x1C4 JUMP JUMPDEST SWAP5 ADD PUSH3 0x1C4 JUMP JUMPDEST SWAP1 PUSH1 0x1 PUSH32 0x9B779B17422D0DF92223018B32B4D1FA46E071723D6817E2486D003BECC55F00 SSTORE CALLER ISZERO PUSH3 0x191 JUMPI PUSH1 0x1 DUP1 SLOAD PUSH1 0x1 PUSH1 0x1 PUSH1 0xA0 SHL SUB NOT SWAP1 DUP2 AND SWAP1 SWAP2 SSTORE PUSH1 0x0 DUP1 SLOAD CALLER DUP2 DUP5 AND DUP2 OR DUP4 SSTORE DUP7 MLOAD SWAP3 SWAP6 SWAP4 SWAP5 PUSH1 0x1 PUSH1 0x1 PUSH1 0xA0 SHL SUB SWAP5 SWAP4 SWAP3 DUP6 SWAP3 SWAP1 DUP4 AND PUSH32 0x8BE0079C531659141344CD1FD0A4F28419497F9722A3DAAFE3B4186F6B6457E0 DUP10 DUP1 LOG3 PUSH3 0x14370 PUSH1 0x6 SSTORE AND SWAP1 DUP2 ISZERO DUP1 ISZERO PUSH3 0x186 JUMPI JUMPDEST DUP1 ISZERO PUSH3 0x17B JUMPI JUMPDEST PUSH3 0x16C JUMPI POP DUP6 SWAP7 DUP4 SWAP2 PUSH1 0x80 MSTORE AND DUP4 PUSH1 0x2 SLOAD AND OR PUSH1 0x2 SSTORE AND SWAP1 PUSH1 0x3 SLOAD AND OR PUSH1 0x3 SSTORE CALLER DUP2 MSTORE PUSH1 0xB PUSH1 0x20 MSTORE KECCAK256 PUSH1 0x1 PUSH1 0xFF NOT DUP3 SLOAD AND OR SWAP1 SSTORE MLOAD PUSH2 0x10FE SWAP1 DUP2 PUSH3 0x1DA DUP3 CODECOPY PUSH1 0x80 MLOAD DUP2 DUP2 DUP2 PUSH2 0x5C8 ADD MSTORE DUP2 DUP2 PUSH2 0x820 ADD MSTORE DUP2 DUP2 PUSH2 0xB8D ADD MSTORE PUSH2 0xDAB ADD MSTORE RETURN JUMPDEST PUSH4 0xD92E233D PUSH1 0xE0 SHL DUP2 MSTORE PUSH1 0x4 SWAP1 REVERT JUMPDEST POP DUP4 DUP4 AND ISZERO PUSH3 0x10B JUMP JUMPDEST POP DUP4 DUP9 AND ISZERO PUSH3 0x103 JUMP JUMPDEST DUP3 MLOAD PUSH4 0x1E4FBDF7 PUSH1 0xE0 SHL DUP2 MSTORE PUSH1 0x0 PUSH1 0x4 DUP3 ADD MSTORE PUSH1 0x24 SWAP1 REVERT JUMPDEST PUSH1 0x0 DUP1 REVERT JUMPDEST PUSH4 0x4E487B71 PUSH1 0xE0 SHL PUSH1 0x0 MSTORE PUSH1 0x41 PUSH1 0x4 MSTORE PUSH1 0x24 PUSH1 0x0 REVERT JUMPDEST MLOAD SWAP1 PUSH1 0x1 PUSH1 0x1 PUSH1 0xA0 SHL SUB DUP3 AND DUP3 SUB PUSH3 0x1A9 JUMPI JUMP INVALID PUSH1 0x80 PUSH1 0x40 SWAP1 DUP1 DUP3 MSTORE PUSH1 0x4 SWAP2 DUP3 CALLDATASIZE LT ISZERO PUSH2 0x17 JUMPI PUSH1 0x0 DUP1 REVERT JUMPDEST PUSH1 0x0 SWAP3 DUP4 CALLDATALOAD PUSH1 0xE0 SHR SWAP3 DUP4 PUSH4 0x6D6E63F EQ PUSH2 0xE2F JUMPI POP DUP3 PUSH4 0x962EF79 EQ PUSH2 0xCD9 JUMPI DUP3 PUSH4 0x28553148 EQ PUSH2 0xB2B JUMPI DUP3 PUSH4 0x455543EA EQ PUSH2 0xAE8 JUMPI DUP3 PUSH4 0x52E199C5 EQ PUSH2 0xABF JUMPI DUP3 PUSH4 0x6F5244B1 EQ PUSH2 0xA8F JUMPI DUP3 PUSH4 0x715018A6 EQ PUSH2 0xA2A JUMPI DUP3 PUSH4 0x75B17350 EQ PUSH2 0xA0B JUMPI DUP3 PUSH4 0x76671808 EQ PUSH2 0x9EC JUMPI DUP3 PUSH4 0x79BA5097 EQ PUSH2 0x96A JUMPI DUP3 PUSH4 0x899AF3B1 EQ PUSH2 0x922 JUMPI DUP3 PUSH4 0x8BDF67F2 EQ PUSH2 0x7E1 JUMPI DUP3 PUSH4 0x8DA5CB5B EQ PUSH2 0x7B9 JUMPI DUP3 PUSH4 0x8F0C86FA EQ PUSH2 0x77B JUMPI DUP3 PUSH4 0x986BCE2C EQ PUSH2 0x5F7 JUMPI DUP3 PUSH4 0xA6DF0831 EQ PUSH2 0x5B3 JUMPI DUP3 PUSH4 0xBABC394F EQ PUSH2 0x571 JUMPI DUP3 PUSH4 0xC6B61E4C EQ PUSH2 0x521 JUMPI DUP3 PUSH4 0xC7CE2501 EQ PUSH2 0x502 JUMPI DUP3 PUSH4 0xD2EC602A EQ PUSH2 0x353 JUMPI DUP3 PUSH4 0xD3E04000 EQ PUSH2 0x334 JUMPI DUP3 PUSH4 0xD59BA0DF EQ PUSH2 0x294 JUMPI DUP3 PUSH4 0xE30C3978 EQ PUSH2 0x267 JUMPI DUP3 PUSH4 0xE45C17E1 EQ PUSH2 0x216 JUMPI DUP3 PUSH4 0xF01E9A8B EQ PUSH2 0x1B4 JUMPI POP POP PUSH4 0xF2FDE38B EQ PUSH2 0x145 JUMPI PUSH1 0x0 DUP1 REVERT JUMPDEST CALLVALUE PUSH2 0x1B1 JUMPI PUSH1 0x20 CALLDATASIZE PUSH1 0x3 NOT ADD SLT PUSH2 0x1B1 JUMPI PUSH2 0x15E PUSH2 0xEA0 JUMP JUMPDEST PUSH2 0x166 PUSH2 0x107C JUMP JUMPDEST PUSH1 0x1 DUP1 SLOAD PUSH1 0x1 PUSH1 0x1 PUSH1 0xA0 SHL SUB NOT AND PUSH1 0x1 PUSH1 0x1 PUSH1 0xA0 SHL SUB SWAP3 DUP4 AND SWAP1 DUP2 OR SWAP1 SWAP2 SSTORE DUP3 SLOAD SWAP1 SWAP2 AND PUSH32 0x38D16B8CAC22D99FC7C124B9CD0DE2D3FA1FAEF420BFE791D8C362D765E22700 DUP4 DUP1 LOG3 DUP1 RETURN JUMPDEST DUP1 REVERT JUMPDEST SWAP1 SWAP2 POP CALLVALUE PUSH2 0x212 JUMPI PUSH1 0x20 CALLDATASIZE PUSH1 0x3 NOT ADD SLT PUSH2 0x212 JUMPI PUSH2 0x1D0 PUSH2 0xEA0 JUMP JUMPDEST PUSH2 0x1D8 PUSH2 0x107C JUMP JUMPDEST PUSH1 0x1 PUSH1 0x1 PUSH1 0xA0 SHL SUB AND SWAP2 DUP3 ISZERO PUSH2 0x205 JUMPI POP POP PUSH12 0xFFFFFFFFFFFFFFFFFFFFFFFF PUSH1 0xA0 SHL PUSH1 0x2 SLOAD AND OR PUSH1 0x2 SSTORE DUP1 RETURN JUMPDEST MLOAD PUSH4 0xD92E233D PUSH1 0xE0 SHL DUP2 MSTORE REVERT JUMPDEST DUP3 DUP1 REVERT JUMPDEST SWAP1 SWAP2 POP CALLVALUE PUSH2 0x212 JUMPI PUSH1 0x20 CALLDATASIZE PUSH1 0x3 NOT ADD SLT PUSH2 0x212 JUMPI PUSH2 0x232 PUSH2 0xEA0 JUMP JUMPDEST PUSH2 0x23A PUSH2 0x107C JUMP JUMPDEST PUSH1 0x1 PUSH1 0x1 PUSH1 0xA0 SHL SUB AND SWAP2 DUP3 ISZERO PUSH2 0x205 JUMPI POP POP PUSH12 0xFFFFFFFFFFFFFFFFFFFFFFFF PUSH1 0xA0 SHL PUSH1 0x3 SLOAD AND OR PUSH1 0x3 SSTORE DUP1 RETURN JUMPDEST DUP4 DUP3 CALLVALUE PUSH2 0x290 JUMPI DUP2 PUSH1 0x3 NOT CALLDATASIZE ADD SLT PUSH2 0x290 JUMPI PUSH1 0x1 SLOAD SWAP1 MLOAD PUSH1 0x1 PUSH1 0x1 PUSH1 0xA0 SHL SUB SWAP1 SWAP2 AND DUP2 MSTORE PUSH1 0x20 SWAP1 RETURN JUMPDEST POP DUP1 REVERT JUMPDEST SWAP2 POP CALLVALUE PUSH2 0x212 JUMPI DUP1 PUSH1 0x3 NOT CALLDATASIZE ADD SLT PUSH2 0x212 JUMPI PUSH2 0x2AE PUSH2 0xEA0 JUMP JUMPDEST SWAP1 PUSH1 0x24 CALLDATALOAD DUP1 ISZERO ISZERO SWAP3 DUP4 DUP3 SUB PUSH2 0x330 JUMPI PUSH2 0x2C5 PUSH2 0x107C JUMP JUMPDEST PUSH1 0x1 PUSH1 0x1 PUSH1 0xA0 SHL SUB AND SWAP4 DUP5 ISZERO PUSH2 0x322 JUMPI POP SWAP2 PUSH1 0x20 SWAP2 PUSH2 0x31A PUSH32 0x19E1FEE2E38695E60AD3EF8C81759C22D6D7EE56F9B8805363820A50DA468A18 SWAP5 DUP7 DUP9 MSTORE PUSH1 0xB DUP6 MSTORE DUP3 DUP9 KECCAK256 SWAP1 PUSH1 0xFF DUP1 NOT DUP4 SLOAD AND SWAP2 ISZERO ISZERO AND OR SWAP1 SSTORE JUMP JUMPDEST MLOAD SWAP1 DUP2 MSTORE LOG2 DUP1 RETURN JUMPDEST DUP3 MLOAD PUSH4 0xD92E233D PUSH1 0xE0 SHL DUP2 MSTORE REVERT JUMPDEST DUP6 DUP1 REVERT JUMPDEST DUP4 DUP3 CALLVALUE PUSH2 0x290 JUMPI DUP2 PUSH1 0x3 NOT CALLDATASIZE ADD SLT PUSH2 0x290 JUMPI PUSH1 0x20 SWAP1 PUSH1 0x6 SLOAD SWAP1 MLOAD SWAP1 DUP2 MSTORE RETURN JUMPDEST SWAP1 SWAP2 POP CALLVALUE PUSH2 0x212 JUMPI DUP2 PUSH1 0x3 NOT CALLDATASIZE ADD SLT PUSH2 0x212 JUMPI PUSH8 0xFFFFFFFFFFFFFFFF SWAP2 DUP2 CALLDATALOAD DUP4 DUP2 GT PUSH2 0x4FE JUMPI PUSH2 0x386 SWAP1 CALLDATASIZE SWAP1 DUP5 ADD PUSH2 0xE54 JUMP JUMPDEST SWAP1 SWAP4 PUSH1 0x24 CALLDATALOAD SWAP1 DUP2 GT PUSH2 0x330 JUMPI PUSH2 0x39F SWAP1 CALLDATASIZE SWAP1 DUP6 ADD PUSH2 0xE54 JUMP JUMPDEST SWAP2 SWAP1 SWAP2 CALLER DUP8 MSTORE PUSH1 0x20 SWAP2 PUSH1 0xB DUP4 MSTORE PUSH1 0xFF DUP6 DUP10 KECCAK256 SLOAD AND ISZERO DUP1 PUSH2 0x4EA JUMPI JUMPDEST PUSH2 0x4DA JUMPI DUP2 DUP2 SUB PUSH2 0x4A5 JUMPI PUSH2 0x1F4 DUP2 GT PUSH2 0x495 JUMPI DUP6 SLOAD SWAP6 DUP7 DUP10 MSTORE PUSH1 0x8 DUP5 MSTORE PUSH1 0xFF PUSH1 0x3 DUP8 DUP12 KECCAK256 ADD SLOAD AND PUSH2 0x487 JUMPI POP DUP8 DUP1 JUMPDEST DUP3 DUP2 LT PUSH2 0x3F5 JUMPI POP DUP1 RETURN JUMPDEST DUP5 PUSH32 0x5A47B7A358352B5564F2FD0EF2A388168645B52716FA636B1E66328CBFB6B501 DUP9 PUSH2 0x464 PUSH2 0x454 DUP6 DUP9 DUP16 DUP16 DUP7 DUP16 SWAP12 PUSH2 0x433 DUP16 DUP8 SWAP1 PUSH1 0x1 SWAP16 PUSH2 0xEB6 JUMP JUMPDEST CALLDATALOAD SWAP3 DUP2 MSTORE PUSH1 0x9 DUP12 MSTORE DUP2 DUP2 KECCAK256 DUP14 DUP1 PUSH1 0xA0 SHL SUB SWAP12 DUP13 PUSH2 0x459 PUSH2 0x454 DUP11 DUP11 DUP11 PUSH2 0xEB6 JUMP JUMPDEST PUSH2 0xFB7 JUMP JUMPDEST AND DUP4 MSTORE MSTORE KECCAK256 SSTORE PUSH2 0xEB6 JUMP JUMPDEST SWAP3 PUSH2 0x470 DUP6 DUP10 DUP13 PUSH2 0xEB6 JUMP JUMPDEST CALLDATALOAD SWAP4 DUP3 MLOAD SWAP5 DUP14 DUP7 MSTORE DUP11 DUP7 ADD MSTORE AND SWAP3 LOG2 ADD DUP9 SWAP1 PUSH2 0x3EA JUMP JUMPDEST DUP6 MLOAD PUSH4 0xCD9898F PUSH1 0xE2 SHL DUP2 MSTORE REVERT JUMPDEST DUP5 MLOAD PUSH4 0x17A4D987 PUSH1 0xE3 SHL DUP2 MSTORE DUP7 SWAP1 REVERT JUMPDEST DUP5 MLOAD PUSH3 0x461BCD PUSH1 0xE5 SHL DUP2 MSTORE DUP1 DUP8 ADD DUP5 SWAP1 MSTORE PUSH1 0xF PUSH1 0x24 DUP3 ADD MSTORE PUSH15 0x98CADCCEE8D040DAD2E6DAC2E8C6D PUSH1 0x8B SHL PUSH1 0x44 DUP3 ADD MSTORE PUSH1 0x64 SWAP1 REVERT JUMPDEST DUP5 MLOAD PUSH4 0x385296D5 PUSH1 0xE0 SHL DUP2 MSTORE DUP7 SWAP1 REVERT JUMPDEST POP DUP8 SLOAD PUSH1 0x1 PUSH1 0x1 PUSH1 0xA0 SHL SUB AND CALLER EQ ISZERO PUSH2 0x3BA JUMP JUMPDEST DUP5 DUP1 REVERT JUMPDEST DUP4 DUP3 CALLVALUE PUSH2 0x290 JUMPI DUP2 PUSH1 0x3 NOT CALLDATASIZE ADD SLT PUSH2 0x290 JUMPI PUSH1 0x20 SWAP1 PUSH1 0x7 SLOAD SWAP1 MLOAD SWAP1 DUP2 MSTORE RETURN JUMPDEST SWAP1 SWAP2 POP CALLVALUE PUSH2 0x212 JUMPI PUSH1 0x20 CALLDATASIZE PUSH1 0x3 NOT ADD SLT PUSH2 0x212 JUMPI PUSH1 0x80 SWAP3 DUP3 SWAP2 CALLDATALOAD DUP2 MSTORE PUSH1 0x8 PUSH1 0x20 MSTORE KECCAK256 SWAP1 DUP2 SLOAD SWAP2 PUSH1 0x1 DUP2 ADD SLOAD SWAP2 PUSH1 0xFF PUSH1 0x3 PUSH1 0x2 DUP5 ADD SLOAD SWAP4 ADD SLOAD AND SWAP3 DUP2 MLOAD SWAP5 DUP6 MSTORE PUSH1 0x20 DUP6 ADD MSTORE DUP4 ADD MSTORE ISZERO ISZERO PUSH1 0x60 DUP3 ADD MSTORE RETURN JUMPDEST SWAP1 SWAP2 POP CALLVALUE PUSH2 0x212 JUMPI DUP3 PUSH1 0x3 NOT CALLDATASIZE ADD SLT PUSH2 0x212 JUMPI PUSH1 0x80 SWAP3 POP SLOAD SWAP1 PUSH1 0x7 SLOAD SWAP1 PUSH1 0x5 SLOAD SWAP1 PUSH2 0x59E PUSH1 0x6 SLOAD DUP4 PUSH2 0xF25 JUMP JUMPDEST SWAP3 DUP2 MLOAD SWAP5 DUP6 MSTORE PUSH1 0x20 DUP6 ADD MSTORE DUP4 ADD MSTORE PUSH1 0x60 DUP3 ADD MSTORE RETURN JUMPDEST DUP4 DUP3 CALLVALUE PUSH2 0x290 JUMPI DUP2 PUSH1 0x3 NOT CALLDATASIZE ADD SLT PUSH2 0x290 JUMPI MLOAD PUSH32 0x0 PUSH1 0x1 PUSH1 0x1 PUSH1 0xA0 SHL SUB AND DUP2 MSTORE PUSH1 0x20 SWAP1 RETURN JUMPDEST DUP4 DUP3 CALLVALUE PUSH2 0x290 JUMPI PUSH1 0x20 CALLDATASIZE PUSH1 0x3 NOT ADD SLT PUSH2 0x290 JUMPI DUP3 CALLDATALOAD CALLER DUP4 MSTORE PUSH1 0xB PUSH1 0x20 MSTORE PUSH1 0xFF DUP3 DUP5 KECCAK256 SLOAD AND ISZERO DUP1 PUSH2 0x767 JUMPI JUMPDEST PUSH2 0x757 JUMPI PUSH1 0x5 SLOAD DUP1 ISZERO ISZERO SWAP1 DUP2 PUSH2 0x741 JUMPI JUMPDEST POP PUSH2 0x731 JUMPI DUP1 ISZERO PUSH2 0x721 JUMPI DUP4 SLOAD SWAP2 PUSH1 0x7 SLOAD DUP2 MLOAD PUSH1 0x80 DUP2 ADD DUP2 DUP2 LT PUSH8 0xFFFFFFFFFFFFFFFF DUP3 GT OR PUSH2 0x70E JUMPI SWAP1 PUSH2 0x6B0 SWAP2 DUP5 MSTORE DUP3 DUP2 MSTORE PUSH1 0x3 PUSH1 0x20 DUP3 ADD DUP7 DUP2 MSTORE DUP6 DUP4 ADD TIMESTAMP DUP2 MSTORE PUSH1 0x60 DUP5 ADD SWAP2 PUSH1 0x1 DUP4 MSTORE DUP10 DUP12 MSTORE PUSH1 0x8 PUSH1 0x20 MSTORE DUP8 DUP12 KECCAK256 SWAP5 MLOAD DUP6 SSTORE MLOAD PUSH1 0x1 DUP6 ADD SSTORE MLOAD PUSH1 0x2 DUP5 ADD SSTORE MLOAD ISZERO ISZERO SWAP2 ADD SWAP1 PUSH1 0xFF DUP1 NOT DUP4 SLOAD AND SWAP2 ISZERO ISZERO AND OR SWAP1 SSTORE JUMP JUMPDEST DUP5 PUSH1 0x7 SSTORE TIMESTAMP PUSH1 0x5 SSTORE PUSH1 0x1 DUP5 ADD DUP1 DUP6 GT PUSH2 0x6FB JUMPI DUP7 SSTORE DUP2 MLOAD SWAP4 DUP5 MSTORE PUSH1 0x20 DUP5 ADD MSTORE DUP3 ADD MSTORE PUSH32 0xB463D19ECF455BE65365092CF8E1DB6934A0334CF8CD532DDF9964D01F36B5B2 SWAP1 PUSH1 0x60 SWAP1 LOG1 DUP1 RETURN JUMPDEST PUSH4 0x4E487B71 PUSH1 0xE0 SHL DUP7 MSTORE PUSH1 0x11 DUP8 MSTORE PUSH1 0x24 DUP7 REVERT JUMPDEST PUSH4 0x4E487B71 PUSH1 0xE0 SHL DUP8 MSTORE PUSH1 0x41 DUP9 MSTORE PUSH1 0x24 DUP8 REVERT JUMPDEST DUP2 MLOAD PUSH4 0x1F2A2005 PUSH1 0xE0 SHL DUP2 MSTORE DUP5 SWAP1 REVERT JUMPDEST DUP2 MLOAD PUSH4 0x6FED7D85 PUSH1 0xE0 SHL DUP2 MSTORE DUP5 SWAP1 REVERT JUMPDEST PUSH2 0x74F SWAP2 POP PUSH1 0x6 SLOAD SWAP1 PUSH2 0xF25 JUMP JUMPDEST TIMESTAMP LT DUP6 PUSH2 0x633 JUMP JUMPDEST DUP2 MLOAD PUSH4 0x385296D5 PUSH1 0xE0 SHL DUP2 MSTORE DUP5 SWAP1 REVERT JUMPDEST POP DUP3 SLOAD PUSH1 0x1 PUSH1 0x1 PUSH1 0xA0 SHL SUB AND CALLER EQ ISZERO PUSH2 0x622 JUMP JUMPDEST DUP4 DUP3 CALLVALUE PUSH2 0x290 JUMPI PUSH1 0x20 CALLDATASIZE PUSH1 0x3 NOT ADD SLT PUSH2 0x290 JUMPI PUSH1 0x20 SWAP2 PUSH1 0xFF SWAP1 DUP3 SWAP1 PUSH1 0x1 PUSH1 0x1 PUSH1 0xA0 SHL SUB PUSH2 0x7A6 PUSH2 0xEA0 JUMP JUMPDEST AND DUP2 MSTORE PUSH1 0xB DUP6 MSTORE KECCAK256 SLOAD AND SWAP1 MLOAD SWAP1 ISZERO ISZERO DUP2 MSTORE RETURN JUMPDEST DUP4 DUP3 CALLVALUE PUSH2 0x290 JUMPI DUP2 PUSH1 0x3 NOT CALLDATASIZE ADD SLT PUSH2 0x290 JUMPI SWAP1 SLOAD SWAP1 MLOAD PUSH1 0x1 PUSH1 0x1 PUSH1 0xA0 SHL SUB SWAP1 SWAP2 AND DUP2 MSTORE PUSH1 0x20 SWAP1 RETURN JUMPDEST DUP4 DUP3 CALLVALUE PUSH2 0x290 JUMPI PUSH1 0x20 CALLDATASIZE PUSH1 0x3 NOT ADD SLT PUSH2 0x290 JUMPI DUP3 CALLDATALOAD PUSH2 0x7FE PUSH2 0xFCB JUMP JUMPDEST CALLER DUP4 MSTORE PUSH1 0xB PUSH1 0x20 MSTORE PUSH1 0xFF DUP3 DUP5 KECCAK256 SLOAD AND ISZERO DUP1 PUSH2 0x90E JUMPI JUMPDEST PUSH2 0x757 JUMPI DUP1 ISZERO PUSH2 0x721 JUMPI PUSH32 0x0 SWAP4 DUP3 MLOAD PUSH4 0x23B872DD PUSH1 0xE0 SHL DUP6 MSTORE CALLER DUP3 MSTORE ADDRESS PUSH1 0x24 MSTORE DUP3 PUSH1 0x44 MSTORE PUSH1 0x20 DUP6 PUSH1 0x64 DUP2 DUP1 DUP11 GAS CALL PUSH1 0x1 DUP7 MLOAD EQ DUP2 AND ISZERO PUSH2 0x8EF JUMPI JUMPDEST DUP2 DUP6 MSTORE DUP6 PUSH1 0x60 MSTORE ISZERO PUSH2 0x8CF JUMPI POP PUSH32 0x8AD0C4905AA5603107E860E0C2B1A78E23EBA312C30F8114A70D94D9E187F5AF SWAP4 SWAP5 POP PUSH2 0x8AB DUP3 PUSH1 0x7 SLOAD PUSH2 0xF25 JUMP JUMPDEST PUSH1 0x7 SSTORE SLOAD DUP3 MLOAD SWAP2 DUP3 MSTORE PUSH1 0x20 DUP3 ADD MSTORE LOG1 PUSH1 0x1 PUSH1 0x0 DUP1 MLOAD PUSH1 0x20 PUSH2 0x10A9 DUP4 CODECOPY DUP2 MLOAD SWAP2 MSTORE SSTORE DUP1 RETURN JUMPDEST PUSH4 0x5274AFE7 PUSH1 0xE0 SHL DUP2 MSTORE PUSH1 0x1 PUSH1 0x1 PUSH1 0xA0 SHL SUB DUP7 AND SWAP2 DUP2 ADD SWAP2 SWAP1 SWAP2 MSTORE PUSH1 0x24 SWAP1 REVERT JUMPDEST PUSH1 0x1 DUP2 ISZERO AND PUSH2 0x905 JUMPI DUP7 EXTCODESIZE ISZERO ISZERO RETURNDATASIZE ISZERO AND AND PUSH2 0x86E JUMP JUMPDEST POP RETURNDATASIZE DUP6 DUP3 RETURNDATACOPY RETURNDATASIZE SWAP1 REVERT JUMPDEST POP DUP3 SLOAD PUSH1 0x1 PUSH1 0x1 PUSH1 0xA0 SHL SUB AND CALLER EQ ISZERO PUSH2 0x814 JUMP JUMPDEST SWAP1 SWAP2 POP CALLVALUE PUSH2 0x212 JUMPI DUP2 PUSH1 0x3 NOT CALLDATASIZE ADD SLT PUSH2 0x212 JUMPI DUP2 PUSH1 0x20 SWAP4 PUSH1 0xFF SWAP3 PUSH2 0x944 PUSH2 0xE8A JUMP JUMPDEST SWAP1 CALLDATALOAD DUP3 MSTORE PUSH1 0xA DUP7 MSTORE DUP3 DUP3 KECCAK256 PUSH1 0x1 PUSH1 0x1 PUSH1 0xA0 SHL SUB SWAP1 SWAP2 AND DUP3 MSTORE DUP6 MSTORE KECCAK256 SLOAD SWAP2 MLOAD SWAP2 AND ISZERO ISZERO DUP2 MSTORE RETURN JUMPDEST SWAP2 POP CALLVALUE PUSH2 0x212 JUMPI DUP3 PUSH1 0x3 NOT CALLDATASIZE ADD SLT PUSH2 0x212 JUMPI PUSH1 0x1 SLOAD SWAP2 PUSH1 0x1 PUSH1 0x1 PUSH1 0xA0 SHL SUB SWAP2 CALLER DUP4 DUP6 AND SUB PUSH2 0x9D5 JUMPI POP POP PUSH1 0x1 PUSH1 0x1 PUSH1 0xA0 SHL SUB NOT SWAP2 DUP3 AND PUSH1 0x1 SSTORE DUP3 SLOAD CALLER SWAP3 DUP2 AND DUP4 OR DUP5 SSTORE AND PUSH32 0x8BE0079C531659141344CD1FD0A4F28419497F9722A3DAAFE3B4186F6B6457E0 DUP4 DUP1 LOG3 DUP1 RETURN JUMPDEST PUSH1 0x24 SWAP3 POP MLOAD SWAP1 PUSH4 0x118CDAA7 PUSH1 0xE0 SHL DUP3 MSTORE CALLER SWAP1 DUP3 ADD MSTORE REVERT JUMPDEST SWAP1 SWAP2 POP CALLVALUE PUSH2 0x212 JUMPI DUP3 PUSH1 0x3 NOT CALLDATASIZE ADD SLT PUSH2 0x212 JUMPI PUSH1 0x20 SWAP3 POP SLOAD SWAP1 MLOAD SWAP1 DUP2 MSTORE RETURN JUMPDEST DUP4 DUP3 CALLVALUE PUSH2 0x290 JUMPI DUP2 PUSH1 0x3 NOT CALLDATASIZE ADD SLT PUSH2 0x290 JUMPI PUSH1 0x20 SWAP1 PUSH1 0x5 SLOAD SWAP1 MLOAD SWAP1 DUP2 MSTORE RETURN JUMPDEST DUP4 CALLVALUE PUSH2 0x1B1 JUMPI DUP1 PUSH1 0x3 NOT CALLDATASIZE ADD SLT PUSH2 0x1B1 JUMPI PUSH2 0xA43 PUSH2 0x107C JUMP JUMPDEST PUSH1 0x1 DUP1 SLOAD PUSH1 0x1 PUSH1 0x1 PUSH1 0xA0 SHL SUB NOT SWAP1 DUP2 AND SWAP1 SWAP2 SSTORE DUP2 SLOAD SWAP1 DUP2 AND DUP3 SSTORE DUP2 SWAP1 PUSH1 0x1 PUSH1 0x1 PUSH1 0xA0 SHL SUB AND PUSH32 0x8BE0079C531659141344CD1FD0A4F28419497F9722A3DAAFE3B4186F6B6457E0 DUP3 DUP1 LOG3 DUP1 RETURN JUMPDEST DUP4 DUP3 CALLVALUE PUSH2 0x290 JUMPI DUP1 PUSH1 0x3 NOT CALLDATASIZE ADD SLT PUSH2 0x290 JUMPI PUSH1 0x20 SWAP1 PUSH2 0xAB8 PUSH2 0xAAF PUSH2 0xEA0 JUMP JUMPDEST PUSH1 0x24 CALLDATALOAD SWAP1 PUSH2 0xF32 JUMP JUMPDEST SWAP1 MLOAD SWAP1 DUP2 MSTORE RETURN JUMPDEST DUP4 DUP3 CALLVALUE PUSH2 0x290 JUMPI DUP2 PUSH1 0x3 NOT CALLDATASIZE ADD SLT PUSH2 0x290 JUMPI PUSH1 0x3 SLOAD SWAP1 MLOAD PUSH1 0x1 PUSH1 0x1 PUSH1 0xA0 SHL SUB SWAP1 SWAP2 AND DUP2 MSTORE PUSH1 0x20 SWAP1 RETURN JUMPDEST SWAP1 SWAP2 POP CALLVALUE PUSH2 0x212 JUMPI DUP2 PUSH1 0x3 NOT CALLDATASIZE ADD SLT PUSH2 0x212 JUMPI PUSH1 0x20 SWAP3 DUP3 SWAP2 PUSH2 0xB08 PUSH2 0xE8A JUMP JUMPDEST SWAP1 CALLDATALOAD DUP3 MSTORE PUSH1 0x9 DUP6 MSTORE DUP3 DUP3 KECCAK256 PUSH1 0x1 PUSH1 0x1 PUSH1 0xA0 SHL SUB SWAP1 SWAP2 AND DUP3 MSTORE DUP5 MSTORE KECCAK256 SLOAD SWAP1 MLOAD SWAP1 DUP2 MSTORE RETURN JUMPDEST SWAP1 SWAP2 POP CALLVALUE PUSH2 0x212 JUMPI PUSH1 0x20 SWAP2 DUP3 PUSH1 0x3 NOT CALLDATASIZE ADD SLT PUSH2 0xCD5 JUMPI DUP2 CALLDATALOAD PUSH8 0xFFFFFFFFFFFFFFFF DUP2 GT PUSH2 0x4FE JUMPI PUSH2 0xB5F SWAP1 CALLDATASIZE SWAP1 DUP5 ADD PUSH2 0xE54 JUMP JUMPDEST SWAP4 PUSH2 0xB68 PUSH2 0xFCB JUMP JUMPDEST PUSH1 0x64 DUP6 GT PUSH2 0xCC6 JUMPI DUP6 SWAP5 DUP7 JUMPDEST DUP2 DUP2 LT PUSH2 0xBD3 JUMPI POP POP POP POP DUP3 ISZERO PUSH2 0xBC6 JUMPI DUP4 PUSH2 0xBB1 DUP5 CALLER PUSH32 0x0 PUSH2 0xFFB JUMP JUMPDEST PUSH1 0x1 PUSH1 0x0 DUP1 MLOAD PUSH1 0x20 PUSH2 0x10A9 DUP4 CODECOPY DUP2 MLOAD SWAP2 MSTORE SSTORE DUP1 RETURN JUMPDEST MLOAD PUSH4 0x12D37EE5 PUSH1 0xE3 SHL DUP2 MSTORE REVERT JUMPDEST PUSH2 0xBDE DUP2 DUP4 DUP7 PUSH2 0xEB6 JUMP JUMPDEST CALLDATALOAD SWAP7 DUP8 DUP10 MSTORE PUSH1 0x8 DUP5 MSTORE DUP6 DUP10 KECCAK256 SWAP1 PUSH1 0xFF SWAP2 DUP3 PUSH1 0x3 DUP3 ADD SLOAD AND ISZERO PUSH2 0xCBA JUMPI PUSH1 0xA SWAP3 DUP4 DUP8 MSTORE DUP9 DUP13 KECCAK256 CALLER DUP14 MSTORE DUP8 MSTORE DUP9 DUP13 KECCAK256 SLOAD AND PUSH2 0xCBA JUMPI DUP10 DUP12 MSTORE PUSH1 0x9 DUP7 MSTORE DUP8 DUP12 KECCAK256 CALLER DUP13 MSTORE DUP7 MSTORE DUP11 DUP9 DUP2 KECCAK256 SLOAD DUP1 ISZERO PUSH2 0xCAC JUMPI PUSH2 0xC39 PUSH2 0xC45 SWAP2 DUP5 SLOAD PUSH2 0xEDC JUMP JUMPDEST PUSH1 0x1 DUP1 SWAP5 ADD SLOAD SWAP1 PUSH2 0xF05 JUMP JUMPDEST SWAP4 DUP5 ISZERO PUSH2 0xCAC JUMPI SWAP3 PUSH2 0xC76 SWAP3 DUP11 DUP4 DUP8 SWAP7 DUP16 PUSH1 0x1 SWAP11 SWAP10 SWAP7 MSTORE DUP12 MSTORE DUP2 DUP2 KECCAK256 CALLER DUP3 MSTORE DUP12 MSTORE KECCAK256 SWAP1 PUSH1 0xFF NOT DUP3 SLOAD AND OR SWAP1 SSTORE PUSH2 0xF25 JUMP JUMPDEST SWAP9 DUP8 MLOAD SWAP2 DUP3 MSTORE DUP6 DUP3 ADD MSTORE PUSH32 0xDACBDDE355BA930696A362EA6738FEB9F8BD52DFB3D81947558FD3217E23E325 DUP8 CALLER SWAP3 LOG2 JUMPDEST ADD PUSH2 0xB74 JUMP JUMPDEST POP POP POP SWAP8 POP POP PUSH1 0x1 SWAP1 PUSH2 0xCA6 JUMP JUMPDEST POP SWAP8 POP POP PUSH1 0x1 SWAP1 PUSH2 0xCA6 JUMP JUMPDEST POP POP MLOAD PUSH4 0x17A4D987 PUSH1 0xE3 SHL DUP2 MSTORE REVERT JUMPDEST DUP4 DUP1 REVERT JUMPDEST DUP4 DUP3 CALLVALUE PUSH2 0x290 JUMPI PUSH1 0x20 SWAP1 DUP2 PUSH1 0x3 NOT CALLDATASIZE ADD SLT PUSH2 0x212 JUMPI DUP4 CALLDATALOAD PUSH2 0xCF8 PUSH2 0xFCB JUMP JUMPDEST DUP1 DUP5 MSTORE PUSH1 0x8 DUP4 MSTORE DUP2 DUP5 KECCAK256 PUSH1 0xFF PUSH1 0x3 DUP3 ADD SLOAD AND ISZERO PUSH2 0xE1F JUMPI DUP2 DUP6 MSTORE PUSH1 0xA DUP5 MSTORE DUP3 DUP6 KECCAK256 CALLER DUP7 MSTORE DUP5 MSTORE PUSH1 0xFF DUP4 DUP7 KECCAK256 SLOAD AND PUSH2 0xE0F JUMPI DUP2 DUP6 MSTORE PUSH1 0x9 DUP5 MSTORE DUP3 DUP6 KECCAK256 CALLER DUP7 MSTORE DUP5 MSTORE DUP3 DUP6 KECCAK256 SLOAD DUP1 ISZERO PUSH2 0xDFF JUMPI SWAP1 PUSH1 0x1 PUSH2 0xD53 PUSH2 0xD5C SWAP4 DUP4 SLOAD PUSH2 0xEDC JUMP JUMPDEST SWAP2 ADD SLOAD SWAP1 PUSH2 0xF05 JUMP JUMPDEST SWAP3 DUP4 ISZERO PUSH2 0xDEF JUMPI SWAP1 PUSH32 0xDACBDDE355BA930696A362EA6738FEB9F8BD52DFB3D81947558FD3217E23E325 SWAP3 SWAP2 DUP2 DUP7 MSTORE PUSH1 0xA DUP2 MSTORE DUP3 DUP7 KECCAK256 CALLER DUP8 MSTORE DUP2 MSTORE DUP3 DUP7 KECCAK256 PUSH1 0x1 PUSH1 0xFF NOT DUP3 SLOAD AND OR SWAP1 SSTORE PUSH2 0xDCF DUP6 CALLER PUSH32 0x0 PUSH2 0xFFB JUMP JUMPDEST DUP3 MLOAD SWAP5 DUP6 MSTORE DUP5 ADD MSTORE CALLER SWAP3 LOG2 PUSH1 0x1 PUSH1 0x0 DUP1 MLOAD PUSH1 0x20 PUSH2 0x10A9 DUP4 CODECOPY DUP2 MLOAD SWAP2 MSTORE SSTORE DUP1 RETURN JUMPDEST DUP3 MLOAD PUSH4 0x12D37EE5 PUSH1 0xE3 SHL DUP2 MSTORE DUP7 SWAP1 REVERT JUMPDEST DUP4 MLOAD PUSH4 0x12D37EE5 PUSH1 0xE3 SHL DUP2 MSTORE DUP8 SWAP1 REVERT JUMPDEST DUP3 MLOAD PUSH4 0xC8D9EAB PUSH1 0xE3 SHL DUP2 MSTORE DUP7 SWAP1 REVERT JUMPDEST DUP3 MLOAD PUSH4 0x8CF75707 PUSH1 0xE0 SHL DUP2 MSTORE DUP7 SWAP1 REVERT JUMPDEST DUP5 SWAP1 CALLVALUE PUSH2 0x290 JUMPI DUP2 PUSH1 0x3 NOT CALLDATASIZE ADD SLT PUSH2 0x290 JUMPI PUSH1 0x2 SLOAD PUSH1 0x1 PUSH1 0x1 PUSH1 0xA0 SHL SUB AND DUP2 MSTORE PUSH1 0x20 SWAP1 RETURN JUMPDEST SWAP2 DUP2 PUSH1 0x1F DUP5 ADD SLT ISZERO PUSH2 0xE85 JUMPI DUP3 CALLDATALOAD SWAP2 PUSH8 0xFFFFFFFFFFFFFFFF DUP4 GT PUSH2 0xE85 JUMPI PUSH1 0x20 DUP1 DUP6 ADD SWAP5 DUP5 PUSH1 0x5 SHL ADD ADD GT PUSH2 0xE85 JUMPI JUMP JUMPDEST PUSH1 0x0 DUP1 REVERT JUMPDEST PUSH1 0x24 CALLDATALOAD SWAP1 PUSH1 0x1 PUSH1 0x1 PUSH1 0xA0 SHL SUB DUP3 AND DUP3 SUB PUSH2 0xE85 JUMPI JUMP JUMPDEST PUSH1 0x4 CALLDATALOAD SWAP1 PUSH1 0x1 PUSH1 0x1 PUSH1 0xA0 SHL SUB DUP3 AND DUP3 SUB PUSH2 0xE85 JUMPI JUMP JUMPDEST SWAP2 SWAP1 DUP2 LT ISZERO PUSH2 0xEC6 JUMPI PUSH1 0x5 SHL ADD SWAP1 JUMP JUMPDEST PUSH4 0x4E487B71 PUSH1 0xE0 SHL PUSH1 0x0 MSTORE PUSH1 0x32 PUSH1 0x4 MSTORE PUSH1 0x24 PUSH1 0x0 REVERT JUMPDEST DUP2 DUP2 MUL SWAP3 SWAP2 DUP2 ISZERO SWAP2 DUP5 DIV EQ OR ISZERO PUSH2 0xEEF JUMPI JUMP JUMPDEST PUSH4 0x4E487B71 PUSH1 0xE0 SHL PUSH1 0x0 MSTORE PUSH1 0x11 PUSH1 0x4 MSTORE PUSH1 0x24 PUSH1 0x0 REVERT JUMPDEST DUP2 ISZERO PUSH2 0xF0F JUMPI DIV SWAP1 JUMP JUMPDEST PUSH4 0x4E487B71 PUSH1 0xE0 SHL PUSH1 0x0 MSTORE PUSH1 0x12 PUSH1 0x4 MSTORE PUSH1 0x24 PUSH1 0x0 REVERT JUMPDEST SWAP2 SWAP1 DUP3 ADD DUP1 SWAP3 GT PUSH2 0xEEF JUMPI JUMP JUMPDEST SWAP1 PUSH1 0x0 SWAP2 DUP2 DUP4 MSTORE PUSH1 0x8 PUSH1 0x20 MSTORE PUSH1 0x40 DUP4 KECCAK256 SWAP2 PUSH1 0xFF PUSH1 0x3 DUP5 ADD SLOAD AND ISZERO DUP1 ISZERO PUSH2 0xFAB JUMPI JUMPDEST PUSH2 0xFA5 JUMPI PUSH1 0xA PUSH1 0x20 MSTORE PUSH1 0x40 DUP5 KECCAK256 SWAP2 PUSH1 0x1 DUP1 PUSH1 0xA0 SHL SUB AND SWAP2 DUP3 DUP6 MSTORE PUSH1 0x20 MSTORE PUSH1 0xFF PUSH1 0x40 DUP6 KECCAK256 SLOAD AND PUSH2 0xFA5 JUMPI PUSH1 0x40 DUP5 PUSH1 0x1 SWAP4 PUSH2 0xD53 SWAP4 PUSH2 0xFA2 SWAP8 MSTORE PUSH1 0x9 PUSH1 0x20 MSTORE DUP3 DUP3 KECCAK256 SWAP1 DUP3 MSTORE PUSH1 0x20 MSTORE KECCAK256 SLOAD DUP4 SLOAD PUSH2 0xEDC JUMP JUMPDEST SWAP1 JUMP JUMPDEST POP POP POP SWAP1 JUMP JUMPDEST POP PUSH1 0x1 DUP4 ADD SLOAD ISZERO PUSH2 0xF53 JUMP JUMPDEST CALLDATALOAD PUSH1 0x1 PUSH1 0x1 PUSH1 0xA0 SHL SUB DUP2 AND DUP2 SUB PUSH2 0xE85 JUMPI SWAP1 JUMP JUMPDEST PUSH1 0x0 DUP1 MLOAD PUSH1 0x20 PUSH2 0x10A9 DUP4 CODECOPY DUP2 MLOAD SWAP2 MSTORE PUSH1 0x2 DUP2 SLOAD EQ PUSH2 0xFE9 JUMPI PUSH1 0x2 SWAP1 SSTORE JUMP JUMPDEST PUSH1 0x40 MLOAD PUSH4 0x3EE5AEB5 PUSH1 0xE0 SHL DUP2 MSTORE PUSH1 0x4 SWAP1 REVERT JUMPDEST PUSH1 0x40 MLOAD PUSH4 0xA9059CBB PUSH1 0xE0 SHL PUSH1 0x0 SWAP1 DUP2 MSTORE PUSH1 0x1 PUSH1 0x1 PUSH1 0xA0 SHL SUB SWAP4 DUP5 AND PUSH1 0x4 MSTORE PUSH1 0x24 SWAP5 SWAP1 SWAP5 MSTORE SWAP3 PUSH1 0x20 SWAP1 PUSH1 0x44 DUP2 DUP1 DUP6 GAS CALL PUSH1 0x1 PUSH1 0x0 MLOAD EQ DUP2 AND ISZERO PUSH2 0x105C JUMPI JUMPDEST DUP4 PUSH1 0x40 MSTORE ISZERO PUSH2 0x1046 JUMPI POP POP POP JUMP JUMPDEST PUSH4 0x5274AFE7 PUSH1 0xE0 SHL DUP4 MSTORE AND PUSH1 0x4 DUP3 ADD MSTORE PUSH1 0x24 SWAP2 POP REVERT JUMPDEST PUSH1 0x1 DUP2 ISZERO AND PUSH2 0x1072 JUMPI DUP2 EXTCODESIZE ISZERO ISZERO RETURNDATASIZE ISZERO AND AND PUSH2 0x1038 JUMP JUMPDEST DUP4 RETURNDATASIZE PUSH1 0x0 DUP3 RETURNDATACOPY RETURNDATASIZE SWAP1 REVERT JUMPDEST PUSH1 0x0 SLOAD PUSH1 0x1 PUSH1 0x1 PUSH1 0xA0 SHL SUB AND CALLER SUB PUSH2 0x1090 JUMPI JUMP JUMPDEST PUSH1 0x40 MLOAD PUSH4 0x118CDAA7 PUSH1 0xE0 SHL DUP2 MSTORE CALLER PUSH1 0x4 DUP3 ADD MSTORE PUSH1 0x24 SWAP1 REVERT INVALID SWAP12 PUSH24 0x9B17422D0DF92223018B32B4D1FA46E071723D6817E2486D STOP EXTCODESIZE 0xEC 0xC5 PUSH0 STOP LOG2 PUSH5 0x6970667358 0x22 SLT KECCAK256 0xF7 SWAP12 DUP3 LOG1 SWAP4 0xE0 0xDD 0xE7 0x28 BLOBBASEFEE DUP4 SWAP7 SGT PUSH24 0x63A331DCCF23A1D8B000997013800446A1CB64736F6C6343 STOP ADDMOD XOR STOP CALLER "},"methodIdentifiers":{"acceptOwnership()":"79ba5097","claimMultipleEpochs(uint256[])":"28553148","claimRewards(uint256)":"0962ef79","currentEpoch()":"76671808","depositRewards(uint256)":"8bdf67f2","epochClaimed(uint256,address)":"899af3b1","epochs(uint256)":"c6b61e4c","finalizeEpoch(uint256)":"986bce2c","gasWallet()":"52e199c5","getClaimable(address,uint256)":"6f5244b1","getCurrentEpochInfo()":"babc394f","isDistributor(address)":"8f0c86fa","lastDistributionTime()":"75b17350","minDistributionInterval()":"d3e04000","owner()":"8da5cb5b","pendingOwner()":"e30c3978","pendingRewardPool()":"c7ce2501","protocolWallet()":"06d6e63f","renounceOwnership()":"715018a6","setDistributor(address,bool)":"d59ba0df","setGasWallet(address)":"e45c17e1","setProtocolWallet(address)":"f01e9a8b","setUserWeights(address[],uint256[])":"d2ec602a","sizeToken()":"a6df0831","transferOwnership(address)":"f2fde38b","userEpochWeight(uint256,address)":"455543ea"}}}}}