{"contracts/SizeStaking.sol":{"SizeStaking":{"abi":[{"inputs":[{"internalType":"address","name":"_sizeToken","type":"address"}],"stateMutability":"nonpayable","type":"constructor"},{"inputs":[{"internalType":"uint256","name":"resultingBalance","type":"uint256"},{"internalType":"uint256","name":"minimum","type":"uint256"}],"name":"BelowMinimumTier","type":"error"},{"inputs":[],"name":"EnforcedPause","type":"error"},{"inputs":[{"internalType":"uint256","name":"requested","type":"uint256"},{"internalType":"uint256","name":"staked","type":"uint256"}],"name":"ExceedsStake","type":"error"},{"inputs":[],"name":"ExpectedPause","type":"error"},{"inputs":[],"name":"NotDepositor","type":"error"},{"inputs":[],"name":"NothingToClaim","type":"error"},{"inputs":[{"internalType":"address","name":"owner","type":"address"}],"name":"OwnableInvalidOwner","type":"error"},{"inputs":[{"internalType":"address","name":"account","type":"address"}],"name":"OwnableUnauthorizedAccount","type":"error"},{"inputs":[],"name":"ReentrancyGuardReentrantCall","type":"error"},{"inputs":[{"internalType":"address","name":"token","type":"address"}],"name":"SafeERC20FailedOperation","type":"error"},{"inputs":[],"name":"ZeroAddress","type":"error"},{"inputs":[],"name":"ZeroAmount","type":"error"},{"anonymous":false,"inputs":[{"indexed":true,"internalType":"address","name":"depositor","type":"address"},{"indexed":false,"internalType":"bool","name":"status","type":"bool"}],"name":"DepositorUpdated","type":"event"},{"anonymous":false,"inputs":[{"indexed":true,"internalType":"address","name":"user","type":"address"},{"indexed":false,"internalType":"uint256","name":"amount","type":"uint256"},{"indexed":false,"internalType":"uint256","name":"penalty","type":"uint256"}],"name":"EmergencyWithdraw","type":"event"},{"anonymous":false,"inputs":[{"indexed":true,"internalType":"address","name":"previousOwner","type":"address"},{"indexed":true,"internalType":"address","name":"newOwner","type":"address"}],"name":"OwnershipTransferStarted","type":"event"},{"anonymous":false,"inputs":[{"indexed":true,"internalType":"address","name":"previousOwner","type":"address"},{"indexed":true,"internalType":"address","name":"newOwner","type":"address"}],"name":"OwnershipTransferred","type":"event"},{"anonymous":false,"inputs":[{"indexed":false,"internalType":"address","name":"account","type":"address"}],"name":"Paused","type":"event"},{"anonymous":false,"inputs":[{"indexed":true,"internalType":"address","name":"user","type":"address"},{"indexed":false,"internalType":"uint256","name":"penaltyAmount","type":"uint256"}],"name":"PenaltyRedistributed","type":"event"},{"anonymous":false,"inputs":[{"indexed":true,"internalType":"address","name":"user","type":"address"},{"indexed":false,"internalType":"uint256","name":"amount","type":"uint256"}],"name":"RewardsClaimed","type":"event"},{"anonymous":false,"inputs":[{"indexed":true,"internalType":"address","name":"depositor","type":"address"},{"indexed":false,"internalType":"uint256","name":"amount","type":"uint256"}],"name":"RewardsDeposited","type":"event"},{"anonymous":false,"inputs":[{"indexed":true,"internalType":"address","name":"user","type":"address"},{"indexed":false,"internalType":"uint256","name":"amount","type":"uint256"},{"indexed":false,"internalType":"uint256","name":"newTier","type":"uint256"}],"name":"Staked","type":"event"},{"anonymous":false,"inputs":[{"indexed":false,"internalType":"address","name":"account","type":"address"}],"name":"Unpaused","type":"event"},{"anonymous":false,"inputs":[{"indexed":true,"internalType":"address","name":"user","type":"address"},{"indexed":false,"internalType":"uint256","name":"amount","type":"uint256"},{"indexed":false,"internalType":"uint256","name":"penalty","type":"uint256"},{"indexed":false,"internalType":"uint256","name":"newTier","type":"uint256"}],"name":"Unstaked","type":"event"},{"inputs":[],"name":"GROWER_BOOST","outputs":[{"internalType":"uint256","name":"","type":"uint256"}],"stateMutability":"view","type":"function"},{"inputs":[],"name":"GROWER_MIN","outputs":[{"internalType":"uint256","name":"","type":"uint256"}],"stateMutability":"view","type":"function"},{"inputs":[],"name":"LOCK_PERIOD","outputs":[{"internalType":"uint256","name":"","type":"uint256"}],"stateMutability":"view","type":"function"},{"inputs":[],"name":"MAX_PENALTY_BPS","outputs":[{"internalType":"uint256","name":"","type":"uint256"}],"stateMutability":"view","type":"function"},{"inputs":[],"name":"SHLONG_BOOST","outputs":[{"internalType":"uint256","name":"","type":"uint256"}],"stateMutability":"view","type":"function"},{"inputs":[],"name":"SHLONG_MIN","outputs":[{"internalType":"uint256","name":"","type":"uint256"}],"stateMutability":"view","type":"function"},{"inputs":[],"name":"SHOWER_BOOST","outputs":[{"internalType":"uint256","name":"","type":"uint256"}],"stateMutability":"view","type":"function"},{"inputs":[],"name":"SHOWER_MIN","outputs":[{"internalType":"uint256","name":"","type":"uint256"}],"stateMutability":"view","type":"function"},{"inputs":[],"name":"WHALE_BOOST","outputs":[{"internalType":"uint256","name":"","type":"uint256"}],"stateMutability":"view","type":"function"},{"inputs":[],"name":"WHALE_MIN","outputs":[{"internalType":"uint256","name":"","type":"uint256"}],"stateMutability":"view","type":"function"},{"inputs":[],"name":"accRewardPerShare","outputs":[{"internalType":"uint256","name":"","type":"uint256"}],"stateMutability":"view","type":"function"},{"inputs":[],"name":"acceptOwnership","outputs":[],"stateMutability":"nonpayable","type":"function"},{"inputs":[],"name":"bufferedRewards","outputs":[{"internalType":"uint256","name":"","type":"uint256"}],"stateMutability":"view","type":"function"},{"inputs":[],"name":"claimRewards","outputs":[],"stateMutability":"nonpayable","type":"function"},{"inputs":[{"internalType":"uint256","name":"_amount","type":"uint256"}],"name":"depositRewards","outputs":[],"stateMutability":"nonpayable","type":"function"},{"inputs":[],"name":"emergencyWithdraw","outputs":[],"stateMutability":"nonpayable","type":"function"},{"inputs":[{"internalType":"address","name":"_user","type":"address"}],"name":"getBoost","outputs":[{"internalType":"uint256","name":"","type":"uint256"}],"stateMutability":"view","type":"function"},{"inputs":[{"internalType":"address","name":"_user","type":"address"}],"name":"getEarlyWithdrawalPenalty","outputs":[{"internalType":"uint256","name":"penaltyBps","type":"uint256"},{"internalType":"uint256","name":"penaltyPct","type":"uint256"},{"internalType":"uint256","name":"daysStaked","type":"uint256"},{"internalType":"uint256","name":"daysRemaining","type":"uint256"}],"stateMutability":"view","type":"function"},{"inputs":[{"internalType":"address","name":"_user","type":"address"}],"name":"getStakeInfo","outputs":[{"internalType":"uint256","name":"stakedAmount","type":"uint256"},{"internalType":"uint256","name":"pendingRewards","type":"uint256"},{"internalType":"uint256","name":"tier","type":"uint256"},{"internalType":"uint256","name":"boost","type":"uint256"},{"internalType":"uint256","name":"effectiveStake","type":"uint256"}],"stateMutability":"view","type":"function"},{"inputs":[{"internalType":"address","name":"_user","type":"address"}],"name":"getTier","outputs":[{"internalType":"uint256","name":"","type":"uint256"}],"stateMutability":"view","type":"function"},{"inputs":[{"internalType":"address","name":"","type":"address"}],"name":"isDepositor","outputs":[{"internalType":"bool","name":"","type":"bool"}],"stateMutability":"view","type":"function"},{"inputs":[],"name":"owner","outputs":[{"internalType":"address","name":"","type":"address"}],"stateMutability":"view","type":"function"},{"inputs":[],"name":"pause","outputs":[],"stateMutability":"nonpayable","type":"function"},{"inputs":[],"name":"paused","outputs":[{"internalType":"bool","name":"","type":"bool"}],"stateMutability":"view","type":"function"},{"inputs":[],"name":"pendingOwner","outputs":[{"internalType":"address","name":"","type":"address"}],"stateMutability":"view","type":"function"},{"inputs":[{"internalType":"address","name":"_user","type":"address"},{"internalType":"uint256","name":"_amount","type":"uint256"}],"name":"previewUnstake","outputs":[{"internalType":"uint256","name":"userReceives","type":"uint256"},{"internalType":"uint256","name":"penalty","type":"uint256"},{"internalType":"uint256","name":"penaltyBps","type":"uint256"}],"stateMutability":"view","type":"function"},{"inputs":[],"name":"renounceOwnership","outputs":[],"stateMutability":"nonpayable","type":"function"},{"inputs":[{"internalType":"address","name":"_depositor","type":"address"},{"internalType":"bool","name":"_status","type":"bool"}],"name":"setDepositor","outputs":[],"stateMutability":"nonpayable","type":"function"},{"inputs":[],"name":"sizeToken","outputs":[{"internalType":"contract IERC20","name":"","type":"address"}],"stateMutability":"view","type":"function"},{"inputs":[{"internalType":"uint256","name":"_amount","type":"uint256"}],"name":"stake","outputs":[],"stateMutability":"nonpayable","type":"function"},{"inputs":[{"internalType":"address","name":"","type":"address"}],"name":"stakes","outputs":[{"internalType":"uint256","name":"amount","type":"uint256"},{"internalType":"uint256","name":"rewardDebt","type":"uint256"},{"internalType":"uint256","name":"pendingRewards","type":"uint256"},{"internalType":"uint64","name":"firstStakedAt","type":"uint64"},{"internalType":"uint64","name":"lastStakedAt","type":"uint64"},{"internalType":"uint64","name":"lastClaimAt","type":"uint64"}],"stateMutability":"view","type":"function"},{"inputs":[],"name":"totalEffectiveStaked","outputs":[{"internalType":"uint256","name":"","type":"uint256"}],"stateMutability":"view","type":"function"},{"inputs":[],"name":"totalPenaltiesCollected","outputs":[{"internalType":"uint256","name":"","type":"uint256"}],"stateMutability":"view","type":"function"},{"inputs":[],"name":"totalStaked","outputs":[{"internalType":"uint256","name":"","type":"uint256"}],"stateMutability":"view","type":"function"},{"inputs":[{"internalType":"address","name":"newOwner","type":"address"}],"name":"transferOwnership","outputs":[],"stateMutability":"nonpayable","type":"function"},{"inputs":[],"name":"unpause","outputs":[],"stateMutability":"nonpayable","type":"function"},{"inputs":[{"internalType":"uint256","name":"_amount","type":"uint256"}],"name":"unstake","outputs":[],"stateMutability":"nonpayable","type":"function"}],"evm":{"bytecode":{"linkReferences":{},"object":"60a03461016857601f611ab638819003918201601f19168301916001600160401b0383118484101761016d5780849260209460405283398101031261016857516001600160a01b0390818116908190036101685760017f9b779b17422d0df92223018b32b4d1fa46e071723d6817e2486d003becc55f0055331561014f57600180546001600160a01b031916905560008054610100600160a81b0319811633600881811b610100600160a81b031692909217845560405195939493909290911c167f8be0079c531659141344cd1fd0a4f28419497f9722a3daafe3b4186f6b6457e08480a380156101405760409250608052338152600860205220600160ff19825416179055604051611932908161018482396080518181816104b701528181610632015281816107b1015281816109b901528181610f5701526113240152f35b63d92e233d60e01b8352600483fd5b604051631e4fbdf760e01b815260006004820152602490fd5b600080fd5b634e487b7160e01b600052604160045260246000fdfe60806040908082526004918236101561001757600080fd5b600092833560e01c9283630225d3cc146114585750826316934fc4146113df5782631820cabb146113c05782632b2893ba146113a35782632e17de78146110255782632f70d1ba14610fe75782633427919214610fc8578263372500ab14610eb95782633f4ba83a14610e5057826347d6280914610e315782635152f67f14610e135782635c975abb14610df1578263679f541814610dcb57826367ba3d9014610d915782636f843f5914610cf45782636f860d7414610c5c578263715018a614610bee57826379ba509714610b4d5782637eaacdb014610b2e578263817b1cd214610b0f5782638456cb5914610ab65782638bdf67f2146109735782638da5cb5b14610947578263939d6237146109285782639a14ef0d14610903578263a694fc3a14610661578263a6df08311461061d578263b45aae52146105dc578263c345315314610516578263d4e6c5c4146104f0578263db2e21bc146102fd57508163de0f9093146102e0578163e080f071146102bb578163e18c7dfc1461029e578163e30c397814610275578163f2760e9d14610233575063f2fde38b146101be57600080fd5b34610230576020366003190112610230576101d7611474565b6101df611771565b60018060a01b0380911690816bffffffffffffffffffffffff60a01b6001541617600155825460081c167f38d16b8cac22d99fc7c124b9cd0de2d3fa1faef420bfe791d8c362d765e227008380a380f35b80fd5b90503461027157602036600319011261027157608090610259610254611474565b6114f2565b92939091815194855260208501528301526060820152f35b5080fd5b90503461027157816003193601126102715760015490516001600160a01b039091168152602090f35b90503461027157816003193601126102715760209051614e208152f35b9050346102715781600319360112610271576020905169d3c21bcecceda10000008152f35b905034610271578160031936011261027157602090516127108152f35b8382346102715781600319360112610271576103176115ac565b338252600260205280822090815480156104e0578360026127109461038c8661035861035267ffffffffffffffff60038601548a1c1661166c565b876114b2565b0494610382610367878361148f565b9861037a610374846117a0565b846114b2565b048b5461148f565b8a5560035461148f565b6003558281558260018201550155826104b0575b801580156103ef575b50907fbb757047c2b5f3974fe26b7c10f732e7bce710b0952a71082702781e62ae059591815193845260208401523392a260016000805160206118dd8339815191525580f35b6103fb826007546114e5565b60075585541561047657670de0b6b3a764000090818302918383041417156104635761044f610457917fbb757047c2b5f3974fe26b7c10f732e7bce710b0952a71082702781e62ae059595969754906114c5565b6005546114e5565b6005555b8493926103a9565b634e487b7160e01b855260118652602485fd5b507fbb757047c2b5f3974fe26b7c10f732e7bce710b0952a71082702781e62ae0595929394506104a8816006546114e5565b60065561045b565b6104db83337f00000000000000000000000000000000000000000000000000000000000000006116f0565b6103a0565b8151631f2a200560e01b81528590fd5b838234610271578160031936011261027157602090516a52b7d2dcc80cd2e40000008152f35b838234610271576020366003190112610271578060a092610535611474565b600180861b0316815260026020522080549161055083611877565b610559846117a0565b916127108061056885886114b2565b049460028101549187610591575b50508151958652602086015284015260608301526080820152f35b670de0b6b3a76400006105b46001926105aa898c6114b2565b04600554906114b2565b049101549081811115610576576105d592916105cf9161148f565b906114e5565b8780610576565b838234610271576020366003190112610271576020916106169082906001600160a01b03610608611474565b168152600285522054611877565b9051908152f35b838234610271578160031936011261027157517f00000000000000000000000000000000000000000000000000000000000000006001600160a01b03168152602090f35b8382346102715760203660031901126102715782359061067f6115ac565b6106876115dc565b81156108f45733835260026020528083206106a38382546114e5565b69152d02c7e14af68000008082106108d75750610726906106c3336115fa565b8254806108ae575b508083556106db856003546114e5565b6003556106e7816117a0565b61271090610701826106f983866114b2565b048a546114e5565b895560038261071083866114b2565b04670de0b6b3a7640000958691600554906114b2565b04956001810196875501805467ffffffffffffffff80821615610896575b505080546fffffffffffffffff0000000000000000191642881b6fffffffffffffffff000000000000000016179055600654801580158061088c575b61080b575b89897f1449c6dd7851abc30abf37f57715f492010519147cc2652fbc38202c18a6ee908a6107d58330337f000000000000000000000000000000000000000000000000000000000000000061180a565b33845260026020526107e981852054611877565b815193845260208401523392a260016000805160206118dd8339815191525580f35b858202918204861417156108795761086493929161085461044f61085e937f1449c6dd7851abc30abf37f57715f492010519147cc2652fbc38202c18a6ee909b9c9d54906114c5565b93846005556114b2565b046114b2565b04905583600655839291858080808080610785565b634e487b7160e01b895260118a52602489fd5b508a541515610780565b42169067ffffffffffffffff19161781558a80610744565b6127106108c7826108c16108cf946117a0565b906114b2565b04885461148f565b8755876106cb565b8351630ad6177f60e01b8152808801929092526024820152604490fd5b51631f2a200560e01b81528390fd5b8382346102715781600319360112610271576020905169152d02c7e14af68000008152f35b8382346102715781600319360112610271576020906005549051908152f35b8382346102715781600319360112610271579054905160089190911c6001600160a01b03168152602090f35b915034610ab2576020366003190112610ab2578135916109916115ac565b338452600860205260ff82852054161580610a98575b610a8a578215610a7c576109dd8330337f000000000000000000000000000000000000000000000000000000000000000061180a565b805415610a6757670de0b6b3a7640000830290670de0b6b3a763ffff1984830401610a5457610a119161044f9154906114c5565b6005555b519081527fb8b27d0db504fa5d914f1fd330347096e88d5ff94b6c612d32797e7c12a8f66f60203392a260016000805160206118dd8339815191525580f35b634e487b7160e01b855260119052602484fd5b50610a74826006546114e5565b600655610a15565b9051631f2a200560e01b8152fd5b9051633cc50b4560e01b8152fd5b5083543360089190911c6001600160a01b031614156109a7565b8280fd5b83823461027157816003193601126102715760207f62e78cea01bee320cd4e420270b5ea74000d11b0c9f74754ebdbfc544b05a25891610af4611771565b610afc6115dc565b835460ff1916600117845551338152a180f35b8382346102715781600319360112610271576020906003549051908152f35b8382346102715781600319360112610271576020906007549051908152f35b90915034610ab25782600319360112610ab2576001546001600160a01b03929091903384841603610bd75750506001600160a01b0319166001558154610100600160a81b0319811633600881811b610100600160a81b03169290921785559291901c167f8be0079c531659141344cd1fd0a4f28419497f9722a3daafe3b4186f6b6457e08380a380f35b60249250519063118cdaa760e01b82523390820152fd5b8334610230578060031936011261023057610c07611771565b600180546001600160a01b03191690558054610100600160a81b031981168255819060081c6001600160a01b03167f8be0079c531659141344cd1fd0a4f28419497f9722a3daafe3b4186f6b6457e08280a380f35b915034610ab25780600319360112610ab257610c76611474565b9060243591821515809303610cf057610c8d611771565b6001600160a01b0316928315610ce257507f39a9d042226d79715733ad9813464b1dc2ac69065753fd66d6678d28371480be916020918486526008835280862060ff1981541660ff841617905551908152a280f35b905163d92e233d60e01b8152fd5b8480fd5b83823461027157806003193601126102715780610d0f611474565b6001600160a01b0316835260026020529091208054602435929190808411610d87575b50610d4f67ffffffffffffffff6003610d83930154841c1661166c565b610d67612710610d5f83876114b2565b04809561148f565b9251938493846040919493926060820195825260208201520152565b0390f35b9250610d4f610d32565b838234610271576020366003190112610271576020916106169082906001600160a01b03610dbd611474565b1681526002855220546117a0565b838234610271578160031936011261027157602090516a084595161401484a0000008152f35b83823461027157816003193601126102715760ff602092541690519015158152f35b838234610271578160031936011261027157602090516201d4c08152f35b90915034610ab25782600319360112610ab25760209250549051908152f35b90915034610ab25782600319360112610ab257610e6b611771565b82549060ff821615610eab575060ff19168255513381527f5db9ee0a495bf2e6ff9c91a7834c1ba4fdd244a5e8aa4e537bd38aeae4b073aa90602090a180f35b8251638dfc202b60e01b8152fd5b915034610ab25782600319360112610ab257610ed36115ac565b610edb6115dc565b610ee4336115fa565b3383526002602052808320600281018054938415610fba57509084610f509255670de0b6b3a7640000610f216127106105aa84546108c1816117a0565b046001820155600301805467ffffffffffffffff60801b19164260801b67ffffffffffffffff60801b16179055565b610f7b82337f00000000000000000000000000000000000000000000000000000000000000006116f0565b519081527ffc30cddea38e2bf4d6ea7d3f9ed3b6ad7f176419f4963bd81318067a4aee73fe60203392a260016000805160206118dd8339815191525580f35b83516312d37ee560e31b8152fd5b8382346102715781600319360112610271576020906006549051908152f35b8382346102715760203660031901126102715760209160ff9082906001600160a01b03611012611474565b1681526008855220541690519015158152f35b838234610271576020366003190112610271578235906110436115ac565b61104b6115dc565b33835260026020528083209180156104e05782548082116113885750611070336115fa565b600283018481549155835493611086838661148f565b9081151580611375575b61134e57600381019061271067ffffffffffffffff93818585548a1c166110b69061166c565b6110c090896114b2565b0496826110cd898361148f565b9a6110d7816117a0565b6110e0916114b2565b048c54906110ed9161148f565b8c55818455600354906110ff9161148f565b60035561110b816117a0565b8261111682846114b2565b048c5490611123916114e5565b8c5561112e916114b2565b0490670de0b6b3a76400008092600554611147916114b2565b04906001015561115784886114e5565b8061131d575b5084158015611241575b50507f204fccf0d92ed8d48f204adb39b2e81e92bad0dedb93f5716ca9478cfb57de0095969750826111e4575b50505033855260026020526111cc6111ae83872054611877565b92519283923396846040919493926060820195825260208201520152565b0390a260016000805160206118dd8339815191525580f35b805467ffffffffffffffff60801b19164290921660801b67ffffffffffffffff60801b1691909117905582519081527ffc30cddea38e2bf4d6ea7d3f9ed3b6ad7f176419f4963bd81318067a4aee73fe60203392a2858080611194565b61124d866007546114e5565b6007558954156112e257818602918683041417156112cf5761044f611297917f204fccf0d92ed8d48f204adb39b2e81e92bad0dedb93f5716ca9478cfb57de0098999a54906114c5565b60055584518481527f288446c5197716b76e9cbff1efd986dc6c319f565760a84cf660944cb2879c7c60203392a25b87969589611167565b634e487b7160e01b885260118952602488fd5b50507f204fccf0d92ed8d48f204adb39b2e81e92bad0dedb93f5716ca9478cfb57de0095969750611315846006546114e5565b6006556112c6565b61134890337f00000000000000000000000000000000000000000000000000000000000000006116f0565b8961115d565b8451630ad6177f60e01b815280890183905269152d02c7e14af68000006024820152604490fd5b5069152d02c7e14af68000008210611090565b85916044935192630fc7737160e31b84528301526024820152fd5b8382346102715781600319360112610271576020905161c3508152f35b838234610271578160031936011261027157602090516301e133808152f35b8382346102715760203660031901126102715760c09181906001600160a01b03611407611474565b168152600260205220805491600182015460036002840154930154809267ffffffffffffffff948593825197885260208801528187015282821660608701521c16608084015260801c1660a0820152f35b8490346102715781600319360112610271578061138860209252f35b600435906001600160a01b038216820361148a57565b600080fd5b9190820391821161149c57565b634e487b7160e01b600052601160045260246000fd5b8181029291811591840414171561149c57565b81156114cf570490565b634e487b7160e01b600052601260045260246000fd5b9190820180921161149c57565b6001600160a01b031660009081526002602052604080822060030154919291901c67ffffffffffffffff1680156115a45761152d814261148f565b91620151809361153f8585049361166c565b946064860286810460641487151715611590576127109004946301e133809081811061156b5750505090565b819293910391821161157c57500490565b634e487b7160e01b81526011600452602490fd5b634e487b7160e01b83526011600452602483fd5b508180918190565b6000805160206118dd83398151915260028154146115ca5760029055565b604051633ee5aeb560e01b8152600490fd5b60ff600054166115e857565b60405163d93c066560e01b8152600490fd5b6001600160a01b0316600090815260026020526040902080548015611668576116356127106105aa836108c1670de0b6b3a7640000956117a0565b04906001810190815480841161164a57505055565b6002611659611663928661148f565b92019182546114e5565b905555565b5050565b67ffffffffffffffff1680156116ea57611686904261148f565b6301e13380808210156116e35781810381811161149c57670de0b6b3a7640000928382029182048414908314171561149c5782916116ca91048261085e82806114b2565b046113889081810291818304149015171561149c570490565b5050600090565b50600090565b60405163a9059cbb60e01b60009081526001600160a01b039384166004526024949094529260209060448180855af1600160005114811615611751575b836040521561173b57505050565b635274afe760e01b835216600482015260249150fd5b600181151661176757813b15153d15161661172d565b833d6000823e3d90fd5b60005460081c6001600160a01b0316330361178857565b60405163118cdaa760e01b8152336004820152602490fd5b6a52b7d2dcc80cd2e4000000811015611802576a084595161401484a0000008110156117fb5769d3c21bcecceda10000008110156117f45769152d02c7e14af680000011156117ee57600090565b61271090565b50614e2090565b5061c35090565b506201d4c090565b6040516323b872dd60e01b60009081526001600160a01b03938416600452938316602452604494909452909160209060648180855af1600160005114811615611861575b8360405260006060521561173b57505050565b600181151661176757813b15153d15161661184e565b6a52b7d2dcc80cd2e40000008110156118d6576a084595161401484a0000008110156118d05769d3c21bcecceda10000008110156118ca5769152d02c7e14af680000011156118c557600090565b600190565b50600290565b50600390565b5060049056fe9b779b17422d0df92223018b32b4d1fa46e071723d6817e2486d003becc55f00a26469706673582212200dbe156c74678f560d7d2222e7c91f6c5880592eb9f3b106394c3a11d567e45b64736f6c63430008180033","opcodes":"PUSH1 0xA0 CALLVALUE PUSH2 0x168 JUMPI PUSH1 0x1F PUSH2 0x1AB6 CODESIZE DUP2 SWAP1 SUB SWAP2 DUP3 ADD PUSH1 0x1F NOT AND DUP4 ADD SWAP2 PUSH1 0x1 PUSH1 0x1 PUSH1 0x40 SHL SUB DUP4 GT DUP5 DUP5 LT OR PUSH2 0x16D JUMPI DUP1 DUP5 SWAP3 PUSH1 0x20 SWAP5 PUSH1 0x40 MSTORE DUP4 CODECOPY DUP2 ADD SUB SLT PUSH2 0x168 JUMPI MLOAD PUSH1 0x1 PUSH1 0x1 PUSH1 0xA0 SHL SUB SWAP1 DUP2 DUP2 AND SWAP1 DUP2 SWAP1 SUB PUSH2 0x168 JUMPI PUSH1 0x1 PUSH32 0x9B779B17422D0DF92223018B32B4D1FA46E071723D6817E2486D003BECC55F00 SSTORE CALLER ISZERO PUSH2 0x14F JUMPI PUSH1 0x1 DUP1 SLOAD PUSH1 0x1 PUSH1 0x1 PUSH1 0xA0 SHL SUB NOT AND SWAP1 SSTORE PUSH1 0x0 DUP1 SLOAD PUSH2 0x100 PUSH1 0x1 PUSH1 0xA8 SHL SUB NOT DUP2 AND CALLER PUSH1 0x8 DUP2 DUP2 SHL PUSH2 0x100 PUSH1 0x1 PUSH1 0xA8 SHL SUB AND SWAP3 SWAP1 SWAP3 OR DUP5 SSTORE PUSH1 0x40 MLOAD SWAP6 SWAP4 SWAP5 SWAP4 SWAP1 SWAP3 SWAP1 SWAP2 SHR AND PUSH32 0x8BE0079C531659141344CD1FD0A4F28419497F9722A3DAAFE3B4186F6B6457E0 DUP5 DUP1 LOG3 DUP1 ISZERO PUSH2 0x140 JUMPI PUSH1 0x40 SWAP3 POP PUSH1 0x80 MSTORE CALLER DUP2 MSTORE PUSH1 0x8 PUSH1 0x20 MSTORE KECCAK256 PUSH1 0x1 PUSH1 0xFF NOT DUP3 SLOAD AND OR SWAP1 SSTORE PUSH1 0x40 MLOAD PUSH2 0x1932 SWAP1 DUP2 PUSH2 0x184 DUP3 CODECOPY PUSH1 0x80 MLOAD DUP2 DUP2 DUP2 PUSH2 0x4B7 ADD MSTORE DUP2 DUP2 PUSH2 0x632 ADD MSTORE DUP2 DUP2 PUSH2 0x7B1 ADD MSTORE DUP2 DUP2 PUSH2 0x9B9 ADD MSTORE DUP2 DUP2 PUSH2 0xF57 ADD MSTORE PUSH2 0x1324 ADD MSTORE RETURN JUMPDEST PUSH4 0xD92E233D PUSH1 0xE0 SHL DUP4 MSTORE PUSH1 0x4 DUP4 REVERT JUMPDEST PUSH1 0x40 MLOAD PUSH4 0x1E4FBDF7 PUSH1 0xE0 SHL DUP2 MSTORE PUSH1 0x0 PUSH1 0x4 DUP3 ADD MSTORE PUSH1 0x24 SWAP1 REVERT JUMPDEST PUSH1 0x0 DUP1 REVERT JUMPDEST PUSH4 0x4E487B71 PUSH1 0xE0 SHL PUSH1 0x0 MSTORE PUSH1 0x41 PUSH1 0x4 MSTORE PUSH1 0x24 PUSH1 0x0 REVERT INVALID PUSH1 0x80 PUSH1 0x40 SWAP1 DUP1 DUP3 MSTORE PUSH1 0x4 SWAP2 DUP3 CALLDATASIZE LT ISZERO PUSH2 0x17 JUMPI PUSH1 0x0 DUP1 REVERT JUMPDEST PUSH1 0x0 SWAP3 DUP4 CALLDATALOAD PUSH1 0xE0 SHR SWAP3 DUP4 PUSH4 0x225D3CC EQ PUSH2 0x1458 JUMPI POP DUP3 PUSH4 0x16934FC4 EQ PUSH2 0x13DF JUMPI DUP3 PUSH4 0x1820CABB EQ PUSH2 0x13C0 JUMPI DUP3 PUSH4 0x2B2893BA EQ PUSH2 0x13A3 JUMPI DUP3 PUSH4 0x2E17DE78 EQ PUSH2 0x1025 JUMPI DUP3 PUSH4 0x2F70D1BA EQ PUSH2 0xFE7 JUMPI DUP3 PUSH4 0x34279192 EQ PUSH2 0xFC8 JUMPI DUP3 PUSH4 0x372500AB EQ PUSH2 0xEB9 JUMPI DUP3 PUSH4 0x3F4BA83A EQ PUSH2 0xE50 JUMPI DUP3 PUSH4 0x47D62809 EQ PUSH2 0xE31 JUMPI DUP3 PUSH4 0x5152F67F EQ PUSH2 0xE13 JUMPI DUP3 PUSH4 0x5C975ABB EQ PUSH2 0xDF1 JUMPI DUP3 PUSH4 0x679F5418 EQ PUSH2 0xDCB JUMPI DUP3 PUSH4 0x67BA3D90 EQ PUSH2 0xD91 JUMPI DUP3 PUSH4 0x6F843F59 EQ PUSH2 0xCF4 JUMPI DUP3 PUSH4 0x6F860D74 EQ PUSH2 0xC5C JUMPI DUP3 PUSH4 0x715018A6 EQ PUSH2 0xBEE JUMPI DUP3 PUSH4 0x79BA5097 EQ PUSH2 0xB4D JUMPI DUP3 PUSH4 0x7EAACDB0 EQ PUSH2 0xB2E JUMPI DUP3 PUSH4 0x817B1CD2 EQ PUSH2 0xB0F JUMPI DUP3 PUSH4 0x8456CB59 EQ PUSH2 0xAB6 JUMPI DUP3 PUSH4 0x8BDF67F2 EQ PUSH2 0x973 JUMPI DUP3 PUSH4 0x8DA5CB5B EQ PUSH2 0x947 JUMPI DUP3 PUSH4 0x939D6237 EQ PUSH2 0x928 JUMPI DUP3 PUSH4 0x9A14EF0D EQ PUSH2 0x903 JUMPI DUP3 PUSH4 0xA694FC3A EQ PUSH2 0x661 JUMPI DUP3 PUSH4 0xA6DF0831 EQ PUSH2 0x61D JUMPI DUP3 PUSH4 0xB45AAE52 EQ PUSH2 0x5DC JUMPI DUP3 PUSH4 0xC3453153 EQ PUSH2 0x516 JUMPI DUP3 PUSH4 0xD4E6C5C4 EQ PUSH2 0x4F0 JUMPI DUP3 PUSH4 0xDB2E21BC EQ PUSH2 0x2FD JUMPI POP DUP2 PUSH4 0xDE0F9093 EQ PUSH2 0x2E0 JUMPI DUP2 PUSH4 0xE080F071 EQ PUSH2 0x2BB JUMPI DUP2 PUSH4 0xE18C7DFC EQ PUSH2 0x29E JUMPI DUP2 PUSH4 0xE30C3978 EQ PUSH2 0x275 JUMPI DUP2 PUSH4 0xF2760E9D EQ PUSH2 0x233 JUMPI POP PUSH4 0xF2FDE38B EQ PUSH2 0x1BE JUMPI PUSH1 0x0 DUP1 REVERT JUMPDEST CALLVALUE PUSH2 0x230 JUMPI PUSH1 0x20 CALLDATASIZE PUSH1 0x3 NOT ADD SLT PUSH2 0x230 JUMPI PUSH2 0x1D7 PUSH2 0x1474 JUMP JUMPDEST PUSH2 0x1DF PUSH2 0x1771 JUMP JUMPDEST PUSH1 0x1 DUP1 PUSH1 0xA0 SHL SUB DUP1 SWAP2 AND SWAP1 DUP2 PUSH12 0xFFFFFFFFFFFFFFFFFFFFFFFF PUSH1 0xA0 SHL PUSH1 0x1 SLOAD AND OR PUSH1 0x1 SSTORE DUP3 SLOAD PUSH1 0x8 SHR AND PUSH32 0x38D16B8CAC22D99FC7C124B9CD0DE2D3FA1FAEF420BFE791D8C362D765E22700 DUP4 DUP1 LOG3 DUP1 RETURN JUMPDEST DUP1 REVERT JUMPDEST SWAP1 POP CALLVALUE PUSH2 0x271 JUMPI PUSH1 0x20 CALLDATASIZE PUSH1 0x3 NOT ADD SLT PUSH2 0x271 JUMPI PUSH1 0x80 SWAP1 PUSH2 0x259 PUSH2 0x254 PUSH2 0x1474 JUMP JUMPDEST PUSH2 0x14F2 JUMP JUMPDEST SWAP3 SWAP4 SWAP1 SWAP2 DUP2 MLOAD SWAP5 DUP6 MSTORE PUSH1 0x20 DUP6 ADD MSTORE DUP4 ADD MSTORE PUSH1 0x60 DUP3 ADD MSTORE RETURN JUMPDEST POP DUP1 REVERT JUMPDEST SWAP1 POP CALLVALUE PUSH2 0x271 JUMPI DUP2 PUSH1 0x3 NOT CALLDATASIZE ADD SLT PUSH2 0x271 JUMPI PUSH1 0x1 SLOAD SWAP1 MLOAD PUSH1 0x1 PUSH1 0x1 PUSH1 0xA0 SHL SUB SWAP1 SWAP2 AND DUP2 MSTORE PUSH1 0x20 SWAP1 RETURN JUMPDEST SWAP1 POP CALLVALUE PUSH2 0x271 JUMPI DUP2 PUSH1 0x3 NOT CALLDATASIZE ADD SLT PUSH2 0x271 JUMPI PUSH1 0x20 SWAP1 MLOAD PUSH2 0x4E20 DUP2 MSTORE RETURN JUMPDEST SWAP1 POP CALLVALUE PUSH2 0x271 JUMPI DUP2 PUSH1 0x3 NOT CALLDATASIZE ADD SLT PUSH2 0x271 JUMPI PUSH1 0x20 SWAP1 MLOAD PUSH10 0xD3C21BCECCEDA1000000 DUP2 MSTORE RETURN JUMPDEST SWAP1 POP CALLVALUE PUSH2 0x271 JUMPI DUP2 PUSH1 0x3 NOT CALLDATASIZE ADD SLT PUSH2 0x271 JUMPI PUSH1 0x20 SWAP1 MLOAD PUSH2 0x2710 DUP2 MSTORE RETURN JUMPDEST DUP4 DUP3 CALLVALUE PUSH2 0x271 JUMPI DUP2 PUSH1 0x3 NOT CALLDATASIZE ADD SLT PUSH2 0x271 JUMPI PUSH2 0x317 PUSH2 0x15AC JUMP JUMPDEST CALLER DUP3 MSTORE PUSH1 0x2 PUSH1 0x20 MSTORE DUP1 DUP3 KECCAK256 SWAP1 DUP2 SLOAD DUP1 ISZERO PUSH2 0x4E0 JUMPI DUP4 PUSH1 0x2 PUSH2 0x2710 SWAP5 PUSH2 0x38C DUP7 PUSH2 0x358 PUSH2 0x352 PUSH8 0xFFFFFFFFFFFFFFFF PUSH1 0x3 DUP7 ADD SLOAD DUP11 SHR AND PUSH2 0x166C JUMP JUMPDEST DUP8 PUSH2 0x14B2 JUMP JUMPDEST DIV SWAP5 PUSH2 0x382 PUSH2 0x367 DUP8 DUP4 PUSH2 0x148F JUMP JUMPDEST SWAP9 PUSH2 0x37A PUSH2 0x374 DUP5 PUSH2 0x17A0 JUMP JUMPDEST DUP5 PUSH2 0x14B2 JUMP JUMPDEST DIV DUP12 SLOAD PUSH2 0x148F JUMP JUMPDEST DUP11 SSTORE PUSH1 0x3 SLOAD PUSH2 0x148F JUMP JUMPDEST PUSH1 0x3 SSTORE DUP3 DUP2 SSTORE DUP3 PUSH1 0x1 DUP3 ADD SSTORE ADD SSTORE DUP3 PUSH2 0x4B0 JUMPI JUMPDEST DUP1 ISZERO DUP1 ISZERO PUSH2 0x3EF JUMPI JUMPDEST POP SWAP1 PUSH32 0xBB757047C2B5F3974FE26B7C10F732E7BCE710B0952A71082702781E62AE0595 SWAP2 DUP2 MLOAD SWAP4 DUP5 MSTORE PUSH1 0x20 DUP5 ADD MSTORE CALLER SWAP3 LOG2 PUSH1 0x1 PUSH1 0x0 DUP1 MLOAD PUSH1 0x20 PUSH2 0x18DD DUP4 CODECOPY DUP2 MLOAD SWAP2 MSTORE SSTORE DUP1 RETURN JUMPDEST PUSH2 0x3FB DUP3 PUSH1 0x7 SLOAD PUSH2 0x14E5 JUMP JUMPDEST PUSH1 0x7 SSTORE DUP6 SLOAD ISZERO PUSH2 0x476 JUMPI PUSH8 0xDE0B6B3A7640000 SWAP1 DUP2 DUP4 MUL SWAP2 DUP4 DUP4 DIV EQ OR ISZERO PUSH2 0x463 JUMPI PUSH2 0x44F PUSH2 0x457 SWAP2 PUSH32 0xBB757047C2B5F3974FE26B7C10F732E7BCE710B0952A71082702781E62AE0595 SWAP6 SWAP7 SWAP8 SLOAD SWAP1 PUSH2 0x14C5 JUMP JUMPDEST PUSH1 0x5 SLOAD PUSH2 0x14E5 JUMP JUMPDEST PUSH1 0x5 SSTORE JUMPDEST DUP5 SWAP4 SWAP3 PUSH2 0x3A9 JUMP JUMPDEST PUSH4 0x4E487B71 PUSH1 0xE0 SHL DUP6 MSTORE PUSH1 0x11 DUP7 MSTORE PUSH1 0x24 DUP6 REVERT JUMPDEST POP PUSH32 0xBB757047C2B5F3974FE26B7C10F732E7BCE710B0952A71082702781E62AE0595 SWAP3 SWAP4 SWAP5 POP PUSH2 0x4A8 DUP2 PUSH1 0x6 SLOAD PUSH2 0x14E5 JUMP JUMPDEST PUSH1 0x6 SSTORE PUSH2 0x45B JUMP JUMPDEST PUSH2 0x4DB DUP4 CALLER PUSH32 0x0 PUSH2 0x16F0 JUMP JUMPDEST PUSH2 0x3A0 JUMP JUMPDEST DUP2 MLOAD PUSH4 0x1F2A2005 PUSH1 0xE0 SHL DUP2 MSTORE DUP6 SWAP1 REVERT JUMPDEST DUP4 DUP3 CALLVALUE PUSH2 0x271 JUMPI DUP2 PUSH1 0x3 NOT CALLDATASIZE ADD SLT PUSH2 0x271 JUMPI PUSH1 0x20 SWAP1 MLOAD PUSH11 0x52B7D2DCC80CD2E4000000 DUP2 MSTORE RETURN JUMPDEST DUP4 DUP3 CALLVALUE PUSH2 0x271 JUMPI PUSH1 0x20 CALLDATASIZE PUSH1 0x3 NOT ADD SLT PUSH2 0x271 JUMPI DUP1 PUSH1 0xA0 SWAP3 PUSH2 0x535 PUSH2 0x1474 JUMP JUMPDEST PUSH1 0x1 DUP1 DUP7 SHL SUB AND DUP2 MSTORE PUSH1 0x2 PUSH1 0x20 MSTORE KECCAK256 DUP1 SLOAD SWAP2 PUSH2 0x550 DUP4 PUSH2 0x1877 JUMP JUMPDEST PUSH2 0x559 DUP5 PUSH2 0x17A0 JUMP JUMPDEST SWAP2 PUSH2 0x2710 DUP1 PUSH2 0x568 DUP6 DUP9 PUSH2 0x14B2 JUMP JUMPDEST DIV SWAP5 PUSH1 0x2 DUP2 ADD SLOAD SWAP2 DUP8 PUSH2 0x591 JUMPI JUMPDEST POP POP DUP2 MLOAD SWAP6 DUP7 MSTORE PUSH1 0x20 DUP7 ADD MSTORE DUP5 ADD MSTORE PUSH1 0x60 DUP4 ADD MSTORE PUSH1 0x80 DUP3 ADD MSTORE RETURN JUMPDEST PUSH8 0xDE0B6B3A7640000 PUSH2 0x5B4 PUSH1 0x1 SWAP3 PUSH2 0x5AA DUP10 DUP13 PUSH2 0x14B2 JUMP JUMPDEST DIV PUSH1 0x5 SLOAD SWAP1 PUSH2 0x14B2 JUMP JUMPDEST DIV SWAP2 ADD SLOAD SWAP1 DUP2 DUP2 GT ISZERO PUSH2 0x576 JUMPI PUSH2 0x5D5 SWAP3 SWAP2 PUSH2 0x5CF SWAP2 PUSH2 0x148F JUMP JUMPDEST SWAP1 PUSH2 0x14E5 JUMP JUMPDEST DUP8 DUP1 PUSH2 0x576 JUMP JUMPDEST DUP4 DUP3 CALLVALUE PUSH2 0x271 JUMPI PUSH1 0x20 CALLDATASIZE PUSH1 0x3 NOT ADD SLT PUSH2 0x271 JUMPI PUSH1 0x20 SWAP2 PUSH2 0x616 SWAP1 DUP3 SWAP1 PUSH1 0x1 PUSH1 0x1 PUSH1 0xA0 SHL SUB PUSH2 0x608 PUSH2 0x1474 JUMP JUMPDEST AND DUP2 MSTORE PUSH1 0x2 DUP6 MSTORE KECCAK256 SLOAD PUSH2 0x1877 JUMP JUMPDEST SWAP1 MLOAD SWAP1 DUP2 MSTORE RETURN JUMPDEST DUP4 DUP3 CALLVALUE PUSH2 0x271 JUMPI DUP2 PUSH1 0x3 NOT CALLDATASIZE ADD SLT PUSH2 0x271 JUMPI MLOAD PUSH32 0x0 PUSH1 0x1 PUSH1 0x1 PUSH1 0xA0 SHL SUB AND DUP2 MSTORE PUSH1 0x20 SWAP1 RETURN JUMPDEST DUP4 DUP3 CALLVALUE PUSH2 0x271 JUMPI PUSH1 0x20 CALLDATASIZE PUSH1 0x3 NOT ADD SLT PUSH2 0x271 JUMPI DUP3 CALLDATALOAD SWAP1 PUSH2 0x67F PUSH2 0x15AC JUMP JUMPDEST PUSH2 0x687 PUSH2 0x15DC JUMP JUMPDEST DUP2 ISZERO PUSH2 0x8F4 JUMPI CALLER DUP4 MSTORE PUSH1 0x2 PUSH1 0x20 MSTORE DUP1 DUP4 KECCAK256 PUSH2 0x6A3 DUP4 DUP3 SLOAD PUSH2 0x14E5 JUMP JUMPDEST PUSH10 0x152D02C7E14AF6800000 DUP1 DUP3 LT PUSH2 0x8D7 JUMPI POP PUSH2 0x726 SWAP1 PUSH2 0x6C3 CALLER PUSH2 0x15FA JUMP JUMPDEST DUP3 SLOAD DUP1 PUSH2 0x8AE JUMPI JUMPDEST POP DUP1 DUP4 SSTORE PUSH2 0x6DB DUP6 PUSH1 0x3 SLOAD PUSH2 0x14E5 JUMP JUMPDEST PUSH1 0x3 SSTORE PUSH2 0x6E7 DUP2 PUSH2 0x17A0 JUMP JUMPDEST PUSH2 0x2710 SWAP1 PUSH2 0x701 DUP3 PUSH2 0x6F9 DUP4 DUP7 PUSH2 0x14B2 JUMP JUMPDEST DIV DUP11 SLOAD PUSH2 0x14E5 JUMP JUMPDEST DUP10 SSTORE PUSH1 0x3 DUP3 PUSH2 0x710 DUP4 DUP7 PUSH2 0x14B2 JUMP JUMPDEST DIV PUSH8 0xDE0B6B3A7640000 SWAP6 DUP7 SWAP2 PUSH1 0x5 SLOAD SWAP1 PUSH2 0x14B2 JUMP JUMPDEST DIV SWAP6 PUSH1 0x1 DUP2 ADD SWAP7 DUP8 SSTORE ADD DUP1 SLOAD PUSH8 0xFFFFFFFFFFFFFFFF DUP1 DUP3 AND ISZERO PUSH2 0x896 JUMPI JUMPDEST POP POP DUP1 SLOAD PUSH16 0xFFFFFFFFFFFFFFFF0000000000000000 NOT AND TIMESTAMP DUP9 SHL PUSH16 0xFFFFFFFFFFFFFFFF0000000000000000 AND OR SWAP1 SSTORE PUSH1 0x6 SLOAD DUP1 ISZERO DUP1 ISZERO DUP1 PUSH2 0x88C JUMPI JUMPDEST PUSH2 0x80B JUMPI JUMPDEST DUP10 DUP10 PUSH32 0x1449C6DD7851ABC30ABF37F57715F492010519147CC2652FBC38202C18A6EE90 DUP11 PUSH2 0x7D5 DUP4 ADDRESS CALLER PUSH32 0x0 PUSH2 0x180A JUMP JUMPDEST CALLER DUP5 MSTORE PUSH1 0x2 PUSH1 0x20 MSTORE PUSH2 0x7E9 DUP2 DUP6 KECCAK256 SLOAD PUSH2 0x1877 JUMP JUMPDEST DUP2 MLOAD SWAP4 DUP5 MSTORE PUSH1 0x20 DUP5 ADD MSTORE CALLER SWAP3 LOG2 PUSH1 0x1 PUSH1 0x0 DUP1 MLOAD PUSH1 0x20 PUSH2 0x18DD DUP4 CODECOPY DUP2 MLOAD SWAP2 MSTORE SSTORE DUP1 RETURN JUMPDEST DUP6 DUP3 MUL SWAP2 DUP3 DIV DUP7 EQ OR ISZERO PUSH2 0x879 JUMPI PUSH2 0x864 SWAP4 SWAP3 SWAP2 PUSH2 0x854 PUSH2 0x44F PUSH2 0x85E SWAP4 PUSH32 0x1449C6DD7851ABC30ABF37F57715F492010519147CC2652FBC38202C18A6EE90 SWAP12 SWAP13 SWAP14 SLOAD SWAP1 PUSH2 0x14C5 JUMP JUMPDEST SWAP4 DUP5 PUSH1 0x5 SSTORE PUSH2 0x14B2 JUMP JUMPDEST DIV PUSH2 0x14B2 JUMP JUMPDEST DIV SWAP1 SSTORE DUP4 PUSH1 0x6 SSTORE DUP4 SWAP3 SWAP2 DUP6 DUP1 DUP1 DUP1 DUP1 DUP1 PUSH2 0x785 JUMP JUMPDEST PUSH4 0x4E487B71 PUSH1 0xE0 SHL DUP10 MSTORE PUSH1 0x11 DUP11 MSTORE PUSH1 0x24 DUP10 REVERT JUMPDEST POP DUP11 SLOAD ISZERO ISZERO PUSH2 0x780 JUMP JUMPDEST TIMESTAMP AND SWAP1 PUSH8 0xFFFFFFFFFFFFFFFF NOT AND OR DUP2 SSTORE DUP11 DUP1 PUSH2 0x744 JUMP JUMPDEST PUSH2 0x2710 PUSH2 0x8C7 DUP3 PUSH2 0x8C1 PUSH2 0x8CF SWAP5 PUSH2 0x17A0 JUMP JUMPDEST SWAP1 PUSH2 0x14B2 JUMP JUMPDEST DIV DUP9 SLOAD PUSH2 0x148F JUMP JUMPDEST DUP8 SSTORE DUP8 PUSH2 0x6CB JUMP JUMPDEST DUP4 MLOAD PUSH4 0xAD6177F PUSH1 0xE0 SHL DUP2 MSTORE DUP1 DUP9 ADD SWAP3 SWAP1 SWAP3 MSTORE PUSH1 0x24 DUP3 ADD MSTORE PUSH1 0x44 SWAP1 REVERT JUMPDEST MLOAD PUSH4 0x1F2A2005 PUSH1 0xE0 SHL DUP2 MSTORE DUP4 SWAP1 REVERT JUMPDEST DUP4 DUP3 CALLVALUE PUSH2 0x271 JUMPI DUP2 PUSH1 0x3 NOT CALLDATASIZE ADD SLT PUSH2 0x271 JUMPI PUSH1 0x20 SWAP1 MLOAD PUSH10 0x152D02C7E14AF6800000 DUP2 MSTORE RETURN JUMPDEST DUP4 DUP3 CALLVALUE PUSH2 0x271 JUMPI DUP2 PUSH1 0x3 NOT CALLDATASIZE ADD SLT PUSH2 0x271 JUMPI PUSH1 0x20 SWAP1 PUSH1 0x5 SLOAD SWAP1 MLOAD SWAP1 DUP2 MSTORE RETURN JUMPDEST DUP4 DUP3 CALLVALUE PUSH2 0x271 JUMPI DUP2 PUSH1 0x3 NOT CALLDATASIZE ADD SLT PUSH2 0x271 JUMPI SWAP1 SLOAD SWAP1 MLOAD PUSH1 0x8 SWAP2 SWAP1 SWAP2 SHR PUSH1 0x1 PUSH1 0x1 PUSH1 0xA0 SHL SUB AND DUP2 MSTORE PUSH1 0x20 SWAP1 RETURN JUMPDEST SWAP2 POP CALLVALUE PUSH2 0xAB2 JUMPI PUSH1 0x20 CALLDATASIZE PUSH1 0x3 NOT ADD SLT PUSH2 0xAB2 JUMPI DUP2 CALLDATALOAD SWAP2 PUSH2 0x991 PUSH2 0x15AC JUMP JUMPDEST CALLER DUP5 MSTORE PUSH1 0x8 PUSH1 0x20 MSTORE PUSH1 0xFF DUP3 DUP6 KECCAK256 SLOAD AND ISZERO DUP1 PUSH2 0xA98 JUMPI JUMPDEST PUSH2 0xA8A JUMPI DUP3 ISZERO PUSH2 0xA7C JUMPI PUSH2 0x9DD DUP4 ADDRESS CALLER PUSH32 0x0 PUSH2 0x180A JUMP JUMPDEST DUP1 SLOAD ISZERO PUSH2 0xA67 JUMPI PUSH8 0xDE0B6B3A7640000 DUP4 MUL SWAP1 PUSH8 0xDE0B6B3A763FFFF NOT DUP5 DUP4 DIV ADD PUSH2 0xA54 JUMPI PUSH2 0xA11 SWAP2 PUSH2 0x44F SWAP2 SLOAD SWAP1 PUSH2 0x14C5 JUMP JUMPDEST PUSH1 0x5 SSTORE JUMPDEST MLOAD SWAP1 DUP2 MSTORE PUSH32 0xB8B27D0DB504FA5D914F1FD330347096E88D5FF94B6C612D32797E7C12A8F66F PUSH1 0x20 CALLER SWAP3 LOG2 PUSH1 0x1 PUSH1 0x0 DUP1 MLOAD PUSH1 0x20 PUSH2 0x18DD DUP4 CODECOPY DUP2 MLOAD SWAP2 MSTORE SSTORE DUP1 RETURN JUMPDEST PUSH4 0x4E487B71 PUSH1 0xE0 SHL DUP6 MSTORE PUSH1 0x11 SWAP1 MSTORE PUSH1 0x24 DUP5 REVERT JUMPDEST POP PUSH2 0xA74 DUP3 PUSH1 0x6 SLOAD PUSH2 0x14E5 JUMP JUMPDEST PUSH1 0x6 SSTORE PUSH2 0xA15 JUMP JUMPDEST SWAP1 MLOAD PUSH4 0x1F2A2005 PUSH1 0xE0 SHL DUP2 MSTORE REVERT JUMPDEST SWAP1 MLOAD PUSH4 0x3CC50B45 PUSH1 0xE0 SHL DUP2 MSTORE REVERT JUMPDEST POP DUP4 SLOAD CALLER PUSH1 0x8 SWAP2 SWAP1 SWAP2 SHR PUSH1 0x1 PUSH1 0x1 PUSH1 0xA0 SHL SUB AND EQ ISZERO PUSH2 0x9A7 JUMP JUMPDEST DUP3 DUP1 REVERT JUMPDEST DUP4 DUP3 CALLVALUE PUSH2 0x271 JUMPI DUP2 PUSH1 0x3 NOT CALLDATASIZE ADD SLT PUSH2 0x271 JUMPI PUSH1 0x20 PUSH32 0x62E78CEA01BEE320CD4E420270B5EA74000D11B0C9F74754EBDBFC544B05A258 SWAP2 PUSH2 0xAF4 PUSH2 0x1771 JUMP JUMPDEST PUSH2 0xAFC PUSH2 0x15DC JUMP JUMPDEST DUP4 SLOAD PUSH1 0xFF NOT AND PUSH1 0x1 OR DUP5 SSTORE MLOAD CALLER DUP2 MSTORE LOG1 DUP1 RETURN JUMPDEST DUP4 DUP3 CALLVALUE PUSH2 0x271 JUMPI DUP2 PUSH1 0x3 NOT CALLDATASIZE ADD SLT PUSH2 0x271 JUMPI PUSH1 0x20 SWAP1 PUSH1 0x3 SLOAD SWAP1 MLOAD SWAP1 DUP2 MSTORE RETURN JUMPDEST DUP4 DUP3 CALLVALUE PUSH2 0x271 JUMPI DUP2 PUSH1 0x3 NOT CALLDATASIZE ADD SLT PUSH2 0x271 JUMPI PUSH1 0x20 SWAP1 PUSH1 0x7 SLOAD SWAP1 MLOAD SWAP1 DUP2 MSTORE RETURN JUMPDEST SWAP1 SWAP2 POP CALLVALUE PUSH2 0xAB2 JUMPI DUP3 PUSH1 0x3 NOT CALLDATASIZE ADD SLT PUSH2 0xAB2 JUMPI PUSH1 0x1 SLOAD PUSH1 0x1 PUSH1 0x1 PUSH1 0xA0 SHL SUB SWAP3 SWAP1 SWAP2 SWAP1 CALLER DUP5 DUP5 AND SUB PUSH2 0xBD7 JUMPI POP POP PUSH1 0x1 PUSH1 0x1 PUSH1 0xA0 SHL SUB NOT AND PUSH1 0x1 SSTORE DUP2 SLOAD PUSH2 0x100 PUSH1 0x1 PUSH1 0xA8 SHL SUB NOT DUP2 AND CALLER PUSH1 0x8 DUP2 DUP2 SHL PUSH2 0x100 PUSH1 0x1 PUSH1 0xA8 SHL SUB AND SWAP3 SWAP1 SWAP3 OR DUP6 SSTORE SWAP3 SWAP2 SWAP1 SHR AND PUSH32 0x8BE0079C531659141344CD1FD0A4F28419497F9722A3DAAFE3B4186F6B6457E0 DUP4 DUP1 LOG3 DUP1 RETURN JUMPDEST PUSH1 0x24 SWAP3 POP MLOAD SWAP1 PUSH4 0x118CDAA7 PUSH1 0xE0 SHL DUP3 MSTORE CALLER SWAP1 DUP3 ADD MSTORE REVERT JUMPDEST DUP4 CALLVALUE PUSH2 0x230 JUMPI DUP1 PUSH1 0x3 NOT CALLDATASIZE ADD SLT PUSH2 0x230 JUMPI PUSH2 0xC07 PUSH2 0x1771 JUMP JUMPDEST PUSH1 0x1 DUP1 SLOAD PUSH1 0x1 PUSH1 0x1 PUSH1 0xA0 SHL SUB NOT AND SWAP1 SSTORE DUP1 SLOAD PUSH2 0x100 PUSH1 0x1 PUSH1 0xA8 SHL SUB NOT DUP2 AND DUP3 SSTORE DUP2 SWAP1 PUSH1 0x8 SHR PUSH1 0x1 PUSH1 0x1 PUSH1 0xA0 SHL SUB AND PUSH32 0x8BE0079C531659141344CD1FD0A4F28419497F9722A3DAAFE3B4186F6B6457E0 DUP3 DUP1 LOG3 DUP1 RETURN JUMPDEST SWAP2 POP CALLVALUE PUSH2 0xAB2 JUMPI DUP1 PUSH1 0x3 NOT CALLDATASIZE ADD SLT PUSH2 0xAB2 JUMPI PUSH2 0xC76 PUSH2 0x1474 JUMP JUMPDEST SWAP1 PUSH1 0x24 CALLDATALOAD SWAP2 DUP3 ISZERO ISZERO DUP1 SWAP4 SUB PUSH2 0xCF0 JUMPI PUSH2 0xC8D PUSH2 0x1771 JUMP JUMPDEST PUSH1 0x1 PUSH1 0x1 PUSH1 0xA0 SHL SUB AND SWAP3 DUP4 ISZERO PUSH2 0xCE2 JUMPI POP PUSH32 0x39A9D042226D79715733AD9813464B1DC2AC69065753FD66D6678D28371480BE SWAP2 PUSH1 0x20 SWAP2 DUP5 DUP7 MSTORE PUSH1 0x8 DUP4 MSTORE DUP1 DUP7 KECCAK256 PUSH1 0xFF NOT DUP2 SLOAD AND PUSH1 0xFF DUP5 AND OR SWAP1 SSTORE MLOAD SWAP1 DUP2 MSTORE LOG2 DUP1 RETURN JUMPDEST SWAP1 MLOAD PUSH4 0xD92E233D PUSH1 0xE0 SHL DUP2 MSTORE REVERT JUMPDEST DUP5 DUP1 REVERT JUMPDEST DUP4 DUP3 CALLVALUE PUSH2 0x271 JUMPI DUP1 PUSH1 0x3 NOT CALLDATASIZE ADD SLT PUSH2 0x271 JUMPI DUP1 PUSH2 0xD0F PUSH2 0x1474 JUMP JUMPDEST PUSH1 0x1 PUSH1 0x1 PUSH1 0xA0 SHL SUB AND DUP4 MSTORE PUSH1 0x2 PUSH1 0x20 MSTORE SWAP1 SWAP2 KECCAK256 DUP1 SLOAD PUSH1 0x24 CALLDATALOAD SWAP3 SWAP2 SWAP1 DUP1 DUP5 GT PUSH2 0xD87 JUMPI JUMPDEST POP PUSH2 0xD4F PUSH8 0xFFFFFFFFFFFFFFFF PUSH1 0x3 PUSH2 0xD83 SWAP4 ADD SLOAD DUP5 SHR AND PUSH2 0x166C JUMP JUMPDEST PUSH2 0xD67 PUSH2 0x2710 PUSH2 0xD5F DUP4 DUP8 PUSH2 0x14B2 JUMP JUMPDEST DIV DUP1 SWAP6 PUSH2 0x148F JUMP JUMPDEST SWAP3 MLOAD SWAP4 DUP5 SWAP4 DUP5 PUSH1 0x40 SWAP2 SWAP5 SWAP4 SWAP3 PUSH1 0x60 DUP3 ADD SWAP6 DUP3 MSTORE PUSH1 0x20 DUP3 ADD MSTORE ADD MSTORE JUMP JUMPDEST SUB SWAP1 RETURN JUMPDEST SWAP3 POP PUSH2 0xD4F PUSH2 0xD32 JUMP JUMPDEST DUP4 DUP3 CALLVALUE PUSH2 0x271 JUMPI PUSH1 0x20 CALLDATASIZE PUSH1 0x3 NOT ADD SLT PUSH2 0x271 JUMPI PUSH1 0x20 SWAP2 PUSH2 0x616 SWAP1 DUP3 SWAP1 PUSH1 0x1 PUSH1 0x1 PUSH1 0xA0 SHL SUB PUSH2 0xDBD PUSH2 0x1474 JUMP JUMPDEST AND DUP2 MSTORE PUSH1 0x2 DUP6 MSTORE KECCAK256 SLOAD PUSH2 0x17A0 JUMP JUMPDEST DUP4 DUP3 CALLVALUE PUSH2 0x271 JUMPI DUP2 PUSH1 0x3 NOT CALLDATASIZE ADD SLT PUSH2 0x271 JUMPI PUSH1 0x20 SWAP1 MLOAD PUSH11 0x84595161401484A000000 DUP2 MSTORE RETURN JUMPDEST DUP4 DUP3 CALLVALUE PUSH2 0x271 JUMPI DUP2 PUSH1 0x3 NOT CALLDATASIZE ADD SLT PUSH2 0x271 JUMPI PUSH1 0xFF PUSH1 0x20 SWAP3 SLOAD AND SWAP1 MLOAD SWAP1 ISZERO ISZERO DUP2 MSTORE RETURN JUMPDEST DUP4 DUP3 CALLVALUE PUSH2 0x271 JUMPI DUP2 PUSH1 0x3 NOT CALLDATASIZE ADD SLT PUSH2 0x271 JUMPI PUSH1 0x20 SWAP1 MLOAD PUSH3 0x1D4C0 DUP2 MSTORE RETURN JUMPDEST SWAP1 SWAP2 POP CALLVALUE PUSH2 0xAB2 JUMPI DUP3 PUSH1 0x3 NOT CALLDATASIZE ADD SLT PUSH2 0xAB2 JUMPI PUSH1 0x20 SWAP3 POP SLOAD SWAP1 MLOAD SWAP1 DUP2 MSTORE RETURN JUMPDEST SWAP1 SWAP2 POP CALLVALUE PUSH2 0xAB2 JUMPI DUP3 PUSH1 0x3 NOT CALLDATASIZE ADD SLT PUSH2 0xAB2 JUMPI PUSH2 0xE6B PUSH2 0x1771 JUMP JUMPDEST DUP3 SLOAD SWAP1 PUSH1 0xFF DUP3 AND ISZERO PUSH2 0xEAB JUMPI POP PUSH1 0xFF NOT AND DUP3 SSTORE MLOAD CALLER DUP2 MSTORE PUSH32 0x5DB9EE0A495BF2E6FF9C91A7834C1BA4FDD244A5E8AA4E537BD38AEAE4B073AA SWAP1 PUSH1 0x20 SWAP1 LOG1 DUP1 RETURN JUMPDEST DUP3 MLOAD PUSH4 0x8DFC202B PUSH1 0xE0 SHL DUP2 MSTORE REVERT JUMPDEST SWAP2 POP CALLVALUE PUSH2 0xAB2 JUMPI DUP3 PUSH1 0x3 NOT CALLDATASIZE ADD SLT PUSH2 0xAB2 JUMPI PUSH2 0xED3 PUSH2 0x15AC JUMP JUMPDEST PUSH2 0xEDB PUSH2 0x15DC JUMP JUMPDEST PUSH2 0xEE4 CALLER PUSH2 0x15FA JUMP JUMPDEST CALLER DUP4 MSTORE PUSH1 0x2 PUSH1 0x20 MSTORE DUP1 DUP4 KECCAK256 PUSH1 0x2 DUP2 ADD DUP1 SLOAD SWAP4 DUP5 ISZERO PUSH2 0xFBA JUMPI POP SWAP1 DUP5 PUSH2 0xF50 SWAP3 SSTORE PUSH8 0xDE0B6B3A7640000 PUSH2 0xF21 PUSH2 0x2710 PUSH2 0x5AA DUP5 SLOAD PUSH2 0x8C1 DUP2 PUSH2 0x17A0 JUMP JUMPDEST DIV PUSH1 0x1 DUP3 ADD SSTORE PUSH1 0x3 ADD DUP1 SLOAD PUSH8 0xFFFFFFFFFFFFFFFF PUSH1 0x80 SHL NOT AND TIMESTAMP PUSH1 0x80 SHL PUSH8 0xFFFFFFFFFFFFFFFF PUSH1 0x80 SHL AND OR SWAP1 SSTORE JUMP JUMPDEST PUSH2 0xF7B DUP3 CALLER PUSH32 0x0 PUSH2 0x16F0 JUMP JUMPDEST MLOAD SWAP1 DUP2 MSTORE PUSH32 0xFC30CDDEA38E2BF4D6EA7D3F9ED3B6AD7F176419F4963BD81318067A4AEE73FE PUSH1 0x20 CALLER SWAP3 LOG2 PUSH1 0x1 PUSH1 0x0 DUP1 MLOAD PUSH1 0x20 PUSH2 0x18DD DUP4 CODECOPY DUP2 MLOAD SWAP2 MSTORE SSTORE DUP1 RETURN JUMPDEST DUP4 MLOAD PUSH4 0x12D37EE5 PUSH1 0xE3 SHL DUP2 MSTORE REVERT JUMPDEST DUP4 DUP3 CALLVALUE PUSH2 0x271 JUMPI DUP2 PUSH1 0x3 NOT CALLDATASIZE ADD SLT PUSH2 0x271 JUMPI PUSH1 0x20 SWAP1 PUSH1 0x6 SLOAD SWAP1 MLOAD SWAP1 DUP2 MSTORE RETURN JUMPDEST DUP4 DUP3 CALLVALUE PUSH2 0x271 JUMPI PUSH1 0x20 CALLDATASIZE PUSH1 0x3 NOT ADD SLT PUSH2 0x271 JUMPI PUSH1 0x20 SWAP2 PUSH1 0xFF SWAP1 DUP3 SWAP1 PUSH1 0x1 PUSH1 0x1 PUSH1 0xA0 SHL SUB PUSH2 0x1012 PUSH2 0x1474 JUMP JUMPDEST AND DUP2 MSTORE PUSH1 0x8 DUP6 MSTORE KECCAK256 SLOAD AND SWAP1 MLOAD SWAP1 ISZERO ISZERO DUP2 MSTORE RETURN JUMPDEST DUP4 DUP3 CALLVALUE PUSH2 0x271 JUMPI PUSH1 0x20 CALLDATASIZE PUSH1 0x3 NOT ADD SLT PUSH2 0x271 JUMPI DUP3 CALLDATALOAD SWAP1 PUSH2 0x1043 PUSH2 0x15AC JUMP JUMPDEST PUSH2 0x104B PUSH2 0x15DC JUMP JUMPDEST CALLER DUP4 MSTORE PUSH1 0x2 PUSH1 0x20 MSTORE DUP1 DUP4 KECCAK256 SWAP2 DUP1 ISZERO PUSH2 0x4E0 JUMPI DUP3 SLOAD DUP1 DUP3 GT PUSH2 0x1388 JUMPI POP PUSH2 0x1070 CALLER PUSH2 0x15FA JUMP JUMPDEST PUSH1 0x2 DUP4 ADD DUP5 DUP2 SLOAD SWAP2 SSTORE DUP4 SLOAD SWAP4 PUSH2 0x1086 DUP4 DUP7 PUSH2 0x148F JUMP JUMPDEST SWAP1 DUP2 ISZERO ISZERO DUP1 PUSH2 0x1375 JUMPI JUMPDEST PUSH2 0x134E JUMPI PUSH1 0x3 DUP2 ADD SWAP1 PUSH2 0x2710 PUSH8 0xFFFFFFFFFFFFFFFF SWAP4 DUP2 DUP6 DUP6 SLOAD DUP11 SHR AND PUSH2 0x10B6 SWAP1 PUSH2 0x166C JUMP JUMPDEST PUSH2 0x10C0 SWAP1 DUP10 PUSH2 0x14B2 JUMP JUMPDEST DIV SWAP7 DUP3 PUSH2 0x10CD DUP10 DUP4 PUSH2 0x148F JUMP JUMPDEST SWAP11 PUSH2 0x10D7 DUP2 PUSH2 0x17A0 JUMP JUMPDEST PUSH2 0x10E0 SWAP2 PUSH2 0x14B2 JUMP JUMPDEST DIV DUP13 SLOAD SWAP1 PUSH2 0x10ED SWAP2 PUSH2 0x148F JUMP JUMPDEST DUP13 SSTORE DUP2 DUP5 SSTORE PUSH1 0x3 SLOAD SWAP1 PUSH2 0x10FF SWAP2 PUSH2 0x148F JUMP JUMPDEST PUSH1 0x3 SSTORE PUSH2 0x110B DUP2 PUSH2 0x17A0 JUMP JUMPDEST DUP3 PUSH2 0x1116 DUP3 DUP5 PUSH2 0x14B2 JUMP JUMPDEST DIV DUP13 SLOAD SWAP1 PUSH2 0x1123 SWAP2 PUSH2 0x14E5 JUMP JUMPDEST DUP13 SSTORE PUSH2 0x112E SWAP2 PUSH2 0x14B2 JUMP JUMPDEST DIV SWAP1 PUSH8 0xDE0B6B3A7640000 DUP1 SWAP3 PUSH1 0x5 SLOAD PUSH2 0x1147 SWAP2 PUSH2 0x14B2 JUMP JUMPDEST DIV SWAP1 PUSH1 0x1 ADD SSTORE PUSH2 0x1157 DUP5 DUP9 PUSH2 0x14E5 JUMP JUMPDEST DUP1 PUSH2 0x131D JUMPI JUMPDEST POP DUP5 ISZERO DUP1 ISZERO PUSH2 0x1241 JUMPI JUMPDEST POP POP PUSH32 0x204FCCF0D92ED8D48F204ADB39B2E81E92BAD0DEDB93F5716CA9478CFB57DE00 SWAP6 SWAP7 SWAP8 POP DUP3 PUSH2 0x11E4 JUMPI JUMPDEST POP POP POP CALLER DUP6 MSTORE PUSH1 0x2 PUSH1 0x20 MSTORE PUSH2 0x11CC PUSH2 0x11AE DUP4 DUP8 KECCAK256 SLOAD PUSH2 0x1877 JUMP JUMPDEST SWAP3 MLOAD SWAP3 DUP4 SWAP3 CALLER SWAP7 DUP5 PUSH1 0x40 SWAP2 SWAP5 SWAP4 SWAP3 PUSH1 0x60 DUP3 ADD SWAP6 DUP3 MSTORE PUSH1 0x20 DUP3 ADD MSTORE ADD MSTORE JUMP JUMPDEST SUB SWAP1 LOG2 PUSH1 0x1 PUSH1 0x0 DUP1 MLOAD PUSH1 0x20 PUSH2 0x18DD DUP4 CODECOPY DUP2 MLOAD SWAP2 MSTORE SSTORE DUP1 RETURN JUMPDEST DUP1 SLOAD PUSH8 0xFFFFFFFFFFFFFFFF PUSH1 0x80 SHL NOT AND TIMESTAMP SWAP1 SWAP3 AND PUSH1 0x80 SHL PUSH8 0xFFFFFFFFFFFFFFFF PUSH1 0x80 SHL AND SWAP2 SWAP1 SWAP2 OR SWAP1 SSTORE DUP3 MLOAD SWAP1 DUP2 MSTORE PUSH32 0xFC30CDDEA38E2BF4D6EA7D3F9ED3B6AD7F176419F4963BD81318067A4AEE73FE PUSH1 0x20 CALLER SWAP3 LOG2 DUP6 DUP1 DUP1 PUSH2 0x1194 JUMP JUMPDEST PUSH2 0x124D DUP7 PUSH1 0x7 SLOAD PUSH2 0x14E5 JUMP JUMPDEST PUSH1 0x7 SSTORE DUP10 SLOAD ISZERO PUSH2 0x12E2 JUMPI DUP2 DUP7 MUL SWAP2 DUP7 DUP4 DIV EQ OR ISZERO PUSH2 0x12CF JUMPI PUSH2 0x44F PUSH2 0x1297 SWAP2 PUSH32 0x204FCCF0D92ED8D48F204ADB39B2E81E92BAD0DEDB93F5716CA9478CFB57DE00 SWAP9 SWAP10 SWAP11 SLOAD SWAP1 PUSH2 0x14C5 JUMP JUMPDEST PUSH1 0x5 SSTORE DUP5 MLOAD DUP5 DUP2 MSTORE PUSH32 0x288446C5197716B76E9CBFF1EFD986DC6C319F565760A84CF660944CB2879C7C PUSH1 0x20 CALLER SWAP3 LOG2 JUMPDEST DUP8 SWAP7 SWAP6 DUP10 PUSH2 0x1167 JUMP JUMPDEST PUSH4 0x4E487B71 PUSH1 0xE0 SHL DUP9 MSTORE PUSH1 0x11 DUP10 MSTORE PUSH1 0x24 DUP9 REVERT JUMPDEST POP POP PUSH32 0x204FCCF0D92ED8D48F204ADB39B2E81E92BAD0DEDB93F5716CA9478CFB57DE00 SWAP6 SWAP7 SWAP8 POP PUSH2 0x1315 DUP5 PUSH1 0x6 SLOAD PUSH2 0x14E5 JUMP JUMPDEST PUSH1 0x6 SSTORE PUSH2 0x12C6 JUMP JUMPDEST PUSH2 0x1348 SWAP1 CALLER PUSH32 0x0 PUSH2 0x16F0 JUMP JUMPDEST DUP10 PUSH2 0x115D JUMP JUMPDEST DUP5 MLOAD PUSH4 0xAD6177F PUSH1 0xE0 SHL DUP2 MSTORE DUP1 DUP10 ADD DUP4 SWAP1 MSTORE PUSH10 0x152D02C7E14AF6800000 PUSH1 0x24 DUP3 ADD MSTORE PUSH1 0x44 SWAP1 REVERT JUMPDEST POP PUSH10 0x152D02C7E14AF6800000 DUP3 LT PUSH2 0x1090 JUMP JUMPDEST DUP6 SWAP2 PUSH1 0x44 SWAP4 MLOAD SWAP3 PUSH4 0xFC77371 PUSH1 0xE3 SHL DUP5 MSTORE DUP4 ADD MSTORE PUSH1 0x24 DUP3 ADD MSTORE REVERT JUMPDEST DUP4 DUP3 CALLVALUE PUSH2 0x271 JUMPI DUP2 PUSH1 0x3 NOT CALLDATASIZE ADD SLT PUSH2 0x271 JUMPI PUSH1 0x20 SWAP1 MLOAD PUSH2 0xC350 DUP2 MSTORE RETURN JUMPDEST DUP4 DUP3 CALLVALUE PUSH2 0x271 JUMPI DUP2 PUSH1 0x3 NOT CALLDATASIZE ADD SLT PUSH2 0x271 JUMPI PUSH1 0x20 SWAP1 MLOAD PUSH4 0x1E13380 DUP2 MSTORE RETURN JUMPDEST DUP4 DUP3 CALLVALUE PUSH2 0x271 JUMPI PUSH1 0x20 CALLDATASIZE PUSH1 0x3 NOT ADD SLT PUSH2 0x271 JUMPI PUSH1 0xC0 SWAP2 DUP2 SWAP1 PUSH1 0x1 PUSH1 0x1 PUSH1 0xA0 SHL SUB PUSH2 0x1407 PUSH2 0x1474 JUMP JUMPDEST AND DUP2 MSTORE PUSH1 0x2 PUSH1 0x20 MSTORE KECCAK256 DUP1 SLOAD SWAP2 PUSH1 0x1 DUP3 ADD SLOAD PUSH1 0x3 PUSH1 0x2 DUP5 ADD SLOAD SWAP4 ADD SLOAD DUP1 SWAP3 PUSH8 0xFFFFFFFFFFFFFFFF SWAP5 DUP6 SWAP4 DUP3 MLOAD SWAP8 DUP9 MSTORE PUSH1 0x20 DUP9 ADD MSTORE DUP2 DUP8 ADD MSTORE DUP3 DUP3 AND PUSH1 0x60 DUP8 ADD MSTORE SHR AND PUSH1 0x80 DUP5 ADD MSTORE PUSH1 0x80 SHR AND PUSH1 0xA0 DUP3 ADD MSTORE RETURN JUMPDEST DUP5 SWAP1 CALLVALUE PUSH2 0x271 JUMPI DUP2 PUSH1 0x3 NOT CALLDATASIZE ADD SLT PUSH2 0x271 JUMPI DUP1 PUSH2 0x1388 PUSH1 0x20 SWAP3 MSTORE RETURN JUMPDEST PUSH1 0x4 CALLDATALOAD SWAP1 PUSH1 0x1 PUSH1 0x1 PUSH1 0xA0 SHL SUB DUP3 AND DUP3 SUB PUSH2 0x148A JUMPI JUMP JUMPDEST PUSH1 0x0 DUP1 REVERT JUMPDEST SWAP2 SWAP1 DUP3 SUB SWAP2 DUP3 GT PUSH2 0x149C JUMPI JUMP JUMPDEST PUSH4 0x4E487B71 PUSH1 0xE0 SHL PUSH1 0x0 MSTORE PUSH1 0x11 PUSH1 0x4 MSTORE PUSH1 0x24 PUSH1 0x0 REVERT JUMPDEST DUP2 DUP2 MUL SWAP3 SWAP2 DUP2 ISZERO SWAP2 DUP5 DIV EQ OR ISZERO PUSH2 0x149C JUMPI JUMP JUMPDEST DUP2 ISZERO PUSH2 0x14CF JUMPI DIV SWAP1 JUMP JUMPDEST PUSH4 0x4E487B71 PUSH1 0xE0 SHL PUSH1 0x0 MSTORE PUSH1 0x12 PUSH1 0x4 MSTORE PUSH1 0x24 PUSH1 0x0 REVERT JUMPDEST SWAP2 SWAP1 DUP3 ADD DUP1 SWAP3 GT PUSH2 0x149C JUMPI JUMP JUMPDEST PUSH1 0x1 PUSH1 0x1 PUSH1 0xA0 SHL SUB AND PUSH1 0x0 SWAP1 DUP2 MSTORE PUSH1 0x2 PUSH1 0x20 MSTORE PUSH1 0x40 DUP1 DUP3 KECCAK256 PUSH1 0x3 ADD SLOAD SWAP2 SWAP3 SWAP2 SWAP1 SHR PUSH8 0xFFFFFFFFFFFFFFFF AND DUP1 ISZERO PUSH2 0x15A4 JUMPI PUSH2 0x152D DUP2 TIMESTAMP PUSH2 0x148F JUMP JUMPDEST SWAP2 PUSH3 0x15180 SWAP4 PUSH2 0x153F DUP6 DUP6 DIV SWAP4 PUSH2 0x166C JUMP JUMPDEST SWAP5 PUSH1 0x64 DUP7 MUL DUP7 DUP2 DIV PUSH1 0x64 EQ DUP8 ISZERO OR ISZERO PUSH2 0x1590 JUMPI PUSH2 0x2710 SWAP1 DIV SWAP5 PUSH4 0x1E13380 SWAP1 DUP2 DUP2 LT PUSH2 0x156B JUMPI POP POP POP SWAP1 JUMP JUMPDEST DUP2 SWAP3 SWAP4 SWAP2 SUB SWAP2 DUP3 GT PUSH2 0x157C JUMPI POP DIV SWAP1 JUMP JUMPDEST PUSH4 0x4E487B71 PUSH1 0xE0 SHL DUP2 MSTORE PUSH1 0x11 PUSH1 0x4 MSTORE PUSH1 0x24 SWAP1 REVERT JUMPDEST PUSH4 0x4E487B71 PUSH1 0xE0 SHL DUP4 MSTORE PUSH1 0x11 PUSH1 0x4 MSTORE PUSH1 0x24 DUP4 REVERT JUMPDEST POP DUP2 DUP1 SWAP2 DUP2 SWAP1 JUMP JUMPDEST PUSH1 0x0 DUP1 MLOAD PUSH1 0x20 PUSH2 0x18DD DUP4 CODECOPY DUP2 MLOAD SWAP2 MSTORE PUSH1 0x2 DUP2 SLOAD EQ PUSH2 0x15CA JUMPI PUSH1 0x2 SWAP1 SSTORE JUMP JUMPDEST PUSH1 0x40 MLOAD PUSH4 0x3EE5AEB5 PUSH1 0xE0 SHL DUP2 MSTORE PUSH1 0x4 SWAP1 REVERT JUMPDEST PUSH1 0xFF PUSH1 0x0 SLOAD AND PUSH2 0x15E8 JUMPI JUMP JUMPDEST PUSH1 0x40 MLOAD PUSH4 0xD93C0665 PUSH1 0xE0 SHL DUP2 MSTORE PUSH1 0x4 SWAP1 REVERT JUMPDEST PUSH1 0x1 PUSH1 0x1 PUSH1 0xA0 SHL SUB AND PUSH1 0x0 SWAP1 DUP2 MSTORE PUSH1 0x2 PUSH1 0x20 MSTORE PUSH1 0x40 SWAP1 KECCAK256 DUP1 SLOAD DUP1 ISZERO PUSH2 0x1668 JUMPI PUSH2 0x1635 PUSH2 0x2710 PUSH2 0x5AA DUP4 PUSH2 0x8C1 PUSH8 0xDE0B6B3A7640000 SWAP6 PUSH2 0x17A0 JUMP JUMPDEST DIV SWAP1 PUSH1 0x1 DUP2 ADD SWAP1 DUP2 SLOAD DUP1 DUP5 GT PUSH2 0x164A JUMPI POP POP SSTORE JUMP JUMPDEST PUSH1 0x2 PUSH2 0x1659 PUSH2 0x1663 SWAP3 DUP7 PUSH2 0x148F JUMP JUMPDEST SWAP3 ADD SWAP2 DUP3 SLOAD PUSH2 0x14E5 JUMP JUMPDEST SWAP1 SSTORE SSTORE JUMP JUMPDEST POP POP JUMP JUMPDEST PUSH8 0xFFFFFFFFFFFFFFFF AND DUP1 ISZERO PUSH2 0x16EA JUMPI PUSH2 0x1686 SWAP1 TIMESTAMP PUSH2 0x148F JUMP JUMPDEST PUSH4 0x1E13380 DUP1 DUP3 LT ISZERO PUSH2 0x16E3 JUMPI DUP2 DUP2 SUB DUP2 DUP2 GT PUSH2 0x149C JUMPI PUSH8 0xDE0B6B3A7640000 SWAP3 DUP4 DUP3 MUL SWAP2 DUP3 DIV DUP5 EQ SWAP1 DUP4 EQ OR ISZERO PUSH2 0x149C JUMPI DUP3 SWAP2 PUSH2 0x16CA SWAP2 DIV DUP3 PUSH2 0x85E DUP3 DUP1 PUSH2 0x14B2 JUMP JUMPDEST DIV PUSH2 0x1388 SWAP1 DUP2 DUP2 MUL SWAP2 DUP2 DUP4 DIV EQ SWAP1 ISZERO OR ISZERO PUSH2 0x149C JUMPI DIV SWAP1 JUMP JUMPDEST POP POP PUSH1 0x0 SWAP1 JUMP JUMPDEST POP PUSH1 0x0 SWAP1 JUMP JUMPDEST PUSH1 0x40 MLOAD PUSH4 0xA9059CBB PUSH1 0xE0 SHL PUSH1 0x0 SWAP1 DUP2 MSTORE PUSH1 0x1 PUSH1 0x1 PUSH1 0xA0 SHL SUB SWAP4 DUP5 AND PUSH1 0x4 MSTORE PUSH1 0x24 SWAP5 SWAP1 SWAP5 MSTORE SWAP3 PUSH1 0x20 SWAP1 PUSH1 0x44 DUP2 DUP1 DUP6 GAS CALL PUSH1 0x1 PUSH1 0x0 MLOAD EQ DUP2 AND ISZERO PUSH2 0x1751 JUMPI JUMPDEST DUP4 PUSH1 0x40 MSTORE ISZERO PUSH2 0x173B JUMPI POP POP POP JUMP JUMPDEST PUSH4 0x5274AFE7 PUSH1 0xE0 SHL DUP4 MSTORE AND PUSH1 0x4 DUP3 ADD MSTORE PUSH1 0x24 SWAP2 POP REVERT JUMPDEST PUSH1 0x1 DUP2 ISZERO AND PUSH2 0x1767 JUMPI DUP2 EXTCODESIZE ISZERO ISZERO RETURNDATASIZE ISZERO AND AND PUSH2 0x172D JUMP JUMPDEST DUP4 RETURNDATASIZE PUSH1 0x0 DUP3 RETURNDATACOPY RETURNDATASIZE SWAP1 REVERT JUMPDEST PUSH1 0x0 SLOAD PUSH1 0x8 SHR PUSH1 0x1 PUSH1 0x1 PUSH1 0xA0 SHL SUB AND CALLER SUB PUSH2 0x1788 JUMPI JUMP JUMPDEST PUSH1 0x40 MLOAD PUSH4 0x118CDAA7 PUSH1 0xE0 SHL DUP2 MSTORE CALLER PUSH1 0x4 DUP3 ADD MSTORE PUSH1 0x24 SWAP1 REVERT JUMPDEST PUSH11 0x52B7D2DCC80CD2E4000000 DUP2 LT ISZERO PUSH2 0x1802 JUMPI PUSH11 0x84595161401484A000000 DUP2 LT ISZERO PUSH2 0x17FB JUMPI PUSH10 0xD3C21BCECCEDA1000000 DUP2 LT ISZERO PUSH2 0x17F4 JUMPI PUSH10 0x152D02C7E14AF6800000 GT ISZERO PUSH2 0x17EE JUMPI PUSH1 0x0 SWAP1 JUMP JUMPDEST PUSH2 0x2710 SWAP1 JUMP JUMPDEST POP PUSH2 0x4E20 SWAP1 JUMP JUMPDEST POP PUSH2 0xC350 SWAP1 JUMP JUMPDEST POP PUSH3 0x1D4C0 SWAP1 JUMP JUMPDEST PUSH1 0x40 MLOAD PUSH4 0x23B872DD PUSH1 0xE0 SHL PUSH1 0x0 SWAP1 DUP2 MSTORE PUSH1 0x1 PUSH1 0x1 PUSH1 0xA0 SHL SUB SWAP4 DUP5 AND PUSH1 0x4 MSTORE SWAP4 DUP4 AND PUSH1 0x24 MSTORE PUSH1 0x44 SWAP5 SWAP1 SWAP5 MSTORE SWAP1 SWAP2 PUSH1 0x20 SWAP1 PUSH1 0x64 DUP2 DUP1 DUP6 GAS CALL PUSH1 0x1 PUSH1 0x0 MLOAD EQ DUP2 AND ISZERO PUSH2 0x1861 JUMPI JUMPDEST DUP4 PUSH1 0x40 MSTORE PUSH1 0x0 PUSH1 0x60 MSTORE ISZERO PUSH2 0x173B JUMPI POP POP POP JUMP JUMPDEST PUSH1 0x1 DUP2 ISZERO AND PUSH2 0x1767 JUMPI DUP2 EXTCODESIZE ISZERO ISZERO RETURNDATASIZE ISZERO AND AND PUSH2 0x184E JUMP JUMPDEST PUSH11 0x52B7D2DCC80CD2E4000000 DUP2 LT ISZERO PUSH2 0x18D6 JUMPI PUSH11 0x84595161401484A000000 DUP2 LT ISZERO PUSH2 0x18D0 JUMPI PUSH10 0xD3C21BCECCEDA1000000 DUP2 LT ISZERO PUSH2 0x18CA JUMPI PUSH10 0x152D02C7E14AF6800000 GT ISZERO PUSH2 0x18C5 JUMPI PUSH1 0x0 SWAP1 JUMP JUMPDEST PUSH1 0x1 SWAP1 JUMP JUMPDEST POP PUSH1 0x2 SWAP1 JUMP JUMPDEST POP PUSH1 0x3 SWAP1 JUMP JUMPDEST POP PUSH1 0x4 SWAP1 JUMP INVALID SWAP12 PUSH24 0x9B17422D0DF92223018B32B4D1FA46E071723D6817E2486D STOP EXTCODESIZE 0xEC 0xC5 PUSH0 STOP LOG2 PUSH5 0x6970667358 0x22 SLT KECCAK256 0xD 0xBE ISZERO PUSH13 0x74678F560D7D2222E7C91F6C58 DUP1 MSIZE 0x2E 0xB9 RETURN 0xB1 MOD CODECOPY 0x4C GASPRICE GT 0xD5 PUSH8 0xE45B64736F6C6343 STOP ADDMOD XOR STOP CALLER "},"methodIdentifiers":{"GROWER_BOOST()":"de0f9093","GROWER_MIN()":"9a14ef0d","LOCK_PERIOD()":"1820cabb","MAX_PENALTY_BPS()":"0225d3cc","SHLONG_BOOST()":"2b2893ba","SHLONG_MIN()":"679f5418","SHOWER_BOOST()":"e18c7dfc","SHOWER_MIN()":"e080f071","WHALE_BOOST()":"5152f67f","WHALE_MIN()":"d4e6c5c4","accRewardPerShare()":"939d6237","acceptOwnership()":"79ba5097","bufferedRewards()":"34279192","claimRewards()":"372500ab","depositRewards(uint256)":"8bdf67f2","emergencyWithdraw()":"db2e21bc","getBoost(address)":"67ba3d90","getEarlyWithdrawalPenalty(address)":"f2760e9d","getStakeInfo(address)":"c3453153","getTier(address)":"b45aae52","isDepositor(address)":"2f70d1ba","owner()":"8da5cb5b","pause()":"8456cb59","paused()":"5c975abb","pendingOwner()":"e30c3978","previewUnstake(address,uint256)":"6f843f59","renounceOwnership()":"715018a6","setDepositor(address,bool)":"6f860d74","sizeToken()":"a6df0831","stake(uint256)":"a694fc3a","stakes(address)":"16934fc4","totalEffectiveStaked()":"47d62809","totalPenaltiesCollected()":"7eaacdb0","totalStaked()":"817b1cd2","transferOwnership(address)":"f2fde38b","unpause()":"3f4ba83a","unstake(uint256)":"2e17de78"}}}}}