{"contracts/SizeStaking.sol":{"SizeStaking":{"abi":[{"inputs":[{"internalType":"address","name":"_sizeToken","type":"address"}],"stateMutability":"nonpayable","type":"constructor"},{"inputs":[{"internalType":"uint256","name":"resultingBalance","type":"uint256"},{"internalType":"uint256","name":"minimum","type":"uint256"}],"name":"BelowMinimumTier","type":"error"},{"inputs":[],"name":"EnforcedPause","type":"error"},{"inputs":[{"internalType":"uint256","name":"requested","type":"uint256"},{"internalType":"uint256","name":"staked","type":"uint256"}],"name":"ExceedsStake","type":"error"},{"inputs":[],"name":"ExpectedPause","type":"error"},{"inputs":[],"name":"NotDepositor","type":"error"},{"inputs":[],"name":"NothingToClaim","type":"error"},{"inputs":[{"internalType":"address","name":"owner","type":"address"}],"name":"OwnableInvalidOwner","type":"error"},{"inputs":[{"internalType":"address","name":"account","type":"address"}],"name":"OwnableUnauthorizedAccount","type":"error"},{"inputs":[],"name":"ReentrancyGuardReentrantCall","type":"error"},{"inputs":[{"internalType":"address","name":"token","type":"address"}],"name":"SafeERC20FailedOperation","type":"error"},{"inputs":[],"name":"ZeroAddress","type":"error"},{"inputs":[],"name":"ZeroAmount","type":"error"},{"anonymous":false,"inputs":[{"indexed":true,"internalType":"address","name":"depositor","type":"address"},{"indexed":false,"internalType":"bool","name":"status","type":"bool"}],"name":"DepositorUpdated","type":"event"},{"anonymous":false,"inputs":[{"indexed":true,"internalType":"address","name":"user","type":"address"},{"indexed":false,"internalType":"uint256","name":"amount","type":"uint256"},{"indexed":false,"internalType":"uint256","name":"penalty","type":"uint256"}],"name":"EmergencyWithdraw","type":"event"},{"anonymous":false,"inputs":[{"indexed":true,"internalType":"address","name":"previousOwner","type":"address"},{"indexed":true,"internalType":"address","name":"newOwner","type":"address"}],"name":"OwnershipTransferStarted","type":"event"},{"anonymous":false,"inputs":[{"indexed":true,"internalType":"address","name":"previousOwner","type":"address"},{"indexed":true,"internalType":"address","name":"newOwner","type":"address"}],"name":"OwnershipTransferred","type":"event"},{"anonymous":false,"inputs":[{"indexed":false,"internalType":"address","name":"account","type":"address"}],"name":"Paused","type":"event"},{"anonymous":false,"inputs":[{"indexed":true,"internalType":"address","name":"user","type":"address"},{"indexed":false,"internalType":"uint256","name":"penaltyAmount","type":"uint256"}],"name":"PenaltyRedistributed","type":"event"},{"anonymous":false,"inputs":[{"indexed":true,"internalType":"address","name":"user","type":"address"},{"indexed":false,"internalType":"uint256","name":"amount","type":"uint256"}],"name":"RewardsClaimed","type":"event"},{"anonymous":false,"inputs":[{"indexed":true,"internalType":"address","name":"depositor","type":"address"},{"indexed":false,"internalType":"uint256","name":"amount","type":"uint256"}],"name":"RewardsDeposited","type":"event"},{"anonymous":false,"inputs":[{"indexed":true,"internalType":"address","name":"user","type":"address"},{"indexed":false,"internalType":"uint256","name":"amount","type":"uint256"},{"indexed":false,"internalType":"uint256","name":"newTier","type":"uint256"}],"name":"Staked","type":"event"},{"anonymous":false,"inputs":[{"indexed":false,"internalType":"address","name":"account","type":"address"}],"name":"Unpaused","type":"event"},{"anonymous":false,"inputs":[{"indexed":true,"internalType":"address","name":"user","type":"address"},{"indexed":false,"internalType":"uint256","name":"amount","type":"uint256"},{"indexed":false,"internalType":"uint256","name":"penalty","type":"uint256"},{"indexed":false,"internalType":"uint256","name":"newTier","type":"uint256"}],"name":"Unstaked","type":"event"},{"inputs":[],"name":"GROWER_BOOST","outputs":[{"internalType":"uint256","name":"","type":"uint256"}],"stateMutability":"view","type":"function"},{"inputs":[],"name":"GROWER_MIN","outputs":[{"internalType":"uint256","name":"","type":"uint256"}],"stateMutability":"view","type":"function"},{"inputs":[],"name":"LOCK_PERIOD","outputs":[{"internalType":"uint256","name":"","type":"uint256"}],"stateMutability":"view","type":"function"},{"inputs":[],"name":"MAX_PENALTY_BPS","outputs":[{"internalType":"uint256","name":"","type":"uint256"}],"stateMutability":"view","type":"function"},{"inputs":[],"name":"SHLONG_BOOST","outputs":[{"internalType":"uint256","name":"","type":"uint256"}],"stateMutability":"view","type":"function"},{"inputs":[],"name":"SHLONG_MIN","outputs":[{"internalType":"uint256","name":"","type":"uint256"}],"stateMutability":"view","type":"function"},{"inputs":[],"name":"SHOWER_BOOST","outputs":[{"internalType":"uint256","name":"","type":"uint256"}],"stateMutability":"view","type":"function"},{"inputs":[],"name":"SHOWER_MIN","outputs":[{"internalType":"uint256","name":"","type":"uint256"}],"stateMutability":"view","type":"function"},{"inputs":[],"name":"WHALE_BOOST","outputs":[{"internalType":"uint256","name":"","type":"uint256"}],"stateMutability":"view","type":"function"},{"inputs":[],"name":"WHALE_MIN","outputs":[{"internalType":"uint256","name":"","type":"uint256"}],"stateMutability":"view","type":"function"},{"inputs":[],"name":"accRewardPerShare","outputs":[{"internalType":"uint256","name":"","type":"uint256"}],"stateMutability":"view","type":"function"},{"inputs":[],"name":"acceptOwnership","outputs":[],"stateMutability":"nonpayable","type":"function"},{"inputs":[],"name":"bufferedRewards","outputs":[{"internalType":"uint256","name":"","type":"uint256"}],"stateMutability":"view","type":"function"},{"inputs":[],"name":"claimRewards","outputs":[],"stateMutability":"nonpayable","type":"function"},{"inputs":[{"internalType":"uint256","name":"_amount","type":"uint256"}],"name":"depositRewards","outputs":[],"stateMutability":"nonpayable","type":"function"},{"inputs":[],"name":"emergencyWithdraw","outputs":[],"stateMutability":"nonpayable","type":"function"},{"inputs":[{"internalType":"address","name":"_user","type":"address"}],"name":"getBoost","outputs":[{"internalType":"uint256","name":"","type":"uint256"}],"stateMutability":"view","type":"function"},{"inputs":[{"internalType":"address","name":"_user","type":"address"}],"name":"getEarlyWithdrawalPenalty","outputs":[{"internalType":"uint256","name":"penaltyBps","type":"uint256"},{"internalType":"uint256","name":"penaltyPct","type":"uint256"},{"internalType":"uint256","name":"daysStaked","type":"uint256"},{"internalType":"uint256","name":"daysRemaining","type":"uint256"}],"stateMutability":"view","type":"function"},{"inputs":[{"internalType":"address","name":"_user","type":"address"}],"name":"getStakeInfo","outputs":[{"internalType":"uint256","name":"stakedAmount","type":"uint256"},{"internalType":"uint256","name":"pendingRewards","type":"uint256"},{"internalType":"uint256","name":"tier","type":"uint256"},{"internalType":"uint256","name":"boost","type":"uint256"},{"internalType":"uint256","name":"effectiveStake","type":"uint256"}],"stateMutability":"view","type":"function"},{"inputs":[{"internalType":"address","name":"_user","type":"address"}],"name":"getTier","outputs":[{"internalType":"uint256","name":"","type":"uint256"}],"stateMutability":"view","type":"function"},{"inputs":[{"internalType":"address","name":"","type":"address"}],"name":"isDepositor","outputs":[{"internalType":"bool","name":"","type":"bool"}],"stateMutability":"view","type":"function"},{"inputs":[],"name":"owner","outputs":[{"internalType":"address","name":"","type":"address"}],"stateMutability":"view","type":"function"},{"inputs":[],"name":"pause","outputs":[],"stateMutability":"nonpayable","type":"function"},{"inputs":[],"name":"paused","outputs":[{"internalType":"bool","name":"","type":"bool"}],"stateMutability":"view","type":"function"},{"inputs":[],"name":"pendingOwner","outputs":[{"internalType":"address","name":"","type":"address"}],"stateMutability":"view","type":"function"},{"inputs":[{"internalType":"address","name":"_user","type":"address"},{"internalType":"uint256","name":"_amount","type":"uint256"}],"name":"previewUnstake","outputs":[{"internalType":"uint256","name":"userReceives","type":"uint256"},{"internalType":"uint256","name":"penalty","type":"uint256"},{"internalType":"uint256","name":"penaltyBps","type":"uint256"}],"stateMutability":"view","type":"function"},{"inputs":[],"name":"renounceOwnership","outputs":[],"stateMutability":"nonpayable","type":"function"},{"inputs":[{"internalType":"address","name":"_depositor","type":"address"},{"internalType":"bool","name":"_status","type":"bool"}],"name":"setDepositor","outputs":[],"stateMutability":"nonpayable","type":"function"},{"inputs":[],"name":"sizeToken","outputs":[{"internalType":"contract IERC20","name":"","type":"address"}],"stateMutability":"view","type":"function"},{"inputs":[{"internalType":"uint256","name":"_amount","type":"uint256"}],"name":"stake","outputs":[],"stateMutability":"nonpayable","type":"function"},{"inputs":[{"internalType":"address","name":"","type":"address"}],"name":"stakes","outputs":[{"internalType":"uint256","name":"amount","type":"uint256"},{"internalType":"uint256","name":"rewardDebt","type":"uint256"},{"internalType":"uint256","name":"pendingRewards","type":"uint256"},{"internalType":"uint64","name":"firstStakedAt","type":"uint64"},{"internalType":"uint64","name":"lastStakedAt","type":"uint64"},{"internalType":"uint64","name":"lastClaimAt","type":"uint64"}],"stateMutability":"view","type":"function"},{"inputs":[],"name":"totalEffectiveStaked","outputs":[{"internalType":"uint256","name":"","type":"uint256"}],"stateMutability":"view","type":"function"},{"inputs":[],"name":"totalPenaltiesCollected","outputs":[{"internalType":"uint256","name":"","type":"uint256"}],"stateMutability":"view","type":"function"},{"inputs":[],"name":"totalStaked","outputs":[{"internalType":"uint256","name":"","type":"uint256"}],"stateMutability":"view","type":"function"},{"inputs":[{"internalType":"address","name":"newOwner","type":"address"}],"name":"transferOwnership","outputs":[],"stateMutability":"nonpayable","type":"function"},{"inputs":[],"name":"unpause","outputs":[],"stateMutability":"nonpayable","type":"function"},{"inputs":[{"internalType":"uint256","name":"_amount","type":"uint256"}],"name":"unstake","outputs":[],"stateMutability":"nonpayable","type":"function"}],"evm":{"bytecode":{"linkReferences":{},"object":"60a03461016857601f611abf38819003918201601f19168301916001600160401b0383118484101761016d5780849260209460405283398101031261016857516001600160a01b0390818116908190036101685760017f9b779b17422d0df92223018b32b4d1fa46e071723d6817e2486d003becc55f0055331561014f57600180546001600160a01b031916905560008054610100600160a81b0319811633600881811b610100600160a81b031692909217845560405195939493909290911c167f8be0079c531659141344cd1fd0a4f28419497f9722a3daafe3b4186f6b6457e08480a380156101405760409250608052338152600860205220600160ff1982541617905560405161193b908161018482396080518181816104b801528181610633015281816107b3015281816109bc01528181610f5a01526113270152f35b63d92e233d60e01b8352600483fd5b604051631e4fbdf760e01b815260006004820152602490fd5b600080fd5b634e487b7160e01b600052604160045260246000fdfe60806040908082526004918236101561001757600080fd5b600092833560e01c9283630225d3cc1461145d5750826316934fc4146113e45782631820cabb146113c55782632b2893ba146113a85782632e17de78146110285782632f70d1ba14610fea5782633427919214610fcb578263372500ab14610ebc5782633f4ba83a14610e5357826347d6280914610e345782635152f67f14610e165782635c975abb14610df4578263679f541814610dce57826367ba3d9014610d945782636f843f5914610cf75782636f860d7414610c5f578263715018a614610bf157826379ba509714610b505782637eaacdb014610b31578263817b1cd214610b125782638456cb5914610ab95782638bdf67f2146109765782638da5cb5b1461094a578263939d62371461092b5782639a14ef0d14610905578263a694fc3a14610662578263a6df08311461061e578263b45aae52146105dd578263c345315314610517578263d4e6c5c4146104f1578263db2e21bc146102fe57508163de0f9093146102e1578163e080f071146102bb578163e18c7dfc1461029e578163e30c397814610275578163f2760e9d14610233575063f2fde38b146101be57600080fd5b34610230576020366003190112610230576101d7611479565b6101df611776565b60018060a01b0380911690816bffffffffffffffffffffffff60a01b6001541617600155825460081c167f38d16b8cac22d99fc7c124b9cd0de2d3fa1faef420bfe791d8c362d765e227008380a380f35b80fd5b90503461027157602036600319011261027157608090610259610254611479565b6114f7565b92939091815194855260208501528301526060820152f35b5080fd5b90503461027157816003193601126102715760015490516001600160a01b039091168152602090f35b90503461027157816003193601126102715760209051614e208152f35b905034610271578160031936011261027157602090516a14adf4b7320334b90000008152f35b905034610271578160031936011261027157602090516127108152f35b8382346102715781600319360112610271576103186115b1565b338252600260205280822090815480156104e1578360026127109461038d8661035961035367ffffffffffffffff60038601548a1c16611671565b876114b7565b04946103836103688783611494565b9861037b610375846117a5565b846114b7565b048b54611494565b8a55600354611494565b6003558281558260018201550155826104b1575b801580156103f0575b50907fbb757047c2b5f3974fe26b7c10f732e7bce710b0952a71082702781e62ae059591815193845260208401523392a260016000805160206118e68339815191525580f35b6103fc826007546114ea565b60075585541561047757670de0b6b3a7640000908183029183830414171561046457610450610458917fbb757047c2b5f3974fe26b7c10f732e7bce710b0952a71082702781e62ae059595969754906114ca565b6005546114ea565b6005555b8493926103aa565b634e487b7160e01b855260118652602485fd5b507fbb757047c2b5f3974fe26b7c10f732e7bce710b0952a71082702781e62ae0595929394506104a9816006546114ea565b60065561045c565b6104dc83337f00000000000000000000000000000000000000000000000000000000000000006116f5565b6103a1565b8151631f2a200560e01b81528590fd5b838234610271578160031936011261027157602090516acecb8f27f4200f3a0000008152f35b838234610271576020366003190112610271578060a092610536611479565b600180861b031681526002602052208054916105518361187e565b61055a846117a5565b916127108061056985886114b7565b049460028101549187610592575b50508151958652602086015284015260608301526080820152f35b670de0b6b3a76400006105b56001926105ab898c6114b7565b04600554906114b7565b049101549081811115610577576105d692916105d091611494565b906114ea565b8780610577565b838234610271576020366003190112610271576020916106179082906001600160a01b03610609611479565b16815260028552205461187e565b9051908152f35b838234610271578160031936011261027157517f00000000000000000000000000000000000000000000000000000000000000006001600160a01b03168152602090f35b838234610271576020366003190112610271578235906106806115b1565b6106886115e1565b81156108f65733835260026020528083206106a48382546114ea565b6a084595161401484a0000008082106108d95750610728906106c5336115ff565b8254806108b0575b508083556106dd856003546114ea565b6003556106e9816117a5565b61271090610703826106fb83866114b7565b048a546114ea565b895560038261071283866114b7565b04670de0b6b3a7640000958691600554906114b7565b04956001810196875501805467ffffffffffffffff80821615610898575b505080546fffffffffffffffff0000000000000000191642881b6fffffffffffffffff000000000000000016179055600654801580158061088e575b61080d575b89897f1449c6dd7851abc30abf37f57715f492010519147cc2652fbc38202c18a6ee908a6107d78330337f0000000000000000000000000000000000000000000000000000000000000000611811565b33845260026020526107eb8185205461187e565b815193845260208401523392a260016000805160206118e68339815191525580f35b8582029182048614171561087b57610866939291610856610450610860937f1449c6dd7851abc30abf37f57715f492010519147cc2652fbc38202c18a6ee909b9c9d54906114ca565b93846005556114b7565b046114b7565b04905583600655839291858080808080610787565b634e487b7160e01b895260118a52602489fd5b508a541515610782565b42169067ffffffffffffffff19161781558a80610746565b6127106108c9826108c36108d1946117a5565b906114b7565b048854611494565b8755876106cd565b8351630ad6177f60e01b8152808801929092526024820152604490fd5b51631f2a200560e01b81528390fd5b838234610271578160031936011261027157602090516a084595161401484a0000008152f35b8382346102715781600319360112610271576020906005549051908152f35b8382346102715781600319360112610271579054905160089190911c6001600160a01b03168152602090f35b915034610ab5576020366003190112610ab5578135916109946115b1565b338452600860205260ff82852054161580610a9b575b610a8d578215610a7f576109e08330337f0000000000000000000000000000000000000000000000000000000000000000611811565b805415610a6a57670de0b6b3a7640000830290670de0b6b3a763ffff1984830401610a5757610a14916104509154906114ca565b6005555b519081527fb8b27d0db504fa5d914f1fd330347096e88d5ff94b6c612d32797e7c12a8f66f60203392a260016000805160206118e68339815191525580f35b634e487b7160e01b855260119052602484fd5b50610a77826006546114ea565b600655610a18565b9051631f2a200560e01b8152fd5b9051633cc50b4560e01b8152fd5b5083543360089190911c6001600160a01b031614156109aa565b8280fd5b83823461027157816003193601126102715760207f62e78cea01bee320cd4e420270b5ea74000d11b0c9f74754ebdbfc544b05a25891610af7611776565b610aff6115e1565b835460ff1916600117845551338152a180f35b8382346102715781600319360112610271576020906003549051908152f35b8382346102715781600319360112610271576020906007549051908152f35b90915034610ab55782600319360112610ab5576001546001600160a01b03929091903384841603610bda5750506001600160a01b0319166001558154610100600160a81b0319811633600881811b610100600160a81b03169290921785559291901c167f8be0079c531659141344cd1fd0a4f28419497f9722a3daafe3b4186f6b6457e08380a380f35b60249250519063118cdaa760e01b82523390820152fd5b8334610230578060031936011261023057610c0a611776565b600180546001600160a01b03191690558054610100600160a81b031981168255819060081c6001600160a01b03167f8be0079c531659141344cd1fd0a4f28419497f9722a3daafe3b4186f6b6457e08280a380f35b915034610ab55780600319360112610ab557610c79611479565b9060243591821515809303610cf357610c90611776565b6001600160a01b0316928315610ce557507f39a9d042226d79715733ad9813464b1dc2ac69065753fd66d6678d28371480be916020918486526008835280862060ff1981541660ff841617905551908152a280f35b905163d92e233d60e01b8152fd5b8480fd5b83823461027157806003193601126102715780610d12611479565b6001600160a01b0316835260026020529091208054602435929190808411610d8a575b50610d5267ffffffffffffffff6003610d86930154841c16611671565b610d6a612710610d6283876114b7565b048095611494565b9251938493846040919493926060820195825260208201520152565b0390f35b9250610d52610d35565b838234610271576020366003190112610271576020916106179082906001600160a01b03610dc0611479565b1681526002855220546117a5565b838234610271578160031936011261027157602090516a52b7d2dcc80cd2e40000008152f35b83823461027157816003193601126102715760ff602092541690519015158152f35b838234610271578160031936011261027157602090516201d4c08152f35b90915034610ab55782600319360112610ab55760209250549051908152f35b90915034610ab55782600319360112610ab557610e6e611776565b82549060ff821615610eae575060ff19168255513381527f5db9ee0a495bf2e6ff9c91a7834c1ba4fdd244a5e8aa4e537bd38aeae4b073aa90602090a180f35b8251638dfc202b60e01b8152fd5b915034610ab55782600319360112610ab557610ed66115b1565b610ede6115e1565b610ee7336115ff565b3383526002602052808320600281018054938415610fbd57509084610f539255670de0b6b3a7640000610f246127106105ab84546108c3816117a5565b046001820155600301805467ffffffffffffffff60801b19164260801b67ffffffffffffffff60801b16179055565b610f7e82337f00000000000000000000000000000000000000000000000000000000000000006116f5565b519081527ffc30cddea38e2bf4d6ea7d3f9ed3b6ad7f176419f4963bd81318067a4aee73fe60203392a260016000805160206118e68339815191525580f35b83516312d37ee560e31b8152fd5b8382346102715781600319360112610271576020906006549051908152f35b8382346102715760203660031901126102715760209160ff9082906001600160a01b03611015611479565b1681526008855220541690519015158152f35b838234610271576020366003190112610271578235906110466115b1565b61104e6115e1565b33835260026020528083209180156104e157825480821161138d5750611073336115ff565b6002830184815491558354936110898386611494565b9081151580611379575b61135157600381019061271067ffffffffffffffff93818585548a1c166110b990611671565b6110c390896114b7565b0496826110d08983611494565b9a6110da816117a5565b6110e3916114b7565b048c54906110f091611494565b8c558184556003549061110291611494565b60035561110e816117a5565b8261111982846114b7565b048c5490611126916114ea565b8c55611131916114b7565b0490670de0b6b3a7640000809260055461114a916114b7565b04906001015561115a84886114ea565b80611320575b5084158015611244575b50507f204fccf0d92ed8d48f204adb39b2e81e92bad0dedb93f5716ca9478cfb57de0095969750826111e7575b50505033855260026020526111cf6111b18387205461187e565b92519283923396846040919493926060820195825260208201520152565b0390a260016000805160206118e68339815191525580f35b805467ffffffffffffffff60801b19164290921660801b67ffffffffffffffff60801b1691909117905582519081527ffc30cddea38e2bf4d6ea7d3f9ed3b6ad7f176419f4963bd81318067a4aee73fe60203392a2858080611197565b611250866007546114ea565b6007558954156112e557818602918683041417156112d25761045061129a917f204fccf0d92ed8d48f204adb39b2e81e92bad0dedb93f5716ca9478cfb57de0098999a54906114ca565b60055584518481527f288446c5197716b76e9cbff1efd986dc6c319f565760a84cf660944cb2879c7c60203392a25b8796958961116a565b634e487b7160e01b885260118952602488fd5b50507f204fccf0d92ed8d48f204adb39b2e81e92bad0dedb93f5716ca9478cfb57de0095969750611318846006546114ea565b6006556112c9565b61134b90337f00000000000000000000000000000000000000000000000000000000000000006116f5565b89611160565b8451630ad6177f60e01b81528089018390526a084595161401484a0000006024820152604490fd5b506a084595161401484a0000008210611093565b85916044935192630fc7737160e31b84528301526024820152fd5b8382346102715781600319360112610271576020905161c3508152f35b838234610271578160031936011261027157602090516301e133808152f35b8382346102715760203660031901126102715760c09181906001600160a01b0361140c611479565b168152600260205220805491600182015460036002840154930154809267ffffffffffffffff948593825197885260208801528187015282821660608701521c16608084015260801c1660a0820152f35b84903461027157816003193601126102715780611af460209252f35b600435906001600160a01b038216820361148f57565b600080fd5b919082039182116114a157565b634e487b7160e01b600052601160045260246000fd5b818102929181159184041417156114a157565b81156114d4570490565b634e487b7160e01b600052601260045260246000fd5b919082018092116114a157565b6001600160a01b031660009081526002602052604080822060030154919291901c67ffffffffffffffff1680156115a9576115328142611494565b91620151809361154485850493611671565b946064860286810460641487151715611595576127109004946301e13380908181106115705750505090565b819293910391821161158157500490565b634e487b7160e01b81526011600452602490fd5b634e487b7160e01b83526011600452602483fd5b508180918190565b6000805160206118e683398151915260028154146115cf5760029055565b604051633ee5aeb560e01b8152600490fd5b60ff600054166115ed57565b60405163d93c066560e01b8152600490fd5b6001600160a01b031660009081526002602052604090208054801561166d5761163a6127106105ab836108c3670de0b6b3a7640000956117a5565b04906001810190815480841161164f57505055565b600261165e6116689286611494565b92019182546114ea565b905555565b5050565b67ffffffffffffffff1680156116ef5761168b9042611494565b6301e13380808210156116e8578181038181116114a157670de0b6b3a764000092838202918204841490831417156114a15782916116cf91048261086082806114b7565b04611af4908181029181830414901517156114a1570490565b5050600090565b50600090565b60405163a9059cbb60e01b60009081526001600160a01b039384166004526024949094529260209060448180855af1600160005114811615611756575b836040521561174057505050565b635274afe760e01b835216600482015260249150fd5b600181151661176c57813b15153d151616611732565b833d6000823e3d90fd5b60005460081c6001600160a01b0316330361178d57565b60405163118cdaa760e01b8152336004820152602490fd5b6acecb8f27f4200f3a000000811015611809576a52b7d2dcc80cd2e4000000811015611802576a14adf4b7320334b90000008110156117fb576a084595161401484a00000011156117f557600090565b61271090565b50614e2090565b5061c35090565b506201d4c090565b6040516323b872dd60e01b60009081526001600160a01b03938416600452938316602452604494909452909160209060648180855af1600160005114811615611868575b8360405260006060521561174057505050565b600181151661176c57813b15153d151616611855565b6acecb8f27f4200f3a0000008110156118df576a52b7d2dcc80cd2e40000008110156118d9576a14adf4b7320334b90000008110156118d3576a084595161401484a00000011156118ce57600090565b600190565b50600290565b50600390565b5060049056fe9b779b17422d0df92223018b32b4d1fa46e071723d6817e2486d003becc55f00a264697066735822122035a9ba99d1493923b2a5c3d201f00fbcbd656f8766fdd8cd1a52c60f75a6ac9364736f6c63430008180033","opcodes":"PUSH1 0xA0 CALLVALUE PUSH2 0x168 JUMPI PUSH1 0x1F PUSH2 0x1ABF CODESIZE DUP2 SWAP1 SUB SWAP2 DUP3 ADD PUSH1 0x1F NOT AND DUP4 ADD SWAP2 PUSH1 0x1 PUSH1 0x1 PUSH1 0x40 SHL SUB DUP4 GT DUP5 DUP5 LT OR PUSH2 0x16D JUMPI DUP1 DUP5 SWAP3 PUSH1 0x20 SWAP5 PUSH1 0x40 MSTORE DUP4 CODECOPY DUP2 ADD SUB SLT PUSH2 0x168 JUMPI MLOAD PUSH1 0x1 PUSH1 0x1 PUSH1 0xA0 SHL SUB SWAP1 DUP2 DUP2 AND SWAP1 DUP2 SWAP1 SUB PUSH2 0x168 JUMPI PUSH1 0x1 PUSH32 0x9B779B17422D0DF92223018B32B4D1FA46E071723D6817E2486D003BECC55F00 SSTORE CALLER ISZERO PUSH2 0x14F JUMPI PUSH1 0x1 DUP1 SLOAD PUSH1 0x1 PUSH1 0x1 PUSH1 0xA0 SHL SUB NOT AND SWAP1 SSTORE PUSH1 0x0 DUP1 SLOAD PUSH2 0x100 PUSH1 0x1 PUSH1 0xA8 SHL SUB NOT DUP2 AND CALLER PUSH1 0x8 DUP2 DUP2 SHL PUSH2 0x100 PUSH1 0x1 PUSH1 0xA8 SHL SUB AND SWAP3 SWAP1 SWAP3 OR DUP5 SSTORE PUSH1 0x40 MLOAD SWAP6 SWAP4 SWAP5 SWAP4 SWAP1 SWAP3 SWAP1 SWAP2 SHR AND PUSH32 0x8BE0079C531659141344CD1FD0A4F28419497F9722A3DAAFE3B4186F6B6457E0 DUP5 DUP1 LOG3 DUP1 ISZERO PUSH2 0x140 JUMPI PUSH1 0x40 SWAP3 POP PUSH1 0x80 MSTORE CALLER DUP2 MSTORE PUSH1 0x8 PUSH1 0x20 MSTORE KECCAK256 PUSH1 0x1 PUSH1 0xFF NOT DUP3 SLOAD AND OR SWAP1 SSTORE PUSH1 0x40 MLOAD PUSH2 0x193B SWAP1 DUP2 PUSH2 0x184 DUP3 CODECOPY PUSH1 0x80 MLOAD DUP2 DUP2 DUP2 PUSH2 0x4B8 ADD MSTORE DUP2 DUP2 PUSH2 0x633 ADD MSTORE DUP2 DUP2 PUSH2 0x7B3 ADD MSTORE DUP2 DUP2 PUSH2 0x9BC ADD MSTORE DUP2 DUP2 PUSH2 0xF5A ADD MSTORE PUSH2 0x1327 ADD MSTORE RETURN JUMPDEST PUSH4 0xD92E233D PUSH1 0xE0 SHL DUP4 MSTORE PUSH1 0x4 DUP4 REVERT JUMPDEST PUSH1 0x40 MLOAD PUSH4 0x1E4FBDF7 PUSH1 0xE0 SHL DUP2 MSTORE PUSH1 0x0 PUSH1 0x4 DUP3 ADD MSTORE PUSH1 0x24 SWAP1 REVERT JUMPDEST PUSH1 0x0 DUP1 REVERT JUMPDEST PUSH4 0x4E487B71 PUSH1 0xE0 SHL PUSH1 0x0 MSTORE PUSH1 0x41 PUSH1 0x4 MSTORE PUSH1 0x24 PUSH1 0x0 REVERT INVALID PUSH1 0x80 PUSH1 0x40 SWAP1 DUP1 DUP3 MSTORE PUSH1 0x4 SWAP2 DUP3 CALLDATASIZE LT ISZERO PUSH2 0x17 JUMPI PUSH1 0x0 DUP1 REVERT JUMPDEST PUSH1 0x0 SWAP3 DUP4 CALLDATALOAD PUSH1 0xE0 SHR SWAP3 DUP4 PUSH4 0x225D3CC EQ PUSH2 0x145D JUMPI POP DUP3 PUSH4 0x16934FC4 EQ PUSH2 0x13E4 JUMPI DUP3 PUSH4 0x1820CABB EQ PUSH2 0x13C5 JUMPI DUP3 PUSH4 0x2B2893BA EQ PUSH2 0x13A8 JUMPI DUP3 PUSH4 0x2E17DE78 EQ PUSH2 0x1028 JUMPI DUP3 PUSH4 0x2F70D1BA EQ PUSH2 0xFEA JUMPI DUP3 PUSH4 0x34279192 EQ PUSH2 0xFCB JUMPI DUP3 PUSH4 0x372500AB EQ PUSH2 0xEBC JUMPI DUP3 PUSH4 0x3F4BA83A EQ PUSH2 0xE53 JUMPI DUP3 PUSH4 0x47D62809 EQ PUSH2 0xE34 JUMPI DUP3 PUSH4 0x5152F67F EQ PUSH2 0xE16 JUMPI DUP3 PUSH4 0x5C975ABB EQ PUSH2 0xDF4 JUMPI DUP3 PUSH4 0x679F5418 EQ PUSH2 0xDCE JUMPI DUP3 PUSH4 0x67BA3D90 EQ PUSH2 0xD94 JUMPI DUP3 PUSH4 0x6F843F59 EQ PUSH2 0xCF7 JUMPI DUP3 PUSH4 0x6F860D74 EQ PUSH2 0xC5F JUMPI DUP3 PUSH4 0x715018A6 EQ PUSH2 0xBF1 JUMPI DUP3 PUSH4 0x79BA5097 EQ PUSH2 0xB50 JUMPI DUP3 PUSH4 0x7EAACDB0 EQ PUSH2 0xB31 JUMPI DUP3 PUSH4 0x817B1CD2 EQ PUSH2 0xB12 JUMPI DUP3 PUSH4 0x8456CB59 EQ PUSH2 0xAB9 JUMPI DUP3 PUSH4 0x8BDF67F2 EQ PUSH2 0x976 JUMPI DUP3 PUSH4 0x8DA5CB5B EQ PUSH2 0x94A JUMPI DUP3 PUSH4 0x939D6237 EQ PUSH2 0x92B JUMPI DUP3 PUSH4 0x9A14EF0D EQ PUSH2 0x905 JUMPI DUP3 PUSH4 0xA694FC3A EQ PUSH2 0x662 JUMPI DUP3 PUSH4 0xA6DF0831 EQ PUSH2 0x61E JUMPI DUP3 PUSH4 0xB45AAE52 EQ PUSH2 0x5DD JUMPI DUP3 PUSH4 0xC3453153 EQ PUSH2 0x517 JUMPI DUP3 PUSH4 0xD4E6C5C4 EQ PUSH2 0x4F1 JUMPI DUP3 PUSH4 0xDB2E21BC EQ PUSH2 0x2FE JUMPI POP DUP2 PUSH4 0xDE0F9093 EQ PUSH2 0x2E1 JUMPI DUP2 PUSH4 0xE080F071 EQ PUSH2 0x2BB JUMPI DUP2 PUSH4 0xE18C7DFC EQ PUSH2 0x29E JUMPI DUP2 PUSH4 0xE30C3978 EQ PUSH2 0x275 JUMPI DUP2 PUSH4 0xF2760E9D EQ PUSH2 0x233 JUMPI POP PUSH4 0xF2FDE38B EQ PUSH2 0x1BE JUMPI PUSH1 0x0 DUP1 REVERT JUMPDEST CALLVALUE PUSH2 0x230 JUMPI PUSH1 0x20 CALLDATASIZE PUSH1 0x3 NOT ADD SLT PUSH2 0x230 JUMPI PUSH2 0x1D7 PUSH2 0x1479 JUMP JUMPDEST PUSH2 0x1DF PUSH2 0x1776 JUMP JUMPDEST PUSH1 0x1 DUP1 PUSH1 0xA0 SHL SUB DUP1 SWAP2 AND SWAP1 DUP2 PUSH12 0xFFFFFFFFFFFFFFFFFFFFFFFF PUSH1 0xA0 SHL PUSH1 0x1 SLOAD AND OR PUSH1 0x1 SSTORE DUP3 SLOAD PUSH1 0x8 SHR AND PUSH32 0x38D16B8CAC22D99FC7C124B9CD0DE2D3FA1FAEF420BFE791D8C362D765E22700 DUP4 DUP1 LOG3 DUP1 RETURN JUMPDEST DUP1 REVERT JUMPDEST SWAP1 POP CALLVALUE PUSH2 0x271 JUMPI PUSH1 0x20 CALLDATASIZE PUSH1 0x3 NOT ADD SLT PUSH2 0x271 JUMPI PUSH1 0x80 SWAP1 PUSH2 0x259 PUSH2 0x254 PUSH2 0x1479 JUMP JUMPDEST PUSH2 0x14F7 JUMP JUMPDEST SWAP3 SWAP4 SWAP1 SWAP2 DUP2 MLOAD SWAP5 DUP6 MSTORE PUSH1 0x20 DUP6 ADD MSTORE DUP4 ADD MSTORE PUSH1 0x60 DUP3 ADD MSTORE RETURN JUMPDEST POP DUP1 REVERT JUMPDEST SWAP1 POP CALLVALUE PUSH2 0x271 JUMPI DUP2 PUSH1 0x3 NOT CALLDATASIZE ADD SLT PUSH2 0x271 JUMPI PUSH1 0x1 SLOAD SWAP1 MLOAD PUSH1 0x1 PUSH1 0x1 PUSH1 0xA0 SHL SUB SWAP1 SWAP2 AND DUP2 MSTORE PUSH1 0x20 SWAP1 RETURN JUMPDEST SWAP1 POP CALLVALUE PUSH2 0x271 JUMPI DUP2 PUSH1 0x3 NOT CALLDATASIZE ADD SLT PUSH2 0x271 JUMPI PUSH1 0x20 SWAP1 MLOAD PUSH2 0x4E20 DUP2 MSTORE RETURN JUMPDEST SWAP1 POP CALLVALUE PUSH2 0x271 JUMPI DUP2 PUSH1 0x3 NOT CALLDATASIZE ADD SLT PUSH2 0x271 JUMPI PUSH1 0x20 SWAP1 MLOAD PUSH11 0x14ADF4B7320334B9000000 DUP2 MSTORE RETURN JUMPDEST SWAP1 POP CALLVALUE PUSH2 0x271 JUMPI DUP2 PUSH1 0x3 NOT CALLDATASIZE ADD SLT PUSH2 0x271 JUMPI PUSH1 0x20 SWAP1 MLOAD PUSH2 0x2710 DUP2 MSTORE RETURN JUMPDEST DUP4 DUP3 CALLVALUE PUSH2 0x271 JUMPI DUP2 PUSH1 0x3 NOT CALLDATASIZE ADD SLT PUSH2 0x271 JUMPI PUSH2 0x318 PUSH2 0x15B1 JUMP JUMPDEST CALLER DUP3 MSTORE PUSH1 0x2 PUSH1 0x20 MSTORE DUP1 DUP3 KECCAK256 SWAP1 DUP2 SLOAD DUP1 ISZERO PUSH2 0x4E1 JUMPI DUP4 PUSH1 0x2 PUSH2 0x2710 SWAP5 PUSH2 0x38D DUP7 PUSH2 0x359 PUSH2 0x353 PUSH8 0xFFFFFFFFFFFFFFFF PUSH1 0x3 DUP7 ADD SLOAD DUP11 SHR AND PUSH2 0x1671 JUMP JUMPDEST DUP8 PUSH2 0x14B7 JUMP JUMPDEST DIV SWAP5 PUSH2 0x383 PUSH2 0x368 DUP8 DUP4 PUSH2 0x1494 JUMP JUMPDEST SWAP9 PUSH2 0x37B PUSH2 0x375 DUP5 PUSH2 0x17A5 JUMP JUMPDEST DUP5 PUSH2 0x14B7 JUMP JUMPDEST DIV DUP12 SLOAD PUSH2 0x1494 JUMP JUMPDEST DUP11 SSTORE PUSH1 0x3 SLOAD PUSH2 0x1494 JUMP JUMPDEST PUSH1 0x3 SSTORE DUP3 DUP2 SSTORE DUP3 PUSH1 0x1 DUP3 ADD SSTORE ADD SSTORE DUP3 PUSH2 0x4B1 JUMPI JUMPDEST DUP1 ISZERO DUP1 ISZERO PUSH2 0x3F0 JUMPI JUMPDEST POP SWAP1 PUSH32 0xBB757047C2B5F3974FE26B7C10F732E7BCE710B0952A71082702781E62AE0595 SWAP2 DUP2 MLOAD SWAP4 DUP5 MSTORE PUSH1 0x20 DUP5 ADD MSTORE CALLER SWAP3 LOG2 PUSH1 0x1 PUSH1 0x0 DUP1 MLOAD PUSH1 0x20 PUSH2 0x18E6 DUP4 CODECOPY DUP2 MLOAD SWAP2 MSTORE SSTORE DUP1 RETURN JUMPDEST PUSH2 0x3FC DUP3 PUSH1 0x7 SLOAD PUSH2 0x14EA JUMP JUMPDEST PUSH1 0x7 SSTORE DUP6 SLOAD ISZERO PUSH2 0x477 JUMPI PUSH8 0xDE0B6B3A7640000 SWAP1 DUP2 DUP4 MUL SWAP2 DUP4 DUP4 DIV EQ OR ISZERO PUSH2 0x464 JUMPI PUSH2 0x450 PUSH2 0x458 SWAP2 PUSH32 0xBB757047C2B5F3974FE26B7C10F732E7BCE710B0952A71082702781E62AE0595 SWAP6 SWAP7 SWAP8 SLOAD SWAP1 PUSH2 0x14CA JUMP JUMPDEST PUSH1 0x5 SLOAD PUSH2 0x14EA JUMP JUMPDEST PUSH1 0x5 SSTORE JUMPDEST DUP5 SWAP4 SWAP3 PUSH2 0x3AA JUMP JUMPDEST PUSH4 0x4E487B71 PUSH1 0xE0 SHL DUP6 MSTORE PUSH1 0x11 DUP7 MSTORE PUSH1 0x24 DUP6 REVERT JUMPDEST POP PUSH32 0xBB757047C2B5F3974FE26B7C10F732E7BCE710B0952A71082702781E62AE0595 SWAP3 SWAP4 SWAP5 POP PUSH2 0x4A9 DUP2 PUSH1 0x6 SLOAD PUSH2 0x14EA JUMP JUMPDEST PUSH1 0x6 SSTORE PUSH2 0x45C JUMP JUMPDEST PUSH2 0x4DC DUP4 CALLER PUSH32 0x0 PUSH2 0x16F5 JUMP JUMPDEST PUSH2 0x3A1 JUMP JUMPDEST DUP2 MLOAD PUSH4 0x1F2A2005 PUSH1 0xE0 SHL DUP2 MSTORE DUP6 SWAP1 REVERT JUMPDEST DUP4 DUP3 CALLVALUE PUSH2 0x271 JUMPI DUP2 PUSH1 0x3 NOT CALLDATASIZE ADD SLT PUSH2 0x271 JUMPI PUSH1 0x20 SWAP1 MLOAD PUSH11 0xCECB8F27F4200F3A000000 DUP2 MSTORE RETURN JUMPDEST DUP4 DUP3 CALLVALUE PUSH2 0x271 JUMPI PUSH1 0x20 CALLDATASIZE PUSH1 0x3 NOT ADD SLT PUSH2 0x271 JUMPI DUP1 PUSH1 0xA0 SWAP3 PUSH2 0x536 PUSH2 0x1479 JUMP JUMPDEST PUSH1 0x1 DUP1 DUP7 SHL SUB AND DUP2 MSTORE PUSH1 0x2 PUSH1 0x20 MSTORE KECCAK256 DUP1 SLOAD SWAP2 PUSH2 0x551 DUP4 PUSH2 0x187E JUMP JUMPDEST PUSH2 0x55A DUP5 PUSH2 0x17A5 JUMP JUMPDEST SWAP2 PUSH2 0x2710 DUP1 PUSH2 0x569 DUP6 DUP9 PUSH2 0x14B7 JUMP JUMPDEST DIV SWAP5 PUSH1 0x2 DUP2 ADD SLOAD SWAP2 DUP8 PUSH2 0x592 JUMPI JUMPDEST POP POP DUP2 MLOAD SWAP6 DUP7 MSTORE PUSH1 0x20 DUP7 ADD MSTORE DUP5 ADD MSTORE PUSH1 0x60 DUP4 ADD MSTORE PUSH1 0x80 DUP3 ADD MSTORE RETURN JUMPDEST PUSH8 0xDE0B6B3A7640000 PUSH2 0x5B5 PUSH1 0x1 SWAP3 PUSH2 0x5AB DUP10 DUP13 PUSH2 0x14B7 JUMP JUMPDEST DIV PUSH1 0x5 SLOAD SWAP1 PUSH2 0x14B7 JUMP JUMPDEST DIV SWAP2 ADD SLOAD SWAP1 DUP2 DUP2 GT ISZERO PUSH2 0x577 JUMPI PUSH2 0x5D6 SWAP3 SWAP2 PUSH2 0x5D0 SWAP2 PUSH2 0x1494 JUMP JUMPDEST SWAP1 PUSH2 0x14EA JUMP JUMPDEST DUP8 DUP1 PUSH2 0x577 JUMP JUMPDEST DUP4 DUP3 CALLVALUE PUSH2 0x271 JUMPI PUSH1 0x20 CALLDATASIZE PUSH1 0x3 NOT ADD SLT PUSH2 0x271 JUMPI PUSH1 0x20 SWAP2 PUSH2 0x617 SWAP1 DUP3 SWAP1 PUSH1 0x1 PUSH1 0x1 PUSH1 0xA0 SHL SUB PUSH2 0x609 PUSH2 0x1479 JUMP JUMPDEST AND DUP2 MSTORE PUSH1 0x2 DUP6 MSTORE KECCAK256 SLOAD PUSH2 0x187E JUMP JUMPDEST SWAP1 MLOAD SWAP1 DUP2 MSTORE RETURN JUMPDEST DUP4 DUP3 CALLVALUE PUSH2 0x271 JUMPI DUP2 PUSH1 0x3 NOT CALLDATASIZE ADD SLT PUSH2 0x271 JUMPI MLOAD PUSH32 0x0 PUSH1 0x1 PUSH1 0x1 PUSH1 0xA0 SHL SUB AND DUP2 MSTORE PUSH1 0x20 SWAP1 RETURN JUMPDEST DUP4 DUP3 CALLVALUE PUSH2 0x271 JUMPI PUSH1 0x20 CALLDATASIZE PUSH1 0x3 NOT ADD SLT PUSH2 0x271 JUMPI DUP3 CALLDATALOAD SWAP1 PUSH2 0x680 PUSH2 0x15B1 JUMP JUMPDEST PUSH2 0x688 PUSH2 0x15E1 JUMP JUMPDEST DUP2 ISZERO PUSH2 0x8F6 JUMPI CALLER DUP4 MSTORE PUSH1 0x2 PUSH1 0x20 MSTORE DUP1 DUP4 KECCAK256 PUSH2 0x6A4 DUP4 DUP3 SLOAD PUSH2 0x14EA JUMP JUMPDEST PUSH11 0x84595161401484A000000 DUP1 DUP3 LT PUSH2 0x8D9 JUMPI POP PUSH2 0x728 SWAP1 PUSH2 0x6C5 CALLER PUSH2 0x15FF JUMP JUMPDEST DUP3 SLOAD DUP1 PUSH2 0x8B0 JUMPI JUMPDEST POP DUP1 DUP4 SSTORE PUSH2 0x6DD DUP6 PUSH1 0x3 SLOAD PUSH2 0x14EA JUMP JUMPDEST PUSH1 0x3 SSTORE PUSH2 0x6E9 DUP2 PUSH2 0x17A5 JUMP JUMPDEST PUSH2 0x2710 SWAP1 PUSH2 0x703 DUP3 PUSH2 0x6FB DUP4 DUP7 PUSH2 0x14B7 JUMP JUMPDEST DIV DUP11 SLOAD PUSH2 0x14EA JUMP JUMPDEST DUP10 SSTORE PUSH1 0x3 DUP3 PUSH2 0x712 DUP4 DUP7 PUSH2 0x14B7 JUMP JUMPDEST DIV PUSH8 0xDE0B6B3A7640000 SWAP6 DUP7 SWAP2 PUSH1 0x5 SLOAD SWAP1 PUSH2 0x14B7 JUMP JUMPDEST DIV SWAP6 PUSH1 0x1 DUP2 ADD SWAP7 DUP8 SSTORE ADD DUP1 SLOAD PUSH8 0xFFFFFFFFFFFFFFFF DUP1 DUP3 AND ISZERO PUSH2 0x898 JUMPI JUMPDEST POP POP DUP1 SLOAD PUSH16 0xFFFFFFFFFFFFFFFF0000000000000000 NOT AND TIMESTAMP DUP9 SHL PUSH16 0xFFFFFFFFFFFFFFFF0000000000000000 AND OR SWAP1 SSTORE PUSH1 0x6 SLOAD DUP1 ISZERO DUP1 ISZERO DUP1 PUSH2 0x88E JUMPI JUMPDEST PUSH2 0x80D JUMPI JUMPDEST DUP10 DUP10 PUSH32 0x1449C6DD7851ABC30ABF37F57715F492010519147CC2652FBC38202C18A6EE90 DUP11 PUSH2 0x7D7 DUP4 ADDRESS CALLER PUSH32 0x0 PUSH2 0x1811 JUMP JUMPDEST CALLER DUP5 MSTORE PUSH1 0x2 PUSH1 0x20 MSTORE PUSH2 0x7EB DUP2 DUP6 KECCAK256 SLOAD PUSH2 0x187E JUMP JUMPDEST DUP2 MLOAD SWAP4 DUP5 MSTORE PUSH1 0x20 DUP5 ADD MSTORE CALLER SWAP3 LOG2 PUSH1 0x1 PUSH1 0x0 DUP1 MLOAD PUSH1 0x20 PUSH2 0x18E6 DUP4 CODECOPY DUP2 MLOAD SWAP2 MSTORE SSTORE DUP1 RETURN JUMPDEST DUP6 DUP3 MUL SWAP2 DUP3 DIV DUP7 EQ OR ISZERO PUSH2 0x87B JUMPI PUSH2 0x866 SWAP4 SWAP3 SWAP2 PUSH2 0x856 PUSH2 0x450 PUSH2 0x860 SWAP4 PUSH32 0x1449C6DD7851ABC30ABF37F57715F492010519147CC2652FBC38202C18A6EE90 SWAP12 SWAP13 SWAP14 SLOAD SWAP1 PUSH2 0x14CA JUMP JUMPDEST SWAP4 DUP5 PUSH1 0x5 SSTORE PUSH2 0x14B7 JUMP JUMPDEST DIV PUSH2 0x14B7 JUMP JUMPDEST DIV SWAP1 SSTORE DUP4 PUSH1 0x6 SSTORE DUP4 SWAP3 SWAP2 DUP6 DUP1 DUP1 DUP1 DUP1 DUP1 PUSH2 0x787 JUMP JUMPDEST PUSH4 0x4E487B71 PUSH1 0xE0 SHL DUP10 MSTORE PUSH1 0x11 DUP11 MSTORE PUSH1 0x24 DUP10 REVERT JUMPDEST POP DUP11 SLOAD ISZERO ISZERO PUSH2 0x782 JUMP JUMPDEST TIMESTAMP AND SWAP1 PUSH8 0xFFFFFFFFFFFFFFFF NOT AND OR DUP2 SSTORE DUP11 DUP1 PUSH2 0x746 JUMP JUMPDEST PUSH2 0x2710 PUSH2 0x8C9 DUP3 PUSH2 0x8C3 PUSH2 0x8D1 SWAP5 PUSH2 0x17A5 JUMP JUMPDEST SWAP1 PUSH2 0x14B7 JUMP JUMPDEST DIV DUP9 SLOAD PUSH2 0x1494 JUMP JUMPDEST DUP8 SSTORE DUP8 PUSH2 0x6CD JUMP JUMPDEST DUP4 MLOAD PUSH4 0xAD6177F PUSH1 0xE0 SHL DUP2 MSTORE DUP1 DUP9 ADD SWAP3 SWAP1 SWAP3 MSTORE PUSH1 0x24 DUP3 ADD MSTORE PUSH1 0x44 SWAP1 REVERT JUMPDEST MLOAD PUSH4 0x1F2A2005 PUSH1 0xE0 SHL DUP2 MSTORE DUP4 SWAP1 REVERT JUMPDEST DUP4 DUP3 CALLVALUE PUSH2 0x271 JUMPI DUP2 PUSH1 0x3 NOT CALLDATASIZE ADD SLT PUSH2 0x271 JUMPI PUSH1 0x20 SWAP1 MLOAD PUSH11 0x84595161401484A000000 DUP2 MSTORE RETURN JUMPDEST DUP4 DUP3 CALLVALUE PUSH2 0x271 JUMPI DUP2 PUSH1 0x3 NOT CALLDATASIZE ADD SLT PUSH2 0x271 JUMPI PUSH1 0x20 SWAP1 PUSH1 0x5 SLOAD SWAP1 MLOAD SWAP1 DUP2 MSTORE RETURN JUMPDEST DUP4 DUP3 CALLVALUE PUSH2 0x271 JUMPI DUP2 PUSH1 0x3 NOT CALLDATASIZE ADD SLT PUSH2 0x271 JUMPI SWAP1 SLOAD SWAP1 MLOAD PUSH1 0x8 SWAP2 SWAP1 SWAP2 SHR PUSH1 0x1 PUSH1 0x1 PUSH1 0xA0 SHL SUB AND DUP2 MSTORE PUSH1 0x20 SWAP1 RETURN JUMPDEST SWAP2 POP CALLVALUE PUSH2 0xAB5 JUMPI PUSH1 0x20 CALLDATASIZE PUSH1 0x3 NOT ADD SLT PUSH2 0xAB5 JUMPI DUP2 CALLDATALOAD SWAP2 PUSH2 0x994 PUSH2 0x15B1 JUMP JUMPDEST CALLER DUP5 MSTORE PUSH1 0x8 PUSH1 0x20 MSTORE PUSH1 0xFF DUP3 DUP6 KECCAK256 SLOAD AND ISZERO DUP1 PUSH2 0xA9B JUMPI JUMPDEST PUSH2 0xA8D JUMPI DUP3 ISZERO PUSH2 0xA7F JUMPI PUSH2 0x9E0 DUP4 ADDRESS CALLER PUSH32 0x0 PUSH2 0x1811 JUMP JUMPDEST DUP1 SLOAD ISZERO PUSH2 0xA6A JUMPI PUSH8 0xDE0B6B3A7640000 DUP4 MUL SWAP1 PUSH8 0xDE0B6B3A763FFFF NOT DUP5 DUP4 DIV ADD PUSH2 0xA57 JUMPI PUSH2 0xA14 SWAP2 PUSH2 0x450 SWAP2 SLOAD SWAP1 PUSH2 0x14CA JUMP JUMPDEST PUSH1 0x5 SSTORE JUMPDEST MLOAD SWAP1 DUP2 MSTORE PUSH32 0xB8B27D0DB504FA5D914F1FD330347096E88D5FF94B6C612D32797E7C12A8F66F PUSH1 0x20 CALLER SWAP3 LOG2 PUSH1 0x1 PUSH1 0x0 DUP1 MLOAD PUSH1 0x20 PUSH2 0x18E6 DUP4 CODECOPY DUP2 MLOAD SWAP2 MSTORE SSTORE DUP1 RETURN JUMPDEST PUSH4 0x4E487B71 PUSH1 0xE0 SHL DUP6 MSTORE PUSH1 0x11 SWAP1 MSTORE PUSH1 0x24 DUP5 REVERT JUMPDEST POP PUSH2 0xA77 DUP3 PUSH1 0x6 SLOAD PUSH2 0x14EA JUMP JUMPDEST PUSH1 0x6 SSTORE PUSH2 0xA18 JUMP JUMPDEST SWAP1 MLOAD PUSH4 0x1F2A2005 PUSH1 0xE0 SHL DUP2 MSTORE REVERT JUMPDEST SWAP1 MLOAD PUSH4 0x3CC50B45 PUSH1 0xE0 SHL DUP2 MSTORE REVERT JUMPDEST POP DUP4 SLOAD CALLER PUSH1 0x8 SWAP2 SWAP1 SWAP2 SHR PUSH1 0x1 PUSH1 0x1 PUSH1 0xA0 SHL SUB AND EQ ISZERO PUSH2 0x9AA JUMP JUMPDEST DUP3 DUP1 REVERT JUMPDEST DUP4 DUP3 CALLVALUE PUSH2 0x271 JUMPI DUP2 PUSH1 0x3 NOT CALLDATASIZE ADD SLT PUSH2 0x271 JUMPI PUSH1 0x20 PUSH32 0x62E78CEA01BEE320CD4E420270B5EA74000D11B0C9F74754EBDBFC544B05A258 SWAP2 PUSH2 0xAF7 PUSH2 0x1776 JUMP JUMPDEST PUSH2 0xAFF PUSH2 0x15E1 JUMP JUMPDEST DUP4 SLOAD PUSH1 0xFF NOT AND PUSH1 0x1 OR DUP5 SSTORE MLOAD CALLER DUP2 MSTORE LOG1 DUP1 RETURN JUMPDEST DUP4 DUP3 CALLVALUE PUSH2 0x271 JUMPI DUP2 PUSH1 0x3 NOT CALLDATASIZE ADD SLT PUSH2 0x271 JUMPI PUSH1 0x20 SWAP1 PUSH1 0x3 SLOAD SWAP1 MLOAD SWAP1 DUP2 MSTORE RETURN JUMPDEST DUP4 DUP3 CALLVALUE PUSH2 0x271 JUMPI DUP2 PUSH1 0x3 NOT CALLDATASIZE ADD SLT PUSH2 0x271 JUMPI PUSH1 0x20 SWAP1 PUSH1 0x7 SLOAD SWAP1 MLOAD SWAP1 DUP2 MSTORE RETURN JUMPDEST SWAP1 SWAP2 POP CALLVALUE PUSH2 0xAB5 JUMPI DUP3 PUSH1 0x3 NOT CALLDATASIZE ADD SLT PUSH2 0xAB5 JUMPI PUSH1 0x1 SLOAD PUSH1 0x1 PUSH1 0x1 PUSH1 0xA0 SHL SUB SWAP3 SWAP1 SWAP2 SWAP1 CALLER DUP5 DUP5 AND SUB PUSH2 0xBDA JUMPI POP POP PUSH1 0x1 PUSH1 0x1 PUSH1 0xA0 SHL SUB NOT AND PUSH1 0x1 SSTORE DUP2 SLOAD PUSH2 0x100 PUSH1 0x1 PUSH1 0xA8 SHL SUB NOT DUP2 AND CALLER PUSH1 0x8 DUP2 DUP2 SHL PUSH2 0x100 PUSH1 0x1 PUSH1 0xA8 SHL SUB AND SWAP3 SWAP1 SWAP3 OR DUP6 SSTORE SWAP3 SWAP2 SWAP1 SHR AND PUSH32 0x8BE0079C531659141344CD1FD0A4F28419497F9722A3DAAFE3B4186F6B6457E0 DUP4 DUP1 LOG3 DUP1 RETURN JUMPDEST PUSH1 0x24 SWAP3 POP MLOAD SWAP1 PUSH4 0x118CDAA7 PUSH1 0xE0 SHL DUP3 MSTORE CALLER SWAP1 DUP3 ADD MSTORE REVERT JUMPDEST DUP4 CALLVALUE PUSH2 0x230 JUMPI DUP1 PUSH1 0x3 NOT CALLDATASIZE ADD SLT PUSH2 0x230 JUMPI PUSH2 0xC0A PUSH2 0x1776 JUMP JUMPDEST PUSH1 0x1 DUP1 SLOAD PUSH1 0x1 PUSH1 0x1 PUSH1 0xA0 SHL SUB NOT AND SWAP1 SSTORE DUP1 SLOAD PUSH2 0x100 PUSH1 0x1 PUSH1 0xA8 SHL SUB NOT DUP2 AND DUP3 SSTORE DUP2 SWAP1 PUSH1 0x8 SHR PUSH1 0x1 PUSH1 0x1 PUSH1 0xA0 SHL SUB AND PUSH32 0x8BE0079C531659141344CD1FD0A4F28419497F9722A3DAAFE3B4186F6B6457E0 DUP3 DUP1 LOG3 DUP1 RETURN JUMPDEST SWAP2 POP CALLVALUE PUSH2 0xAB5 JUMPI DUP1 PUSH1 0x3 NOT CALLDATASIZE ADD SLT PUSH2 0xAB5 JUMPI PUSH2 0xC79 PUSH2 0x1479 JUMP JUMPDEST SWAP1 PUSH1 0x24 CALLDATALOAD SWAP2 DUP3 ISZERO ISZERO DUP1 SWAP4 SUB PUSH2 0xCF3 JUMPI PUSH2 0xC90 PUSH2 0x1776 JUMP JUMPDEST PUSH1 0x1 PUSH1 0x1 PUSH1 0xA0 SHL SUB AND SWAP3 DUP4 ISZERO PUSH2 0xCE5 JUMPI POP PUSH32 0x39A9D042226D79715733AD9813464B1DC2AC69065753FD66D6678D28371480BE SWAP2 PUSH1 0x20 SWAP2 DUP5 DUP7 MSTORE PUSH1 0x8 DUP4 MSTORE DUP1 DUP7 KECCAK256 PUSH1 0xFF NOT DUP2 SLOAD AND PUSH1 0xFF DUP5 AND OR SWAP1 SSTORE MLOAD SWAP1 DUP2 MSTORE LOG2 DUP1 RETURN JUMPDEST SWAP1 MLOAD PUSH4 0xD92E233D PUSH1 0xE0 SHL DUP2 MSTORE REVERT JUMPDEST DUP5 DUP1 REVERT JUMPDEST DUP4 DUP3 CALLVALUE PUSH2 0x271 JUMPI DUP1 PUSH1 0x3 NOT CALLDATASIZE ADD SLT PUSH2 0x271 JUMPI DUP1 PUSH2 0xD12 PUSH2 0x1479 JUMP JUMPDEST PUSH1 0x1 PUSH1 0x1 PUSH1 0xA0 SHL SUB AND DUP4 MSTORE PUSH1 0x2 PUSH1 0x20 MSTORE SWAP1 SWAP2 KECCAK256 DUP1 SLOAD PUSH1 0x24 CALLDATALOAD SWAP3 SWAP2 SWAP1 DUP1 DUP5 GT PUSH2 0xD8A JUMPI JUMPDEST POP PUSH2 0xD52 PUSH8 0xFFFFFFFFFFFFFFFF PUSH1 0x3 PUSH2 0xD86 SWAP4 ADD SLOAD DUP5 SHR AND PUSH2 0x1671 JUMP JUMPDEST PUSH2 0xD6A PUSH2 0x2710 PUSH2 0xD62 DUP4 DUP8 PUSH2 0x14B7 JUMP JUMPDEST DIV DUP1 SWAP6 PUSH2 0x1494 JUMP JUMPDEST SWAP3 MLOAD SWAP4 DUP5 SWAP4 DUP5 PUSH1 0x40 SWAP2 SWAP5 SWAP4 SWAP3 PUSH1 0x60 DUP3 ADD SWAP6 DUP3 MSTORE PUSH1 0x20 DUP3 ADD MSTORE ADD MSTORE JUMP JUMPDEST SUB SWAP1 RETURN JUMPDEST SWAP3 POP PUSH2 0xD52 PUSH2 0xD35 JUMP JUMPDEST DUP4 DUP3 CALLVALUE PUSH2 0x271 JUMPI PUSH1 0x20 CALLDATASIZE PUSH1 0x3 NOT ADD SLT PUSH2 0x271 JUMPI PUSH1 0x20 SWAP2 PUSH2 0x617 SWAP1 DUP3 SWAP1 PUSH1 0x1 PUSH1 0x1 PUSH1 0xA0 SHL SUB PUSH2 0xDC0 PUSH2 0x1479 JUMP JUMPDEST AND DUP2 MSTORE PUSH1 0x2 DUP6 MSTORE KECCAK256 SLOAD PUSH2 0x17A5 JUMP JUMPDEST DUP4 DUP3 CALLVALUE PUSH2 0x271 JUMPI DUP2 PUSH1 0x3 NOT CALLDATASIZE ADD SLT PUSH2 0x271 JUMPI PUSH1 0x20 SWAP1 MLOAD PUSH11 0x52B7D2DCC80CD2E4000000 DUP2 MSTORE RETURN JUMPDEST DUP4 DUP3 CALLVALUE PUSH2 0x271 JUMPI DUP2 PUSH1 0x3 NOT CALLDATASIZE ADD SLT PUSH2 0x271 JUMPI PUSH1 0xFF PUSH1 0x20 SWAP3 SLOAD AND SWAP1 MLOAD SWAP1 ISZERO ISZERO DUP2 MSTORE RETURN JUMPDEST DUP4 DUP3 CALLVALUE PUSH2 0x271 JUMPI DUP2 PUSH1 0x3 NOT CALLDATASIZE ADD SLT PUSH2 0x271 JUMPI PUSH1 0x20 SWAP1 MLOAD PUSH3 0x1D4C0 DUP2 MSTORE RETURN JUMPDEST SWAP1 SWAP2 POP CALLVALUE PUSH2 0xAB5 JUMPI DUP3 PUSH1 0x3 NOT CALLDATASIZE ADD SLT PUSH2 0xAB5 JUMPI PUSH1 0x20 SWAP3 POP SLOAD SWAP1 MLOAD SWAP1 DUP2 MSTORE RETURN JUMPDEST SWAP1 SWAP2 POP CALLVALUE PUSH2 0xAB5 JUMPI DUP3 PUSH1 0x3 NOT CALLDATASIZE ADD SLT PUSH2 0xAB5 JUMPI PUSH2 0xE6E PUSH2 0x1776 JUMP JUMPDEST DUP3 SLOAD SWAP1 PUSH1 0xFF DUP3 AND ISZERO PUSH2 0xEAE JUMPI POP PUSH1 0xFF NOT AND DUP3 SSTORE MLOAD CALLER DUP2 MSTORE PUSH32 0x5DB9EE0A495BF2E6FF9C91A7834C1BA4FDD244A5E8AA4E537BD38AEAE4B073AA SWAP1 PUSH1 0x20 SWAP1 LOG1 DUP1 RETURN JUMPDEST DUP3 MLOAD PUSH4 0x8DFC202B PUSH1 0xE0 SHL DUP2 MSTORE REVERT JUMPDEST SWAP2 POP CALLVALUE PUSH2 0xAB5 JUMPI DUP3 PUSH1 0x3 NOT CALLDATASIZE ADD SLT PUSH2 0xAB5 JUMPI PUSH2 0xED6 PUSH2 0x15B1 JUMP JUMPDEST PUSH2 0xEDE PUSH2 0x15E1 JUMP JUMPDEST PUSH2 0xEE7 CALLER PUSH2 0x15FF JUMP JUMPDEST CALLER DUP4 MSTORE PUSH1 0x2 PUSH1 0x20 MSTORE DUP1 DUP4 KECCAK256 PUSH1 0x2 DUP2 ADD DUP1 SLOAD SWAP4 DUP5 ISZERO PUSH2 0xFBD JUMPI POP SWAP1 DUP5 PUSH2 0xF53 SWAP3 SSTORE PUSH8 0xDE0B6B3A7640000 PUSH2 0xF24 PUSH2 0x2710 PUSH2 0x5AB DUP5 SLOAD PUSH2 0x8C3 DUP2 PUSH2 0x17A5 JUMP JUMPDEST DIV PUSH1 0x1 DUP3 ADD SSTORE PUSH1 0x3 ADD DUP1 SLOAD PUSH8 0xFFFFFFFFFFFFFFFF PUSH1 0x80 SHL NOT AND TIMESTAMP PUSH1 0x80 SHL PUSH8 0xFFFFFFFFFFFFFFFF PUSH1 0x80 SHL AND OR SWAP1 SSTORE JUMP JUMPDEST PUSH2 0xF7E DUP3 CALLER PUSH32 0x0 PUSH2 0x16F5 JUMP JUMPDEST MLOAD SWAP1 DUP2 MSTORE PUSH32 0xFC30CDDEA38E2BF4D6EA7D3F9ED3B6AD7F176419F4963BD81318067A4AEE73FE PUSH1 0x20 CALLER SWAP3 LOG2 PUSH1 0x1 PUSH1 0x0 DUP1 MLOAD PUSH1 0x20 PUSH2 0x18E6 DUP4 CODECOPY DUP2 MLOAD SWAP2 MSTORE SSTORE DUP1 RETURN JUMPDEST DUP4 MLOAD PUSH4 0x12D37EE5 PUSH1 0xE3 SHL DUP2 MSTORE REVERT JUMPDEST DUP4 DUP3 CALLVALUE PUSH2 0x271 JUMPI DUP2 PUSH1 0x3 NOT CALLDATASIZE ADD SLT PUSH2 0x271 JUMPI PUSH1 0x20 SWAP1 PUSH1 0x6 SLOAD SWAP1 MLOAD SWAP1 DUP2 MSTORE RETURN JUMPDEST DUP4 DUP3 CALLVALUE PUSH2 0x271 JUMPI PUSH1 0x20 CALLDATASIZE PUSH1 0x3 NOT ADD SLT PUSH2 0x271 JUMPI PUSH1 0x20 SWAP2 PUSH1 0xFF SWAP1 DUP3 SWAP1 PUSH1 0x1 PUSH1 0x1 PUSH1 0xA0 SHL SUB PUSH2 0x1015 PUSH2 0x1479 JUMP JUMPDEST AND DUP2 MSTORE PUSH1 0x8 DUP6 MSTORE KECCAK256 SLOAD AND SWAP1 MLOAD SWAP1 ISZERO ISZERO DUP2 MSTORE RETURN JUMPDEST DUP4 DUP3 CALLVALUE PUSH2 0x271 JUMPI PUSH1 0x20 CALLDATASIZE PUSH1 0x3 NOT ADD SLT PUSH2 0x271 JUMPI DUP3 CALLDATALOAD SWAP1 PUSH2 0x1046 PUSH2 0x15B1 JUMP JUMPDEST PUSH2 0x104E PUSH2 0x15E1 JUMP JUMPDEST CALLER DUP4 MSTORE PUSH1 0x2 PUSH1 0x20 MSTORE DUP1 DUP4 KECCAK256 SWAP2 DUP1 ISZERO PUSH2 0x4E1 JUMPI DUP3 SLOAD DUP1 DUP3 GT PUSH2 0x138D JUMPI POP PUSH2 0x1073 CALLER PUSH2 0x15FF JUMP JUMPDEST PUSH1 0x2 DUP4 ADD DUP5 DUP2 SLOAD SWAP2 SSTORE DUP4 SLOAD SWAP4 PUSH2 0x1089 DUP4 DUP7 PUSH2 0x1494 JUMP JUMPDEST SWAP1 DUP2 ISZERO ISZERO DUP1 PUSH2 0x1379 JUMPI JUMPDEST PUSH2 0x1351 JUMPI PUSH1 0x3 DUP2 ADD SWAP1 PUSH2 0x2710 PUSH8 0xFFFFFFFFFFFFFFFF SWAP4 DUP2 DUP6 DUP6 SLOAD DUP11 SHR AND PUSH2 0x10B9 SWAP1 PUSH2 0x1671 JUMP JUMPDEST PUSH2 0x10C3 SWAP1 DUP10 PUSH2 0x14B7 JUMP JUMPDEST DIV SWAP7 DUP3 PUSH2 0x10D0 DUP10 DUP4 PUSH2 0x1494 JUMP JUMPDEST SWAP11 PUSH2 0x10DA DUP2 PUSH2 0x17A5 JUMP JUMPDEST PUSH2 0x10E3 SWAP2 PUSH2 0x14B7 JUMP JUMPDEST DIV DUP13 SLOAD SWAP1 PUSH2 0x10F0 SWAP2 PUSH2 0x1494 JUMP JUMPDEST DUP13 SSTORE DUP2 DUP5 SSTORE PUSH1 0x3 SLOAD SWAP1 PUSH2 0x1102 SWAP2 PUSH2 0x1494 JUMP JUMPDEST PUSH1 0x3 SSTORE PUSH2 0x110E DUP2 PUSH2 0x17A5 JUMP JUMPDEST DUP3 PUSH2 0x1119 DUP3 DUP5 PUSH2 0x14B7 JUMP JUMPDEST DIV DUP13 SLOAD SWAP1 PUSH2 0x1126 SWAP2 PUSH2 0x14EA JUMP JUMPDEST DUP13 SSTORE PUSH2 0x1131 SWAP2 PUSH2 0x14B7 JUMP JUMPDEST DIV SWAP1 PUSH8 0xDE0B6B3A7640000 DUP1 SWAP3 PUSH1 0x5 SLOAD PUSH2 0x114A SWAP2 PUSH2 0x14B7 JUMP JUMPDEST DIV SWAP1 PUSH1 0x1 ADD SSTORE PUSH2 0x115A DUP5 DUP9 PUSH2 0x14EA JUMP JUMPDEST DUP1 PUSH2 0x1320 JUMPI JUMPDEST POP DUP5 ISZERO DUP1 ISZERO PUSH2 0x1244 JUMPI JUMPDEST POP POP PUSH32 0x204FCCF0D92ED8D48F204ADB39B2E81E92BAD0DEDB93F5716CA9478CFB57DE00 SWAP6 SWAP7 SWAP8 POP DUP3 PUSH2 0x11E7 JUMPI JUMPDEST POP POP POP CALLER DUP6 MSTORE PUSH1 0x2 PUSH1 0x20 MSTORE PUSH2 0x11CF PUSH2 0x11B1 DUP4 DUP8 KECCAK256 SLOAD PUSH2 0x187E JUMP JUMPDEST SWAP3 MLOAD SWAP3 DUP4 SWAP3 CALLER SWAP7 DUP5 PUSH1 0x40 SWAP2 SWAP5 SWAP4 SWAP3 PUSH1 0x60 DUP3 ADD SWAP6 DUP3 MSTORE PUSH1 0x20 DUP3 ADD MSTORE ADD MSTORE JUMP JUMPDEST SUB SWAP1 LOG2 PUSH1 0x1 PUSH1 0x0 DUP1 MLOAD PUSH1 0x20 PUSH2 0x18E6 DUP4 CODECOPY DUP2 MLOAD SWAP2 MSTORE SSTORE DUP1 RETURN JUMPDEST DUP1 SLOAD PUSH8 0xFFFFFFFFFFFFFFFF PUSH1 0x80 SHL NOT AND TIMESTAMP SWAP1 SWAP3 AND PUSH1 0x80 SHL PUSH8 0xFFFFFFFFFFFFFFFF PUSH1 0x80 SHL AND SWAP2 SWAP1 SWAP2 OR SWAP1 SSTORE DUP3 MLOAD SWAP1 DUP2 MSTORE PUSH32 0xFC30CDDEA38E2BF4D6EA7D3F9ED3B6AD7F176419F4963BD81318067A4AEE73FE PUSH1 0x20 CALLER SWAP3 LOG2 DUP6 DUP1 DUP1 PUSH2 0x1197 JUMP JUMPDEST PUSH2 0x1250 DUP7 PUSH1 0x7 SLOAD PUSH2 0x14EA JUMP JUMPDEST PUSH1 0x7 SSTORE DUP10 SLOAD ISZERO PUSH2 0x12E5 JUMPI DUP2 DUP7 MUL SWAP2 DUP7 DUP4 DIV EQ OR ISZERO PUSH2 0x12D2 JUMPI PUSH2 0x450 PUSH2 0x129A SWAP2 PUSH32 0x204FCCF0D92ED8D48F204ADB39B2E81E92BAD0DEDB93F5716CA9478CFB57DE00 SWAP9 SWAP10 SWAP11 SLOAD SWAP1 PUSH2 0x14CA JUMP JUMPDEST PUSH1 0x5 SSTORE DUP5 MLOAD DUP5 DUP2 MSTORE PUSH32 0x288446C5197716B76E9CBFF1EFD986DC6C319F565760A84CF660944CB2879C7C PUSH1 0x20 CALLER SWAP3 LOG2 JUMPDEST DUP8 SWAP7 SWAP6 DUP10 PUSH2 0x116A JUMP JUMPDEST PUSH4 0x4E487B71 PUSH1 0xE0 SHL DUP9 MSTORE PUSH1 0x11 DUP10 MSTORE PUSH1 0x24 DUP9 REVERT JUMPDEST POP POP PUSH32 0x204FCCF0D92ED8D48F204ADB39B2E81E92BAD0DEDB93F5716CA9478CFB57DE00 SWAP6 SWAP7 SWAP8 POP PUSH2 0x1318 DUP5 PUSH1 0x6 SLOAD PUSH2 0x14EA JUMP JUMPDEST PUSH1 0x6 SSTORE PUSH2 0x12C9 JUMP JUMPDEST PUSH2 0x134B SWAP1 CALLER PUSH32 0x0 PUSH2 0x16F5 JUMP JUMPDEST DUP10 PUSH2 0x1160 JUMP JUMPDEST DUP5 MLOAD PUSH4 0xAD6177F PUSH1 0xE0 SHL DUP2 MSTORE DUP1 DUP10 ADD DUP4 SWAP1 MSTORE PUSH11 0x84595161401484A000000 PUSH1 0x24 DUP3 ADD MSTORE PUSH1 0x44 SWAP1 REVERT JUMPDEST POP PUSH11 0x84595161401484A000000 DUP3 LT PUSH2 0x1093 JUMP JUMPDEST DUP6 SWAP2 PUSH1 0x44 SWAP4 MLOAD SWAP3 PUSH4 0xFC77371 PUSH1 0xE3 SHL DUP5 MSTORE DUP4 ADD MSTORE PUSH1 0x24 DUP3 ADD MSTORE REVERT JUMPDEST DUP4 DUP3 CALLVALUE PUSH2 0x271 JUMPI DUP2 PUSH1 0x3 NOT CALLDATASIZE ADD SLT PUSH2 0x271 JUMPI PUSH1 0x20 SWAP1 MLOAD PUSH2 0xC350 DUP2 MSTORE RETURN JUMPDEST DUP4 DUP3 CALLVALUE PUSH2 0x271 JUMPI DUP2 PUSH1 0x3 NOT CALLDATASIZE ADD SLT PUSH2 0x271 JUMPI PUSH1 0x20 SWAP1 MLOAD PUSH4 0x1E13380 DUP2 MSTORE RETURN JUMPDEST DUP4 DUP3 CALLVALUE PUSH2 0x271 JUMPI PUSH1 0x20 CALLDATASIZE PUSH1 0x3 NOT ADD SLT PUSH2 0x271 JUMPI PUSH1 0xC0 SWAP2 DUP2 SWAP1 PUSH1 0x1 PUSH1 0x1 PUSH1 0xA0 SHL SUB PUSH2 0x140C PUSH2 0x1479 JUMP JUMPDEST AND DUP2 MSTORE PUSH1 0x2 PUSH1 0x20 MSTORE KECCAK256 DUP1 SLOAD SWAP2 PUSH1 0x1 DUP3 ADD SLOAD PUSH1 0x3 PUSH1 0x2 DUP5 ADD SLOAD SWAP4 ADD SLOAD DUP1 SWAP3 PUSH8 0xFFFFFFFFFFFFFFFF SWAP5 DUP6 SWAP4 DUP3 MLOAD SWAP8 DUP9 MSTORE PUSH1 0x20 DUP9 ADD MSTORE DUP2 DUP8 ADD MSTORE DUP3 DUP3 AND PUSH1 0x60 DUP8 ADD MSTORE SHR AND PUSH1 0x80 DUP5 ADD MSTORE PUSH1 0x80 SHR AND PUSH1 0xA0 DUP3 ADD MSTORE RETURN JUMPDEST DUP5 SWAP1 CALLVALUE PUSH2 0x271 JUMPI DUP2 PUSH1 0x3 NOT CALLDATASIZE ADD SLT PUSH2 0x271 JUMPI DUP1 PUSH2 0x1AF4 PUSH1 0x20 SWAP3 MSTORE RETURN JUMPDEST PUSH1 0x4 CALLDATALOAD SWAP1 PUSH1 0x1 PUSH1 0x1 PUSH1 0xA0 SHL SUB DUP3 AND DUP3 SUB PUSH2 0x148F JUMPI JUMP JUMPDEST PUSH1 0x0 DUP1 REVERT JUMPDEST SWAP2 SWAP1 DUP3 SUB SWAP2 DUP3 GT PUSH2 0x14A1 JUMPI JUMP JUMPDEST PUSH4 0x4E487B71 PUSH1 0xE0 SHL PUSH1 0x0 MSTORE PUSH1 0x11 PUSH1 0x4 MSTORE PUSH1 0x24 PUSH1 0x0 REVERT JUMPDEST DUP2 DUP2 MUL SWAP3 SWAP2 DUP2 ISZERO SWAP2 DUP5 DIV EQ OR ISZERO PUSH2 0x14A1 JUMPI JUMP JUMPDEST DUP2 ISZERO PUSH2 0x14D4 JUMPI DIV SWAP1 JUMP JUMPDEST PUSH4 0x4E487B71 PUSH1 0xE0 SHL PUSH1 0x0 MSTORE PUSH1 0x12 PUSH1 0x4 MSTORE PUSH1 0x24 PUSH1 0x0 REVERT JUMPDEST SWAP2 SWAP1 DUP3 ADD DUP1 SWAP3 GT PUSH2 0x14A1 JUMPI JUMP JUMPDEST PUSH1 0x1 PUSH1 0x1 PUSH1 0xA0 SHL SUB AND PUSH1 0x0 SWAP1 DUP2 MSTORE PUSH1 0x2 PUSH1 0x20 MSTORE PUSH1 0x40 DUP1 DUP3 KECCAK256 PUSH1 0x3 ADD SLOAD SWAP2 SWAP3 SWAP2 SWAP1 SHR PUSH8 0xFFFFFFFFFFFFFFFF AND DUP1 ISZERO PUSH2 0x15A9 JUMPI PUSH2 0x1532 DUP2 TIMESTAMP PUSH2 0x1494 JUMP JUMPDEST SWAP2 PUSH3 0x15180 SWAP4 PUSH2 0x1544 DUP6 DUP6 DIV SWAP4 PUSH2 0x1671 JUMP JUMPDEST SWAP5 PUSH1 0x64 DUP7 MUL DUP7 DUP2 DIV PUSH1 0x64 EQ DUP8 ISZERO OR ISZERO PUSH2 0x1595 JUMPI PUSH2 0x2710 SWAP1 DIV SWAP5 PUSH4 0x1E13380 SWAP1 DUP2 DUP2 LT PUSH2 0x1570 JUMPI POP POP POP SWAP1 JUMP JUMPDEST DUP2 SWAP3 SWAP4 SWAP2 SUB SWAP2 DUP3 GT PUSH2 0x1581 JUMPI POP DIV SWAP1 JUMP JUMPDEST PUSH4 0x4E487B71 PUSH1 0xE0 SHL DUP2 MSTORE PUSH1 0x11 PUSH1 0x4 MSTORE PUSH1 0x24 SWAP1 REVERT JUMPDEST PUSH4 0x4E487B71 PUSH1 0xE0 SHL DUP4 MSTORE PUSH1 0x11 PUSH1 0x4 MSTORE PUSH1 0x24 DUP4 REVERT JUMPDEST POP DUP2 DUP1 SWAP2 DUP2 SWAP1 JUMP JUMPDEST PUSH1 0x0 DUP1 MLOAD PUSH1 0x20 PUSH2 0x18E6 DUP4 CODECOPY DUP2 MLOAD SWAP2 MSTORE PUSH1 0x2 DUP2 SLOAD EQ PUSH2 0x15CF JUMPI PUSH1 0x2 SWAP1 SSTORE JUMP JUMPDEST PUSH1 0x40 MLOAD PUSH4 0x3EE5AEB5 PUSH1 0xE0 SHL DUP2 MSTORE PUSH1 0x4 SWAP1 REVERT JUMPDEST PUSH1 0xFF PUSH1 0x0 SLOAD AND PUSH2 0x15ED JUMPI JUMP JUMPDEST PUSH1 0x40 MLOAD PUSH4 0xD93C0665 PUSH1 0xE0 SHL DUP2 MSTORE PUSH1 0x4 SWAP1 REVERT JUMPDEST PUSH1 0x1 PUSH1 0x1 PUSH1 0xA0 SHL SUB AND PUSH1 0x0 SWAP1 DUP2 MSTORE PUSH1 0x2 PUSH1 0x20 MSTORE PUSH1 0x40 SWAP1 KECCAK256 DUP1 SLOAD DUP1 ISZERO PUSH2 0x166D JUMPI PUSH2 0x163A PUSH2 0x2710 PUSH2 0x5AB DUP4 PUSH2 0x8C3 PUSH8 0xDE0B6B3A7640000 SWAP6 PUSH2 0x17A5 JUMP JUMPDEST DIV SWAP1 PUSH1 0x1 DUP2 ADD SWAP1 DUP2 SLOAD DUP1 DUP5 GT PUSH2 0x164F JUMPI POP POP SSTORE JUMP JUMPDEST PUSH1 0x2 PUSH2 0x165E PUSH2 0x1668 SWAP3 DUP7 PUSH2 0x1494 JUMP JUMPDEST SWAP3 ADD SWAP2 DUP3 SLOAD PUSH2 0x14EA JUMP JUMPDEST SWAP1 SSTORE SSTORE JUMP JUMPDEST POP POP JUMP JUMPDEST PUSH8 0xFFFFFFFFFFFFFFFF AND DUP1 ISZERO PUSH2 0x16EF JUMPI PUSH2 0x168B SWAP1 TIMESTAMP PUSH2 0x1494 JUMP JUMPDEST PUSH4 0x1E13380 DUP1 DUP3 LT ISZERO PUSH2 0x16E8 JUMPI DUP2 DUP2 SUB DUP2 DUP2 GT PUSH2 0x14A1 JUMPI PUSH8 0xDE0B6B3A7640000 SWAP3 DUP4 DUP3 MUL SWAP2 DUP3 DIV DUP5 EQ SWAP1 DUP4 EQ OR ISZERO PUSH2 0x14A1 JUMPI DUP3 SWAP2 PUSH2 0x16CF SWAP2 DIV DUP3 PUSH2 0x860 DUP3 DUP1 PUSH2 0x14B7 JUMP JUMPDEST DIV PUSH2 0x1AF4 SWAP1 DUP2 DUP2 MUL SWAP2 DUP2 DUP4 DIV EQ SWAP1 ISZERO OR ISZERO PUSH2 0x14A1 JUMPI DIV SWAP1 JUMP JUMPDEST POP POP PUSH1 0x0 SWAP1 JUMP JUMPDEST POP PUSH1 0x0 SWAP1 JUMP JUMPDEST PUSH1 0x40 MLOAD PUSH4 0xA9059CBB PUSH1 0xE0 SHL PUSH1 0x0 SWAP1 DUP2 MSTORE PUSH1 0x1 PUSH1 0x1 PUSH1 0xA0 SHL SUB SWAP4 DUP5 AND PUSH1 0x4 MSTORE PUSH1 0x24 SWAP5 SWAP1 SWAP5 MSTORE SWAP3 PUSH1 0x20 SWAP1 PUSH1 0x44 DUP2 DUP1 DUP6 GAS CALL PUSH1 0x1 PUSH1 0x0 MLOAD EQ DUP2 AND ISZERO PUSH2 0x1756 JUMPI JUMPDEST DUP4 PUSH1 0x40 MSTORE ISZERO PUSH2 0x1740 JUMPI POP POP POP JUMP JUMPDEST PUSH4 0x5274AFE7 PUSH1 0xE0 SHL DUP4 MSTORE AND PUSH1 0x4 DUP3 ADD MSTORE PUSH1 0x24 SWAP2 POP REVERT JUMPDEST PUSH1 0x1 DUP2 ISZERO AND PUSH2 0x176C JUMPI DUP2 EXTCODESIZE ISZERO ISZERO RETURNDATASIZE ISZERO AND AND PUSH2 0x1732 JUMP JUMPDEST DUP4 RETURNDATASIZE PUSH1 0x0 DUP3 RETURNDATACOPY RETURNDATASIZE SWAP1 REVERT JUMPDEST PUSH1 0x0 SLOAD PUSH1 0x8 SHR PUSH1 0x1 PUSH1 0x1 PUSH1 0xA0 SHL SUB AND CALLER SUB PUSH2 0x178D JUMPI JUMP JUMPDEST PUSH1 0x40 MLOAD PUSH4 0x118CDAA7 PUSH1 0xE0 SHL DUP2 MSTORE CALLER PUSH1 0x4 DUP3 ADD MSTORE PUSH1 0x24 SWAP1 REVERT JUMPDEST PUSH11 0xCECB8F27F4200F3A000000 DUP2 LT ISZERO PUSH2 0x1809 JUMPI PUSH11 0x52B7D2DCC80CD2E4000000 DUP2 LT ISZERO PUSH2 0x1802 JUMPI PUSH11 0x14ADF4B7320334B9000000 DUP2 LT ISZERO PUSH2 0x17FB JUMPI PUSH11 0x84595161401484A000000 GT ISZERO PUSH2 0x17F5 JUMPI PUSH1 0x0 SWAP1 JUMP JUMPDEST PUSH2 0x2710 SWAP1 JUMP JUMPDEST POP PUSH2 0x4E20 SWAP1 JUMP JUMPDEST POP PUSH2 0xC350 SWAP1 JUMP JUMPDEST POP PUSH3 0x1D4C0 SWAP1 JUMP JUMPDEST PUSH1 0x40 MLOAD PUSH4 0x23B872DD PUSH1 0xE0 SHL PUSH1 0x0 SWAP1 DUP2 MSTORE PUSH1 0x1 PUSH1 0x1 PUSH1 0xA0 SHL SUB SWAP4 DUP5 AND PUSH1 0x4 MSTORE SWAP4 DUP4 AND PUSH1 0x24 MSTORE PUSH1 0x44 SWAP5 SWAP1 SWAP5 MSTORE SWAP1 SWAP2 PUSH1 0x20 SWAP1 PUSH1 0x64 DUP2 DUP1 DUP6 GAS CALL PUSH1 0x1 PUSH1 0x0 MLOAD EQ DUP2 AND ISZERO PUSH2 0x1868 JUMPI JUMPDEST DUP4 PUSH1 0x40 MSTORE PUSH1 0x0 PUSH1 0x60 MSTORE ISZERO PUSH2 0x1740 JUMPI POP POP POP JUMP JUMPDEST PUSH1 0x1 DUP2 ISZERO AND PUSH2 0x176C JUMPI DUP2 EXTCODESIZE ISZERO ISZERO RETURNDATASIZE ISZERO AND AND PUSH2 0x1855 JUMP JUMPDEST PUSH11 0xCECB8F27F4200F3A000000 DUP2 LT ISZERO PUSH2 0x18DF JUMPI PUSH11 0x52B7D2DCC80CD2E4000000 DUP2 LT ISZERO PUSH2 0x18D9 JUMPI PUSH11 0x14ADF4B7320334B9000000 DUP2 LT ISZERO PUSH2 0x18D3 JUMPI PUSH11 0x84595161401484A000000 GT ISZERO PUSH2 0x18CE JUMPI PUSH1 0x0 SWAP1 JUMP JUMPDEST PUSH1 0x1 SWAP1 JUMP JUMPDEST POP PUSH1 0x2 SWAP1 JUMP JUMPDEST POP PUSH1 0x3 SWAP1 JUMP JUMPDEST POP PUSH1 0x4 SWAP1 JUMP INVALID SWAP12 PUSH24 0x9B17422D0DF92223018B32B4D1FA46E071723D6817E2486D STOP EXTCODESIZE 0xEC 0xC5 PUSH0 STOP LOG2 PUSH5 0x6970667358 0x22 SLT KECCAK256 CALLDATALOAD 0xA9 0xBA SWAP10 0xD1 BLOBHASH CODECOPY 0x23 0xB2 0xA5 0xC3 0xD2 ADD CREATE 0xF 0xBC 0xBD PUSH6 0x6F8766FDD8CD BYTE MSTORE 0xC6 0xF PUSH22 0xA6AC9364736F6C634300081800330000000000000000 "},"methodIdentifiers":{"GROWER_BOOST()":"de0f9093","GROWER_MIN()":"9a14ef0d","LOCK_PERIOD()":"1820cabb","MAX_PENALTY_BPS()":"0225d3cc","SHLONG_BOOST()":"2b2893ba","SHLONG_MIN()":"679f5418","SHOWER_BOOST()":"e18c7dfc","SHOWER_MIN()":"e080f071","WHALE_BOOST()":"5152f67f","WHALE_MIN()":"d4e6c5c4","accRewardPerShare()":"939d6237","acceptOwnership()":"79ba5097","bufferedRewards()":"34279192","claimRewards()":"372500ab","depositRewards(uint256)":"8bdf67f2","emergencyWithdraw()":"db2e21bc","getBoost(address)":"67ba3d90","getEarlyWithdrawalPenalty(address)":"f2760e9d","getStakeInfo(address)":"c3453153","getTier(address)":"b45aae52","isDepositor(address)":"2f70d1ba","owner()":"8da5cb5b","pause()":"8456cb59","paused()":"5c975abb","pendingOwner()":"e30c3978","previewUnstake(address,uint256)":"6f843f59","renounceOwnership()":"715018a6","setDepositor(address,bool)":"6f860d74","sizeToken()":"a6df0831","stake(uint256)":"a694fc3a","stakes(address)":"16934fc4","totalEffectiveStaked()":"47d62809","totalPenaltiesCollected()":"7eaacdb0","totalStaked()":"817b1cd2","transferOwnership(address)":"f2fde38b","unpause()":"3f4ba83a","unstake(uint256)":"2e17de78"}}}}}