{"contracts/SizeStaking.sol":{"SizeStaking":{"abi":[{"inputs":[{"internalType":"address","name":"_sizeToken","type":"address"}],"stateMutability":"nonpayable","type":"constructor"},{"inputs":[{"internalType":"uint256","name":"resultingBalance","type":"uint256"},{"internalType":"uint256","name":"minimum","type":"uint256"}],"name":"BelowMinimumTier","type":"error"},{"inputs":[],"name":"EnforcedPause","type":"error"},{"inputs":[{"internalType":"uint256","name":"requested","type":"uint256"},{"internalType":"uint256","name":"staked","type":"uint256"}],"name":"ExceedsStake","type":"error"},{"inputs":[],"name":"ExpectedPause","type":"error"},{"inputs":[],"name":"NotDepositor","type":"error"},{"inputs":[],"name":"NothingToClaim","type":"error"},{"inputs":[{"internalType":"address","name":"owner","type":"address"}],"name":"OwnableInvalidOwner","type":"error"},{"inputs":[{"internalType":"address","name":"account","type":"address"}],"name":"OwnableUnauthorizedAccount","type":"error"},{"inputs":[],"name":"ReentrancyGuardReentrantCall","type":"error"},{"inputs":[{"internalType":"address","name":"token","type":"address"}],"name":"SafeERC20FailedOperation","type":"error"},{"inputs":[],"name":"ZeroAddress","type":"error"},{"inputs":[],"name":"ZeroAmount","type":"error"},{"anonymous":false,"inputs":[{"indexed":true,"internalType":"address","name":"depositor","type":"address"},{"indexed":false,"internalType":"bool","name":"status","type":"bool"}],"name":"DepositorUpdated","type":"event"},{"anonymous":false,"inputs":[{"indexed":true,"internalType":"address","name":"user","type":"address"},{"indexed":false,"internalType":"uint256","name":"amount","type":"uint256"},{"indexed":false,"internalType":"uint256","name":"penalty","type":"uint256"}],"name":"EmergencyWithdraw","type":"event"},{"anonymous":false,"inputs":[{"indexed":true,"internalType":"address","name":"previousOwner","type":"address"},{"indexed":true,"internalType":"address","name":"newOwner","type":"address"}],"name":"OwnershipTransferStarted","type":"event"},{"anonymous":false,"inputs":[{"indexed":true,"internalType":"address","name":"previousOwner","type":"address"},{"indexed":true,"internalType":"address","name":"newOwner","type":"address"}],"name":"OwnershipTransferred","type":"event"},{"anonymous":false,"inputs":[{"indexed":false,"internalType":"address","name":"account","type":"address"}],"name":"Paused","type":"event"},{"anonymous":false,"inputs":[{"indexed":true,"internalType":"address","name":"user","type":"address"},{"indexed":false,"internalType":"uint256","name":"penaltyAmount","type":"uint256"}],"name":"PenaltyRedistributed","type":"event"},{"anonymous":false,"inputs":[{"indexed":true,"internalType":"address","name":"referrer","type":"address"},{"indexed":true,"internalType":"address","name":"user","type":"address"},{"indexed":false,"internalType":"uint256","name":"amount","type":"uint256"}],"name":"ReferralReward","type":"event"},{"anonymous":false,"inputs":[{"indexed":true,"internalType":"address","name":"user","type":"address"},{"indexed":false,"internalType":"uint256","name":"amount","type":"uint256"}],"name":"RewardsClaimed","type":"event"},{"anonymous":false,"inputs":[{"indexed":true,"internalType":"address","name":"depositor","type":"address"},{"indexed":false,"internalType":"uint256","name":"amount","type":"uint256"}],"name":"RewardsDeposited","type":"event"},{"anonymous":false,"inputs":[{"indexed":true,"internalType":"address","name":"user","type":"address"},{"indexed":false,"internalType":"uint256","name":"amount","type":"uint256"},{"indexed":false,"internalType":"uint256","name":"newTier","type":"uint256"}],"name":"Staked","type":"event"},{"anonymous":false,"inputs":[{"indexed":false,"internalType":"address","name":"account","type":"address"}],"name":"Unpaused","type":"event"},{"anonymous":false,"inputs":[{"indexed":true,"internalType":"address","name":"user","type":"address"},{"indexed":false,"internalType":"uint256","name":"amount","type":"uint256"},{"indexed":false,"internalType":"uint256","name":"penalty","type":"uint256"},{"indexed":false,"internalType":"uint256","name":"newTier","type":"uint256"}],"name":"Unstaked","type":"event"},{"inputs":[],"name":"GROWER_BOOST","outputs":[{"internalType":"uint256","name":"","type":"uint256"}],"stateMutability":"view","type":"function"},{"inputs":[],"name":"GROWER_MIN","outputs":[{"internalType":"uint256","name":"","type":"uint256"}],"stateMutability":"view","type":"function"},{"inputs":[],"name":"LOCK_PERIOD","outputs":[{"internalType":"uint256","name":"","type":"uint256"}],"stateMutability":"view","type":"function"},{"inputs":[],"name":"MAX_PENALTY_BPS","outputs":[{"internalType":"uint256","name":"","type":"uint256"}],"stateMutability":"view","type":"function"},{"inputs":[],"name":"REFERRAL_BPS","outputs":[{"internalType":"uint256","name":"","type":"uint256"}],"stateMutability":"view","type":"function"},{"inputs":[],"name":"SHLONG_BOOST","outputs":[{"internalType":"uint256","name":"","type":"uint256"}],"stateMutability":"view","type":"function"},{"inputs":[],"name":"SHLONG_MIN","outputs":[{"internalType":"uint256","name":"","type":"uint256"}],"stateMutability":"view","type":"function"},{"inputs":[],"name":"SHOWER_BOOST","outputs":[{"internalType":"uint256","name":"","type":"uint256"}],"stateMutability":"view","type":"function"},{"inputs":[],"name":"SHOWER_MIN","outputs":[{"internalType":"uint256","name":"","type":"uint256"}],"stateMutability":"view","type":"function"},{"inputs":[],"name":"WHALE_BOOST","outputs":[{"internalType":"uint256","name":"","type":"uint256"}],"stateMutability":"view","type":"function"},{"inputs":[],"name":"WHALE_MIN","outputs":[{"internalType":"uint256","name":"","type":"uint256"}],"stateMutability":"view","type":"function"},{"inputs":[],"name":"accRewardPerShare","outputs":[{"internalType":"uint256","name":"","type":"uint256"}],"stateMutability":"view","type":"function"},{"inputs":[],"name":"acceptOwnership","outputs":[],"stateMutability":"nonpayable","type":"function"},{"inputs":[],"name":"bufferedRewards","outputs":[{"internalType":"uint256","name":"","type":"uint256"}],"stateMutability":"view","type":"function"},{"inputs":[],"name":"claimRewards","outputs":[],"stateMutability":"nonpayable","type":"function"},{"inputs":[{"internalType":"uint256","name":"_amount","type":"uint256"}],"name":"depositRewards","outputs":[],"stateMutability":"nonpayable","type":"function"},{"inputs":[],"name":"emergencyWithdraw","outputs":[],"stateMutability":"nonpayable","type":"function"},{"inputs":[{"internalType":"address","name":"_user","type":"address"}],"name":"getBoost","outputs":[{"internalType":"uint256","name":"","type":"uint256"}],"stateMutability":"view","type":"function"},{"inputs":[{"internalType":"address","name":"_user","type":"address"}],"name":"getEarlyWithdrawalPenalty","outputs":[{"internalType":"uint256","name":"penaltyBps","type":"uint256"},{"internalType":"uint256","name":"penaltyPct","type":"uint256"},{"internalType":"uint256","name":"daysStaked","type":"uint256"},{"internalType":"uint256","name":"daysRemaining","type":"uint256"}],"stateMutability":"view","type":"function"},{"inputs":[{"internalType":"address","name":"_user","type":"address"}],"name":"getReferralInfo","outputs":[{"internalType":"address","name":"userReferrer","type":"address"},{"internalType":"uint256","name":"totalReferralEarnings","type":"uint256"}],"stateMutability":"view","type":"function"},{"inputs":[{"internalType":"address","name":"_user","type":"address"}],"name":"getStakeInfo","outputs":[{"internalType":"uint256","name":"stakedAmount","type":"uint256"},{"internalType":"uint256","name":"pendingRewards","type":"uint256"},{"internalType":"uint256","name":"tier","type":"uint256"},{"internalType":"uint256","name":"boost","type":"uint256"},{"internalType":"uint256","name":"effectiveStake","type":"uint256"}],"stateMutability":"view","type":"function"},{"inputs":[{"internalType":"address","name":"_user","type":"address"}],"name":"getTier","outputs":[{"internalType":"uint256","name":"","type":"uint256"}],"stateMutability":"view","type":"function"},{"inputs":[{"internalType":"address","name":"","type":"address"}],"name":"isDepositor","outputs":[{"internalType":"bool","name":"","type":"bool"}],"stateMutability":"view","type":"function"},{"inputs":[],"name":"owner","outputs":[{"internalType":"address","name":"","type":"address"}],"stateMutability":"view","type":"function"},{"inputs":[],"name":"pause","outputs":[],"stateMutability":"nonpayable","type":"function"},{"inputs":[],"name":"paused","outputs":[{"internalType":"bool","name":"","type":"bool"}],"stateMutability":"view","type":"function"},{"inputs":[],"name":"pendingOwner","outputs":[{"internalType":"address","name":"","type":"address"}],"stateMutability":"view","type":"function"},{"inputs":[{"internalType":"address","name":"_user","type":"address"},{"internalType":"uint256","name":"_amount","type":"uint256"}],"name":"previewUnstake","outputs":[{"internalType":"uint256","name":"userReceives","type":"uint256"},{"internalType":"uint256","name":"penalty","type":"uint256"},{"internalType":"uint256","name":"penaltyBps","type":"uint256"}],"stateMutability":"view","type":"function"},{"inputs":[{"internalType":"address","name":"","type":"address"}],"name":"referralEarnings","outputs":[{"internalType":"uint256","name":"","type":"uint256"}],"stateMutability":"view","type":"function"},{"inputs":[{"internalType":"address","name":"","type":"address"}],"name":"referrer","outputs":[{"internalType":"address","name":"","type":"address"}],"stateMutability":"view","type":"function"},{"inputs":[],"name":"renounceOwnership","outputs":[],"stateMutability":"nonpayable","type":"function"},{"inputs":[{"internalType":"address","name":"_depositor","type":"address"},{"internalType":"bool","name":"_status","type":"bool"}],"name":"setDepositor","outputs":[],"stateMutability":"nonpayable","type":"function"},{"inputs":[{"internalType":"address","name":"_user","type":"address"},{"internalType":"address","name":"_referrer","type":"address"}],"name":"setReferrer","outputs":[],"stateMutability":"nonpayable","type":"function"},{"inputs":[{"internalType":"address[]","name":"_users","type":"address[]"},{"internalType":"address[]","name":"_referrers","type":"address[]"}],"name":"setReferrerBatch","outputs":[],"stateMutability":"nonpayable","type":"function"},{"inputs":[],"name":"sizeToken","outputs":[{"internalType":"contract IERC20","name":"","type":"address"}],"stateMutability":"view","type":"function"},{"inputs":[{"internalType":"uint256","name":"_amount","type":"uint256"}],"name":"stake","outputs":[],"stateMutability":"nonpayable","type":"function"},{"inputs":[{"internalType":"address","name":"","type":"address"}],"name":"stakes","outputs":[{"internalType":"uint256","name":"amount","type":"uint256"},{"internalType":"uint256","name":"rewardDebt","type":"uint256"},{"internalType":"uint256","name":"pendingRewards","type":"uint256"},{"internalType":"uint64","name":"firstStakedAt","type":"uint64"},{"internalType":"uint64","name":"lastStakedAt","type":"uint64"},{"internalType":"uint64","name":"lastClaimAt","type":"uint64"}],"stateMutability":"view","type":"function"},{"inputs":[],"name":"totalEffectiveStaked","outputs":[{"internalType":"uint256","name":"","type":"uint256"}],"stateMutability":"view","type":"function"},{"inputs":[],"name":"totalPenaltiesCollected","outputs":[{"internalType":"uint256","name":"","type":"uint256"}],"stateMutability":"view","type":"function"},{"inputs":[],"name":"totalStaked","outputs":[{"internalType":"uint256","name":"","type":"uint256"}],"stateMutability":"view","type":"function"},{"inputs":[{"internalType":"address","name":"newOwner","type":"address"}],"name":"transferOwnership","outputs":[],"stateMutability":"nonpayable","type":"function"},{"inputs":[],"name":"unpause","outputs":[],"stateMutability":"nonpayable","type":"function"},{"inputs":[{"internalType":"uint256","name":"_amount","type":"uint256"}],"name":"unstake","outputs":[],"stateMutability":"nonpayable","type":"function"}],"evm":{"bytecode":{"linkReferences":{},"object":"60a03461017657601f61207d38819003918201601f19168301916001600160401b0383118484101761017b5780849260209460405283398101031261017657516001600160a01b0390818116908190036101765760017f9b779b17422d0df92223018b32b4d1fa46e071723d6817e2486d003becc55f0055331561015d57600180546001600160a01b031916905560008054610100600160a81b0319811633600881811b610100600160a81b031692909217845560405195939493909290911c167f8be0079c531659141344cd1fd0a4f28419497f9722a3daafe3b4186f6b6457e08480a3801561014e5760409250608052338152600860205220600160ff19825416179055604051611eeb908161019282396080518181816104fa015281816106f10152818161087101528181610a7a01528181611056015281816110f30152818161151101526115840152f35b63d92e233d60e01b8352600483fd5b604051631e4fbdf760e01b815260006004820152602490fd5b600080fd5b634e487b7160e01b600052604160045260246000fdfe60806040908082526004918236101561001757600080fd5b600092833560e01c9283630225d3cc1461193757508263164bd0a21461179357826316934fc41461171a5782631820cabb146116fb57826321874ae2146116b55782632b2893ba146116985782632cf003c21461165d5782632e17de78146111e15782632f70d1ba146111a35782633427919214611184578263372500ab14610f935782633f4ba83a14610f2a57826347d6280914610f0b5782635152f67f14610eed5782635c975abb14610ecb578263679f541814610ea557826367ba3d9014610e6b5782636e8cddea14610e4e5782636f843f5914610db15782636f860d7414610d19578263715018a614610cab57826379ba509714610c0a5782637eaacdb014610beb578263817b1cd214610bcc5782638456cb5914610b735782638bdf67f214610a345782638da5cb5b14610a08578263939d6237146109e95782639a14ef0d146109c3578263a694fc3a14610720578263a6df0831146106dc578263b45aae521461069b578263bbddaca314610657578263c07b528a1461061f578263c345315314610559578263d4e6c5c414610533578263db2e21bc1461034057508163de0f909314610323578163e080f071146102fd578163e18c7dfc146102e0578163e30c3978146102b7578163f2760e9d14610275575063f2fde38b1461020057600080fd5b3461027257602036600319011261027257610219611989565b610221611b61565b60018060a01b0380911690816bffffffffffffffffffffffff60a01b6001541617600155825460081c167f38d16b8cac22d99fc7c124b9cd0de2d3fa1faef420bfe791d8c362d765e227008380a380f35b80fd5b9050346102b35760203660031901126102b35760809061029b610296611989565b611aa7565b92939091815194855260208501528301526060820152f35b5080fd5b9050346102b357816003193601126102b35760015490516001600160a01b039091168152602090f35b9050346102b357816003193601126102b35760209051614e208152f35b9050346102b357816003193601126102b357602090516a14adf4b7320334b90000008152f35b9050346102b357816003193601126102b357602090516127108152f35b8382346102b357816003193601126102b35761035a611b90565b3382526002602052808220908154801561052357836002612710946103cf8661039b61039567ffffffffffffffff60038601548a1c16611c50565b876119fc565b04946103c56103aa87836119d9565b986103bd6103b784611d55565b846119fc565b048b546119d9565b8a556003546119d9565b6003558281558260018201550155826104f3575b80158015610432575b50907fbb757047c2b5f3974fe26b7c10f732e7bce710b0952a71082702781e62ae059591815193845260208401523392a26001600080516020611e968339815191525580f35b61043e82600754611a2f565b6007558554156104b957670de0b6b3a764000090818302918383041417156104a65761049261049a917fbb757047c2b5f3974fe26b7c10f732e7bce710b0952a71082702781e62ae05959596975490611a0f565b600554611a2f565b6005555b8493926103ec565b634e487b7160e01b855260118652602485fd5b507fbb757047c2b5f3974fe26b7c10f732e7bce710b0952a71082702781e62ae0595929394506104eb81600654611a2f565b60065561049e565b61051e83337f0000000000000000000000000000000000000000000000000000000000000000611cd4565b6103e3565b8151631f2a200560e01b81528590fd5b8382346102b357816003193601126102b357602090516acecb8f27f4200f3a0000008152f35b8382346102b35760203660031901126102b3578060a092610578611989565b600180861b0316815260026020522080549161059383611e2e565b61059c84611d55565b91612710806105ab85886119fc565b0494600281015491876105d4575b50508151958652602086015284015260608301526080820152f35b670de0b6b3a76400006105f76001926105ed898c6119fc565b04600554906119fc565b0491015490818111156105b9576106189291610612916119d9565b90611a2f565b87806105b9565b8382346102b35760203660031901126102b35760209181906001600160a01b03610647611989565b168152600a845220549051908152f35b8382346102b35736600319011261027257610670611989565b6024356001600160a01b0381168103610697576106949161068f611b61565b611a3c565b80f35b8280fd5b8382346102b35760203660031901126102b3576020916106d59082906001600160a01b036106c7611989565b168152600285522054611e2e565b9051908152f35b8382346102b357816003193601126102b357517f00000000000000000000000000000000000000000000000000000000000000006001600160a01b03168152602090f35b8382346102b35760203660031901126102b35782359061073e611b90565b610746611bc0565b81156109b4573383526002602052808320610762838254611a2f565b6a084595161401484a00000080821061099757506107e69061078333611bde565b82548061096e575b5080835561079b85600354611a2f565b6003556107a781611d55565b612710906107c1826107b983866119fc565b048a54611a2f565b89556003826107d083866119fc565b04670de0b6b3a7640000958691600554906119fc565b04956001810196875501805467ffffffffffffffff80821615610956575b505080546fffffffffffffffff0000000000000000191642881b6fffffffffffffffff000000000000000016179055600654801580158061094c575b6108cb575b89897f1449c6dd7851abc30abf37f57715f492010519147cc2652fbc38202c18a6ee908a6108958330337f0000000000000000000000000000000000000000000000000000000000000000611dc1565b33845260026020526108a981852054611e2e565b815193845260208401523392a26001600080516020611e968339815191525580f35b858202918204861417156109395761092493929161091461049261091e937f1449c6dd7851abc30abf37f57715f492010519147cc2652fbc38202c18a6ee909b9c9d5490611a0f565b93846005556119fc565b046119fc565b04905583600655839291858080808080610845565b634e487b7160e01b895260118a52602489fd5b508a541515610840565b42169067ffffffffffffffff19161781558a80610804565b6127106109878261098161098f94611d55565b906119fc565b0488546119d9565b87558761078b565b8351630ad6177f60e01b8152808801929092526024820152604490fd5b51631f2a200560e01b81528390fd5b8382346102b357816003193601126102b357602090516a084595161401484a0000008152f35b8382346102b357816003193601126102b3576020906005549051908152f35b8382346102b357816003193601126102b3579054905160089190911c6001600160a01b03168152602090f35b91503461069757602036600319011261069757813591610a52611b90565b338452600860205260ff82852054161580610b59575b610b4b578215610b3d57610a9e8330337f0000000000000000000000000000000000000000000000000000000000000000611dc1565b805415610b2857670de0b6b3a7640000830290670de0b6b3a763ffff1984830401610b1557610ad291610492915490611a0f565b6005555b519081527fb8b27d0db504fa5d914f1fd330347096e88d5ff94b6c612d32797e7c12a8f66f60203392a26001600080516020611e968339815191525580f35b634e487b7160e01b855260119052602484fd5b50610b3582600654611a2f565b600655610ad6565b9051631f2a200560e01b8152fd5b9051633cc50b4560e01b8152fd5b5083543360089190911c6001600160a01b03161415610a68565b8382346102b357816003193601126102b35760207f62e78cea01bee320cd4e420270b5ea74000d11b0c9f74754ebdbfc544b05a25891610bb1611b61565b610bb9611bc0565b835460ff1916600117845551338152a180f35b8382346102b357816003193601126102b3576020906003549051908152f35b8382346102b357816003193601126102b3576020906007549051908152f35b909150346106975782600319360112610697576001546001600160a01b03929091903384841603610c945750506001600160a01b0319166001558154610100600160a81b0319811633600881811b610100600160a81b03169290921785559291901c167f8be0079c531659141344cd1fd0a4f28419497f9722a3daafe3b4186f6b6457e08380a380f35b60249250519063118cdaa760e01b82523390820152fd5b8334610272578060031936011261027257610cc4611b61565b600180546001600160a01b03191690558054610100600160a81b031981168255819060081c6001600160a01b03167f8be0079c531659141344cd1fd0a4f28419497f9722a3daafe3b4186f6b6457e08280a380f35b915034610697578060031936011261069757610d33611989565b9060243591821515809303610dad57610d4a611b61565b6001600160a01b0316928315610d9f57507f39a9d042226d79715733ad9813464b1dc2ac69065753fd66d6678d28371480be916020918486526008835280862060ff1981541660ff841617905551908152a280f35b905163d92e233d60e01b8152fd5b8480fd5b8382346102b357806003193601126102b35780610dcc611989565b6001600160a01b0316835260026020529091208054602435929190808411610e44575b50610e0c67ffffffffffffffff6003610e40930154841c16611c50565b610e24612710610e1c83876119fc565b0480956119d9565b9251938493846040919493926060820195825260208201520152565b0390f35b9250610e0c610def565b8382346102b357816003193601126102b357602090516101f48152f35b8382346102b35760203660031901126102b3576020916106d59082906001600160a01b03610e97611989565b168152600285522054611d55565b8382346102b357816003193601126102b357602090516a52b7d2dcc80cd2e40000008152f35b8382346102b357816003193601126102b35760ff602092541690519015158152f35b8382346102b357816003193601126102b357602090516201d4c08152f35b9091503461069757826003193601126106975760209250549051908152f35b90915034610697578260031936011261069757610f45611b61565b82549060ff821615610f85575060ff19168255513381527f5db9ee0a495bf2e6ff9c91a7834c1ba4fdd244a5e8aa4e537bd38aeae4b073aa90602090a180f35b8251638dfc202b60e01b8152fd5b8382346102b357816003193601126102b357610fad611b90565b610fb5611bc0565b610fbe33611bde565b3382526002602052808220926002840180549081156111745784956105ed9561102e9255670de0b6b3a7640000610fff825461271098816109818b93611d55565b046001820155600301805467ffffffffffffffff60801b19164260801b67ffffffffffffffff60801b16179055565b8093338652600960205260018060a01b03848720541692836110b9575b5050505061107a82337f0000000000000000000000000000000000000000000000000000000000000000611cd4565b519081527ffc30cddea38e2bf4d6ea7d3f9ed3b6ad7f176419f4963bd81318067a4aee73fe60203392a26001600080516020611e968339815191525580f35b92945090916101f48302906101f319848304016111615750906110de910480926119d9565b92816110ec575b808061104b565b61111782827f0000000000000000000000000000000000000000000000000000000000000000611cd4565b808552600a60205282852061112d838254611a2f565b905582519182527f53958b9c644a1d5529da7c36929d59417eb9a996f08e02a52632bfe20c92ef4860203393a383806110e5565b634e487b7160e01b875260119052602486fd5b83516312d37ee560e31b81528390fd5b8382346102b357816003193601126102b3576020906006549051908152f35b8382346102b35760203660031901126102b35760209160ff9082906001600160a01b036111ce611989565b1681526008855220541690519015158152f35b8382346102b35760209081600319360112610697578335611200611b90565b611208611bc0565b3384526002835281842092811561164d578354808311611631575061122c33611bde565b60028401858154915584549461124284876119d9565b908115158061161d575b6115f55760038101906127108067ffffffffffffffff94818686548c1c1661127390611c50565b61127d908b6119fc565b04988d8361128b8c846119d9565b9d61129581611d55565b61129e916119fc565b048154906112ab916119d9565b9055818555600354906112bd916119d9565b6003556112c981611d55565b8d836112d583856119fc565b048154906112e291611a2f565b90556112ed916119fc565b0491670de0b6b3a76400008093600554611306916119fc565b04600190910155338a5260098652878a20548a916001600160a01b039190911690811515806115ec575b6115ae575b50611340868b611a2f565b8061157d575b508161150a575b505085158015611433575b50507f204fccf0d92ed8d48f204adb39b2e81e92bad0dedb93f5716ca9478cfb57de0096979850908291600294936113d7575b505050338752526113bf6113a183872054611e2e565b92519283923396846040919493926060820195825260208201520152565b0390a26001600080516020611e968339815191525580f35b805467ffffffffffffffff60801b19164290921660801b67ffffffffffffffff60801b1691909117905584519081527ffc30cddea38e2bf4d6ea7d3f9ed3b6ad7f176419f4963bd81318067a4aee73fe823392a287808061138b565b61143f87600754611a2f565b6007558a54156114c95781870291878304141715610939579061148f6104926002969594937f204fccf0d92ed8d48f204adb39b2e81e92bad0dedb93f5716ca9478cfb57de009a9b9c5490611a0f565b60055586518681527f288446c5197716b76e9cbff1efd986dc6c319f565760a84cf660944cb2879c7c853392a25b90919293899897611358565b50507f204fccf0d92ed8d48f204adb39b2e81e92bad0dedb93f5716ca9478cfb57de009697985090600293929161150286600654611a2f565b6006556114bd565b61153582827f0000000000000000000000000000000000000000000000000000000000000000611cd4565b808b52600a8752888b2061154a838254611a2f565b905588519182527f53958b9c644a1d5529da7c36929d59417eb9a996f08e02a52632bfe20c92ef48873393a38a8061134d565b6115a890337f0000000000000000000000000000000000000000000000000000000000000000611cd4565b8c611346565b909591506101f48083029083820414831517156115d957906115d2910480926119d9565b948c611335565b634e487b7160e01b8c5260118d5260248cfd5b50861515611330565b8551630ad6177f60e01b8152808a018390526a084595161401484a0000006024820152604490fd5b506a084595161401484a000000821061124c565b8660449184865192630fc7737160e31b84528301526024820152fd5b8251631f2a200560e01b81528690fd5b8382346102b35760203660031901126102b3576020916001600160a01b0390829082611687611989565b168152600985522054169051908152f35b8382346102b357816003193601126102b3576020905161c3508152f35b50823461027257602036600319011261027257816001600160a01b03806116da611989565b1683526009602052818320541691600a602052205482519182526020820152f35b8382346102b357816003193601126102b357602090516301e133808152f35b8382346102b35760203660031901126102b35760c09181906001600160a01b03611742611989565b168152600260205220805491600182015460036002840154930154809267ffffffffffffffff948593825197885260208801528187015282821660608701521c16608084015260801c1660a0820152f35b91503461069757806003193601126106975767ffffffffffffffff908235828111610dad576117c59036908501611953565b919092602435908111611933576117df9036908601611953565b9290946117ea611b61565b8382036118fe5750855b8181106117ff578680f35b6001906001600160a01b038061181e61181984878b61199f565b6119c5565b161515806118e6575b88828489888c866118b6575b50505050505080611892575b61184b575b50016117f4565b61185961181983888b61199f565b908061186961181985888c61199f565b168a526009602052858a2091166bffffffffffffffffffffffff60a01b82541617905538611844565b50806118a261181984878b61199f565b168952600960205280858a2054161561183f565b84959650916118d0611819856118d696946118199661199f565b9661199f565b169116141588828489888c611833565b50806118f661181984898c61199f565b161515611827565b606490602084519162461bcd60e51b8352820152600f60248201526e098cadccee8d040dad2e6dac2e8c6d608b1b6044820152fd5b8580fd5b8490346102b357816003193601126102b35780611af460209252f35b9181601f840112156119845782359167ffffffffffffffff8311611984576020808501948460051b01011161198457565b600080fd5b600435906001600160a01b038216820361198457565b91908110156119af5760051b0190565b634e487b7160e01b600052603260045260246000fd5b356001600160a01b03811681036119845790565b919082039182116119e657565b634e487b7160e01b600052601160045260246000fd5b818102929181159184041417156119e657565b8115611a19570490565b634e487b7160e01b600052601260045260246000fd5b919082018092116119e657565b6001600160a01b03919082169081158015611a9d575b611a8b57821690818114611a8b5760005260096020526040600020918254908116611a86576001600160a01b031916179055565b505050565b60405163d92e233d60e01b8152600490fd5b5082811615611a52565b6001600160a01b031660009081526002602052604080822060030154919291901c67ffffffffffffffff168015611b5957611ae281426119d9565b916201518093611af485850493611c50565b946064860286810460641487151715611b45576127109004946301e1338090818110611b205750505090565b8192939103918211611b3157500490565b634e487b7160e01b81526011600452602490fd5b634e487b7160e01b83526011600452602483fd5b508180918190565b60005460081c6001600160a01b03163303611b7857565b60405163118cdaa760e01b8152336004820152602490fd5b600080516020611e968339815191526002815414611bae5760029055565b604051633ee5aeb560e01b8152600490fd5b60ff60005416611bcc57565b60405163d93c066560e01b8152600490fd5b6001600160a01b0316600090815260026020526040902080548015611c4c57611c196127106105ed83610981670de0b6b3a764000095611d55565b049060018101908154808411611c2e57505055565b6002611c3d611c4792866119d9565b9201918254611a2f565b905555565b5050565b67ffffffffffffffff168015611cce57611c6a90426119d9565b6301e1338080821015611cc7578181038181116119e657670de0b6b3a764000092838202918204841490831417156119e6578291611cae91048261091e82806119fc565b04611af4908181029181830414901517156119e6570490565b5050600090565b50600090565b60405163a9059cbb60e01b60009081526001600160a01b039384166004526024949094529260209060448180855af1600160005114811615611d35575b8360405215611d1f57505050565b635274afe760e01b835216600482015260249150fd5b6001811516611d4b57813b15153d151616611d11565b833d6000823e3d90fd5b6acecb8f27f4200f3a000000811015611db9576a52b7d2dcc80cd2e4000000811015611db2576a14adf4b7320334b9000000811015611dab576a084595161401484a0000001115611da557600090565b61271090565b50614e2090565b5061c35090565b506201d4c090565b6040516323b872dd60e01b60009081526001600160a01b03938416600452938316602452604494909452909160209060648180855af1600160005114811615611e18575b83604052600060605215611d1f57505050565b6001811516611d4b57813b15153d151616611e05565b6acecb8f27f4200f3a000000811015611e8f576a52b7d2dcc80cd2e4000000811015611e89576a14adf4b7320334b9000000811015611e83576a084595161401484a0000001115611e7e57600090565b600190565b50600290565b50600390565b5060049056fe9b779b17422d0df92223018b32b4d1fa46e071723d6817e2486d003becc55f00a26469706673582212206a857632002d72a9fdf278a8561f7bbfa12534613d3f89789eea9afa16a6735664736f6c63430008180033","opcodes":"PUSH1 0xA0 CALLVALUE PUSH2 0x176 JUMPI PUSH1 0x1F PUSH2 0x207D CODESIZE DUP2 SWAP1 SUB SWAP2 DUP3 ADD PUSH1 0x1F NOT AND DUP4 ADD SWAP2 PUSH1 0x1 PUSH1 0x1 PUSH1 0x40 SHL SUB DUP4 GT DUP5 DUP5 LT OR PUSH2 0x17B JUMPI DUP1 DUP5 SWAP3 PUSH1 0x20 SWAP5 PUSH1 0x40 MSTORE DUP4 CODECOPY DUP2 ADD SUB SLT PUSH2 0x176 JUMPI MLOAD PUSH1 0x1 PUSH1 0x1 PUSH1 0xA0 SHL SUB SWAP1 DUP2 DUP2 AND SWAP1 DUP2 SWAP1 SUB PUSH2 0x176 JUMPI PUSH1 0x1 PUSH32 0x9B779B17422D0DF92223018B32B4D1FA46E071723D6817E2486D003BECC55F00 SSTORE CALLER ISZERO PUSH2 0x15D JUMPI PUSH1 0x1 DUP1 SLOAD PUSH1 0x1 PUSH1 0x1 PUSH1 0xA0 SHL SUB NOT AND SWAP1 SSTORE PUSH1 0x0 DUP1 SLOAD PUSH2 0x100 PUSH1 0x1 PUSH1 0xA8 SHL SUB NOT DUP2 AND CALLER PUSH1 0x8 DUP2 DUP2 SHL PUSH2 0x100 PUSH1 0x1 PUSH1 0xA8 SHL SUB AND SWAP3 SWAP1 SWAP3 OR DUP5 SSTORE PUSH1 0x40 MLOAD SWAP6 SWAP4 SWAP5 SWAP4 SWAP1 SWAP3 SWAP1 SWAP2 SHR AND PUSH32 0x8BE0079C531659141344CD1FD0A4F28419497F9722A3DAAFE3B4186F6B6457E0 DUP5 DUP1 LOG3 DUP1 ISZERO PUSH2 0x14E JUMPI PUSH1 0x40 SWAP3 POP PUSH1 0x80 MSTORE CALLER DUP2 MSTORE PUSH1 0x8 PUSH1 0x20 MSTORE KECCAK256 PUSH1 0x1 PUSH1 0xFF NOT DUP3 SLOAD AND OR SWAP1 SSTORE PUSH1 0x40 MLOAD PUSH2 0x1EEB SWAP1 DUP2 PUSH2 0x192 DUP3 CODECOPY PUSH1 0x80 MLOAD DUP2 DUP2 DUP2 PUSH2 0x4FA ADD MSTORE DUP2 DUP2 PUSH2 0x6F1 ADD MSTORE DUP2 DUP2 PUSH2 0x871 ADD MSTORE DUP2 DUP2 PUSH2 0xA7A ADD MSTORE DUP2 DUP2 PUSH2 0x1056 ADD MSTORE DUP2 DUP2 PUSH2 0x10F3 ADD MSTORE DUP2 DUP2 PUSH2 0x1511 ADD MSTORE PUSH2 0x1584 ADD MSTORE RETURN JUMPDEST PUSH4 0xD92E233D PUSH1 0xE0 SHL DUP4 MSTORE PUSH1 0x4 DUP4 REVERT JUMPDEST PUSH1 0x40 MLOAD PUSH4 0x1E4FBDF7 PUSH1 0xE0 SHL DUP2 MSTORE PUSH1 0x0 PUSH1 0x4 DUP3 ADD MSTORE PUSH1 0x24 SWAP1 REVERT JUMPDEST PUSH1 0x0 DUP1 REVERT JUMPDEST PUSH4 0x4E487B71 PUSH1 0xE0 SHL PUSH1 0x0 MSTORE PUSH1 0x41 PUSH1 0x4 MSTORE PUSH1 0x24 PUSH1 0x0 REVERT INVALID PUSH1 0x80 PUSH1 0x40 SWAP1 DUP1 DUP3 MSTORE PUSH1 0x4 SWAP2 DUP3 CALLDATASIZE LT ISZERO PUSH2 0x17 JUMPI PUSH1 0x0 DUP1 REVERT JUMPDEST PUSH1 0x0 SWAP3 DUP4 CALLDATALOAD PUSH1 0xE0 SHR SWAP3 DUP4 PUSH4 0x225D3CC EQ PUSH2 0x1937 JUMPI POP DUP3 PUSH4 0x164BD0A2 EQ PUSH2 0x1793 JUMPI DUP3 PUSH4 0x16934FC4 EQ PUSH2 0x171A JUMPI DUP3 PUSH4 0x1820CABB EQ PUSH2 0x16FB JUMPI DUP3 PUSH4 0x21874AE2 EQ PUSH2 0x16B5 JUMPI DUP3 PUSH4 0x2B2893BA EQ PUSH2 0x1698 JUMPI DUP3 PUSH4 0x2CF003C2 EQ PUSH2 0x165D JUMPI DUP3 PUSH4 0x2E17DE78 EQ PUSH2 0x11E1 JUMPI DUP3 PUSH4 0x2F70D1BA EQ PUSH2 0x11A3 JUMPI DUP3 PUSH4 0x34279192 EQ PUSH2 0x1184 JUMPI DUP3 PUSH4 0x372500AB EQ PUSH2 0xF93 JUMPI DUP3 PUSH4 0x3F4BA83A EQ PUSH2 0xF2A JUMPI DUP3 PUSH4 0x47D62809 EQ PUSH2 0xF0B JUMPI DUP3 PUSH4 0x5152F67F EQ PUSH2 0xEED JUMPI DUP3 PUSH4 0x5C975ABB EQ PUSH2 0xECB JUMPI DUP3 PUSH4 0x679F5418 EQ PUSH2 0xEA5 JUMPI DUP3 PUSH4 0x67BA3D90 EQ PUSH2 0xE6B JUMPI DUP3 PUSH4 0x6E8CDDEA EQ PUSH2 0xE4E JUMPI DUP3 PUSH4 0x6F843F59 EQ PUSH2 0xDB1 JUMPI DUP3 PUSH4 0x6F860D74 EQ PUSH2 0xD19 JUMPI DUP3 PUSH4 0x715018A6 EQ PUSH2 0xCAB JUMPI DUP3 PUSH4 0x79BA5097 EQ PUSH2 0xC0A JUMPI DUP3 PUSH4 0x7EAACDB0 EQ PUSH2 0xBEB JUMPI DUP3 PUSH4 0x817B1CD2 EQ PUSH2 0xBCC JUMPI DUP3 PUSH4 0x8456CB59 EQ PUSH2 0xB73 JUMPI DUP3 PUSH4 0x8BDF67F2 EQ PUSH2 0xA34 JUMPI DUP3 PUSH4 0x8DA5CB5B EQ PUSH2 0xA08 JUMPI DUP3 PUSH4 0x939D6237 EQ PUSH2 0x9E9 JUMPI DUP3 PUSH4 0x9A14EF0D EQ PUSH2 0x9C3 JUMPI DUP3 PUSH4 0xA694FC3A EQ PUSH2 0x720 JUMPI DUP3 PUSH4 0xA6DF0831 EQ PUSH2 0x6DC JUMPI DUP3 PUSH4 0xB45AAE52 EQ PUSH2 0x69B JUMPI DUP3 PUSH4 0xBBDDACA3 EQ PUSH2 0x657 JUMPI DUP3 PUSH4 0xC07B528A EQ PUSH2 0x61F JUMPI DUP3 PUSH4 0xC3453153 EQ PUSH2 0x559 JUMPI DUP3 PUSH4 0xD4E6C5C4 EQ PUSH2 0x533 JUMPI DUP3 PUSH4 0xDB2E21BC EQ PUSH2 0x340 JUMPI POP DUP2 PUSH4 0xDE0F9093 EQ PUSH2 0x323 JUMPI DUP2 PUSH4 0xE080F071 EQ PUSH2 0x2FD JUMPI DUP2 PUSH4 0xE18C7DFC EQ PUSH2 0x2E0 JUMPI DUP2 PUSH4 0xE30C3978 EQ PUSH2 0x2B7 JUMPI DUP2 PUSH4 0xF2760E9D EQ PUSH2 0x275 JUMPI POP PUSH4 0xF2FDE38B EQ PUSH2 0x200 JUMPI PUSH1 0x0 DUP1 REVERT JUMPDEST CALLVALUE PUSH2 0x272 JUMPI PUSH1 0x20 CALLDATASIZE PUSH1 0x3 NOT ADD SLT PUSH2 0x272 JUMPI PUSH2 0x219 PUSH2 0x1989 JUMP JUMPDEST PUSH2 0x221 PUSH2 0x1B61 JUMP JUMPDEST PUSH1 0x1 DUP1 PUSH1 0xA0 SHL SUB DUP1 SWAP2 AND SWAP1 DUP2 PUSH12 0xFFFFFFFFFFFFFFFFFFFFFFFF PUSH1 0xA0 SHL PUSH1 0x1 SLOAD AND OR PUSH1 0x1 SSTORE DUP3 SLOAD PUSH1 0x8 SHR AND PUSH32 0x38D16B8CAC22D99FC7C124B9CD0DE2D3FA1FAEF420BFE791D8C362D765E22700 DUP4 DUP1 LOG3 DUP1 RETURN JUMPDEST DUP1 REVERT JUMPDEST SWAP1 POP CALLVALUE PUSH2 0x2B3 JUMPI PUSH1 0x20 CALLDATASIZE PUSH1 0x3 NOT ADD SLT PUSH2 0x2B3 JUMPI PUSH1 0x80 SWAP1 PUSH2 0x29B PUSH2 0x296 PUSH2 0x1989 JUMP JUMPDEST PUSH2 0x1AA7 JUMP JUMPDEST SWAP3 SWAP4 SWAP1 SWAP2 DUP2 MLOAD SWAP5 DUP6 MSTORE PUSH1 0x20 DUP6 ADD MSTORE DUP4 ADD MSTORE PUSH1 0x60 DUP3 ADD MSTORE RETURN JUMPDEST POP DUP1 REVERT JUMPDEST SWAP1 POP CALLVALUE PUSH2 0x2B3 JUMPI DUP2 PUSH1 0x3 NOT CALLDATASIZE ADD SLT PUSH2 0x2B3 JUMPI PUSH1 0x1 SLOAD SWAP1 MLOAD PUSH1 0x1 PUSH1 0x1 PUSH1 0xA0 SHL SUB SWAP1 SWAP2 AND DUP2 MSTORE PUSH1 0x20 SWAP1 RETURN JUMPDEST SWAP1 POP CALLVALUE PUSH2 0x2B3 JUMPI DUP2 PUSH1 0x3 NOT CALLDATASIZE ADD SLT PUSH2 0x2B3 JUMPI PUSH1 0x20 SWAP1 MLOAD PUSH2 0x4E20 DUP2 MSTORE RETURN JUMPDEST SWAP1 POP CALLVALUE PUSH2 0x2B3 JUMPI DUP2 PUSH1 0x3 NOT CALLDATASIZE ADD SLT PUSH2 0x2B3 JUMPI PUSH1 0x20 SWAP1 MLOAD PUSH11 0x14ADF4B7320334B9000000 DUP2 MSTORE RETURN JUMPDEST SWAP1 POP CALLVALUE PUSH2 0x2B3 JUMPI DUP2 PUSH1 0x3 NOT CALLDATASIZE ADD SLT PUSH2 0x2B3 JUMPI PUSH1 0x20 SWAP1 MLOAD PUSH2 0x2710 DUP2 MSTORE RETURN JUMPDEST DUP4 DUP3 CALLVALUE PUSH2 0x2B3 JUMPI DUP2 PUSH1 0x3 NOT CALLDATASIZE ADD SLT PUSH2 0x2B3 JUMPI PUSH2 0x35A PUSH2 0x1B90 JUMP JUMPDEST CALLER DUP3 MSTORE PUSH1 0x2 PUSH1 0x20 MSTORE DUP1 DUP3 KECCAK256 SWAP1 DUP2 SLOAD DUP1 ISZERO PUSH2 0x523 JUMPI DUP4 PUSH1 0x2 PUSH2 0x2710 SWAP5 PUSH2 0x3CF DUP7 PUSH2 0x39B PUSH2 0x395 PUSH8 0xFFFFFFFFFFFFFFFF PUSH1 0x3 DUP7 ADD SLOAD DUP11 SHR AND PUSH2 0x1C50 JUMP JUMPDEST DUP8 PUSH2 0x19FC JUMP JUMPDEST DIV SWAP5 PUSH2 0x3C5 PUSH2 0x3AA DUP8 DUP4 PUSH2 0x19D9 JUMP JUMPDEST SWAP9 PUSH2 0x3BD PUSH2 0x3B7 DUP5 PUSH2 0x1D55 JUMP JUMPDEST DUP5 PUSH2 0x19FC JUMP JUMPDEST DIV DUP12 SLOAD PUSH2 0x19D9 JUMP JUMPDEST DUP11 SSTORE PUSH1 0x3 SLOAD PUSH2 0x19D9 JUMP JUMPDEST PUSH1 0x3 SSTORE DUP3 DUP2 SSTORE DUP3 PUSH1 0x1 DUP3 ADD SSTORE ADD SSTORE DUP3 PUSH2 0x4F3 JUMPI JUMPDEST DUP1 ISZERO DUP1 ISZERO PUSH2 0x432 JUMPI JUMPDEST POP SWAP1 PUSH32 0xBB757047C2B5F3974FE26B7C10F732E7BCE710B0952A71082702781E62AE0595 SWAP2 DUP2 MLOAD SWAP4 DUP5 MSTORE PUSH1 0x20 DUP5 ADD MSTORE CALLER SWAP3 LOG2 PUSH1 0x1 PUSH1 0x0 DUP1 MLOAD PUSH1 0x20 PUSH2 0x1E96 DUP4 CODECOPY DUP2 MLOAD SWAP2 MSTORE SSTORE DUP1 RETURN JUMPDEST PUSH2 0x43E DUP3 PUSH1 0x7 SLOAD PUSH2 0x1A2F JUMP JUMPDEST PUSH1 0x7 SSTORE DUP6 SLOAD ISZERO PUSH2 0x4B9 JUMPI PUSH8 0xDE0B6B3A7640000 SWAP1 DUP2 DUP4 MUL SWAP2 DUP4 DUP4 DIV EQ OR ISZERO PUSH2 0x4A6 JUMPI PUSH2 0x492 PUSH2 0x49A SWAP2 PUSH32 0xBB757047C2B5F3974FE26B7C10F732E7BCE710B0952A71082702781E62AE0595 SWAP6 SWAP7 SWAP8 SLOAD SWAP1 PUSH2 0x1A0F JUMP JUMPDEST PUSH1 0x5 SLOAD PUSH2 0x1A2F JUMP JUMPDEST PUSH1 0x5 SSTORE JUMPDEST DUP5 SWAP4 SWAP3 PUSH2 0x3EC JUMP JUMPDEST PUSH4 0x4E487B71 PUSH1 0xE0 SHL DUP6 MSTORE PUSH1 0x11 DUP7 MSTORE PUSH1 0x24 DUP6 REVERT JUMPDEST POP PUSH32 0xBB757047C2B5F3974FE26B7C10F732E7BCE710B0952A71082702781E62AE0595 SWAP3 SWAP4 SWAP5 POP PUSH2 0x4EB DUP2 PUSH1 0x6 SLOAD PUSH2 0x1A2F JUMP JUMPDEST PUSH1 0x6 SSTORE PUSH2 0x49E JUMP JUMPDEST PUSH2 0x51E DUP4 CALLER PUSH32 0x0 PUSH2 0x1CD4 JUMP JUMPDEST PUSH2 0x3E3 JUMP JUMPDEST DUP2 MLOAD PUSH4 0x1F2A2005 PUSH1 0xE0 SHL DUP2 MSTORE DUP6 SWAP1 REVERT JUMPDEST DUP4 DUP3 CALLVALUE PUSH2 0x2B3 JUMPI DUP2 PUSH1 0x3 NOT CALLDATASIZE ADD SLT PUSH2 0x2B3 JUMPI PUSH1 0x20 SWAP1 MLOAD PUSH11 0xCECB8F27F4200F3A000000 DUP2 MSTORE RETURN JUMPDEST DUP4 DUP3 CALLVALUE PUSH2 0x2B3 JUMPI PUSH1 0x20 CALLDATASIZE PUSH1 0x3 NOT ADD SLT PUSH2 0x2B3 JUMPI DUP1 PUSH1 0xA0 SWAP3 PUSH2 0x578 PUSH2 0x1989 JUMP JUMPDEST PUSH1 0x1 DUP1 DUP7 SHL SUB AND DUP2 MSTORE PUSH1 0x2 PUSH1 0x20 MSTORE KECCAK256 DUP1 SLOAD SWAP2 PUSH2 0x593 DUP4 PUSH2 0x1E2E JUMP JUMPDEST PUSH2 0x59C DUP5 PUSH2 0x1D55 JUMP JUMPDEST SWAP2 PUSH2 0x2710 DUP1 PUSH2 0x5AB DUP6 DUP9 PUSH2 0x19FC JUMP JUMPDEST DIV SWAP5 PUSH1 0x2 DUP2 ADD SLOAD SWAP2 DUP8 PUSH2 0x5D4 JUMPI JUMPDEST POP POP DUP2 MLOAD SWAP6 DUP7 MSTORE PUSH1 0x20 DUP7 ADD MSTORE DUP5 ADD MSTORE PUSH1 0x60 DUP4 ADD MSTORE PUSH1 0x80 DUP3 ADD MSTORE RETURN JUMPDEST PUSH8 0xDE0B6B3A7640000 PUSH2 0x5F7 PUSH1 0x1 SWAP3 PUSH2 0x5ED DUP10 DUP13 PUSH2 0x19FC JUMP JUMPDEST DIV PUSH1 0x5 SLOAD SWAP1 PUSH2 0x19FC JUMP JUMPDEST DIV SWAP2 ADD SLOAD SWAP1 DUP2 DUP2 GT ISZERO PUSH2 0x5B9 JUMPI PUSH2 0x618 SWAP3 SWAP2 PUSH2 0x612 SWAP2 PUSH2 0x19D9 JUMP JUMPDEST SWAP1 PUSH2 0x1A2F JUMP JUMPDEST DUP8 DUP1 PUSH2 0x5B9 JUMP JUMPDEST DUP4 DUP3 CALLVALUE PUSH2 0x2B3 JUMPI PUSH1 0x20 CALLDATASIZE PUSH1 0x3 NOT ADD SLT PUSH2 0x2B3 JUMPI PUSH1 0x20 SWAP2 DUP2 SWAP1 PUSH1 0x1 PUSH1 0x1 PUSH1 0xA0 SHL SUB PUSH2 0x647 PUSH2 0x1989 JUMP JUMPDEST AND DUP2 MSTORE PUSH1 0xA DUP5 MSTORE KECCAK256 SLOAD SWAP1 MLOAD SWAP1 DUP2 MSTORE RETURN JUMPDEST DUP4 DUP3 CALLVALUE PUSH2 0x2B3 JUMPI CALLDATASIZE PUSH1 0x3 NOT ADD SLT PUSH2 0x272 JUMPI PUSH2 0x670 PUSH2 0x1989 JUMP JUMPDEST PUSH1 0x24 CALLDATALOAD PUSH1 0x1 PUSH1 0x1 PUSH1 0xA0 SHL SUB DUP2 AND DUP2 SUB PUSH2 0x697 JUMPI PUSH2 0x694 SWAP2 PUSH2 0x68F PUSH2 0x1B61 JUMP JUMPDEST PUSH2 0x1A3C JUMP JUMPDEST DUP1 RETURN JUMPDEST DUP3 DUP1 REVERT JUMPDEST DUP4 DUP3 CALLVALUE PUSH2 0x2B3 JUMPI PUSH1 0x20 CALLDATASIZE PUSH1 0x3 NOT ADD SLT PUSH2 0x2B3 JUMPI PUSH1 0x20 SWAP2 PUSH2 0x6D5 SWAP1 DUP3 SWAP1 PUSH1 0x1 PUSH1 0x1 PUSH1 0xA0 SHL SUB PUSH2 0x6C7 PUSH2 0x1989 JUMP JUMPDEST AND DUP2 MSTORE PUSH1 0x2 DUP6 MSTORE KECCAK256 SLOAD PUSH2 0x1E2E JUMP JUMPDEST SWAP1 MLOAD SWAP1 DUP2 MSTORE RETURN JUMPDEST DUP4 DUP3 CALLVALUE PUSH2 0x2B3 JUMPI DUP2 PUSH1 0x3 NOT CALLDATASIZE ADD SLT PUSH2 0x2B3 JUMPI MLOAD PUSH32 0x0 PUSH1 0x1 PUSH1 0x1 PUSH1 0xA0 SHL SUB AND DUP2 MSTORE PUSH1 0x20 SWAP1 RETURN JUMPDEST DUP4 DUP3 CALLVALUE PUSH2 0x2B3 JUMPI PUSH1 0x20 CALLDATASIZE PUSH1 0x3 NOT ADD SLT PUSH2 0x2B3 JUMPI DUP3 CALLDATALOAD SWAP1 PUSH2 0x73E PUSH2 0x1B90 JUMP JUMPDEST PUSH2 0x746 PUSH2 0x1BC0 JUMP JUMPDEST DUP2 ISZERO PUSH2 0x9B4 JUMPI CALLER DUP4 MSTORE PUSH1 0x2 PUSH1 0x20 MSTORE DUP1 DUP4 KECCAK256 PUSH2 0x762 DUP4 DUP3 SLOAD PUSH2 0x1A2F JUMP JUMPDEST PUSH11 0x84595161401484A000000 DUP1 DUP3 LT PUSH2 0x997 JUMPI POP PUSH2 0x7E6 SWAP1 PUSH2 0x783 CALLER PUSH2 0x1BDE JUMP JUMPDEST DUP3 SLOAD DUP1 PUSH2 0x96E JUMPI JUMPDEST POP DUP1 DUP4 SSTORE PUSH2 0x79B DUP6 PUSH1 0x3 SLOAD PUSH2 0x1A2F JUMP JUMPDEST PUSH1 0x3 SSTORE PUSH2 0x7A7 DUP2 PUSH2 0x1D55 JUMP JUMPDEST PUSH2 0x2710 SWAP1 PUSH2 0x7C1 DUP3 PUSH2 0x7B9 DUP4 DUP7 PUSH2 0x19FC JUMP JUMPDEST DIV DUP11 SLOAD PUSH2 0x1A2F JUMP JUMPDEST DUP10 SSTORE PUSH1 0x3 DUP3 PUSH2 0x7D0 DUP4 DUP7 PUSH2 0x19FC JUMP JUMPDEST DIV PUSH8 0xDE0B6B3A7640000 SWAP6 DUP7 SWAP2 PUSH1 0x5 SLOAD SWAP1 PUSH2 0x19FC JUMP JUMPDEST DIV SWAP6 PUSH1 0x1 DUP2 ADD SWAP7 DUP8 SSTORE ADD DUP1 SLOAD PUSH8 0xFFFFFFFFFFFFFFFF DUP1 DUP3 AND ISZERO PUSH2 0x956 JUMPI JUMPDEST POP POP DUP1 SLOAD PUSH16 0xFFFFFFFFFFFFFFFF0000000000000000 NOT AND TIMESTAMP DUP9 SHL PUSH16 0xFFFFFFFFFFFFFFFF0000000000000000 AND OR SWAP1 SSTORE PUSH1 0x6 SLOAD DUP1 ISZERO DUP1 ISZERO DUP1 PUSH2 0x94C JUMPI JUMPDEST PUSH2 0x8CB JUMPI JUMPDEST DUP10 DUP10 PUSH32 0x1449C6DD7851ABC30ABF37F57715F492010519147CC2652FBC38202C18A6EE90 DUP11 PUSH2 0x895 DUP4 ADDRESS CALLER PUSH32 0x0 PUSH2 0x1DC1 JUMP JUMPDEST CALLER DUP5 MSTORE PUSH1 0x2 PUSH1 0x20 MSTORE PUSH2 0x8A9 DUP2 DUP6 KECCAK256 SLOAD PUSH2 0x1E2E JUMP JUMPDEST DUP2 MLOAD SWAP4 DUP5 MSTORE PUSH1 0x20 DUP5 ADD MSTORE CALLER SWAP3 LOG2 PUSH1 0x1 PUSH1 0x0 DUP1 MLOAD PUSH1 0x20 PUSH2 0x1E96 DUP4 CODECOPY DUP2 MLOAD SWAP2 MSTORE SSTORE DUP1 RETURN JUMPDEST DUP6 DUP3 MUL SWAP2 DUP3 DIV DUP7 EQ OR ISZERO PUSH2 0x939 JUMPI PUSH2 0x924 SWAP4 SWAP3 SWAP2 PUSH2 0x914 PUSH2 0x492 PUSH2 0x91E SWAP4 PUSH32 0x1449C6DD7851ABC30ABF37F57715F492010519147CC2652FBC38202C18A6EE90 SWAP12 SWAP13 SWAP14 SLOAD SWAP1 PUSH2 0x1A0F JUMP JUMPDEST SWAP4 DUP5 PUSH1 0x5 SSTORE PUSH2 0x19FC JUMP JUMPDEST DIV PUSH2 0x19FC JUMP JUMPDEST DIV SWAP1 SSTORE DUP4 PUSH1 0x6 SSTORE DUP4 SWAP3 SWAP2 DUP6 DUP1 DUP1 DUP1 DUP1 DUP1 PUSH2 0x845 JUMP JUMPDEST PUSH4 0x4E487B71 PUSH1 0xE0 SHL DUP10 MSTORE PUSH1 0x11 DUP11 MSTORE PUSH1 0x24 DUP10 REVERT JUMPDEST POP DUP11 SLOAD ISZERO ISZERO PUSH2 0x840 JUMP JUMPDEST TIMESTAMP AND SWAP1 PUSH8 0xFFFFFFFFFFFFFFFF NOT AND OR DUP2 SSTORE DUP11 DUP1 PUSH2 0x804 JUMP JUMPDEST PUSH2 0x2710 PUSH2 0x987 DUP3 PUSH2 0x981 PUSH2 0x98F SWAP5 PUSH2 0x1D55 JUMP JUMPDEST SWAP1 PUSH2 0x19FC JUMP JUMPDEST DIV DUP9 SLOAD PUSH2 0x19D9 JUMP JUMPDEST DUP8 SSTORE DUP8 PUSH2 0x78B JUMP JUMPDEST DUP4 MLOAD PUSH4 0xAD6177F PUSH1 0xE0 SHL DUP2 MSTORE DUP1 DUP9 ADD SWAP3 SWAP1 SWAP3 MSTORE PUSH1 0x24 DUP3 ADD MSTORE PUSH1 0x44 SWAP1 REVERT JUMPDEST MLOAD PUSH4 0x1F2A2005 PUSH1 0xE0 SHL DUP2 MSTORE DUP4 SWAP1 REVERT JUMPDEST DUP4 DUP3 CALLVALUE PUSH2 0x2B3 JUMPI DUP2 PUSH1 0x3 NOT CALLDATASIZE ADD SLT PUSH2 0x2B3 JUMPI PUSH1 0x20 SWAP1 MLOAD PUSH11 0x84595161401484A000000 DUP2 MSTORE RETURN JUMPDEST DUP4 DUP3 CALLVALUE PUSH2 0x2B3 JUMPI DUP2 PUSH1 0x3 NOT CALLDATASIZE ADD SLT PUSH2 0x2B3 JUMPI PUSH1 0x20 SWAP1 PUSH1 0x5 SLOAD SWAP1 MLOAD SWAP1 DUP2 MSTORE RETURN JUMPDEST DUP4 DUP3 CALLVALUE PUSH2 0x2B3 JUMPI DUP2 PUSH1 0x3 NOT CALLDATASIZE ADD SLT PUSH2 0x2B3 JUMPI SWAP1 SLOAD SWAP1 MLOAD PUSH1 0x8 SWAP2 SWAP1 SWAP2 SHR PUSH1 0x1 PUSH1 0x1 PUSH1 0xA0 SHL SUB AND DUP2 MSTORE PUSH1 0x20 SWAP1 RETURN JUMPDEST SWAP2 POP CALLVALUE PUSH2 0x697 JUMPI PUSH1 0x20 CALLDATASIZE PUSH1 0x3 NOT ADD SLT PUSH2 0x697 JUMPI DUP2 CALLDATALOAD SWAP2 PUSH2 0xA52 PUSH2 0x1B90 JUMP JUMPDEST CALLER DUP5 MSTORE PUSH1 0x8 PUSH1 0x20 MSTORE PUSH1 0xFF DUP3 DUP6 KECCAK256 SLOAD AND ISZERO DUP1 PUSH2 0xB59 JUMPI JUMPDEST PUSH2 0xB4B JUMPI DUP3 ISZERO PUSH2 0xB3D JUMPI PUSH2 0xA9E DUP4 ADDRESS CALLER PUSH32 0x0 PUSH2 0x1DC1 JUMP JUMPDEST DUP1 SLOAD ISZERO PUSH2 0xB28 JUMPI PUSH8 0xDE0B6B3A7640000 DUP4 MUL SWAP1 PUSH8 0xDE0B6B3A763FFFF NOT DUP5 DUP4 DIV ADD PUSH2 0xB15 JUMPI PUSH2 0xAD2 SWAP2 PUSH2 0x492 SWAP2 SLOAD SWAP1 PUSH2 0x1A0F JUMP JUMPDEST PUSH1 0x5 SSTORE JUMPDEST MLOAD SWAP1 DUP2 MSTORE PUSH32 0xB8B27D0DB504FA5D914F1FD330347096E88D5FF94B6C612D32797E7C12A8F66F PUSH1 0x20 CALLER SWAP3 LOG2 PUSH1 0x1 PUSH1 0x0 DUP1 MLOAD PUSH1 0x20 PUSH2 0x1E96 DUP4 CODECOPY DUP2 MLOAD SWAP2 MSTORE SSTORE DUP1 RETURN JUMPDEST PUSH4 0x4E487B71 PUSH1 0xE0 SHL DUP6 MSTORE PUSH1 0x11 SWAP1 MSTORE PUSH1 0x24 DUP5 REVERT JUMPDEST POP PUSH2 0xB35 DUP3 PUSH1 0x6 SLOAD PUSH2 0x1A2F JUMP JUMPDEST PUSH1 0x6 SSTORE PUSH2 0xAD6 JUMP JUMPDEST SWAP1 MLOAD PUSH4 0x1F2A2005 PUSH1 0xE0 SHL DUP2 MSTORE REVERT JUMPDEST SWAP1 MLOAD PUSH4 0x3CC50B45 PUSH1 0xE0 SHL DUP2 MSTORE REVERT JUMPDEST POP DUP4 SLOAD CALLER PUSH1 0x8 SWAP2 SWAP1 SWAP2 SHR PUSH1 0x1 PUSH1 0x1 PUSH1 0xA0 SHL SUB AND EQ ISZERO PUSH2 0xA68 JUMP JUMPDEST DUP4 DUP3 CALLVALUE PUSH2 0x2B3 JUMPI DUP2 PUSH1 0x3 NOT CALLDATASIZE ADD SLT PUSH2 0x2B3 JUMPI PUSH1 0x20 PUSH32 0x62E78CEA01BEE320CD4E420270B5EA74000D11B0C9F74754EBDBFC544B05A258 SWAP2 PUSH2 0xBB1 PUSH2 0x1B61 JUMP JUMPDEST PUSH2 0xBB9 PUSH2 0x1BC0 JUMP JUMPDEST DUP4 SLOAD PUSH1 0xFF NOT AND PUSH1 0x1 OR DUP5 SSTORE MLOAD CALLER DUP2 MSTORE LOG1 DUP1 RETURN JUMPDEST DUP4 DUP3 CALLVALUE PUSH2 0x2B3 JUMPI DUP2 PUSH1 0x3 NOT CALLDATASIZE ADD SLT PUSH2 0x2B3 JUMPI PUSH1 0x20 SWAP1 PUSH1 0x3 SLOAD SWAP1 MLOAD SWAP1 DUP2 MSTORE RETURN JUMPDEST DUP4 DUP3 CALLVALUE PUSH2 0x2B3 JUMPI DUP2 PUSH1 0x3 NOT CALLDATASIZE ADD SLT PUSH2 0x2B3 JUMPI PUSH1 0x20 SWAP1 PUSH1 0x7 SLOAD SWAP1 MLOAD SWAP1 DUP2 MSTORE RETURN JUMPDEST SWAP1 SWAP2 POP CALLVALUE PUSH2 0x697 JUMPI DUP3 PUSH1 0x3 NOT CALLDATASIZE ADD SLT PUSH2 0x697 JUMPI PUSH1 0x1 SLOAD PUSH1 0x1 PUSH1 0x1 PUSH1 0xA0 SHL SUB SWAP3 SWAP1 SWAP2 SWAP1 CALLER DUP5 DUP5 AND SUB PUSH2 0xC94 JUMPI POP POP PUSH1 0x1 PUSH1 0x1 PUSH1 0xA0 SHL SUB NOT AND PUSH1 0x1 SSTORE DUP2 SLOAD PUSH2 0x100 PUSH1 0x1 PUSH1 0xA8 SHL SUB NOT DUP2 AND CALLER PUSH1 0x8 DUP2 DUP2 SHL PUSH2 0x100 PUSH1 0x1 PUSH1 0xA8 SHL SUB AND SWAP3 SWAP1 SWAP3 OR DUP6 SSTORE SWAP3 SWAP2 SWAP1 SHR AND PUSH32 0x8BE0079C531659141344CD1FD0A4F28419497F9722A3DAAFE3B4186F6B6457E0 DUP4 DUP1 LOG3 DUP1 RETURN JUMPDEST PUSH1 0x24 SWAP3 POP MLOAD SWAP1 PUSH4 0x118CDAA7 PUSH1 0xE0 SHL DUP3 MSTORE CALLER SWAP1 DUP3 ADD MSTORE REVERT JUMPDEST DUP4 CALLVALUE PUSH2 0x272 JUMPI DUP1 PUSH1 0x3 NOT CALLDATASIZE ADD SLT PUSH2 0x272 JUMPI PUSH2 0xCC4 PUSH2 0x1B61 JUMP JUMPDEST PUSH1 0x1 DUP1 SLOAD PUSH1 0x1 PUSH1 0x1 PUSH1 0xA0 SHL SUB NOT AND SWAP1 SSTORE DUP1 SLOAD PUSH2 0x100 PUSH1 0x1 PUSH1 0xA8 SHL SUB NOT DUP2 AND DUP3 SSTORE DUP2 SWAP1 PUSH1 0x8 SHR PUSH1 0x1 PUSH1 0x1 PUSH1 0xA0 SHL SUB AND PUSH32 0x8BE0079C531659141344CD1FD0A4F28419497F9722A3DAAFE3B4186F6B6457E0 DUP3 DUP1 LOG3 DUP1 RETURN JUMPDEST SWAP2 POP CALLVALUE PUSH2 0x697 JUMPI DUP1 PUSH1 0x3 NOT CALLDATASIZE ADD SLT PUSH2 0x697 JUMPI PUSH2 0xD33 PUSH2 0x1989 JUMP JUMPDEST SWAP1 PUSH1 0x24 CALLDATALOAD SWAP2 DUP3 ISZERO ISZERO DUP1 SWAP4 SUB PUSH2 0xDAD JUMPI PUSH2 0xD4A PUSH2 0x1B61 JUMP JUMPDEST PUSH1 0x1 PUSH1 0x1 PUSH1 0xA0 SHL SUB AND SWAP3 DUP4 ISZERO PUSH2 0xD9F JUMPI POP PUSH32 0x39A9D042226D79715733AD9813464B1DC2AC69065753FD66D6678D28371480BE SWAP2 PUSH1 0x20 SWAP2 DUP5 DUP7 MSTORE PUSH1 0x8 DUP4 MSTORE DUP1 DUP7 KECCAK256 PUSH1 0xFF NOT DUP2 SLOAD AND PUSH1 0xFF DUP5 AND OR SWAP1 SSTORE MLOAD SWAP1 DUP2 MSTORE LOG2 DUP1 RETURN JUMPDEST SWAP1 MLOAD PUSH4 0xD92E233D PUSH1 0xE0 SHL DUP2 MSTORE REVERT JUMPDEST DUP5 DUP1 REVERT JUMPDEST DUP4 DUP3 CALLVALUE PUSH2 0x2B3 JUMPI DUP1 PUSH1 0x3 NOT CALLDATASIZE ADD SLT PUSH2 0x2B3 JUMPI DUP1 PUSH2 0xDCC PUSH2 0x1989 JUMP JUMPDEST PUSH1 0x1 PUSH1 0x1 PUSH1 0xA0 SHL SUB AND DUP4 MSTORE PUSH1 0x2 PUSH1 0x20 MSTORE SWAP1 SWAP2 KECCAK256 DUP1 SLOAD PUSH1 0x24 CALLDATALOAD SWAP3 SWAP2 SWAP1 DUP1 DUP5 GT PUSH2 0xE44 JUMPI JUMPDEST POP PUSH2 0xE0C PUSH8 0xFFFFFFFFFFFFFFFF PUSH1 0x3 PUSH2 0xE40 SWAP4 ADD SLOAD DUP5 SHR AND PUSH2 0x1C50 JUMP JUMPDEST PUSH2 0xE24 PUSH2 0x2710 PUSH2 0xE1C DUP4 DUP8 PUSH2 0x19FC JUMP JUMPDEST DIV DUP1 SWAP6 PUSH2 0x19D9 JUMP JUMPDEST SWAP3 MLOAD SWAP4 DUP5 SWAP4 DUP5 PUSH1 0x40 SWAP2 SWAP5 SWAP4 SWAP3 PUSH1 0x60 DUP3 ADD SWAP6 DUP3 MSTORE PUSH1 0x20 DUP3 ADD MSTORE ADD MSTORE JUMP JUMPDEST SUB SWAP1 RETURN JUMPDEST SWAP3 POP PUSH2 0xE0C PUSH2 0xDEF JUMP JUMPDEST DUP4 DUP3 CALLVALUE PUSH2 0x2B3 JUMPI DUP2 PUSH1 0x3 NOT CALLDATASIZE ADD SLT PUSH2 0x2B3 JUMPI PUSH1 0x20 SWAP1 MLOAD PUSH2 0x1F4 DUP2 MSTORE RETURN JUMPDEST DUP4 DUP3 CALLVALUE PUSH2 0x2B3 JUMPI PUSH1 0x20 CALLDATASIZE PUSH1 0x3 NOT ADD SLT PUSH2 0x2B3 JUMPI PUSH1 0x20 SWAP2 PUSH2 0x6D5 SWAP1 DUP3 SWAP1 PUSH1 0x1 PUSH1 0x1 PUSH1 0xA0 SHL SUB PUSH2 0xE97 PUSH2 0x1989 JUMP JUMPDEST AND DUP2 MSTORE PUSH1 0x2 DUP6 MSTORE KECCAK256 SLOAD PUSH2 0x1D55 JUMP JUMPDEST DUP4 DUP3 CALLVALUE PUSH2 0x2B3 JUMPI DUP2 PUSH1 0x3 NOT CALLDATASIZE ADD SLT PUSH2 0x2B3 JUMPI PUSH1 0x20 SWAP1 MLOAD PUSH11 0x52B7D2DCC80CD2E4000000 DUP2 MSTORE RETURN JUMPDEST DUP4 DUP3 CALLVALUE PUSH2 0x2B3 JUMPI DUP2 PUSH1 0x3 NOT CALLDATASIZE ADD SLT PUSH2 0x2B3 JUMPI PUSH1 0xFF PUSH1 0x20 SWAP3 SLOAD AND SWAP1 MLOAD SWAP1 ISZERO ISZERO DUP2 MSTORE RETURN JUMPDEST DUP4 DUP3 CALLVALUE PUSH2 0x2B3 JUMPI DUP2 PUSH1 0x3 NOT CALLDATASIZE ADD SLT PUSH2 0x2B3 JUMPI PUSH1 0x20 SWAP1 MLOAD PUSH3 0x1D4C0 DUP2 MSTORE RETURN JUMPDEST SWAP1 SWAP2 POP CALLVALUE PUSH2 0x697 JUMPI DUP3 PUSH1 0x3 NOT CALLDATASIZE ADD SLT PUSH2 0x697 JUMPI PUSH1 0x20 SWAP3 POP SLOAD SWAP1 MLOAD SWAP1 DUP2 MSTORE RETURN JUMPDEST SWAP1 SWAP2 POP CALLVALUE PUSH2 0x697 JUMPI DUP3 PUSH1 0x3 NOT CALLDATASIZE ADD SLT PUSH2 0x697 JUMPI PUSH2 0xF45 PUSH2 0x1B61 JUMP JUMPDEST DUP3 SLOAD SWAP1 PUSH1 0xFF DUP3 AND ISZERO PUSH2 0xF85 JUMPI POP PUSH1 0xFF NOT AND DUP3 SSTORE MLOAD CALLER DUP2 MSTORE PUSH32 0x5DB9EE0A495BF2E6FF9C91A7834C1BA4FDD244A5E8AA4E537BD38AEAE4B073AA SWAP1 PUSH1 0x20 SWAP1 LOG1 DUP1 RETURN JUMPDEST DUP3 MLOAD PUSH4 0x8DFC202B PUSH1 0xE0 SHL DUP2 MSTORE REVERT JUMPDEST DUP4 DUP3 CALLVALUE PUSH2 0x2B3 JUMPI DUP2 PUSH1 0x3 NOT CALLDATASIZE ADD SLT PUSH2 0x2B3 JUMPI PUSH2 0xFAD PUSH2 0x1B90 JUMP JUMPDEST PUSH2 0xFB5 PUSH2 0x1BC0 JUMP JUMPDEST PUSH2 0xFBE CALLER PUSH2 0x1BDE JUMP JUMPDEST CALLER DUP3 MSTORE PUSH1 0x2 PUSH1 0x20 MSTORE DUP1 DUP3 KECCAK256 SWAP3 PUSH1 0x2 DUP5 ADD DUP1 SLOAD SWAP1 DUP2 ISZERO PUSH2 0x1174 JUMPI DUP5 SWAP6 PUSH2 0x5ED SWAP6 PUSH2 0x102E SWAP3 SSTORE PUSH8 0xDE0B6B3A7640000 PUSH2 0xFFF DUP3 SLOAD PUSH2 0x2710 SWAP9 DUP2 PUSH2 0x981 DUP12 SWAP4 PUSH2 0x1D55 JUMP JUMPDEST DIV PUSH1 0x1 DUP3 ADD SSTORE PUSH1 0x3 ADD DUP1 SLOAD PUSH8 0xFFFFFFFFFFFFFFFF PUSH1 0x80 SHL NOT AND TIMESTAMP PUSH1 0x80 SHL PUSH8 0xFFFFFFFFFFFFFFFF PUSH1 0x80 SHL AND OR SWAP1 SSTORE JUMP JUMPDEST DUP1 SWAP4 CALLER DUP7 MSTORE PUSH1 0x9 PUSH1 0x20 MSTORE PUSH1 0x1 DUP1 PUSH1 0xA0 SHL SUB DUP5 DUP8 KECCAK256 SLOAD AND SWAP3 DUP4 PUSH2 0x10B9 JUMPI JUMPDEST POP POP POP POP PUSH2 0x107A DUP3 CALLER PUSH32 0x0 PUSH2 0x1CD4 JUMP JUMPDEST MLOAD SWAP1 DUP2 MSTORE PUSH32 0xFC30CDDEA38E2BF4D6EA7D3F9ED3B6AD7F176419F4963BD81318067A4AEE73FE PUSH1 0x20 CALLER SWAP3 LOG2 PUSH1 0x1 PUSH1 0x0 DUP1 MLOAD PUSH1 0x20 PUSH2 0x1E96 DUP4 CODECOPY DUP2 MLOAD SWAP2 MSTORE SSTORE DUP1 RETURN JUMPDEST SWAP3 SWAP5 POP SWAP1 SWAP2 PUSH2 0x1F4 DUP4 MUL SWAP1 PUSH2 0x1F3 NOT DUP5 DUP4 DIV ADD PUSH2 0x1161 JUMPI POP SWAP1 PUSH2 0x10DE SWAP2 DIV DUP1 SWAP3 PUSH2 0x19D9 JUMP JUMPDEST SWAP3 DUP2 PUSH2 0x10EC JUMPI JUMPDEST DUP1 DUP1 PUSH2 0x104B JUMP JUMPDEST PUSH2 0x1117 DUP3 DUP3 PUSH32 0x0 PUSH2 0x1CD4 JUMP JUMPDEST DUP1 DUP6 MSTORE PUSH1 0xA PUSH1 0x20 MSTORE DUP3 DUP6 KECCAK256 PUSH2 0x112D DUP4 DUP3 SLOAD PUSH2 0x1A2F JUMP JUMPDEST SWAP1 SSTORE DUP3 MLOAD SWAP2 DUP3 MSTORE PUSH32 0x53958B9C644A1D5529DA7C36929D59417EB9A996F08E02A52632BFE20C92EF48 PUSH1 0x20 CALLER SWAP4 LOG3 DUP4 DUP1 PUSH2 0x10E5 JUMP JUMPDEST PUSH4 0x4E487B71 PUSH1 0xE0 SHL DUP8 MSTORE PUSH1 0x11 SWAP1 MSTORE PUSH1 0x24 DUP7 REVERT JUMPDEST DUP4 MLOAD PUSH4 0x12D37EE5 PUSH1 0xE3 SHL DUP2 MSTORE DUP4 SWAP1 REVERT JUMPDEST DUP4 DUP3 CALLVALUE PUSH2 0x2B3 JUMPI DUP2 PUSH1 0x3 NOT CALLDATASIZE ADD SLT PUSH2 0x2B3 JUMPI PUSH1 0x20 SWAP1 PUSH1 0x6 SLOAD SWAP1 MLOAD SWAP1 DUP2 MSTORE RETURN JUMPDEST DUP4 DUP3 CALLVALUE PUSH2 0x2B3 JUMPI PUSH1 0x20 CALLDATASIZE PUSH1 0x3 NOT ADD SLT PUSH2 0x2B3 JUMPI PUSH1 0x20 SWAP2 PUSH1 0xFF SWAP1 DUP3 SWAP1 PUSH1 0x1 PUSH1 0x1 PUSH1 0xA0 SHL SUB PUSH2 0x11CE PUSH2 0x1989 JUMP JUMPDEST AND DUP2 MSTORE PUSH1 0x8 DUP6 MSTORE KECCAK256 SLOAD AND SWAP1 MLOAD SWAP1 ISZERO ISZERO DUP2 MSTORE RETURN JUMPDEST DUP4 DUP3 CALLVALUE PUSH2 0x2B3 JUMPI PUSH1 0x20 SWAP1 DUP2 PUSH1 0x3 NOT CALLDATASIZE ADD SLT PUSH2 0x697 JUMPI DUP4 CALLDATALOAD PUSH2 0x1200 PUSH2 0x1B90 JUMP JUMPDEST PUSH2 0x1208 PUSH2 0x1BC0 JUMP JUMPDEST CALLER DUP5 MSTORE PUSH1 0x2 DUP4 MSTORE DUP2 DUP5 KECCAK256 SWAP3 DUP2 ISZERO PUSH2 0x164D JUMPI DUP4 SLOAD DUP1 DUP4 GT PUSH2 0x1631 JUMPI POP PUSH2 0x122C CALLER PUSH2 0x1BDE JUMP JUMPDEST PUSH1 0x2 DUP5 ADD DUP6 DUP2 SLOAD SWAP2 SSTORE DUP5 SLOAD SWAP5 PUSH2 0x1242 DUP5 DUP8 PUSH2 0x19D9 JUMP JUMPDEST SWAP1 DUP2 ISZERO ISZERO DUP1 PUSH2 0x161D JUMPI JUMPDEST PUSH2 0x15F5 JUMPI PUSH1 0x3 DUP2 ADD SWAP1 PUSH2 0x2710 DUP1 PUSH8 0xFFFFFFFFFFFFFFFF SWAP5 DUP2 DUP7 DUP7 SLOAD DUP13 SHR AND PUSH2 0x1273 SWAP1 PUSH2 0x1C50 JUMP JUMPDEST PUSH2 0x127D SWAP1 DUP12 PUSH2 0x19FC JUMP JUMPDEST DIV SWAP9 DUP14 DUP4 PUSH2 0x128B DUP13 DUP5 PUSH2 0x19D9 JUMP JUMPDEST SWAP14 PUSH2 0x1295 DUP2 PUSH2 0x1D55 JUMP JUMPDEST PUSH2 0x129E SWAP2 PUSH2 0x19FC JUMP JUMPDEST DIV DUP2 SLOAD SWAP1 PUSH2 0x12AB SWAP2 PUSH2 0x19D9 JUMP JUMPDEST SWAP1 SSTORE DUP2 DUP6 SSTORE PUSH1 0x3 SLOAD SWAP1 PUSH2 0x12BD SWAP2 PUSH2 0x19D9 JUMP JUMPDEST PUSH1 0x3 SSTORE PUSH2 0x12C9 DUP2 PUSH2 0x1D55 JUMP JUMPDEST DUP14 DUP4 PUSH2 0x12D5 DUP4 DUP6 PUSH2 0x19FC JUMP JUMPDEST DIV DUP2 SLOAD SWAP1 PUSH2 0x12E2 SWAP2 PUSH2 0x1A2F JUMP JUMPDEST SWAP1 SSTORE PUSH2 0x12ED SWAP2 PUSH2 0x19FC JUMP JUMPDEST DIV SWAP2 PUSH8 0xDE0B6B3A7640000 DUP1 SWAP4 PUSH1 0x5 SLOAD PUSH2 0x1306 SWAP2 PUSH2 0x19FC JUMP JUMPDEST DIV PUSH1 0x1 SWAP1 SWAP2 ADD SSTORE CALLER DUP11 MSTORE PUSH1 0x9 DUP7 MSTORE DUP8 DUP11 KECCAK256 SLOAD DUP11 SWAP2 PUSH1 0x1 PUSH1 0x1 PUSH1 0xA0 SHL SUB SWAP2 SWAP1 SWAP2 AND SWAP1 DUP2 ISZERO ISZERO DUP1 PUSH2 0x15EC JUMPI JUMPDEST PUSH2 0x15AE JUMPI JUMPDEST POP PUSH2 0x1340 DUP7 DUP12 PUSH2 0x1A2F JUMP JUMPDEST DUP1 PUSH2 0x157D JUMPI JUMPDEST POP DUP2 PUSH2 0x150A JUMPI JUMPDEST POP POP DUP6 ISZERO DUP1 ISZERO PUSH2 0x1433 JUMPI JUMPDEST POP POP PUSH32 0x204FCCF0D92ED8D48F204ADB39B2E81E92BAD0DEDB93F5716CA9478CFB57DE00 SWAP7 SWAP8 SWAP9 POP SWAP1 DUP3 SWAP2 PUSH1 0x2 SWAP5 SWAP4 PUSH2 0x13D7 JUMPI JUMPDEST POP POP POP CALLER DUP8 MSTORE MSTORE PUSH2 0x13BF PUSH2 0x13A1 DUP4 DUP8 KECCAK256 SLOAD PUSH2 0x1E2E JUMP JUMPDEST SWAP3 MLOAD SWAP3 DUP4 SWAP3 CALLER SWAP7 DUP5 PUSH1 0x40 SWAP2 SWAP5 SWAP4 SWAP3 PUSH1 0x60 DUP3 ADD SWAP6 DUP3 MSTORE PUSH1 0x20 DUP3 ADD MSTORE ADD MSTORE JUMP JUMPDEST SUB SWAP1 LOG2 PUSH1 0x1 PUSH1 0x0 DUP1 MLOAD PUSH1 0x20 PUSH2 0x1E96 DUP4 CODECOPY DUP2 MLOAD SWAP2 MSTORE SSTORE DUP1 RETURN JUMPDEST DUP1 SLOAD PUSH8 0xFFFFFFFFFFFFFFFF PUSH1 0x80 SHL NOT AND TIMESTAMP SWAP1 SWAP3 AND PUSH1 0x80 SHL PUSH8 0xFFFFFFFFFFFFFFFF PUSH1 0x80 SHL AND SWAP2 SWAP1 SWAP2 OR SWAP1 SSTORE DUP5 MLOAD SWAP1 DUP2 MSTORE PUSH32 0xFC30CDDEA38E2BF4D6EA7D3F9ED3B6AD7F176419F4963BD81318067A4AEE73FE DUP3 CALLER SWAP3 LOG2 DUP8 DUP1 DUP1 PUSH2 0x138B JUMP JUMPDEST PUSH2 0x143F DUP8 PUSH1 0x7 SLOAD PUSH2 0x1A2F JUMP JUMPDEST PUSH1 0x7 SSTORE DUP11 SLOAD ISZERO PUSH2 0x14C9 JUMPI DUP2 DUP8 MUL SWAP2 DUP8 DUP4 DIV EQ OR ISZERO PUSH2 0x939 JUMPI SWAP1 PUSH2 0x148F PUSH2 0x492 PUSH1 0x2 SWAP7 SWAP6 SWAP5 SWAP4 PUSH32 0x204FCCF0D92ED8D48F204ADB39B2E81E92BAD0DEDB93F5716CA9478CFB57DE00 SWAP11 SWAP12 SWAP13 SLOAD SWAP1 PUSH2 0x1A0F JUMP JUMPDEST PUSH1 0x5 SSTORE DUP7 MLOAD DUP7 DUP2 MSTORE PUSH32 0x288446C5197716B76E9CBFF1EFD986DC6C319F565760A84CF660944CB2879C7C DUP6 CALLER SWAP3 LOG2 JUMPDEST SWAP1 SWAP2 SWAP3 SWAP4 DUP10 SWAP9 SWAP8 PUSH2 0x1358 JUMP JUMPDEST POP POP PUSH32 0x204FCCF0D92ED8D48F204ADB39B2E81E92BAD0DEDB93F5716CA9478CFB57DE00 SWAP7 SWAP8 SWAP9 POP SWAP1 PUSH1 0x2 SWAP4 SWAP3 SWAP2 PUSH2 0x1502 DUP7 PUSH1 0x6 SLOAD PUSH2 0x1A2F JUMP JUMPDEST PUSH1 0x6 SSTORE PUSH2 0x14BD JUMP JUMPDEST PUSH2 0x1535 DUP3 DUP3 PUSH32 0x0 PUSH2 0x1CD4 JUMP JUMPDEST DUP1 DUP12 MSTORE PUSH1 0xA DUP8 MSTORE DUP9 DUP12 KECCAK256 PUSH2 0x154A DUP4 DUP3 SLOAD PUSH2 0x1A2F JUMP JUMPDEST SWAP1 SSTORE DUP9 MLOAD SWAP2 DUP3 MSTORE PUSH32 0x53958B9C644A1D5529DA7C36929D59417EB9A996F08E02A52632BFE20C92EF48 DUP8 CALLER SWAP4 LOG3 DUP11 DUP1 PUSH2 0x134D JUMP JUMPDEST PUSH2 0x15A8 SWAP1 CALLER PUSH32 0x0 PUSH2 0x1CD4 JUMP JUMPDEST DUP13 PUSH2 0x1346 JUMP JUMPDEST SWAP1 SWAP6 SWAP2 POP PUSH2 0x1F4 DUP1 DUP4 MUL SWAP1 DUP4 DUP3 DIV EQ DUP4 ISZERO OR ISZERO PUSH2 0x15D9 JUMPI SWAP1 PUSH2 0x15D2 SWAP2 DIV DUP1 SWAP3 PUSH2 0x19D9 JUMP JUMPDEST SWAP5 DUP13 PUSH2 0x1335 JUMP JUMPDEST PUSH4 0x4E487B71 PUSH1 0xE0 SHL DUP13 MSTORE PUSH1 0x11 DUP14 MSTORE PUSH1 0x24 DUP13 REVERT JUMPDEST POP DUP7 ISZERO ISZERO PUSH2 0x1330 JUMP JUMPDEST DUP6 MLOAD PUSH4 0xAD6177F PUSH1 0xE0 SHL DUP2 MSTORE DUP1 DUP11 ADD DUP4 SWAP1 MSTORE PUSH11 0x84595161401484A000000 PUSH1 0x24 DUP3 ADD MSTORE PUSH1 0x44 SWAP1 REVERT JUMPDEST POP PUSH11 0x84595161401484A000000 DUP3 LT PUSH2 0x124C JUMP JUMPDEST DUP7 PUSH1 0x44 SWAP2 DUP5 DUP7 MLOAD SWAP3 PUSH4 0xFC77371 PUSH1 0xE3 SHL DUP5 MSTORE DUP4 ADD MSTORE PUSH1 0x24 DUP3 ADD MSTORE REVERT JUMPDEST DUP3 MLOAD PUSH4 0x1F2A2005 PUSH1 0xE0 SHL DUP2 MSTORE DUP7 SWAP1 REVERT JUMPDEST DUP4 DUP3 CALLVALUE PUSH2 0x2B3 JUMPI PUSH1 0x20 CALLDATASIZE PUSH1 0x3 NOT ADD SLT PUSH2 0x2B3 JUMPI PUSH1 0x20 SWAP2 PUSH1 0x1 PUSH1 0x1 PUSH1 0xA0 SHL SUB SWAP1 DUP3 SWAP1 DUP3 PUSH2 0x1687 PUSH2 0x1989 JUMP JUMPDEST AND DUP2 MSTORE PUSH1 0x9 DUP6 MSTORE KECCAK256 SLOAD AND SWAP1 MLOAD SWAP1 DUP2 MSTORE RETURN JUMPDEST DUP4 DUP3 CALLVALUE PUSH2 0x2B3 JUMPI DUP2 PUSH1 0x3 NOT CALLDATASIZE ADD SLT PUSH2 0x2B3 JUMPI PUSH1 0x20 SWAP1 MLOAD PUSH2 0xC350 DUP2 MSTORE RETURN JUMPDEST POP DUP3 CALLVALUE PUSH2 0x272 JUMPI PUSH1 0x20 CALLDATASIZE PUSH1 0x3 NOT ADD SLT PUSH2 0x272 JUMPI DUP2 PUSH1 0x1 PUSH1 0x1 PUSH1 0xA0 SHL SUB DUP1 PUSH2 0x16DA PUSH2 0x1989 JUMP JUMPDEST AND DUP4 MSTORE PUSH1 0x9 PUSH1 0x20 MSTORE DUP2 DUP4 KECCAK256 SLOAD AND SWAP2 PUSH1 0xA PUSH1 0x20 MSTORE KECCAK256 SLOAD DUP3 MLOAD SWAP2 DUP3 MSTORE PUSH1 0x20 DUP3 ADD MSTORE RETURN JUMPDEST DUP4 DUP3 CALLVALUE PUSH2 0x2B3 JUMPI DUP2 PUSH1 0x3 NOT CALLDATASIZE ADD SLT PUSH2 0x2B3 JUMPI PUSH1 0x20 SWAP1 MLOAD PUSH4 0x1E13380 DUP2 MSTORE RETURN JUMPDEST DUP4 DUP3 CALLVALUE PUSH2 0x2B3 JUMPI PUSH1 0x20 CALLDATASIZE PUSH1 0x3 NOT ADD SLT PUSH2 0x2B3 JUMPI PUSH1 0xC0 SWAP2 DUP2 SWAP1 PUSH1 0x1 PUSH1 0x1 PUSH1 0xA0 SHL SUB PUSH2 0x1742 PUSH2 0x1989 JUMP JUMPDEST AND DUP2 MSTORE PUSH1 0x2 PUSH1 0x20 MSTORE KECCAK256 DUP1 SLOAD SWAP2 PUSH1 0x1 DUP3 ADD SLOAD PUSH1 0x3 PUSH1 0x2 DUP5 ADD SLOAD SWAP4 ADD SLOAD DUP1 SWAP3 PUSH8 0xFFFFFFFFFFFFFFFF SWAP5 DUP6 SWAP4 DUP3 MLOAD SWAP8 DUP9 MSTORE PUSH1 0x20 DUP9 ADD MSTORE DUP2 DUP8 ADD MSTORE DUP3 DUP3 AND PUSH1 0x60 DUP8 ADD MSTORE SHR AND PUSH1 0x80 DUP5 ADD MSTORE PUSH1 0x80 SHR AND PUSH1 0xA0 DUP3 ADD MSTORE RETURN JUMPDEST SWAP2 POP CALLVALUE PUSH2 0x697 JUMPI DUP1 PUSH1 0x3 NOT CALLDATASIZE ADD SLT PUSH2 0x697 JUMPI PUSH8 0xFFFFFFFFFFFFFFFF SWAP1 DUP3 CALLDATALOAD DUP3 DUP2 GT PUSH2 0xDAD JUMPI PUSH2 0x17C5 SWAP1 CALLDATASIZE SWAP1 DUP6 ADD PUSH2 0x1953 JUMP JUMPDEST SWAP2 SWAP1 SWAP3 PUSH1 0x24 CALLDATALOAD SWAP1 DUP2 GT PUSH2 0x1933 JUMPI PUSH2 0x17DF SWAP1 CALLDATASIZE SWAP1 DUP7 ADD PUSH2 0x1953 JUMP JUMPDEST SWAP3 SWAP1 SWAP5 PUSH2 0x17EA PUSH2 0x1B61 JUMP JUMPDEST DUP4 DUP3 SUB PUSH2 0x18FE JUMPI POP DUP6 JUMPDEST DUP2 DUP2 LT PUSH2 0x17FF JUMPI DUP7 DUP1 RETURN JUMPDEST PUSH1 0x1 SWAP1 PUSH1 0x1 PUSH1 0x1 PUSH1 0xA0 SHL SUB DUP1 PUSH2 0x181E PUSH2 0x1819 DUP5 DUP8 DUP12 PUSH2 0x199F JUMP JUMPDEST PUSH2 0x19C5 JUMP JUMPDEST AND ISZERO ISZERO DUP1 PUSH2 0x18E6 JUMPI JUMPDEST DUP9 DUP3 DUP5 DUP10 DUP9 DUP13 DUP7 PUSH2 0x18B6 JUMPI JUMPDEST POP POP POP POP POP POP DUP1 PUSH2 0x1892 JUMPI JUMPDEST PUSH2 0x184B JUMPI JUMPDEST POP ADD PUSH2 0x17F4 JUMP JUMPDEST PUSH2 0x1859 PUSH2 0x1819 DUP4 DUP9 DUP12 PUSH2 0x199F JUMP JUMPDEST SWAP1 DUP1 PUSH2 0x1869 PUSH2 0x1819 DUP6 DUP9 DUP13 PUSH2 0x199F JUMP JUMPDEST AND DUP11 MSTORE PUSH1 0x9 PUSH1 0x20 MSTORE DUP6 DUP11 KECCAK256 SWAP2 AND PUSH12 0xFFFFFFFFFFFFFFFFFFFFFFFF PUSH1 0xA0 SHL DUP3 SLOAD AND OR SWAP1 SSTORE CODESIZE PUSH2 0x1844 JUMP JUMPDEST POP DUP1 PUSH2 0x18A2 PUSH2 0x1819 DUP5 DUP8 DUP12 PUSH2 0x199F JUMP JUMPDEST AND DUP10 MSTORE PUSH1 0x9 PUSH1 0x20 MSTORE DUP1 DUP6 DUP11 KECCAK256 SLOAD AND ISZERO PUSH2 0x183F JUMP JUMPDEST DUP5 SWAP6 SWAP7 POP SWAP2 PUSH2 0x18D0 PUSH2 0x1819 DUP6 PUSH2 0x18D6 SWAP7 SWAP5 PUSH2 0x1819 SWAP7 PUSH2 0x199F JUMP JUMPDEST SWAP7 PUSH2 0x199F JUMP JUMPDEST AND SWAP2 AND EQ ISZERO DUP9 DUP3 DUP5 DUP10 DUP9 DUP13 PUSH2 0x1833 JUMP JUMPDEST POP DUP1 PUSH2 0x18F6 PUSH2 0x1819 DUP5 DUP10 DUP13 PUSH2 0x199F JUMP JUMPDEST AND ISZERO ISZERO PUSH2 0x1827 JUMP JUMPDEST PUSH1 0x64 SWAP1 PUSH1 0x20 DUP5 MLOAD SWAP2 PUSH3 0x461BCD PUSH1 0xE5 SHL DUP4 MSTORE DUP3 ADD MSTORE PUSH1 0xF PUSH1 0x24 DUP3 ADD MSTORE PUSH15 0x98CADCCEE8D040DAD2E6DAC2E8C6D PUSH1 0x8B SHL PUSH1 0x44 DUP3 ADD MSTORE REVERT JUMPDEST DUP6 DUP1 REVERT JUMPDEST DUP5 SWAP1 CALLVALUE PUSH2 0x2B3 JUMPI DUP2 PUSH1 0x3 NOT CALLDATASIZE ADD SLT PUSH2 0x2B3 JUMPI DUP1 PUSH2 0x1AF4 PUSH1 0x20 SWAP3 MSTORE RETURN JUMPDEST SWAP2 DUP2 PUSH1 0x1F DUP5 ADD SLT ISZERO PUSH2 0x1984 JUMPI DUP3 CALLDATALOAD SWAP2 PUSH8 0xFFFFFFFFFFFFFFFF DUP4 GT PUSH2 0x1984 JUMPI PUSH1 0x20 DUP1 DUP6 ADD SWAP5 DUP5 PUSH1 0x5 SHL ADD ADD GT PUSH2 0x1984 JUMPI JUMP JUMPDEST PUSH1 0x0 DUP1 REVERT JUMPDEST PUSH1 0x4 CALLDATALOAD SWAP1 PUSH1 0x1 PUSH1 0x1 PUSH1 0xA0 SHL SUB DUP3 AND DUP3 SUB PUSH2 0x1984 JUMPI JUMP JUMPDEST SWAP2 SWAP1 DUP2 LT ISZERO PUSH2 0x19AF JUMPI PUSH1 0x5 SHL ADD SWAP1 JUMP JUMPDEST PUSH4 0x4E487B71 PUSH1 0xE0 SHL PUSH1 0x0 MSTORE PUSH1 0x32 PUSH1 0x4 MSTORE PUSH1 0x24 PUSH1 0x0 REVERT JUMPDEST CALLDATALOAD PUSH1 0x1 PUSH1 0x1 PUSH1 0xA0 SHL SUB DUP2 AND DUP2 SUB PUSH2 0x1984 JUMPI SWAP1 JUMP JUMPDEST SWAP2 SWAP1 DUP3 SUB SWAP2 DUP3 GT PUSH2 0x19E6 JUMPI JUMP JUMPDEST PUSH4 0x4E487B71 PUSH1 0xE0 SHL PUSH1 0x0 MSTORE PUSH1 0x11 PUSH1 0x4 MSTORE PUSH1 0x24 PUSH1 0x0 REVERT JUMPDEST DUP2 DUP2 MUL SWAP3 SWAP2 DUP2 ISZERO SWAP2 DUP5 DIV EQ OR ISZERO PUSH2 0x19E6 JUMPI JUMP JUMPDEST DUP2 ISZERO PUSH2 0x1A19 JUMPI DIV SWAP1 JUMP JUMPDEST PUSH4 0x4E487B71 PUSH1 0xE0 SHL PUSH1 0x0 MSTORE PUSH1 0x12 PUSH1 0x4 MSTORE PUSH1 0x24 PUSH1 0x0 REVERT JUMPDEST SWAP2 SWAP1 DUP3 ADD DUP1 SWAP3 GT PUSH2 0x19E6 JUMPI JUMP JUMPDEST PUSH1 0x1 PUSH1 0x1 PUSH1 0xA0 SHL SUB SWAP2 SWAP1 DUP3 AND SWAP1 DUP2 ISZERO DUP1 ISZERO PUSH2 0x1A9D JUMPI JUMPDEST PUSH2 0x1A8B JUMPI DUP3 AND SWAP1 DUP2 DUP2 EQ PUSH2 0x1A8B JUMPI PUSH1 0x0 MSTORE PUSH1 0x9 PUSH1 0x20 MSTORE PUSH1 0x40 PUSH1 0x0 KECCAK256 SWAP2 DUP3 SLOAD SWAP1 DUP2 AND PUSH2 0x1A86 JUMPI PUSH1 0x1 PUSH1 0x1 PUSH1 0xA0 SHL SUB NOT AND OR SWAP1 SSTORE JUMP JUMPDEST POP POP POP JUMP JUMPDEST PUSH1 0x40 MLOAD PUSH4 0xD92E233D PUSH1 0xE0 SHL DUP2 MSTORE PUSH1 0x4 SWAP1 REVERT JUMPDEST POP DUP3 DUP2 AND ISZERO PUSH2 0x1A52 JUMP JUMPDEST PUSH1 0x1 PUSH1 0x1 PUSH1 0xA0 SHL SUB AND PUSH1 0x0 SWAP1 DUP2 MSTORE PUSH1 0x2 PUSH1 0x20 MSTORE PUSH1 0x40 DUP1 DUP3 KECCAK256 PUSH1 0x3 ADD SLOAD SWAP2 SWAP3 SWAP2 SWAP1 SHR PUSH8 0xFFFFFFFFFFFFFFFF AND DUP1 ISZERO PUSH2 0x1B59 JUMPI PUSH2 0x1AE2 DUP2 TIMESTAMP PUSH2 0x19D9 JUMP JUMPDEST SWAP2 PUSH3 0x15180 SWAP4 PUSH2 0x1AF4 DUP6 DUP6 DIV SWAP4 PUSH2 0x1C50 JUMP JUMPDEST SWAP5 PUSH1 0x64 DUP7 MUL DUP7 DUP2 DIV PUSH1 0x64 EQ DUP8 ISZERO OR ISZERO PUSH2 0x1B45 JUMPI PUSH2 0x2710 SWAP1 DIV SWAP5 PUSH4 0x1E13380 SWAP1 DUP2 DUP2 LT PUSH2 0x1B20 JUMPI POP POP POP SWAP1 JUMP JUMPDEST DUP2 SWAP3 SWAP4 SWAP2 SUB SWAP2 DUP3 GT PUSH2 0x1B31 JUMPI POP DIV SWAP1 JUMP JUMPDEST PUSH4 0x4E487B71 PUSH1 0xE0 SHL DUP2 MSTORE PUSH1 0x11 PUSH1 0x4 MSTORE PUSH1 0x24 SWAP1 REVERT JUMPDEST PUSH4 0x4E487B71 PUSH1 0xE0 SHL DUP4 MSTORE PUSH1 0x11 PUSH1 0x4 MSTORE PUSH1 0x24 DUP4 REVERT JUMPDEST POP DUP2 DUP1 SWAP2 DUP2 SWAP1 JUMP JUMPDEST PUSH1 0x0 SLOAD PUSH1 0x8 SHR PUSH1 0x1 PUSH1 0x1 PUSH1 0xA0 SHL SUB AND CALLER SUB PUSH2 0x1B78 JUMPI JUMP JUMPDEST PUSH1 0x40 MLOAD PUSH4 0x118CDAA7 PUSH1 0xE0 SHL DUP2 MSTORE CALLER PUSH1 0x4 DUP3 ADD MSTORE PUSH1 0x24 SWAP1 REVERT JUMPDEST PUSH1 0x0 DUP1 MLOAD PUSH1 0x20 PUSH2 0x1E96 DUP4 CODECOPY DUP2 MLOAD SWAP2 MSTORE PUSH1 0x2 DUP2 SLOAD EQ PUSH2 0x1BAE JUMPI PUSH1 0x2 SWAP1 SSTORE JUMP JUMPDEST PUSH1 0x40 MLOAD PUSH4 0x3EE5AEB5 PUSH1 0xE0 SHL DUP2 MSTORE PUSH1 0x4 SWAP1 REVERT JUMPDEST PUSH1 0xFF PUSH1 0x0 SLOAD AND PUSH2 0x1BCC JUMPI JUMP JUMPDEST PUSH1 0x40 MLOAD PUSH4 0xD93C0665 PUSH1 0xE0 SHL DUP2 MSTORE PUSH1 0x4 SWAP1 REVERT JUMPDEST PUSH1 0x1 PUSH1 0x1 PUSH1 0xA0 SHL SUB AND PUSH1 0x0 SWAP1 DUP2 MSTORE PUSH1 0x2 PUSH1 0x20 MSTORE PUSH1 0x40 SWAP1 KECCAK256 DUP1 SLOAD DUP1 ISZERO PUSH2 0x1C4C JUMPI PUSH2 0x1C19 PUSH2 0x2710 PUSH2 0x5ED DUP4 PUSH2 0x981 PUSH8 0xDE0B6B3A7640000 SWAP6 PUSH2 0x1D55 JUMP JUMPDEST DIV SWAP1 PUSH1 0x1 DUP2 ADD SWAP1 DUP2 SLOAD DUP1 DUP5 GT PUSH2 0x1C2E JUMPI POP POP SSTORE JUMP JUMPDEST PUSH1 0x2 PUSH2 0x1C3D PUSH2 0x1C47 SWAP3 DUP7 PUSH2 0x19D9 JUMP JUMPDEST SWAP3 ADD SWAP2 DUP3 SLOAD PUSH2 0x1A2F JUMP JUMPDEST SWAP1 SSTORE SSTORE JUMP JUMPDEST POP POP JUMP JUMPDEST PUSH8 0xFFFFFFFFFFFFFFFF AND DUP1 ISZERO PUSH2 0x1CCE JUMPI PUSH2 0x1C6A SWAP1 TIMESTAMP PUSH2 0x19D9 JUMP JUMPDEST PUSH4 0x1E13380 DUP1 DUP3 LT ISZERO PUSH2 0x1CC7 JUMPI DUP2 DUP2 SUB DUP2 DUP2 GT PUSH2 0x19E6 JUMPI PUSH8 0xDE0B6B3A7640000 SWAP3 DUP4 DUP3 MUL SWAP2 DUP3 DIV DUP5 EQ SWAP1 DUP4 EQ OR ISZERO PUSH2 0x19E6 JUMPI DUP3 SWAP2 PUSH2 0x1CAE SWAP2 DIV DUP3 PUSH2 0x91E DUP3 DUP1 PUSH2 0x19FC JUMP JUMPDEST DIV PUSH2 0x1AF4 SWAP1 DUP2 DUP2 MUL SWAP2 DUP2 DUP4 DIV EQ SWAP1 ISZERO OR ISZERO PUSH2 0x19E6 JUMPI DIV SWAP1 JUMP JUMPDEST POP POP PUSH1 0x0 SWAP1 JUMP JUMPDEST POP PUSH1 0x0 SWAP1 JUMP JUMPDEST PUSH1 0x40 MLOAD PUSH4 0xA9059CBB PUSH1 0xE0 SHL PUSH1 0x0 SWAP1 DUP2 MSTORE PUSH1 0x1 PUSH1 0x1 PUSH1 0xA0 SHL SUB SWAP4 DUP5 AND PUSH1 0x4 MSTORE PUSH1 0x24 SWAP5 SWAP1 SWAP5 MSTORE SWAP3 PUSH1 0x20 SWAP1 PUSH1 0x44 DUP2 DUP1 DUP6 GAS CALL PUSH1 0x1 PUSH1 0x0 MLOAD EQ DUP2 AND ISZERO PUSH2 0x1D35 JUMPI JUMPDEST DUP4 PUSH1 0x40 MSTORE ISZERO PUSH2 0x1D1F JUMPI POP POP POP JUMP JUMPDEST PUSH4 0x5274AFE7 PUSH1 0xE0 SHL DUP4 MSTORE AND PUSH1 0x4 DUP3 ADD MSTORE PUSH1 0x24 SWAP2 POP REVERT JUMPDEST PUSH1 0x1 DUP2 ISZERO AND PUSH2 0x1D4B JUMPI DUP2 EXTCODESIZE ISZERO ISZERO RETURNDATASIZE ISZERO AND AND PUSH2 0x1D11 JUMP JUMPDEST DUP4 RETURNDATASIZE PUSH1 0x0 DUP3 RETURNDATACOPY RETURNDATASIZE SWAP1 REVERT JUMPDEST PUSH11 0xCECB8F27F4200F3A000000 DUP2 LT ISZERO PUSH2 0x1DB9 JUMPI PUSH11 0x52B7D2DCC80CD2E4000000 DUP2 LT ISZERO PUSH2 0x1DB2 JUMPI PUSH11 0x14ADF4B7320334B9000000 DUP2 LT ISZERO PUSH2 0x1DAB JUMPI PUSH11 0x84595161401484A000000 GT ISZERO PUSH2 0x1DA5 JUMPI PUSH1 0x0 SWAP1 JUMP JUMPDEST PUSH2 0x2710 SWAP1 JUMP JUMPDEST POP PUSH2 0x4E20 SWAP1 JUMP JUMPDEST POP PUSH2 0xC350 SWAP1 JUMP JUMPDEST POP PUSH3 0x1D4C0 SWAP1 JUMP JUMPDEST PUSH1 0x40 MLOAD PUSH4 0x23B872DD PUSH1 0xE0 SHL PUSH1 0x0 SWAP1 DUP2 MSTORE PUSH1 0x1 PUSH1 0x1 PUSH1 0xA0 SHL SUB SWAP4 DUP5 AND PUSH1 0x4 MSTORE SWAP4 DUP4 AND PUSH1 0x24 MSTORE PUSH1 0x44 SWAP5 SWAP1 SWAP5 MSTORE SWAP1 SWAP2 PUSH1 0x20 SWAP1 PUSH1 0x64 DUP2 DUP1 DUP6 GAS CALL PUSH1 0x1 PUSH1 0x0 MLOAD EQ DUP2 AND ISZERO PUSH2 0x1E18 JUMPI JUMPDEST DUP4 PUSH1 0x40 MSTORE PUSH1 0x0 PUSH1 0x60 MSTORE ISZERO PUSH2 0x1D1F JUMPI POP POP POP JUMP JUMPDEST PUSH1 0x1 DUP2 ISZERO AND PUSH2 0x1D4B JUMPI DUP2 EXTCODESIZE ISZERO ISZERO RETURNDATASIZE ISZERO AND AND PUSH2 0x1E05 JUMP JUMPDEST PUSH11 0xCECB8F27F4200F3A000000 DUP2 LT ISZERO PUSH2 0x1E8F JUMPI PUSH11 0x52B7D2DCC80CD2E4000000 DUP2 LT ISZERO PUSH2 0x1E89 JUMPI PUSH11 0x14ADF4B7320334B9000000 DUP2 LT ISZERO PUSH2 0x1E83 JUMPI PUSH11 0x84595161401484A000000 GT ISZERO PUSH2 0x1E7E JUMPI PUSH1 0x0 SWAP1 JUMP JUMPDEST PUSH1 0x1 SWAP1 JUMP JUMPDEST POP PUSH1 0x2 SWAP1 JUMP JUMPDEST POP PUSH1 0x3 SWAP1 JUMP JUMPDEST POP PUSH1 0x4 SWAP1 JUMP INVALID SWAP12 PUSH24 0x9B17422D0DF92223018B32B4D1FA46E071723D6817E2486D STOP EXTCODESIZE 0xEC 0xC5 PUSH0 STOP LOG2 PUSH5 0x6970667358 0x22 SLT KECCAK256 PUSH11 0x857632002D72A9FDF278A8 JUMP 0x1F PUSH28 0xBFA12534613D3F89789EEA9AFA16A6735664736F6C63430008180033 "},"methodIdentifiers":{"GROWER_BOOST()":"de0f9093","GROWER_MIN()":"9a14ef0d","LOCK_PERIOD()":"1820cabb","MAX_PENALTY_BPS()":"0225d3cc","REFERRAL_BPS()":"6e8cddea","SHLONG_BOOST()":"2b2893ba","SHLONG_MIN()":"679f5418","SHOWER_BOOST()":"e18c7dfc","SHOWER_MIN()":"e080f071","WHALE_BOOST()":"5152f67f","WHALE_MIN()":"d4e6c5c4","accRewardPerShare()":"939d6237","acceptOwnership()":"79ba5097","bufferedRewards()":"34279192","claimRewards()":"372500ab","depositRewards(uint256)":"8bdf67f2","emergencyWithdraw()":"db2e21bc","getBoost(address)":"67ba3d90","getEarlyWithdrawalPenalty(address)":"f2760e9d","getReferralInfo(address)":"21874ae2","getStakeInfo(address)":"c3453153","getTier(address)":"b45aae52","isDepositor(address)":"2f70d1ba","owner()":"8da5cb5b","pause()":"8456cb59","paused()":"5c975abb","pendingOwner()":"e30c3978","previewUnstake(address,uint256)":"6f843f59","referralEarnings(address)":"c07b528a","referrer(address)":"2cf003c2","renounceOwnership()":"715018a6","setDepositor(address,bool)":"6f860d74","setReferrer(address,address)":"bbddaca3","setReferrerBatch(address[],address[])":"164bd0a2","sizeToken()":"a6df0831","stake(uint256)":"a694fc3a","stakes(address)":"16934fc4","totalEffectiveStaked()":"47d62809","totalPenaltiesCollected()":"7eaacdb0","totalStaked()":"817b1cd2","transferOwnership(address)":"f2fde38b","unpause()":"3f4ba83a","unstake(uint256)":"2e17de78"}}}}}