{"contracts/SizeRewards.sol":{"SizeRewards":{"abi":[{"inputs":[{"internalType":"address","name":"_sizeToken","type":"address"},{"internalType":"address","name":"_protocolWallet","type":"address"},{"internalType":"address","name":"_gasWallet","type":"address"}],"stateMutability":"nonpayable","type":"constructor"},{"inputs":[],"name":"AlreadyClaimed","type":"error"},{"inputs":[],"name":"EpochNotFinalized","type":"error"},{"inputs":[],"name":"NotDistributor","type":"error"},{"inputs":[],"name":"NothingToClaim","type":"error"},{"inputs":[{"internalType":"address","name":"owner","type":"address"}],"name":"OwnableInvalidOwner","type":"error"},{"inputs":[{"internalType":"address","name":"account","type":"address"}],"name":"OwnableUnauthorizedAccount","type":"error"},{"inputs":[],"name":"ReentrancyGuardReentrantCall","type":"error"},{"inputs":[{"internalType":"address","name":"token","type":"address"}],"name":"SafeERC20FailedOperation","type":"error"},{"inputs":[],"name":"TooSoon","type":"error"},{"inputs":[],"name":"ZeroAmount","type":"error"},{"anonymous":false,"inputs":[{"indexed":true,"internalType":"address","name":"distributor","type":"address"},{"indexed":false,"internalType":"bool","name":"status","type":"bool"}],"name":"DistributorUpdated","type":"event"},{"anonymous":false,"inputs":[{"indexed":false,"internalType":"uint256","name":"epoch","type":"uint256"},{"indexed":false,"internalType":"uint256","name":"totalPool","type":"uint256"},{"indexed":false,"internalType":"uint256","name":"totalWeight","type":"uint256"}],"name":"EpochFinalized","type":"event"},{"anonymous":false,"inputs":[{"indexed":true,"internalType":"address","name":"previousOwner","type":"address"},{"indexed":true,"internalType":"address","name":"newOwner","type":"address"}],"name":"OwnershipTransferStarted","type":"event"},{"anonymous":false,"inputs":[{"indexed":true,"internalType":"address","name":"previousOwner","type":"address"},{"indexed":true,"internalType":"address","name":"newOwner","type":"address"}],"name":"OwnershipTransferred","type":"event"},{"anonymous":false,"inputs":[{"indexed":true,"internalType":"address","name":"user","type":"address"},{"indexed":false,"internalType":"uint256","name":"amount","type":"uint256"},{"indexed":false,"internalType":"uint256","name":"epoch","type":"uint256"}],"name":"RewardsClaimed","type":"event"},{"anonymous":false,"inputs":[{"indexed":false,"internalType":"uint256","name":"amount","type":"uint256"},{"indexed":false,"internalType":"uint256","name":"epoch","type":"uint256"}],"name":"RewardsDeposited","type":"event"},{"anonymous":false,"inputs":[{"indexed":false,"internalType":"uint256","name":"epoch","type":"uint256"},{"indexed":true,"internalType":"address","name":"user","type":"address"},{"indexed":false,"internalType":"uint256","name":"weight","type":"uint256"}],"name":"UserWeightSet","type":"event"},{"inputs":[],"name":"acceptOwnership","outputs":[],"stateMutability":"nonpayable","type":"function"},{"inputs":[{"internalType":"uint256[]","name":"_epochs","type":"uint256[]"}],"name":"claimMultipleEpochs","outputs":[],"stateMutability":"nonpayable","type":"function"},{"inputs":[{"internalType":"uint256","name":"_epoch","type":"uint256"}],"name":"claimRewards","outputs":[],"stateMutability":"nonpayable","type":"function"},{"inputs":[],"name":"currentEpoch","outputs":[{"internalType":"uint256","name":"","type":"uint256"}],"stateMutability":"view","type":"function"},{"inputs":[{"internalType":"uint256","name":"_amount","type":"uint256"}],"name":"depositRewards","outputs":[],"stateMutability":"nonpayable","type":"function"},{"inputs":[{"internalType":"uint256","name":"","type":"uint256"}],"name":"epochs","outputs":[{"internalType":"uint256","name":"totalPool","type":"uint256"},{"internalType":"uint256","name":"totalWeight","type":"uint256"},{"internalType":"uint256","name":"timestamp","type":"uint256"},{"internalType":"bool","name":"finalized","type":"bool"}],"stateMutability":"view","type":"function"},{"inputs":[{"internalType":"uint256","name":"_totalWeight","type":"uint256"}],"name":"finalizeEpoch","outputs":[],"stateMutability":"nonpayable","type":"function"},{"inputs":[],"name":"gasWallet","outputs":[{"internalType":"address","name":"","type":"address"}],"stateMutability":"view","type":"function"},{"inputs":[{"internalType":"address","name":"_user","type":"address"},{"internalType":"uint256","name":"_epoch","type":"uint256"}],"name":"getClaimable","outputs":[{"internalType":"uint256","name":"","type":"uint256"}],"stateMutability":"view","type":"function"},{"inputs":[],"name":"getCurrentEpochInfo","outputs":[{"internalType":"uint256","name":"epoch","type":"uint256"},{"internalType":"uint256","name":"pool","type":"uint256"},{"internalType":"uint256","name":"lastDist","type":"uint256"},{"internalType":"uint256","name":"nextDist","type":"uint256"}],"stateMutability":"view","type":"function"},{"inputs":[{"internalType":"address","name":"","type":"address"}],"name":"isDistributor","outputs":[{"internalType":"bool","name":"","type":"bool"}],"stateMutability":"view","type":"function"},{"inputs":[],"name":"lastDistributionTime","outputs":[{"internalType":"uint256","name":"","type":"uint256"}],"stateMutability":"view","type":"function"},{"inputs":[],"name":"minDistributionInterval","outputs":[{"internalType":"uint256","name":"","type":"uint256"}],"stateMutability":"view","type":"function"},{"inputs":[],"name":"owner","outputs":[{"internalType":"address","name":"","type":"address"}],"stateMutability":"view","type":"function"},{"inputs":[],"name":"pendingOwner","outputs":[{"internalType":"address","name":"","type":"address"}],"stateMutability":"view","type":"function"},{"inputs":[],"name":"pendingRewardPool","outputs":[{"internalType":"uint256","name":"","type":"uint256"}],"stateMutability":"view","type":"function"},{"inputs":[],"name":"protocolWallet","outputs":[{"internalType":"address","name":"","type":"address"}],"stateMutability":"view","type":"function"},{"inputs":[],"name":"renounceOwnership","outputs":[],"stateMutability":"nonpayable","type":"function"},{"inputs":[{"internalType":"address","name":"_addr","type":"address"},{"internalType":"bool","name":"_status","type":"bool"}],"name":"setDistributor","outputs":[],"stateMutability":"nonpayable","type":"function"},{"inputs":[{"internalType":"address","name":"_wallet","type":"address"}],"name":"setGasWallet","outputs":[],"stateMutability":"nonpayable","type":"function"},{"inputs":[{"internalType":"address","name":"_wallet","type":"address"}],"name":"setProtocolWallet","outputs":[],"stateMutability":"nonpayable","type":"function"},{"inputs":[{"internalType":"address[]","name":"_users","type":"address[]"},{"internalType":"uint256[]","name":"_weights","type":"uint256[]"}],"name":"setUserWeights","outputs":[],"stateMutability":"nonpayable","type":"function"},{"inputs":[],"name":"sizeToken","outputs":[{"internalType":"contract IERC20","name":"","type":"address"}],"stateMutability":"view","type":"function"},{"inputs":[{"internalType":"address","name":"newOwner","type":"address"}],"name":"transferOwnership","outputs":[],"stateMutability":"nonpayable","type":"function"},{"inputs":[{"internalType":"uint256","name":"","type":"uint256"},{"internalType":"address","name":"","type":"address"}],"name":"userEpochWeight","outputs":[{"internalType":"uint256","name":"","type":"uint256"}],"stateMutability":"view","type":"function"},{"inputs":[{"internalType":"address","name":"","type":"address"}],"name":"userRewards","outputs":[{"internalType":"uint256","name":"lastClaimedEpoch","type":"uint256"},{"internalType":"uint256","name":"pendingClaim","type":"uint256"}],"stateMutability":"view","type":"function"}],"evm":{"bytecode":{"linkReferences":{},"object":"60a03461015757601f61118438819003918201601f19168301916001600160401b0383118484101761015c578084926060946040528339810103126101575761004781610172565b90610060604061005960208401610172565b9201610172565b60017f9b779b17422d0df92223018b32b4d1fa46e071723d6817e2486d003becc55f0055331561013e5760409160018060a01b031990816001541660015560009283549560018060a01b039283809233878b16178855885199823391167f8be0079c531659141344cd1fd0a4f28419497f9722a3daafe3b4186f6b6457e08a80a362014370600655166080521683600254161760025516906003541617600355338152600b60205220600160ff19825416179055610ffd9081610187823960805181818161054e0152818161079001528181610acc0152610ca30152f35b604051631e4fbdf760e01b815260006004820152602490fd5b600080fd5b634e487b7160e01b600052604160045260246000fd5b51906001600160a01b03821682036101575756fe60806040908082526004918236101561001757600080fd5b600092833560e01c9283630660f1e814610d4d5750826306d6e63f14610d245782630962ef7914610bf95782632855314814610a6b578263455543ea14610a2057826352e199c5146109f75782636f5244b1146109c7578263715018a61461096257826375b1735014610943578263766718081461092457826379ba5097146108a25782638bdf67f2146107515782638da5cb5b146107295782638f0c86fa146106eb578263986bce2c1461057d578263a6df083114610539578263babc394f146104f7578263c6b61e4c146104a7578263c7ce250114610488578263d2ec602a1461031357508163d3e04000146102f4578163d59ba0df1461026b578163e30c39781461023e57508063e45c17e1146101f9578063f01e9a8b146101b45763f2fde38b1461014557600080fd5b346101b15760203660031901126101b15761015e610d8d565b610166610f7b565b600180546001600160a01b0319166001600160a01b0392831690811790915582549091167f38d16b8cac22d99fc7c124b9cd0de2d3fa1faef420bfe791d8c362d765e227008380a380f35b80fd5b50346101b15760203660031901126101b1576101ce610d8d565b6101d6610f7b565b60018060a01b03166bffffffffffffffffffffffff60a01b600254161760025580f35b50346101b15760203660031901126101b157610213610d8d565b61021b610f7b565b60018060a01b03166bffffffffffffffffffffffff60a01b600354161760035580f35b90503461026757816003193601126102675760015490516001600160a01b039091168152602090f35b5080fd5b905034610267578060031936011261026757610285610d8d565b90602435918215158084036102f0577f19e1fee2e38695e60ad3ef8c81759c22d6d7ee56f9b8805363820a50da468a18926102e86020936102c4610f7b565b60018060a01b031695868852600b85528288209060ff801983541691151516179055565b51908152a280f35b8480fd5b9050346102675781600319360112610267576020906006549051908152f35b9091503461048457816003193601126104845767ffffffffffffffff9181358381116102f0576103469036908401610da8565b929093602435908111610480576103609036908301610da8565b919091338752602091600b60205260ff8589205416158061046c575b61045e5781860361042957549487805b828110610397575080f35b847f5a47b7a358352b5564f2fd0ef2a388168645b52716fa636b1e66328cbfb6b501886104066103f685888f8f868f9b6103d58f879060019f610e22565b35928152600a8b528181208d8060a01b039b8c6103fb6103f68a8a8a610e22565b610eb6565b168352522055610e22565b9261041285898c610e22565b35938251948d86528a8601521692a201889061038c565b606490602086519162461bcd60e51b8352820152600f60248201526e098cadccee8d040dad2e6dac2e8c6d608b1b6044820152fd5b845163385296d560e01b8152fd5b5087546001600160a01b031633141561037c565b8580fd5b8280fd5b8382346102675781600319360112610267576020906007549051908152f35b909150346104845760203660031901126104845760809282913581526009602052209081549160018101549160ff6003600284015493015416928151948552602085015283015215156060820152f35b90915034610484578260031936011261048457608092505490600754906005549061052460065483610e48565b92815194855260208501528301526060820152f35b838234610267578160031936011261026757517f00000000000000000000000000000000000000000000000000000000000000006001600160a01b03168152602090f35b838234610267576020366003190112610267578235338352600b60205260ff828420541615806106d7575b6106c75760055480151590816106b1575b506106a15783549160075481516080810181811067ffffffffffffffff82111761068e5790610630918452828152600360208201868152858301428152606084019160018352898b526009602052878b209451855551600185015551600284015551151591019060ff801983541691151516179055565b84600755426005556001840180851161067b578655815193845260208401528201527fb463d19ecf455be65365092cf8e1db6934a0334cf8cd532ddf9964d01f36b5b290606090a180f35b634e487b7160e01b865260118752602486fd5b634e487b7160e01b875260418852602487fd5b8151636fed7d8560e01b81528490fd5b6106bf915060065490610e48565b4210856105b9565b815163385296d560e01b81528490fd5b5082546001600160a01b03163314156105a8565b8382346102675760203660031901126102675760209160ff9082906001600160a01b03610716610d8d565b168152600b855220541690519015158152f35b838234610267578160031936011261026757905490516001600160a01b039091168152602090f35b83823461026757602036600319011261026757823561076e610eca565b338352600b60205260ff8284205416158061088e575b6106c757801561087e577f00000000000000000000000000000000000000000000000000000000000000009382516323b872dd60e01b85523382523060245282604452602085606481808a5af1600186511481161561085f575b818552856060521561083f57507f8ad0c4905aa5603107e860e0c2b1a78e23eba312c30f8114a70d94d9e187f5af93945061081b82600754610e48565b6007555482519182526020820152a16001600080516020610fa88339815191525580f35b635274afe760e01b81526001600160a01b03861691810191909152602490fd5b600181151661087557863b15153d1516166107de565b503d85823e3d90fd5b8151631f2a200560e01b81528490fd5b5082546001600160a01b0316331415610784565b915034610484578260031936011261048457600154916001600160a01b0391338385160361090d5750506001600160a01b031991821660015582543392811683178455167f8be0079c531659141344cd1fd0a4f28419497f9722a3daafe3b4186f6b6457e08380a380f35b60249250519063118cdaa760e01b82523390820152fd5b9091503461048457826003193601126104845760209250549051908152f35b8382346102675781600319360112610267576020906005549051908152f35b83346101b157806003193601126101b15761097b610f7b565b600180546001600160a01b03199081169091558154908116825581906001600160a01b03167f8be0079c531659141344cd1fd0a4f28419497f9722a3daafe3b4186f6b6457e08280a380f35b8382346102675780600319360112610267576020906109f06109e7610d8d565b60243590610e55565b9051908152f35b83823461026757816003193601126102675760035490516001600160a01b039091168152602090f35b909150346104845781600319360112610484576024356001600160a01b0381169190829003610a6757928291602094358252600a8552828220908252845220549051908152f35b8380fd5b838234610267576020908160031936011261048457833567ffffffffffffffff8111610a6757610a9e9036908601610da8565b9290610aa8610eca565b849333865260088352838620865b828110610b705750508415610b6057610af085337f0000000000000000000000000000000000000000000000000000000000000000610efa565b600019810191818311610b4d5791610b2b917fdacbdde355ba930696a362ea6738feb9f8bd52dfb3d81947558fd3217e23e325959493610e22565b359082519485528401523392a26001600080516020610fa88339815191525580f35b634e487b7160e01b875260118852602487fd5b83516312d37ee560e31b81528790fd5b610b7b818486610e22565b35968789526009865286892060ff60038201541615610bee57600a8752878a20338b528752878a20548015610be25789855411610be25791610bd2826001610bc9819796610bd89654610dd9565b91015490610e02565b90610e48565b9783555b01610ab6565b50509650600190610bdc565b509650600190610bdc565b8390346102675760209283600319360112610484578135610c18610eca565b808452600985528184209460ff60038701541615610d1557818552600a8152828520338652815282852054958615610d0557338652600882528386209683885411610cf557906001610bc9610c6e938354610dd9565b938415610ce75750817fdacbdde355ba930696a362ea6738feb9f8bd52dfb3d81947558fd3217e23e32594959655610cc785337f0000000000000000000000000000000000000000000000000000000000000000610efa565b82519485528401523392a26001600080516020610fa88339815191525580f35b83516312d37ee560e31b8152fd5b8451630c8d9eab60e31b81528690fd5b505050516312d37ee560e31b8152fd5b505051638cf7570760e01b8152fd5b83823461026757816003193601126102675760025490516001600160a01b039091168152602090f35b905083346101b15760203660031901126101b15782906001600160a01b03610d73610d8d565b168152600860205220600181549101549082526020820152f35b600435906001600160a01b0382168203610da357565b600080fd5b9181601f84011215610da35782359167ffffffffffffffff8311610da3576020808501948460051b010111610da357565b81810292918115918404141715610dec57565b634e487b7160e01b600052601160045260246000fd5b8115610e0c570490565b634e487b7160e01b600052601260045260246000fd5b9190811015610e325760051b0190565b634e487b7160e01b600052603260045260246000fd5b91908201809211610dec57565b60009182526009602052604082209060ff600383015416158015610eaa575b610ea557610bc96040610ea294600193600a60205282822090858060a01b0316825260205220548354610dd9565b90565b505090565b50600182015415610e74565b356001600160a01b0381168103610da35790565b600080516020610fa88339815191526002815414610ee85760029055565b604051633ee5aeb560e01b8152600490fd5b60405163a9059cbb60e01b60009081526001600160a01b039384166004526024949094529260209060448180855af1600160005114811615610f5b575b8360405215610f4557505050565b635274afe760e01b835216600482015260249150fd5b6001811516610f7157813b15153d151616610f37565b833d6000823e3d90fd5b6000546001600160a01b03163303610f8f57565b60405163118cdaa760e01b8152336004820152602490fdfe9b779b17422d0df92223018b32b4d1fa46e071723d6817e2486d003becc55f00a2646970667358221220e305c0fd209beb31a337839d354d79737443e686d7270e411b0b750094c4adbd64736f6c63430008180033","opcodes":"PUSH1 0xA0 CALLVALUE PUSH2 0x157 JUMPI PUSH1 0x1F PUSH2 0x1184 CODESIZE DUP2 SWAP1 SUB SWAP2 DUP3 ADD PUSH1 0x1F NOT AND DUP4 ADD SWAP2 PUSH1 0x1 PUSH1 0x1 PUSH1 0x40 SHL SUB DUP4 GT DUP5 DUP5 LT OR PUSH2 0x15C JUMPI DUP1 DUP5 SWAP3 PUSH1 0x60 SWAP5 PUSH1 0x40 MSTORE DUP4 CODECOPY DUP2 ADD SUB SLT PUSH2 0x157 JUMPI PUSH2 0x47 DUP2 PUSH2 0x172 JUMP JUMPDEST SWAP1 PUSH2 0x60 PUSH1 0x40 PUSH2 0x59 PUSH1 0x20 DUP5 ADD PUSH2 0x172 JUMP JUMPDEST SWAP3 ADD PUSH2 0x172 JUMP JUMPDEST PUSH1 0x1 PUSH32 0x9B779B17422D0DF92223018B32B4D1FA46E071723D6817E2486D003BECC55F00 SSTORE CALLER ISZERO PUSH2 0x13E JUMPI PUSH1 0x40 SWAP2 PUSH1 0x1 DUP1 PUSH1 0xA0 SHL SUB NOT SWAP1 DUP2 PUSH1 0x1 SLOAD AND PUSH1 0x1 SSTORE PUSH1 0x0 SWAP3 DUP4 SLOAD SWAP6 PUSH1 0x1 DUP1 PUSH1 0xA0 SHL SUB SWAP3 DUP4 DUP1 SWAP3 CALLER DUP8 DUP12 AND OR DUP9 SSTORE DUP9 MLOAD SWAP10 DUP3 CALLER SWAP2 AND PUSH32 0x8BE0079C531659141344CD1FD0A4F28419497F9722A3DAAFE3B4186F6B6457E0 DUP11 DUP1 LOG3 PUSH3 0x14370 PUSH1 0x6 SSTORE AND PUSH1 0x80 MSTORE AND DUP4 PUSH1 0x2 SLOAD AND OR PUSH1 0x2 SSTORE AND SWAP1 PUSH1 0x3 SLOAD AND OR PUSH1 0x3 SSTORE CALLER DUP2 MSTORE PUSH1 0xB PUSH1 0x20 MSTORE KECCAK256 PUSH1 0x1 PUSH1 0xFF NOT DUP3 SLOAD AND OR SWAP1 SSTORE PUSH2 0xFFD SWAP1 DUP2 PUSH2 0x187 DUP3 CODECOPY PUSH1 0x80 MLOAD DUP2 DUP2 DUP2 PUSH2 0x54E ADD MSTORE DUP2 DUP2 PUSH2 0x790 ADD MSTORE DUP2 DUP2 PUSH2 0xACC ADD MSTORE PUSH2 0xCA3 ADD MSTORE RETURN JUMPDEST PUSH1 0x40 MLOAD PUSH4 0x1E4FBDF7 PUSH1 0xE0 SHL DUP2 MSTORE PUSH1 0x0 PUSH1 0x4 DUP3 ADD MSTORE PUSH1 0x24 SWAP1 REVERT JUMPDEST PUSH1 0x0 DUP1 REVERT JUMPDEST PUSH4 0x4E487B71 PUSH1 0xE0 SHL PUSH1 0x0 MSTORE PUSH1 0x41 PUSH1 0x4 MSTORE PUSH1 0x24 PUSH1 0x0 REVERT JUMPDEST MLOAD SWAP1 PUSH1 0x1 PUSH1 0x1 PUSH1 0xA0 SHL SUB DUP3 AND DUP3 SUB PUSH2 0x157 JUMPI JUMP INVALID PUSH1 0x80 PUSH1 0x40 SWAP1 DUP1 DUP3 MSTORE PUSH1 0x4 SWAP2 DUP3 CALLDATASIZE LT ISZERO PUSH2 0x17 JUMPI PUSH1 0x0 DUP1 REVERT JUMPDEST PUSH1 0x0 SWAP3 DUP4 CALLDATALOAD PUSH1 0xE0 SHR SWAP3 DUP4 PUSH4 0x660F1E8 EQ PUSH2 0xD4D JUMPI POP DUP3 PUSH4 0x6D6E63F EQ PUSH2 0xD24 JUMPI DUP3 PUSH4 0x962EF79 EQ PUSH2 0xBF9 JUMPI DUP3 PUSH4 0x28553148 EQ PUSH2 0xA6B JUMPI DUP3 PUSH4 0x455543EA EQ PUSH2 0xA20 JUMPI DUP3 PUSH4 0x52E199C5 EQ PUSH2 0x9F7 JUMPI DUP3 PUSH4 0x6F5244B1 EQ PUSH2 0x9C7 JUMPI DUP3 PUSH4 0x715018A6 EQ PUSH2 0x962 JUMPI DUP3 PUSH4 0x75B17350 EQ PUSH2 0x943 JUMPI DUP3 PUSH4 0x76671808 EQ PUSH2 0x924 JUMPI DUP3 PUSH4 0x79BA5097 EQ PUSH2 0x8A2 JUMPI DUP3 PUSH4 0x8BDF67F2 EQ PUSH2 0x751 JUMPI DUP3 PUSH4 0x8DA5CB5B EQ PUSH2 0x729 JUMPI DUP3 PUSH4 0x8F0C86FA EQ PUSH2 0x6EB JUMPI DUP3 PUSH4 0x986BCE2C EQ PUSH2 0x57D JUMPI DUP3 PUSH4 0xA6DF0831 EQ PUSH2 0x539 JUMPI DUP3 PUSH4 0xBABC394F EQ PUSH2 0x4F7 JUMPI DUP3 PUSH4 0xC6B61E4C EQ PUSH2 0x4A7 JUMPI DUP3 PUSH4 0xC7CE2501 EQ PUSH2 0x488 JUMPI DUP3 PUSH4 0xD2EC602A EQ PUSH2 0x313 JUMPI POP DUP2 PUSH4 0xD3E04000 EQ PUSH2 0x2F4 JUMPI DUP2 PUSH4 0xD59BA0DF EQ PUSH2 0x26B JUMPI DUP2 PUSH4 0xE30C3978 EQ PUSH2 0x23E JUMPI POP DUP1 PUSH4 0xE45C17E1 EQ PUSH2 0x1F9 JUMPI DUP1 PUSH4 0xF01E9A8B EQ PUSH2 0x1B4 JUMPI PUSH4 0xF2FDE38B EQ PUSH2 0x145 JUMPI PUSH1 0x0 DUP1 REVERT JUMPDEST CALLVALUE PUSH2 0x1B1 JUMPI PUSH1 0x20 CALLDATASIZE PUSH1 0x3 NOT ADD SLT PUSH2 0x1B1 JUMPI PUSH2 0x15E PUSH2 0xD8D JUMP JUMPDEST PUSH2 0x166 PUSH2 0xF7B JUMP JUMPDEST PUSH1 0x1 DUP1 SLOAD PUSH1 0x1 PUSH1 0x1 PUSH1 0xA0 SHL SUB NOT AND PUSH1 0x1 PUSH1 0x1 PUSH1 0xA0 SHL SUB SWAP3 DUP4 AND SWAP1 DUP2 OR SWAP1 SWAP2 SSTORE DUP3 SLOAD SWAP1 SWAP2 AND PUSH32 0x38D16B8CAC22D99FC7C124B9CD0DE2D3FA1FAEF420BFE791D8C362D765E22700 DUP4 DUP1 LOG3 DUP1 RETURN JUMPDEST DUP1 REVERT JUMPDEST POP CALLVALUE PUSH2 0x1B1 JUMPI PUSH1 0x20 CALLDATASIZE PUSH1 0x3 NOT ADD SLT PUSH2 0x1B1 JUMPI PUSH2 0x1CE PUSH2 0xD8D JUMP JUMPDEST PUSH2 0x1D6 PUSH2 0xF7B JUMP JUMPDEST PUSH1 0x1 DUP1 PUSH1 0xA0 SHL SUB AND PUSH12 0xFFFFFFFFFFFFFFFFFFFFFFFF PUSH1 0xA0 SHL PUSH1 0x2 SLOAD AND OR PUSH1 0x2 SSTORE DUP1 RETURN JUMPDEST POP CALLVALUE PUSH2 0x1B1 JUMPI PUSH1 0x20 CALLDATASIZE PUSH1 0x3 NOT ADD SLT PUSH2 0x1B1 JUMPI PUSH2 0x213 PUSH2 0xD8D JUMP JUMPDEST PUSH2 0x21B PUSH2 0xF7B JUMP JUMPDEST PUSH1 0x1 DUP1 PUSH1 0xA0 SHL SUB AND PUSH12 0xFFFFFFFFFFFFFFFFFFFFFFFF PUSH1 0xA0 SHL PUSH1 0x3 SLOAD AND OR PUSH1 0x3 SSTORE DUP1 RETURN JUMPDEST SWAP1 POP CALLVALUE PUSH2 0x267 JUMPI DUP2 PUSH1 0x3 NOT CALLDATASIZE ADD SLT PUSH2 0x267 JUMPI PUSH1 0x1 SLOAD SWAP1 MLOAD PUSH1 0x1 PUSH1 0x1 PUSH1 0xA0 SHL SUB SWAP1 SWAP2 AND DUP2 MSTORE PUSH1 0x20 SWAP1 RETURN JUMPDEST POP DUP1 REVERT JUMPDEST SWAP1 POP CALLVALUE PUSH2 0x267 JUMPI DUP1 PUSH1 0x3 NOT CALLDATASIZE ADD SLT PUSH2 0x267 JUMPI PUSH2 0x285 PUSH2 0xD8D JUMP JUMPDEST SWAP1 PUSH1 0x24 CALLDATALOAD SWAP2 DUP3 ISZERO ISZERO DUP1 DUP5 SUB PUSH2 0x2F0 JUMPI PUSH32 0x19E1FEE2E38695E60AD3EF8C81759C22D6D7EE56F9B8805363820A50DA468A18 SWAP3 PUSH2 0x2E8 PUSH1 0x20 SWAP4 PUSH2 0x2C4 PUSH2 0xF7B JUMP JUMPDEST PUSH1 0x1 DUP1 PUSH1 0xA0 SHL SUB AND SWAP6 DUP7 DUP9 MSTORE PUSH1 0xB DUP6 MSTORE DUP3 DUP9 KECCAK256 SWAP1 PUSH1 0xFF DUP1 NOT DUP4 SLOAD AND SWAP2 ISZERO ISZERO AND OR SWAP1 SSTORE JUMP JUMPDEST MLOAD SWAP1 DUP2 MSTORE LOG2 DUP1 RETURN JUMPDEST DUP5 DUP1 REVERT JUMPDEST SWAP1 POP CALLVALUE PUSH2 0x267 JUMPI DUP2 PUSH1 0x3 NOT CALLDATASIZE ADD SLT PUSH2 0x267 JUMPI PUSH1 0x20 SWAP1 PUSH1 0x6 SLOAD SWAP1 MLOAD SWAP1 DUP2 MSTORE RETURN JUMPDEST SWAP1 SWAP2 POP CALLVALUE PUSH2 0x484 JUMPI DUP2 PUSH1 0x3 NOT CALLDATASIZE ADD SLT PUSH2 0x484 JUMPI PUSH8 0xFFFFFFFFFFFFFFFF SWAP2 DUP2 CALLDATALOAD DUP4 DUP2 GT PUSH2 0x2F0 JUMPI PUSH2 0x346 SWAP1 CALLDATASIZE SWAP1 DUP5 ADD PUSH2 0xDA8 JUMP JUMPDEST SWAP3 SWAP1 SWAP4 PUSH1 0x24 CALLDATALOAD SWAP1 DUP2 GT PUSH2 0x480 JUMPI PUSH2 0x360 SWAP1 CALLDATASIZE SWAP1 DUP4 ADD PUSH2 0xDA8 JUMP JUMPDEST SWAP2 SWAP1 SWAP2 CALLER DUP8 MSTORE PUSH1 0x20 SWAP2 PUSH1 0xB PUSH1 0x20 MSTORE PUSH1 0xFF DUP6 DUP10 KECCAK256 SLOAD AND ISZERO DUP1 PUSH2 0x46C JUMPI JUMPDEST PUSH2 0x45E JUMPI DUP2 DUP7 SUB PUSH2 0x429 JUMPI SLOAD SWAP5 DUP8 DUP1 JUMPDEST DUP3 DUP2 LT PUSH2 0x397 JUMPI POP DUP1 RETURN JUMPDEST DUP5 PUSH32 0x5A47B7A358352B5564F2FD0EF2A388168645B52716FA636B1E66328CBFB6B501 DUP9 PUSH2 0x406 PUSH2 0x3F6 DUP6 DUP9 DUP16 DUP16 DUP7 DUP16 SWAP12 PUSH2 0x3D5 DUP16 DUP8 SWAP1 PUSH1 0x1 SWAP16 PUSH2 0xE22 JUMP JUMPDEST CALLDATALOAD SWAP3 DUP2 MSTORE PUSH1 0xA DUP12 MSTORE DUP2 DUP2 KECCAK256 DUP14 DUP1 PUSH1 0xA0 SHL SUB SWAP12 DUP13 PUSH2 0x3FB PUSH2 0x3F6 DUP11 DUP11 DUP11 PUSH2 0xE22 JUMP JUMPDEST PUSH2 0xEB6 JUMP JUMPDEST AND DUP4 MSTORE MSTORE KECCAK256 SSTORE PUSH2 0xE22 JUMP JUMPDEST SWAP3 PUSH2 0x412 DUP6 DUP10 DUP13 PUSH2 0xE22 JUMP JUMPDEST CALLDATALOAD SWAP4 DUP3 MLOAD SWAP5 DUP14 DUP7 MSTORE DUP11 DUP7 ADD MSTORE AND SWAP3 LOG2 ADD DUP9 SWAP1 PUSH2 0x38C JUMP JUMPDEST PUSH1 0x64 SWAP1 PUSH1 0x20 DUP7 MLOAD SWAP2 PUSH3 0x461BCD PUSH1 0xE5 SHL DUP4 MSTORE DUP3 ADD MSTORE PUSH1 0xF PUSH1 0x24 DUP3 ADD MSTORE PUSH15 0x98CADCCEE8D040DAD2E6DAC2E8C6D PUSH1 0x8B SHL PUSH1 0x44 DUP3 ADD MSTORE REVERT JUMPDEST DUP5 MLOAD PUSH4 0x385296D5 PUSH1 0xE0 SHL DUP2 MSTORE REVERT JUMPDEST POP DUP8 SLOAD PUSH1 0x1 PUSH1 0x1 PUSH1 0xA0 SHL SUB AND CALLER EQ ISZERO PUSH2 0x37C JUMP JUMPDEST DUP6 DUP1 REVERT JUMPDEST DUP3 DUP1 REVERT JUMPDEST DUP4 DUP3 CALLVALUE PUSH2 0x267 JUMPI DUP2 PUSH1 0x3 NOT CALLDATASIZE ADD SLT PUSH2 0x267 JUMPI PUSH1 0x20 SWAP1 PUSH1 0x7 SLOAD SWAP1 MLOAD SWAP1 DUP2 MSTORE RETURN JUMPDEST SWAP1 SWAP2 POP CALLVALUE PUSH2 0x484 JUMPI PUSH1 0x20 CALLDATASIZE PUSH1 0x3 NOT ADD SLT PUSH2 0x484 JUMPI PUSH1 0x80 SWAP3 DUP3 SWAP2 CALLDATALOAD DUP2 MSTORE PUSH1 0x9 PUSH1 0x20 MSTORE KECCAK256 SWAP1 DUP2 SLOAD SWAP2 PUSH1 0x1 DUP2 ADD SLOAD SWAP2 PUSH1 0xFF PUSH1 0x3 PUSH1 0x2 DUP5 ADD SLOAD SWAP4 ADD SLOAD AND SWAP3 DUP2 MLOAD SWAP5 DUP6 MSTORE PUSH1 0x20 DUP6 ADD MSTORE DUP4 ADD MSTORE ISZERO ISZERO PUSH1 0x60 DUP3 ADD MSTORE RETURN JUMPDEST SWAP1 SWAP2 POP CALLVALUE PUSH2 0x484 JUMPI DUP3 PUSH1 0x3 NOT CALLDATASIZE ADD SLT PUSH2 0x484 JUMPI PUSH1 0x80 SWAP3 POP SLOAD SWAP1 PUSH1 0x7 SLOAD SWAP1 PUSH1 0x5 SLOAD SWAP1 PUSH2 0x524 PUSH1 0x6 SLOAD DUP4 PUSH2 0xE48 JUMP JUMPDEST SWAP3 DUP2 MLOAD SWAP5 DUP6 MSTORE PUSH1 0x20 DUP6 ADD MSTORE DUP4 ADD MSTORE PUSH1 0x60 DUP3 ADD MSTORE RETURN JUMPDEST DUP4 DUP3 CALLVALUE PUSH2 0x267 JUMPI DUP2 PUSH1 0x3 NOT CALLDATASIZE ADD SLT PUSH2 0x267 JUMPI MLOAD PUSH32 0x0 PUSH1 0x1 PUSH1 0x1 PUSH1 0xA0 SHL SUB AND DUP2 MSTORE PUSH1 0x20 SWAP1 RETURN JUMPDEST DUP4 DUP3 CALLVALUE PUSH2 0x267 JUMPI PUSH1 0x20 CALLDATASIZE PUSH1 0x3 NOT ADD SLT PUSH2 0x267 JUMPI DUP3 CALLDATALOAD CALLER DUP4 MSTORE PUSH1 0xB PUSH1 0x20 MSTORE PUSH1 0xFF DUP3 DUP5 KECCAK256 SLOAD AND ISZERO DUP1 PUSH2 0x6D7 JUMPI JUMPDEST PUSH2 0x6C7 JUMPI PUSH1 0x5 SLOAD DUP1 ISZERO ISZERO SWAP1 DUP2 PUSH2 0x6B1 JUMPI JUMPDEST POP PUSH2 0x6A1 JUMPI DUP4 SLOAD SWAP2 PUSH1 0x7 SLOAD DUP2 MLOAD PUSH1 0x80 DUP2 ADD DUP2 DUP2 LT PUSH8 0xFFFFFFFFFFFFFFFF DUP3 GT OR PUSH2 0x68E JUMPI SWAP1 PUSH2 0x630 SWAP2 DUP5 MSTORE DUP3 DUP2 MSTORE PUSH1 0x3 PUSH1 0x20 DUP3 ADD DUP7 DUP2 MSTORE DUP6 DUP4 ADD TIMESTAMP DUP2 MSTORE PUSH1 0x60 DUP5 ADD SWAP2 PUSH1 0x1 DUP4 MSTORE DUP10 DUP12 MSTORE PUSH1 0x9 PUSH1 0x20 MSTORE DUP8 DUP12 KECCAK256 SWAP5 MLOAD DUP6 SSTORE MLOAD PUSH1 0x1 DUP6 ADD SSTORE MLOAD PUSH1 0x2 DUP5 ADD SSTORE MLOAD ISZERO ISZERO SWAP2 ADD SWAP1 PUSH1 0xFF DUP1 NOT DUP4 SLOAD AND SWAP2 ISZERO ISZERO AND OR SWAP1 SSTORE JUMP JUMPDEST DUP5 PUSH1 0x7 SSTORE TIMESTAMP PUSH1 0x5 SSTORE PUSH1 0x1 DUP5 ADD DUP1 DUP6 GT PUSH2 0x67B JUMPI DUP7 SSTORE DUP2 MLOAD SWAP4 DUP5 MSTORE PUSH1 0x20 DUP5 ADD MSTORE DUP3 ADD MSTORE PUSH32 0xB463D19ECF455BE65365092CF8E1DB6934A0334CF8CD532DDF9964D01F36B5B2 SWAP1 PUSH1 0x60 SWAP1 LOG1 DUP1 RETURN JUMPDEST PUSH4 0x4E487B71 PUSH1 0xE0 SHL DUP7 MSTORE PUSH1 0x11 DUP8 MSTORE PUSH1 0x24 DUP7 REVERT JUMPDEST PUSH4 0x4E487B71 PUSH1 0xE0 SHL DUP8 MSTORE PUSH1 0x41 DUP9 MSTORE PUSH1 0x24 DUP8 REVERT JUMPDEST DUP2 MLOAD PUSH4 0x6FED7D85 PUSH1 0xE0 SHL DUP2 MSTORE DUP5 SWAP1 REVERT JUMPDEST PUSH2 0x6BF SWAP2 POP PUSH1 0x6 SLOAD SWAP1 PUSH2 0xE48 JUMP JUMPDEST TIMESTAMP LT DUP6 PUSH2 0x5B9 JUMP JUMPDEST DUP2 MLOAD PUSH4 0x385296D5 PUSH1 0xE0 SHL DUP2 MSTORE DUP5 SWAP1 REVERT JUMPDEST POP DUP3 SLOAD PUSH1 0x1 PUSH1 0x1 PUSH1 0xA0 SHL SUB AND CALLER EQ ISZERO PUSH2 0x5A8 JUMP JUMPDEST DUP4 DUP3 CALLVALUE PUSH2 0x267 JUMPI PUSH1 0x20 CALLDATASIZE PUSH1 0x3 NOT ADD SLT PUSH2 0x267 JUMPI PUSH1 0x20 SWAP2 PUSH1 0xFF SWAP1 DUP3 SWAP1 PUSH1 0x1 PUSH1 0x1 PUSH1 0xA0 SHL SUB PUSH2 0x716 PUSH2 0xD8D JUMP JUMPDEST AND DUP2 MSTORE PUSH1 0xB DUP6 MSTORE KECCAK256 SLOAD AND SWAP1 MLOAD SWAP1 ISZERO ISZERO DUP2 MSTORE RETURN JUMPDEST DUP4 DUP3 CALLVALUE PUSH2 0x267 JUMPI DUP2 PUSH1 0x3 NOT CALLDATASIZE ADD SLT PUSH2 0x267 JUMPI SWAP1 SLOAD SWAP1 MLOAD PUSH1 0x1 PUSH1 0x1 PUSH1 0xA0 SHL SUB SWAP1 SWAP2 AND DUP2 MSTORE PUSH1 0x20 SWAP1 RETURN JUMPDEST DUP4 DUP3 CALLVALUE PUSH2 0x267 JUMPI PUSH1 0x20 CALLDATASIZE PUSH1 0x3 NOT ADD SLT PUSH2 0x267 JUMPI DUP3 CALLDATALOAD PUSH2 0x76E PUSH2 0xECA JUMP JUMPDEST CALLER DUP4 MSTORE PUSH1 0xB PUSH1 0x20 MSTORE PUSH1 0xFF DUP3 DUP5 KECCAK256 SLOAD AND ISZERO DUP1 PUSH2 0x88E JUMPI JUMPDEST PUSH2 0x6C7 JUMPI DUP1 ISZERO PUSH2 0x87E JUMPI PUSH32 0x0 SWAP4 DUP3 MLOAD PUSH4 0x23B872DD PUSH1 0xE0 SHL DUP6 MSTORE CALLER DUP3 MSTORE ADDRESS PUSH1 0x24 MSTORE DUP3 PUSH1 0x44 MSTORE PUSH1 0x20 DUP6 PUSH1 0x64 DUP2 DUP1 DUP11 GAS CALL PUSH1 0x1 DUP7 MLOAD EQ DUP2 AND ISZERO PUSH2 0x85F JUMPI JUMPDEST DUP2 DUP6 MSTORE DUP6 PUSH1 0x60 MSTORE ISZERO PUSH2 0x83F JUMPI POP PUSH32 0x8AD0C4905AA5603107E860E0C2B1A78E23EBA312C30F8114A70D94D9E187F5AF SWAP4 SWAP5 POP PUSH2 0x81B DUP3 PUSH1 0x7 SLOAD PUSH2 0xE48 JUMP JUMPDEST PUSH1 0x7 SSTORE SLOAD DUP3 MLOAD SWAP2 DUP3 MSTORE PUSH1 0x20 DUP3 ADD MSTORE LOG1 PUSH1 0x1 PUSH1 0x0 DUP1 MLOAD PUSH1 0x20 PUSH2 0xFA8 DUP4 CODECOPY DUP2 MLOAD SWAP2 MSTORE SSTORE DUP1 RETURN JUMPDEST PUSH4 0x5274AFE7 PUSH1 0xE0 SHL DUP2 MSTORE PUSH1 0x1 PUSH1 0x1 PUSH1 0xA0 SHL SUB DUP7 AND SWAP2 DUP2 ADD SWAP2 SWAP1 SWAP2 MSTORE PUSH1 0x24 SWAP1 REVERT JUMPDEST PUSH1 0x1 DUP2 ISZERO AND PUSH2 0x875 JUMPI DUP7 EXTCODESIZE ISZERO ISZERO RETURNDATASIZE ISZERO AND AND PUSH2 0x7DE JUMP JUMPDEST POP RETURNDATASIZE DUP6 DUP3 RETURNDATACOPY RETURNDATASIZE SWAP1 REVERT JUMPDEST DUP2 MLOAD PUSH4 0x1F2A2005 PUSH1 0xE0 SHL DUP2 MSTORE DUP5 SWAP1 REVERT JUMPDEST POP DUP3 SLOAD PUSH1 0x1 PUSH1 0x1 PUSH1 0xA0 SHL SUB AND CALLER EQ ISZERO PUSH2 0x784 JUMP JUMPDEST SWAP2 POP CALLVALUE PUSH2 0x484 JUMPI DUP3 PUSH1 0x3 NOT CALLDATASIZE ADD SLT PUSH2 0x484 JUMPI PUSH1 0x1 SLOAD SWAP2 PUSH1 0x1 PUSH1 0x1 PUSH1 0xA0 SHL SUB SWAP2 CALLER DUP4 DUP6 AND SUB PUSH2 0x90D JUMPI POP POP PUSH1 0x1 PUSH1 0x1 PUSH1 0xA0 SHL SUB NOT SWAP2 DUP3 AND PUSH1 0x1 SSTORE DUP3 SLOAD CALLER SWAP3 DUP2 AND DUP4 OR DUP5 SSTORE AND PUSH32 0x8BE0079C531659141344CD1FD0A4F28419497F9722A3DAAFE3B4186F6B6457E0 DUP4 DUP1 LOG3 DUP1 RETURN JUMPDEST PUSH1 0x24 SWAP3 POP MLOAD SWAP1 PUSH4 0x118CDAA7 PUSH1 0xE0 SHL DUP3 MSTORE CALLER SWAP1 DUP3 ADD MSTORE REVERT JUMPDEST SWAP1 SWAP2 POP CALLVALUE PUSH2 0x484 JUMPI DUP3 PUSH1 0x3 NOT CALLDATASIZE ADD SLT PUSH2 0x484 JUMPI PUSH1 0x20 SWAP3 POP SLOAD SWAP1 MLOAD SWAP1 DUP2 MSTORE RETURN JUMPDEST DUP4 DUP3 CALLVALUE PUSH2 0x267 JUMPI DUP2 PUSH1 0x3 NOT CALLDATASIZE ADD SLT PUSH2 0x267 JUMPI PUSH1 0x20 SWAP1 PUSH1 0x5 SLOAD SWAP1 MLOAD SWAP1 DUP2 MSTORE RETURN JUMPDEST DUP4 CALLVALUE PUSH2 0x1B1 JUMPI DUP1 PUSH1 0x3 NOT CALLDATASIZE ADD SLT PUSH2 0x1B1 JUMPI PUSH2 0x97B PUSH2 0xF7B JUMP JUMPDEST PUSH1 0x1 DUP1 SLOAD PUSH1 0x1 PUSH1 0x1 PUSH1 0xA0 SHL SUB NOT SWAP1 DUP2 AND SWAP1 SWAP2 SSTORE DUP2 SLOAD SWAP1 DUP2 AND DUP3 SSTORE DUP2 SWAP1 PUSH1 0x1 PUSH1 0x1 PUSH1 0xA0 SHL SUB AND PUSH32 0x8BE0079C531659141344CD1FD0A4F28419497F9722A3DAAFE3B4186F6B6457E0 DUP3 DUP1 LOG3 DUP1 RETURN JUMPDEST DUP4 DUP3 CALLVALUE PUSH2 0x267 JUMPI DUP1 PUSH1 0x3 NOT CALLDATASIZE ADD SLT PUSH2 0x267 JUMPI PUSH1 0x20 SWAP1 PUSH2 0x9F0 PUSH2 0x9E7 PUSH2 0xD8D JUMP JUMPDEST PUSH1 0x24 CALLDATALOAD SWAP1 PUSH2 0xE55 JUMP JUMPDEST SWAP1 MLOAD SWAP1 DUP2 MSTORE RETURN JUMPDEST DUP4 DUP3 CALLVALUE PUSH2 0x267 JUMPI DUP2 PUSH1 0x3 NOT CALLDATASIZE ADD SLT PUSH2 0x267 JUMPI PUSH1 0x3 SLOAD SWAP1 MLOAD PUSH1 0x1 PUSH1 0x1 PUSH1 0xA0 SHL SUB SWAP1 SWAP2 AND DUP2 MSTORE PUSH1 0x20 SWAP1 RETURN JUMPDEST SWAP1 SWAP2 POP CALLVALUE PUSH2 0x484 JUMPI DUP2 PUSH1 0x3 NOT CALLDATASIZE ADD SLT PUSH2 0x484 JUMPI PUSH1 0x24 CALLDATALOAD PUSH1 0x1 PUSH1 0x1 PUSH1 0xA0 SHL SUB DUP2 AND SWAP2 SWAP1 DUP3 SWAP1 SUB PUSH2 0xA67 JUMPI SWAP3 DUP3 SWAP2 PUSH1 0x20 SWAP5 CALLDATALOAD DUP3 MSTORE PUSH1 0xA DUP6 MSTORE DUP3 DUP3 KECCAK256 SWAP1 DUP3 MSTORE DUP5 MSTORE KECCAK256 SLOAD SWAP1 MLOAD SWAP1 DUP2 MSTORE RETURN JUMPDEST DUP4 DUP1 REVERT JUMPDEST DUP4 DUP3 CALLVALUE PUSH2 0x267 JUMPI PUSH1 0x20 SWAP1 DUP2 PUSH1 0x3 NOT CALLDATASIZE ADD SLT PUSH2 0x484 JUMPI DUP4 CALLDATALOAD PUSH8 0xFFFFFFFFFFFFFFFF DUP2 GT PUSH2 0xA67 JUMPI PUSH2 0xA9E SWAP1 CALLDATASIZE SWAP1 DUP7 ADD PUSH2 0xDA8 JUMP JUMPDEST SWAP3 SWAP1 PUSH2 0xAA8 PUSH2 0xECA JUMP JUMPDEST DUP5 SWAP4 CALLER DUP7 MSTORE PUSH1 0x8 DUP4 MSTORE DUP4 DUP7 KECCAK256 DUP7 JUMPDEST DUP3 DUP2 LT PUSH2 0xB70 JUMPI POP POP DUP5 ISZERO PUSH2 0xB60 JUMPI PUSH2 0xAF0 DUP6 CALLER PUSH32 0x0 PUSH2 0xEFA JUMP JUMPDEST PUSH1 0x0 NOT DUP2 ADD SWAP2 DUP2 DUP4 GT PUSH2 0xB4D JUMPI SWAP2 PUSH2 0xB2B SWAP2 PUSH32 0xDACBDDE355BA930696A362EA6738FEB9F8BD52DFB3D81947558FD3217E23E325 SWAP6 SWAP5 SWAP4 PUSH2 0xE22 JUMP JUMPDEST CALLDATALOAD SWAP1 DUP3 MLOAD SWAP5 DUP6 MSTORE DUP5 ADD MSTORE CALLER SWAP3 LOG2 PUSH1 0x1 PUSH1 0x0 DUP1 MLOAD PUSH1 0x20 PUSH2 0xFA8 DUP4 CODECOPY DUP2 MLOAD SWAP2 MSTORE SSTORE DUP1 RETURN JUMPDEST PUSH4 0x4E487B71 PUSH1 0xE0 SHL DUP8 MSTORE PUSH1 0x11 DUP9 MSTORE PUSH1 0x24 DUP8 REVERT JUMPDEST DUP4 MLOAD PUSH4 0x12D37EE5 PUSH1 0xE3 SHL DUP2 MSTORE DUP8 SWAP1 REVERT JUMPDEST PUSH2 0xB7B DUP2 DUP5 DUP7 PUSH2 0xE22 JUMP JUMPDEST CALLDATALOAD SWAP7 DUP8 DUP10 MSTORE PUSH1 0x9 DUP7 MSTORE DUP7 DUP10 KECCAK256 PUSH1 0xFF PUSH1 0x3 DUP3 ADD SLOAD AND ISZERO PUSH2 0xBEE JUMPI PUSH1 0xA DUP8 MSTORE DUP8 DUP11 KECCAK256 CALLER DUP12 MSTORE DUP8 MSTORE DUP8 DUP11 KECCAK256 SLOAD DUP1 ISZERO PUSH2 0xBE2 JUMPI DUP10 DUP6 SLOAD GT PUSH2 0xBE2 JUMPI SWAP2 PUSH2 0xBD2 DUP3 PUSH1 0x1 PUSH2 0xBC9 DUP2 SWAP8 SWAP7 PUSH2 0xBD8 SWAP7 SLOAD PUSH2 0xDD9 JUMP JUMPDEST SWAP2 ADD SLOAD SWAP1 PUSH2 0xE02 JUMP JUMPDEST SWAP1 PUSH2 0xE48 JUMP JUMPDEST SWAP8 DUP4 SSTORE JUMPDEST ADD PUSH2 0xAB6 JUMP JUMPDEST POP POP SWAP7 POP PUSH1 0x1 SWAP1 PUSH2 0xBDC JUMP JUMPDEST POP SWAP7 POP PUSH1 0x1 SWAP1 PUSH2 0xBDC JUMP JUMPDEST DUP4 SWAP1 CALLVALUE PUSH2 0x267 JUMPI PUSH1 0x20 SWAP3 DUP4 PUSH1 0x3 NOT CALLDATASIZE ADD SLT PUSH2 0x484 JUMPI DUP2 CALLDATALOAD PUSH2 0xC18 PUSH2 0xECA JUMP JUMPDEST DUP1 DUP5 MSTORE PUSH1 0x9 DUP6 MSTORE DUP2 DUP5 KECCAK256 SWAP5 PUSH1 0xFF PUSH1 0x3 DUP8 ADD SLOAD AND ISZERO PUSH2 0xD15 JUMPI DUP2 DUP6 MSTORE PUSH1 0xA DUP2 MSTORE DUP3 DUP6 KECCAK256 CALLER DUP7 MSTORE DUP2 MSTORE DUP3 DUP6 KECCAK256 SLOAD SWAP6 DUP7 ISZERO PUSH2 0xD05 JUMPI CALLER DUP7 MSTORE PUSH1 0x8 DUP3 MSTORE DUP4 DUP7 KECCAK256 SWAP7 DUP4 DUP9 SLOAD GT PUSH2 0xCF5 JUMPI SWAP1 PUSH1 0x1 PUSH2 0xBC9 PUSH2 0xC6E SWAP4 DUP4 SLOAD PUSH2 0xDD9 JUMP JUMPDEST SWAP4 DUP5 ISZERO PUSH2 0xCE7 JUMPI POP DUP2 PUSH32 0xDACBDDE355BA930696A362EA6738FEB9F8BD52DFB3D81947558FD3217E23E325 SWAP5 SWAP6 SWAP7 SSTORE PUSH2 0xCC7 DUP6 CALLER PUSH32 0x0 PUSH2 0xEFA JUMP JUMPDEST DUP3 MLOAD SWAP5 DUP6 MSTORE DUP5 ADD MSTORE CALLER SWAP3 LOG2 PUSH1 0x1 PUSH1 0x0 DUP1 MLOAD PUSH1 0x20 PUSH2 0xFA8 DUP4 CODECOPY DUP2 MLOAD SWAP2 MSTORE SSTORE DUP1 RETURN JUMPDEST DUP4 MLOAD PUSH4 0x12D37EE5 PUSH1 0xE3 SHL DUP2 MSTORE REVERT JUMPDEST DUP5 MLOAD PUSH4 0xC8D9EAB PUSH1 0xE3 SHL DUP2 MSTORE DUP7 SWAP1 REVERT JUMPDEST POP POP POP MLOAD PUSH4 0x12D37EE5 PUSH1 0xE3 SHL DUP2 MSTORE REVERT JUMPDEST POP POP MLOAD PUSH4 0x8CF75707 PUSH1 0xE0 SHL DUP2 MSTORE REVERT JUMPDEST DUP4 DUP3 CALLVALUE PUSH2 0x267 JUMPI DUP2 PUSH1 0x3 NOT CALLDATASIZE ADD SLT PUSH2 0x267 JUMPI PUSH1 0x2 SLOAD SWAP1 MLOAD PUSH1 0x1 PUSH1 0x1 PUSH1 0xA0 SHL SUB SWAP1 SWAP2 AND DUP2 MSTORE PUSH1 0x20 SWAP1 RETURN JUMPDEST SWAP1 POP DUP4 CALLVALUE PUSH2 0x1B1 JUMPI PUSH1 0x20 CALLDATASIZE PUSH1 0x3 NOT ADD SLT PUSH2 0x1B1 JUMPI DUP3 SWAP1 PUSH1 0x1 PUSH1 0x1 PUSH1 0xA0 SHL SUB PUSH2 0xD73 PUSH2 0xD8D JUMP JUMPDEST AND DUP2 MSTORE PUSH1 0x8 PUSH1 0x20 MSTORE KECCAK256 PUSH1 0x1 DUP2 SLOAD SWAP2 ADD SLOAD SWAP1 DUP3 MSTORE PUSH1 0x20 DUP3 ADD MSTORE RETURN JUMPDEST PUSH1 0x4 CALLDATALOAD SWAP1 PUSH1 0x1 PUSH1 0x1 PUSH1 0xA0 SHL SUB DUP3 AND DUP3 SUB PUSH2 0xDA3 JUMPI JUMP JUMPDEST PUSH1 0x0 DUP1 REVERT JUMPDEST SWAP2 DUP2 PUSH1 0x1F DUP5 ADD SLT ISZERO PUSH2 0xDA3 JUMPI DUP3 CALLDATALOAD SWAP2 PUSH8 0xFFFFFFFFFFFFFFFF DUP4 GT PUSH2 0xDA3 JUMPI PUSH1 0x20 DUP1 DUP6 ADD SWAP5 DUP5 PUSH1 0x5 SHL ADD ADD GT PUSH2 0xDA3 JUMPI JUMP JUMPDEST DUP2 DUP2 MUL SWAP3 SWAP2 DUP2 ISZERO SWAP2 DUP5 DIV EQ OR ISZERO PUSH2 0xDEC JUMPI JUMP JUMPDEST PUSH4 0x4E487B71 PUSH1 0xE0 SHL PUSH1 0x0 MSTORE PUSH1 0x11 PUSH1 0x4 MSTORE PUSH1 0x24 PUSH1 0x0 REVERT JUMPDEST DUP2 ISZERO PUSH2 0xE0C JUMPI DIV SWAP1 JUMP JUMPDEST PUSH4 0x4E487B71 PUSH1 0xE0 SHL PUSH1 0x0 MSTORE PUSH1 0x12 PUSH1 0x4 MSTORE PUSH1 0x24 PUSH1 0x0 REVERT JUMPDEST SWAP2 SWAP1 DUP2 LT ISZERO PUSH2 0xE32 JUMPI PUSH1 0x5 SHL ADD SWAP1 JUMP JUMPDEST PUSH4 0x4E487B71 PUSH1 0xE0 SHL PUSH1 0x0 MSTORE PUSH1 0x32 PUSH1 0x4 MSTORE PUSH1 0x24 PUSH1 0x0 REVERT JUMPDEST SWAP2 SWAP1 DUP3 ADD DUP1 SWAP3 GT PUSH2 0xDEC JUMPI JUMP JUMPDEST PUSH1 0x0 SWAP2 DUP3 MSTORE PUSH1 0x9 PUSH1 0x20 MSTORE PUSH1 0x40 DUP3 KECCAK256 SWAP1 PUSH1 0xFF PUSH1 0x3 DUP4 ADD SLOAD AND ISZERO DUP1 ISZERO PUSH2 0xEAA JUMPI JUMPDEST PUSH2 0xEA5 JUMPI PUSH2 0xBC9 PUSH1 0x40 PUSH2 0xEA2 SWAP5 PUSH1 0x1 SWAP4 PUSH1 0xA PUSH1 0x20 MSTORE DUP3 DUP3 KECCAK256 SWAP1 DUP6 DUP1 PUSH1 0xA0 SHL SUB AND DUP3 MSTORE PUSH1 0x20 MSTORE KECCAK256 SLOAD DUP4 SLOAD PUSH2 0xDD9 JUMP JUMPDEST SWAP1 JUMP JUMPDEST POP POP SWAP1 JUMP JUMPDEST POP PUSH1 0x1 DUP3 ADD SLOAD ISZERO PUSH2 0xE74 JUMP JUMPDEST CALLDATALOAD PUSH1 0x1 PUSH1 0x1 PUSH1 0xA0 SHL SUB DUP2 AND DUP2 SUB PUSH2 0xDA3 JUMPI SWAP1 JUMP JUMPDEST PUSH1 0x0 DUP1 MLOAD PUSH1 0x20 PUSH2 0xFA8 DUP4 CODECOPY DUP2 MLOAD SWAP2 MSTORE PUSH1 0x2 DUP2 SLOAD EQ PUSH2 0xEE8 JUMPI PUSH1 0x2 SWAP1 SSTORE JUMP JUMPDEST PUSH1 0x40 MLOAD PUSH4 0x3EE5AEB5 PUSH1 0xE0 SHL DUP2 MSTORE PUSH1 0x4 SWAP1 REVERT JUMPDEST PUSH1 0x40 MLOAD PUSH4 0xA9059CBB PUSH1 0xE0 SHL PUSH1 0x0 SWAP1 DUP2 MSTORE PUSH1 0x1 PUSH1 0x1 PUSH1 0xA0 SHL SUB SWAP4 DUP5 AND PUSH1 0x4 MSTORE PUSH1 0x24 SWAP5 SWAP1 SWAP5 MSTORE SWAP3 PUSH1 0x20 SWAP1 PUSH1 0x44 DUP2 DUP1 DUP6 GAS CALL PUSH1 0x1 PUSH1 0x0 MLOAD EQ DUP2 AND ISZERO PUSH2 0xF5B JUMPI JUMPDEST DUP4 PUSH1 0x40 MSTORE ISZERO PUSH2 0xF45 JUMPI POP POP POP JUMP JUMPDEST PUSH4 0x5274AFE7 PUSH1 0xE0 SHL DUP4 MSTORE AND PUSH1 0x4 DUP3 ADD MSTORE PUSH1 0x24 SWAP2 POP REVERT JUMPDEST PUSH1 0x1 DUP2 ISZERO AND PUSH2 0xF71 JUMPI DUP2 EXTCODESIZE ISZERO ISZERO RETURNDATASIZE ISZERO AND AND PUSH2 0xF37 JUMP JUMPDEST DUP4 RETURNDATASIZE PUSH1 0x0 DUP3 RETURNDATACOPY RETURNDATASIZE SWAP1 REVERT JUMPDEST PUSH1 0x0 SLOAD PUSH1 0x1 PUSH1 0x1 PUSH1 0xA0 SHL SUB AND CALLER SUB PUSH2 0xF8F JUMPI JUMP JUMPDEST PUSH1 0x40 MLOAD PUSH4 0x118CDAA7 PUSH1 0xE0 SHL DUP2 MSTORE CALLER PUSH1 0x4 DUP3 ADD MSTORE PUSH1 0x24 SWAP1 REVERT INVALID SWAP12 PUSH24 0x9B17422D0DF92223018B32B4D1FA46E071723D6817E2486D STOP EXTCODESIZE 0xEC 0xC5 PUSH0 STOP LOG2 PUSH5 0x6970667358 0x22 SLT KECCAK256 0xE3 SDIV 0xC0 REVERT KECCAK256 SWAP12 0xEB BALANCE LOG3 CALLDATACOPY DUP4 SWAP14 CALLDATALOAD 0x4D PUSH26 0x737443E686D7270E411B0B750094C4ADBD64736F6C6343000818 STOP CALLER "},"methodIdentifiers":{"acceptOwnership()":"79ba5097","claimMultipleEpochs(uint256[])":"28553148","claimRewards(uint256)":"0962ef79","currentEpoch()":"76671808","depositRewards(uint256)":"8bdf67f2","epochs(uint256)":"c6b61e4c","finalizeEpoch(uint256)":"986bce2c","gasWallet()":"52e199c5","getClaimable(address,uint256)":"6f5244b1","getCurrentEpochInfo()":"babc394f","isDistributor(address)":"8f0c86fa","lastDistributionTime()":"75b17350","minDistributionInterval()":"d3e04000","owner()":"8da5cb5b","pendingOwner()":"e30c3978","pendingRewardPool()":"c7ce2501","protocolWallet()":"06d6e63f","renounceOwnership()":"715018a6","setDistributor(address,bool)":"d59ba0df","setGasWallet(address)":"e45c17e1","setProtocolWallet(address)":"f01e9a8b","setUserWeights(address[],uint256[])":"d2ec602a","sizeToken()":"a6df0831","transferOwnership(address)":"f2fde38b","userEpochWeight(uint256,address)":"455543ea","userRewards(address)":"0660f1e8"}}}}}