{"contracts/SizeStaking.sol":{"SizeStaking":{"abi":[{"inputs":[{"internalType":"address","name":"_sizeToken","type":"address"}],"stateMutability":"nonpayable","type":"constructor"},{"inputs":[{"internalType":"uint256","name":"resultingBalance","type":"uint256"},{"internalType":"uint256","name":"minimum","type":"uint256"}],"name":"BelowMinimumTier","type":"error"},{"inputs":[],"name":"EnforcedPause","type":"error"},{"inputs":[{"internalType":"uint256","name":"requested","type":"uint256"},{"internalType":"uint256","name":"staked","type":"uint256"}],"name":"ExceedsStake","type":"error"},{"inputs":[],"name":"ExpectedPause","type":"error"},{"inputs":[],"name":"NotDepositor","type":"error"},{"inputs":[],"name":"NothingToClaim","type":"error"},{"inputs":[{"internalType":"address","name":"owner","type":"address"}],"name":"OwnableInvalidOwner","type":"error"},{"inputs":[{"internalType":"address","name":"account","type":"address"}],"name":"OwnableUnauthorizedAccount","type":"error"},{"inputs":[],"name":"ReentrancyGuardReentrantCall","type":"error"},{"inputs":[{"internalType":"address","name":"token","type":"address"}],"name":"SafeERC20FailedOperation","type":"error"},{"inputs":[],"name":"ZeroAmount","type":"error"},{"anonymous":false,"inputs":[{"indexed":true,"internalType":"address","name":"depositor","type":"address"},{"indexed":false,"internalType":"bool","name":"status","type":"bool"}],"name":"DepositorUpdated","type":"event"},{"anonymous":false,"inputs":[{"indexed":true,"internalType":"address","name":"user","type":"address"},{"indexed":false,"internalType":"uint256","name":"amount","type":"uint256"}],"name":"EmergencyWithdraw","type":"event"},{"anonymous":false,"inputs":[{"indexed":true,"internalType":"address","name":"previousOwner","type":"address"},{"indexed":true,"internalType":"address","name":"newOwner","type":"address"}],"name":"OwnershipTransferStarted","type":"event"},{"anonymous":false,"inputs":[{"indexed":true,"internalType":"address","name":"previousOwner","type":"address"},{"indexed":true,"internalType":"address","name":"newOwner","type":"address"}],"name":"OwnershipTransferred","type":"event"},{"anonymous":false,"inputs":[{"indexed":false,"internalType":"address","name":"account","type":"address"}],"name":"Paused","type":"event"},{"anonymous":false,"inputs":[{"indexed":true,"internalType":"address","name":"user","type":"address"},{"indexed":false,"internalType":"uint256","name":"amount","type":"uint256"}],"name":"RewardsClaimed","type":"event"},{"anonymous":false,"inputs":[{"indexed":true,"internalType":"address","name":"depositor","type":"address"},{"indexed":false,"internalType":"uint256","name":"amount","type":"uint256"}],"name":"RewardsDeposited","type":"event"},{"anonymous":false,"inputs":[{"indexed":true,"internalType":"address","name":"user","type":"address"},{"indexed":false,"internalType":"uint256","name":"amount","type":"uint256"},{"indexed":false,"internalType":"uint256","name":"newTier","type":"uint256"}],"name":"Staked","type":"event"},{"anonymous":false,"inputs":[{"indexed":false,"internalType":"address","name":"account","type":"address"}],"name":"Unpaused","type":"event"},{"anonymous":false,"inputs":[{"indexed":true,"internalType":"address","name":"user","type":"address"},{"indexed":false,"internalType":"uint256","name":"amount","type":"uint256"},{"indexed":false,"internalType":"uint256","name":"newTier","type":"uint256"}],"name":"Unstaked","type":"event"},{"inputs":[],"name":"GROWER_BOOST","outputs":[{"internalType":"uint256","name":"","type":"uint256"}],"stateMutability":"view","type":"function"},{"inputs":[],"name":"GROWER_MIN","outputs":[{"internalType":"uint256","name":"","type":"uint256"}],"stateMutability":"view","type":"function"},{"inputs":[],"name":"SHLONG_BOOST","outputs":[{"internalType":"uint256","name":"","type":"uint256"}],"stateMutability":"view","type":"function"},{"inputs":[],"name":"SHLONG_MIN","outputs":[{"internalType":"uint256","name":"","type":"uint256"}],"stateMutability":"view","type":"function"},{"inputs":[],"name":"SHOWER_BOOST","outputs":[{"internalType":"uint256","name":"","type":"uint256"}],"stateMutability":"view","type":"function"},{"inputs":[],"name":"SHOWER_MIN","outputs":[{"internalType":"uint256","name":"","type":"uint256"}],"stateMutability":"view","type":"function"},{"inputs":[],"name":"WHALE_BOOST","outputs":[{"internalType":"uint256","name":"","type":"uint256"}],"stateMutability":"view","type":"function"},{"inputs":[],"name":"WHALE_MIN","outputs":[{"internalType":"uint256","name":"","type":"uint256"}],"stateMutability":"view","type":"function"},{"inputs":[],"name":"accRewardPerShare","outputs":[{"internalType":"uint256","name":"","type":"uint256"}],"stateMutability":"view","type":"function"},{"inputs":[],"name":"acceptOwnership","outputs":[],"stateMutability":"nonpayable","type":"function"},{"inputs":[],"name":"bufferedRewards","outputs":[{"internalType":"uint256","name":"","type":"uint256"}],"stateMutability":"view","type":"function"},{"inputs":[],"name":"claimRewards","outputs":[],"stateMutability":"nonpayable","type":"function"},{"inputs":[{"internalType":"uint256","name":"_amount","type":"uint256"}],"name":"depositRewards","outputs":[],"stateMutability":"nonpayable","type":"function"},{"inputs":[],"name":"emergencyWithdraw","outputs":[],"stateMutability":"nonpayable","type":"function"},{"inputs":[{"internalType":"address","name":"_user","type":"address"}],"name":"getBoost","outputs":[{"internalType":"uint256","name":"","type":"uint256"}],"stateMutability":"view","type":"function"},{"inputs":[{"internalType":"address","name":"_user","type":"address"}],"name":"getStakeInfo","outputs":[{"internalType":"uint256","name":"stakedAmount","type":"uint256"},{"internalType":"uint256","name":"pendingRewards","type":"uint256"},{"internalType":"uint256","name":"tier","type":"uint256"},{"internalType":"uint256","name":"boost","type":"uint256"},{"internalType":"uint256","name":"effectiveStake","type":"uint256"}],"stateMutability":"view","type":"function"},{"inputs":[{"internalType":"address","name":"_user","type":"address"}],"name":"getTier","outputs":[{"internalType":"uint256","name":"","type":"uint256"}],"stateMutability":"view","type":"function"},{"inputs":[{"internalType":"address","name":"","type":"address"}],"name":"isDepositor","outputs":[{"internalType":"bool","name":"","type":"bool"}],"stateMutability":"view","type":"function"},{"inputs":[],"name":"owner","outputs":[{"internalType":"address","name":"","type":"address"}],"stateMutability":"view","type":"function"},{"inputs":[],"name":"pause","outputs":[],"stateMutability":"nonpayable","type":"function"},{"inputs":[],"name":"paused","outputs":[{"internalType":"bool","name":"","type":"bool"}],"stateMutability":"view","type":"function"},{"inputs":[],"name":"pendingOwner","outputs":[{"internalType":"address","name":"","type":"address"}],"stateMutability":"view","type":"function"},{"inputs":[],"name":"renounceOwnership","outputs":[],"stateMutability":"nonpayable","type":"function"},{"inputs":[{"internalType":"address","name":"_depositor","type":"address"},{"internalType":"bool","name":"_status","type":"bool"}],"name":"setDepositor","outputs":[],"stateMutability":"nonpayable","type":"function"},{"inputs":[],"name":"sizeToken","outputs":[{"internalType":"contract IERC20","name":"","type":"address"}],"stateMutability":"view","type":"function"},{"inputs":[{"internalType":"uint256","name":"_amount","type":"uint256"}],"name":"stake","outputs":[],"stateMutability":"nonpayable","type":"function"},{"inputs":[{"internalType":"address","name":"","type":"address"}],"name":"stakes","outputs":[{"internalType":"uint256","name":"amount","type":"uint256"},{"internalType":"uint256","name":"rewardDebt","type":"uint256"},{"internalType":"uint256","name":"pendingRewards","type":"uint256"},{"internalType":"uint64","name":"firstStakedAt","type":"uint64"},{"internalType":"uint64","name":"lastStakedAt","type":"uint64"},{"internalType":"uint64","name":"lastClaimAt","type":"uint64"}],"stateMutability":"view","type":"function"},{"inputs":[],"name":"totalEffectiveStaked","outputs":[{"internalType":"uint256","name":"","type":"uint256"}],"stateMutability":"view","type":"function"},{"inputs":[],"name":"totalStaked","outputs":[{"internalType":"uint256","name":"","type":"uint256"}],"stateMutability":"view","type":"function"},{"inputs":[{"internalType":"address","name":"newOwner","type":"address"}],"name":"transferOwnership","outputs":[],"stateMutability":"nonpayable","type":"function"},{"inputs":[],"name":"unpause","outputs":[],"stateMutability":"nonpayable","type":"function"},{"inputs":[{"internalType":"uint256","name":"_amount","type":"uint256"}],"name":"unstake","outputs":[],"stateMutability":"nonpayable","type":"function"}],"evm":{"bytecode":{"linkReferences":{},"object":"60a03461014e57601f6114b538819003918201601f19168301916001600160401b038311848410176101535780849260209460405283398101031261014e57516001600160a01b03908181169081900361014e5760017f9b779b17422d0df92223018b32b4d1fa46e071723d6817e2486d003becc55f0055331561013557600180546001600160a01b031916905560008054610100600160a81b0319811633600881811b610100600160a81b0316929092178455604080519690959391929190911c167f8be0079c531659141344cd1fd0a4f28419497f9722a3daafe3b4186f6b6457e08480a3608052338152600760205220805460ff1916600117905561134b908161016a82396080518181816102fe015281816104b5015281816106340152818161084401528181610ce30152610eaf0152f35b604051631e4fbdf760e01b815260006004820152602490fd5b600080fd5b634e487b7160e01b600052604160045260246000fdfe60806040908082526004918236101561001757600080fd5b600092833560e01c92836316934fc414610f56575082632b2893ba14610f395782632e17de7814610db15782632f70d1ba14610d735782633427919214610d54578263372500ab14610c6e5782633f4ba83a14610c0557826347d6280914610be65782635152f67f14610bc85782635c975abb14610ba6578263679f541814610b8057826367ba3d9014610b465782636f860d7414610ac4578263715018a614610a5657826379ba5097146109b5578263817b1cd2146109965782638456cb591461093d5782638bdf67f2146107fe5782638da5cb5b146107d2578263939d6237146107b35782639a14ef0d1461078e578263a694fc3a146104e4578263a6df0831146104a0578263b45aae521461045f578263c345315314610399578263d4e6c5c414610373578263db2e21bc1461028857508163de0f90931461026b578163e080f07114610246578163e18c7dfc14610229578163e30c3978146101fc575063f2fde38b1461018757600080fd5b346101f95760203660031901126101f9576101a0610fcf565b6101a861118a565b60018060a01b0380911690816bffffffffffffffffffffffff60a01b6001541617600155825460081c167f38d16b8cac22d99fc7c124b9cd0de2d3fa1faef420bfe791d8c362d765e227008380a380f35b80fd5b90503461022557816003193601126102255760015490516001600160a01b039091168152602090f35b5080fd5b90503461022557816003193601126102255760209051614e208152f35b9050346102255781600319360112610225576020905169d3c21bcecceda10000008152f35b905034610225578160031936011261022557602090516127108152f35b91503461036f578260031936011261036f576102a261104d565b338352600260205280832080549283156103615784916002916102db6127106102d36102cd896111b9565b8961101a565b048254610fea565b90556102e985600354610fea565b600355828155826001820155015561032282337f0000000000000000000000000000000000000000000000000000000000000000611109565b519081527f5fafa99d0643513820be26656b45130b01e1c03062e1266bf36f88cbd3bd969560203392a260016000805160206112f68339815191525580f35b8251631f2a200560e01b8152fd5b8280fd5b838234610225578160031936011261022557602090516a52b7d2dcc80cd2e40000008152f35b838234610225576020366003190112610225578060a0926103b8610fcf565b600180861b031681526002602052208054916103d383611290565b6103dc846111b9565b91612710806103eb858861101a565b049460028101549187610414575b50508151958652602086015284015260608301526080820152f35b670de0b6b3a764000061043760019261042d898c61101a565b046005549061101a565b0491015490818111156103f957610458929161045291610fea565b9061100d565b87806103f9565b838234610225576020366003190112610225576020916104999082906001600160a01b0361048b610fcf565b168152600285522054611290565b9051908152f35b838234610225578160031936011261022557517f00000000000000000000000000000000000000000000000000000000000000006001600160a01b03168152602090f35b8382346102255760203660031901126102255782359061050261104d565b61050a61107d565b811561077f57338352600260205280832061052683825461100d565b69152d02c7e14af680000080821061076257506105a9906105463361109b565b825480610739575b5080835561055e8560035461100d565b60035561056a816111b9565b612710906105848261057c838661101a565b048a5461100d565b8955600382610593838661101a565b04670de0b6b3a76400009586916005549061101a565b04956001810196875501805467ffffffffffffffff80821615610721575b505080546fffffffffffffffff0000000000000000191642881b6fffffffffffffffff0000000000000000161790556006548015801580610717575b61068e575b89897f1449c6dd7851abc30abf37f57715f492010519147cc2652fbc38202c18a6ee908a6106588330337f0000000000000000000000000000000000000000000000000000000000000000611223565b338452600260205261066c81852054611290565b815193845260208401523392a260016000805160206112f68339815191525580f35b85820291820486141715610704576106ef9392916106df6106d76106e9937f1449c6dd7851abc30abf37f57715f492010519147cc2652fbc38202c18a6ee909b9c9d549061102d565b60055461100d565b938460055561101a565b0461101a565b04905583600655839291858080808080610608565b634e487b7160e01b895260118a52602489fd5b508a541515610603565b42169067ffffffffffffffff19161781558a806105c7565b6127106107528261074c61075a946111b9565b9061101a565b048854610fea565b87558761054e565b8351630ad6177f60e01b8152808801929092526024820152604490fd5b51631f2a200560e01b81528390fd5b8382346102255781600319360112610225576020905169152d02c7e14af68000008152f35b8382346102255781600319360112610225576020906005549051908152f35b8382346102255781600319360112610225579054905160089190911c6001600160a01b03168152602090f35b91503461036f57602036600319011261036f5781359161081c61104d565b338452600760205260ff82852054161580610923575b610915578215610907576108688330337f0000000000000000000000000000000000000000000000000000000000000000611223565b8054156108f257670de0b6b3a7640000830290670de0b6b3a763ffff19848304016108df5761089c916106d791549061102d565b6005555b519081527fb8b27d0db504fa5d914f1fd330347096e88d5ff94b6c612d32797e7c12a8f66f60203392a260016000805160206112f68339815191525580f35b634e487b7160e01b855260119052602484fd5b506108ff8260065461100d565b6006556108a0565b9051631f2a200560e01b8152fd5b9051633cc50b4560e01b8152fd5b5083543360089190911c6001600160a01b03161415610832565b83823461022557816003193601126102255760207f62e78cea01bee320cd4e420270b5ea74000d11b0c9f74754ebdbfc544b05a2589161097b61118a565b61098361107d565b835460ff1916600117845551338152a180f35b8382346102255781600319360112610225576020906003549051908152f35b9091503461036f578260031936011261036f576001546001600160a01b03929091903384841603610a3f5750506001600160a01b0319166001558154610100600160a81b0319811633600881811b610100600160a81b03169290921785559291901c167f8be0079c531659141344cd1fd0a4f28419497f9722a3daafe3b4186f6b6457e08380a380f35b60249250519063118cdaa760e01b82523390820152fd5b83346101f957806003193601126101f957610a6f61118a565b600180546001600160a01b03191690558054610100600160a81b031981168255819060081c6001600160a01b03167f8be0079c531659141344cd1fd0a4f28419497f9722a3daafe3b4186f6b6457e08280a380f35b838234610225578060031936011261022557610ade610fcf565b60243590811515809203610b42577f39a9d042226d79715733ad9813464b1dc2ac69065753fd66d6678d28371480be91602091610b1961118a565b6001600160a01b031680865260078352848620805460ff191660ff84161790559351908152a280f35b8380fd5b838234610225576020366003190112610225576020916104999082906001600160a01b03610b72610fcf565b1681526002855220546111b9565b838234610225578160031936011261022557602090516a084595161401484a0000008152f35b83823461022557816003193601126102255760ff602092541690519015158152f35b838234610225578160031936011261022557602090516201d4c08152f35b9091503461036f578260031936011261036f5760209250549051908152f35b9091503461036f578260031936011261036f57610c2061118a565b82549060ff821615610c60575060ff19168255513381527f5db9ee0a495bf2e6ff9c91a7834c1ba4fdd244a5e8aa4e537bd38aeae4b073aa90602090a180f35b8251638dfc202b60e01b8152fd5b91503461036f578260031936011261036f57610c8861104d565b610c9061107d565b610c993361109b565b3383526002602052808320600281018054938415610d465750849055600301805467ffffffffffffffff60801b19164260801b67ffffffffffffffff60801b16179055610d0782337f0000000000000000000000000000000000000000000000000000000000000000611109565b519081527ffc30cddea38e2bf4d6ea7d3f9ed3b6ad7f176419f4963bd81318067a4aee73fe60203392a260016000805160206112f68339815191525580f35b83516312d37ee560e31b8152fd5b8382346102255781600319360112610225576020906006549051908152f35b8382346102255760203660031901126102255760209160ff9082906001600160a01b03610d9e610fcf565b1681526007855220541690519015158152f35b83823461022557602036600319011261022557823590610dcf61104d565b610dd761107d565b33835260026020528083208215610f29578054808411610f0d5750610dfb3361109b565b8054610e078482610fea565b9081151580610efa575b610ed357610ea4610e6161042d7f7fc4727e062e336010f2c282598ef5f14facb3de68cf8195c2f23e1454b2b74e979899600195610e69670de0b6b3a764000096612710958161074c88936111b9565b048354610fea565b8255808855610e7a8b600354610fea565b600355610e86816111b9565b91610e9d85610e95858561101a565b04825461100d565b905561101a565b0491015561065883337f0000000000000000000000000000000000000000000000000000000000000000611109565b8351630ad6177f60e01b815280880183905269152d02c7e14af68000006024820152604490fd5b5069152d02c7e14af68000008210610e11565b8560449185855192630fc7737160e31b84528301526024820152fd5b8151631f2a200560e01b81528590fd5b8382346102255781600319360112610225576020905161c3508152f35b9250503461036f57602036600319011261036f5760c09281906001600160a01b03610f7f610fcf565b1681526002602052209081546001830154926003600282015491015492839167ffffffffffffffff958694885260208801528187015282821660608701521c16608084015260801c1660a0820152f35b600435906001600160a01b0382168203610fe557565b600080fd5b91908203918211610ff757565b634e487b7160e01b600052601160045260246000fd5b91908201809211610ff757565b81810292918115918404141715610ff757565b8115611037570490565b634e487b7160e01b600052601260045260246000fd5b6000805160206112f6833981519152600281541461106b5760029055565b604051633ee5aeb560e01b8152600490fd5b60ff6000541661108957565b60405163d93c066560e01b8152600490fd5b6001600160a01b0316600090815260026020526040902080548015611105576110d661271061042d8361074c670de0b6b3a7640000956111b9565b0460018201548082116110e857505050565b6110f760029161110193610fea565b920191825461100d565b9055565b5050565b60405163a9059cbb60e01b60009081526001600160a01b039384166004526024949094529260209060448180855af160016000511481161561116a575b836040521561115457505050565b635274afe760e01b835216600482015260249150fd5b600181151661118057813b15153d151616611146565b833d6000823e3d90fd5b60005460081c6001600160a01b031633036111a157565b60405163118cdaa760e01b8152336004820152602490fd5b6a52b7d2dcc80cd2e400000081101561121b576a084595161401484a0000008110156112145769d3c21bcecceda100000081101561120d5769152d02c7e14af6800000111561120757600090565b61271090565b50614e2090565b5061c35090565b506201d4c090565b6040516323b872dd60e01b60009081526001600160a01b03938416600452938316602452604494909452909160209060648180855af160016000511481161561127a575b8360405260006060521561115457505050565b600181151661118057813b15153d151616611267565b6a52b7d2dcc80cd2e40000008110156112ef576a084595161401484a0000008110156112e95769d3c21bcecceda10000008110156112e35769152d02c7e14af680000011156112de57600090565b600190565b50600290565b50600390565b5060049056fe9b779b17422d0df92223018b32b4d1fa46e071723d6817e2486d003becc55f00a2646970667358221220e447558ff4be0d456d3fb541edc18d6c7bcdbe0ae3d6a77689571524944ae63364736f6c63430008180033","opcodes":"PUSH1 0xA0 CALLVALUE PUSH2 0x14E JUMPI PUSH1 0x1F PUSH2 0x14B5 CODESIZE DUP2 SWAP1 SUB SWAP2 DUP3 ADD PUSH1 0x1F NOT AND DUP4 ADD SWAP2 PUSH1 0x1 PUSH1 0x1 PUSH1 0x40 SHL SUB DUP4 GT DUP5 DUP5 LT OR PUSH2 0x153 JUMPI DUP1 DUP5 SWAP3 PUSH1 0x20 SWAP5 PUSH1 0x40 MSTORE DUP4 CODECOPY DUP2 ADD SUB SLT PUSH2 0x14E JUMPI MLOAD PUSH1 0x1 PUSH1 0x1 PUSH1 0xA0 SHL SUB SWAP1 DUP2 DUP2 AND SWAP1 DUP2 SWAP1 SUB PUSH2 0x14E JUMPI PUSH1 0x1 PUSH32 0x9B779B17422D0DF92223018B32B4D1FA46E071723D6817E2486D003BECC55F00 SSTORE CALLER ISZERO PUSH2 0x135 JUMPI PUSH1 0x1 DUP1 SLOAD PUSH1 0x1 PUSH1 0x1 PUSH1 0xA0 SHL SUB NOT AND SWAP1 SSTORE PUSH1 0x0 DUP1 SLOAD PUSH2 0x100 PUSH1 0x1 PUSH1 0xA8 SHL SUB NOT DUP2 AND CALLER PUSH1 0x8 DUP2 DUP2 SHL PUSH2 0x100 PUSH1 0x1 PUSH1 0xA8 SHL SUB AND SWAP3 SWAP1 SWAP3 OR DUP5 SSTORE PUSH1 0x40 DUP1 MLOAD SWAP7 SWAP1 SWAP6 SWAP4 SWAP2 SWAP3 SWAP2 SWAP1 SWAP2 SHR AND PUSH32 0x8BE0079C531659141344CD1FD0A4F28419497F9722A3DAAFE3B4186F6B6457E0 DUP5 DUP1 LOG3 PUSH1 0x80 MSTORE CALLER DUP2 MSTORE PUSH1 0x7 PUSH1 0x20 MSTORE KECCAK256 DUP1 SLOAD PUSH1 0xFF NOT AND PUSH1 0x1 OR SWAP1 SSTORE PUSH2 0x134B SWAP1 DUP2 PUSH2 0x16A DUP3 CODECOPY PUSH1 0x80 MLOAD DUP2 DUP2 DUP2 PUSH2 0x2FE ADD MSTORE DUP2 DUP2 PUSH2 0x4B5 ADD MSTORE DUP2 DUP2 PUSH2 0x634 ADD MSTORE DUP2 DUP2 PUSH2 0x844 ADD MSTORE DUP2 DUP2 PUSH2 0xCE3 ADD MSTORE PUSH2 0xEAF ADD MSTORE RETURN JUMPDEST PUSH1 0x40 MLOAD PUSH4 0x1E4FBDF7 PUSH1 0xE0 SHL DUP2 MSTORE PUSH1 0x0 PUSH1 0x4 DUP3 ADD MSTORE PUSH1 0x24 SWAP1 REVERT JUMPDEST PUSH1 0x0 DUP1 REVERT JUMPDEST PUSH4 0x4E487B71 PUSH1 0xE0 SHL PUSH1 0x0 MSTORE PUSH1 0x41 PUSH1 0x4 MSTORE PUSH1 0x24 PUSH1 0x0 REVERT INVALID PUSH1 0x80 PUSH1 0x40 SWAP1 DUP1 DUP3 MSTORE PUSH1 0x4 SWAP2 DUP3 CALLDATASIZE LT ISZERO PUSH2 0x17 JUMPI PUSH1 0x0 DUP1 REVERT JUMPDEST PUSH1 0x0 SWAP3 DUP4 CALLDATALOAD PUSH1 0xE0 SHR SWAP3 DUP4 PUSH4 0x16934FC4 EQ PUSH2 0xF56 JUMPI POP DUP3 PUSH4 0x2B2893BA EQ PUSH2 0xF39 JUMPI DUP3 PUSH4 0x2E17DE78 EQ PUSH2 0xDB1 JUMPI DUP3 PUSH4 0x2F70D1BA EQ PUSH2 0xD73 JUMPI DUP3 PUSH4 0x34279192 EQ PUSH2 0xD54 JUMPI DUP3 PUSH4 0x372500AB EQ PUSH2 0xC6E JUMPI DUP3 PUSH4 0x3F4BA83A EQ PUSH2 0xC05 JUMPI DUP3 PUSH4 0x47D62809 EQ PUSH2 0xBE6 JUMPI DUP3 PUSH4 0x5152F67F EQ PUSH2 0xBC8 JUMPI DUP3 PUSH4 0x5C975ABB EQ PUSH2 0xBA6 JUMPI DUP3 PUSH4 0x679F5418 EQ PUSH2 0xB80 JUMPI DUP3 PUSH4 0x67BA3D90 EQ PUSH2 0xB46 JUMPI DUP3 PUSH4 0x6F860D74 EQ PUSH2 0xAC4 JUMPI DUP3 PUSH4 0x715018A6 EQ PUSH2 0xA56 JUMPI DUP3 PUSH4 0x79BA5097 EQ PUSH2 0x9B5 JUMPI DUP3 PUSH4 0x817B1CD2 EQ PUSH2 0x996 JUMPI DUP3 PUSH4 0x8456CB59 EQ PUSH2 0x93D JUMPI DUP3 PUSH4 0x8BDF67F2 EQ PUSH2 0x7FE JUMPI DUP3 PUSH4 0x8DA5CB5B EQ PUSH2 0x7D2 JUMPI DUP3 PUSH4 0x939D6237 EQ PUSH2 0x7B3 JUMPI DUP3 PUSH4 0x9A14EF0D EQ PUSH2 0x78E JUMPI DUP3 PUSH4 0xA694FC3A EQ PUSH2 0x4E4 JUMPI DUP3 PUSH4 0xA6DF0831 EQ PUSH2 0x4A0 JUMPI DUP3 PUSH4 0xB45AAE52 EQ PUSH2 0x45F JUMPI DUP3 PUSH4 0xC3453153 EQ PUSH2 0x399 JUMPI DUP3 PUSH4 0xD4E6C5C4 EQ PUSH2 0x373 JUMPI DUP3 PUSH4 0xDB2E21BC EQ PUSH2 0x288 JUMPI POP DUP2 PUSH4 0xDE0F9093 EQ PUSH2 0x26B JUMPI DUP2 PUSH4 0xE080F071 EQ PUSH2 0x246 JUMPI DUP2 PUSH4 0xE18C7DFC EQ PUSH2 0x229 JUMPI DUP2 PUSH4 0xE30C3978 EQ PUSH2 0x1FC JUMPI POP PUSH4 0xF2FDE38B EQ PUSH2 0x187 JUMPI PUSH1 0x0 DUP1 REVERT JUMPDEST CALLVALUE PUSH2 0x1F9 JUMPI PUSH1 0x20 CALLDATASIZE PUSH1 0x3 NOT ADD SLT PUSH2 0x1F9 JUMPI PUSH2 0x1A0 PUSH2 0xFCF JUMP JUMPDEST PUSH2 0x1A8 PUSH2 0x118A JUMP JUMPDEST PUSH1 0x1 DUP1 PUSH1 0xA0 SHL SUB DUP1 SWAP2 AND SWAP1 DUP2 PUSH12 0xFFFFFFFFFFFFFFFFFFFFFFFF PUSH1 0xA0 SHL PUSH1 0x1 SLOAD AND OR PUSH1 0x1 SSTORE DUP3 SLOAD PUSH1 0x8 SHR AND PUSH32 0x38D16B8CAC22D99FC7C124B9CD0DE2D3FA1FAEF420BFE791D8C362D765E22700 DUP4 DUP1 LOG3 DUP1 RETURN JUMPDEST DUP1 REVERT JUMPDEST SWAP1 POP CALLVALUE PUSH2 0x225 JUMPI DUP2 PUSH1 0x3 NOT CALLDATASIZE ADD SLT PUSH2 0x225 JUMPI PUSH1 0x1 SLOAD SWAP1 MLOAD PUSH1 0x1 PUSH1 0x1 PUSH1 0xA0 SHL SUB SWAP1 SWAP2 AND DUP2 MSTORE PUSH1 0x20 SWAP1 RETURN JUMPDEST POP DUP1 REVERT JUMPDEST SWAP1 POP CALLVALUE PUSH2 0x225 JUMPI DUP2 PUSH1 0x3 NOT CALLDATASIZE ADD SLT PUSH2 0x225 JUMPI PUSH1 0x20 SWAP1 MLOAD PUSH2 0x4E20 DUP2 MSTORE RETURN JUMPDEST SWAP1 POP CALLVALUE PUSH2 0x225 JUMPI DUP2 PUSH1 0x3 NOT CALLDATASIZE ADD SLT PUSH2 0x225 JUMPI PUSH1 0x20 SWAP1 MLOAD PUSH10 0xD3C21BCECCEDA1000000 DUP2 MSTORE RETURN JUMPDEST SWAP1 POP CALLVALUE PUSH2 0x225 JUMPI DUP2 PUSH1 0x3 NOT CALLDATASIZE ADD SLT PUSH2 0x225 JUMPI PUSH1 0x20 SWAP1 MLOAD PUSH2 0x2710 DUP2 MSTORE RETURN JUMPDEST SWAP2 POP CALLVALUE PUSH2 0x36F JUMPI DUP3 PUSH1 0x3 NOT CALLDATASIZE ADD SLT PUSH2 0x36F JUMPI PUSH2 0x2A2 PUSH2 0x104D JUMP JUMPDEST CALLER DUP4 MSTORE PUSH1 0x2 PUSH1 0x20 MSTORE DUP1 DUP4 KECCAK256 DUP1 SLOAD SWAP3 DUP4 ISZERO PUSH2 0x361 JUMPI DUP5 SWAP2 PUSH1 0x2 SWAP2 PUSH2 0x2DB PUSH2 0x2710 PUSH2 0x2D3 PUSH2 0x2CD DUP10 PUSH2 0x11B9 JUMP JUMPDEST DUP10 PUSH2 0x101A JUMP JUMPDEST DIV DUP3 SLOAD PUSH2 0xFEA JUMP JUMPDEST SWAP1 SSTORE PUSH2 0x2E9 DUP6 PUSH1 0x3 SLOAD PUSH2 0xFEA JUMP JUMPDEST PUSH1 0x3 SSTORE DUP3 DUP2 SSTORE DUP3 PUSH1 0x1 DUP3 ADD SSTORE ADD SSTORE PUSH2 0x322 DUP3 CALLER PUSH32 0x0 PUSH2 0x1109 JUMP JUMPDEST MLOAD SWAP1 DUP2 MSTORE PUSH32 0x5FAFA99D0643513820BE26656B45130B01E1C03062E1266BF36F88CBD3BD9695 PUSH1 0x20 CALLER SWAP3 LOG2 PUSH1 0x1 PUSH1 0x0 DUP1 MLOAD PUSH1 0x20 PUSH2 0x12F6 DUP4 CODECOPY DUP2 MLOAD SWAP2 MSTORE SSTORE DUP1 RETURN JUMPDEST DUP3 MLOAD PUSH4 0x1F2A2005 PUSH1 0xE0 SHL DUP2 MSTORE REVERT JUMPDEST DUP3 DUP1 REVERT JUMPDEST DUP4 DUP3 CALLVALUE PUSH2 0x225 JUMPI DUP2 PUSH1 0x3 NOT CALLDATASIZE ADD SLT PUSH2 0x225 JUMPI PUSH1 0x20 SWAP1 MLOAD PUSH11 0x52B7D2DCC80CD2E4000000 DUP2 MSTORE RETURN JUMPDEST DUP4 DUP3 CALLVALUE PUSH2 0x225 JUMPI PUSH1 0x20 CALLDATASIZE PUSH1 0x3 NOT ADD SLT PUSH2 0x225 JUMPI DUP1 PUSH1 0xA0 SWAP3 PUSH2 0x3B8 PUSH2 0xFCF JUMP JUMPDEST PUSH1 0x1 DUP1 DUP7 SHL SUB AND DUP2 MSTORE PUSH1 0x2 PUSH1 0x20 MSTORE KECCAK256 DUP1 SLOAD SWAP2 PUSH2 0x3D3 DUP4 PUSH2 0x1290 JUMP JUMPDEST PUSH2 0x3DC DUP5 PUSH2 0x11B9 JUMP JUMPDEST SWAP2 PUSH2 0x2710 DUP1 PUSH2 0x3EB DUP6 DUP9 PUSH2 0x101A JUMP JUMPDEST DIV SWAP5 PUSH1 0x2 DUP2 ADD SLOAD SWAP2 DUP8 PUSH2 0x414 JUMPI JUMPDEST POP POP DUP2 MLOAD SWAP6 DUP7 MSTORE PUSH1 0x20 DUP7 ADD MSTORE DUP5 ADD MSTORE PUSH1 0x60 DUP4 ADD MSTORE PUSH1 0x80 DUP3 ADD MSTORE RETURN JUMPDEST PUSH8 0xDE0B6B3A7640000 PUSH2 0x437 PUSH1 0x1 SWAP3 PUSH2 0x42D DUP10 DUP13 PUSH2 0x101A JUMP JUMPDEST DIV PUSH1 0x5 SLOAD SWAP1 PUSH2 0x101A JUMP JUMPDEST DIV SWAP2 ADD SLOAD SWAP1 DUP2 DUP2 GT ISZERO PUSH2 0x3F9 JUMPI PUSH2 0x458 SWAP3 SWAP2 PUSH2 0x452 SWAP2 PUSH2 0xFEA JUMP JUMPDEST SWAP1 PUSH2 0x100D JUMP JUMPDEST DUP8 DUP1 PUSH2 0x3F9 JUMP JUMPDEST DUP4 DUP3 CALLVALUE PUSH2 0x225 JUMPI PUSH1 0x20 CALLDATASIZE PUSH1 0x3 NOT ADD SLT PUSH2 0x225 JUMPI PUSH1 0x20 SWAP2 PUSH2 0x499 SWAP1 DUP3 SWAP1 PUSH1 0x1 PUSH1 0x1 PUSH1 0xA0 SHL SUB PUSH2 0x48B PUSH2 0xFCF JUMP JUMPDEST AND DUP2 MSTORE PUSH1 0x2 DUP6 MSTORE KECCAK256 SLOAD PUSH2 0x1290 JUMP JUMPDEST SWAP1 MLOAD SWAP1 DUP2 MSTORE RETURN JUMPDEST DUP4 DUP3 CALLVALUE PUSH2 0x225 JUMPI DUP2 PUSH1 0x3 NOT CALLDATASIZE ADD SLT PUSH2 0x225 JUMPI MLOAD PUSH32 0x0 PUSH1 0x1 PUSH1 0x1 PUSH1 0xA0 SHL SUB AND DUP2 MSTORE PUSH1 0x20 SWAP1 RETURN JUMPDEST DUP4 DUP3 CALLVALUE PUSH2 0x225 JUMPI PUSH1 0x20 CALLDATASIZE PUSH1 0x3 NOT ADD SLT PUSH2 0x225 JUMPI DUP3 CALLDATALOAD SWAP1 PUSH2 0x502 PUSH2 0x104D JUMP JUMPDEST PUSH2 0x50A PUSH2 0x107D JUMP JUMPDEST DUP2 ISZERO PUSH2 0x77F JUMPI CALLER DUP4 MSTORE PUSH1 0x2 PUSH1 0x20 MSTORE DUP1 DUP4 KECCAK256 PUSH2 0x526 DUP4 DUP3 SLOAD PUSH2 0x100D JUMP JUMPDEST PUSH10 0x152D02C7E14AF6800000 DUP1 DUP3 LT PUSH2 0x762 JUMPI POP PUSH2 0x5A9 SWAP1 PUSH2 0x546 CALLER PUSH2 0x109B JUMP JUMPDEST DUP3 SLOAD DUP1 PUSH2 0x739 JUMPI JUMPDEST POP DUP1 DUP4 SSTORE PUSH2 0x55E DUP6 PUSH1 0x3 SLOAD PUSH2 0x100D JUMP JUMPDEST PUSH1 0x3 SSTORE PUSH2 0x56A DUP2 PUSH2 0x11B9 JUMP JUMPDEST PUSH2 0x2710 SWAP1 PUSH2 0x584 DUP3 PUSH2 0x57C DUP4 DUP7 PUSH2 0x101A JUMP JUMPDEST DIV DUP11 SLOAD PUSH2 0x100D JUMP JUMPDEST DUP10 SSTORE PUSH1 0x3 DUP3 PUSH2 0x593 DUP4 DUP7 PUSH2 0x101A JUMP JUMPDEST DIV PUSH8 0xDE0B6B3A7640000 SWAP6 DUP7 SWAP2 PUSH1 0x5 SLOAD SWAP1 PUSH2 0x101A JUMP JUMPDEST DIV SWAP6 PUSH1 0x1 DUP2 ADD SWAP7 DUP8 SSTORE ADD DUP1 SLOAD PUSH8 0xFFFFFFFFFFFFFFFF DUP1 DUP3 AND ISZERO PUSH2 0x721 JUMPI JUMPDEST POP POP DUP1 SLOAD PUSH16 0xFFFFFFFFFFFFFFFF0000000000000000 NOT AND TIMESTAMP DUP9 SHL PUSH16 0xFFFFFFFFFFFFFFFF0000000000000000 AND OR SWAP1 SSTORE PUSH1 0x6 SLOAD DUP1 ISZERO DUP1 ISZERO DUP1 PUSH2 0x717 JUMPI JUMPDEST PUSH2 0x68E JUMPI JUMPDEST DUP10 DUP10 PUSH32 0x1449C6DD7851ABC30ABF37F57715F492010519147CC2652FBC38202C18A6EE90 DUP11 PUSH2 0x658 DUP4 ADDRESS CALLER PUSH32 0x0 PUSH2 0x1223 JUMP JUMPDEST CALLER DUP5 MSTORE PUSH1 0x2 PUSH1 0x20 MSTORE PUSH2 0x66C DUP2 DUP6 KECCAK256 SLOAD PUSH2 0x1290 JUMP JUMPDEST DUP2 MLOAD SWAP4 DUP5 MSTORE PUSH1 0x20 DUP5 ADD MSTORE CALLER SWAP3 LOG2 PUSH1 0x1 PUSH1 0x0 DUP1 MLOAD PUSH1 0x20 PUSH2 0x12F6 DUP4 CODECOPY DUP2 MLOAD SWAP2 MSTORE SSTORE DUP1 RETURN JUMPDEST DUP6 DUP3 MUL SWAP2 DUP3 DIV DUP7 EQ OR ISZERO PUSH2 0x704 JUMPI PUSH2 0x6EF SWAP4 SWAP3 SWAP2 PUSH2 0x6DF PUSH2 0x6D7 PUSH2 0x6E9 SWAP4 PUSH32 0x1449C6DD7851ABC30ABF37F57715F492010519147CC2652FBC38202C18A6EE90 SWAP12 SWAP13 SWAP14 SLOAD SWAP1 PUSH2 0x102D JUMP JUMPDEST PUSH1 0x5 SLOAD PUSH2 0x100D JUMP JUMPDEST SWAP4 DUP5 PUSH1 0x5 SSTORE PUSH2 0x101A JUMP JUMPDEST DIV PUSH2 0x101A JUMP JUMPDEST DIV SWAP1 SSTORE DUP4 PUSH1 0x6 SSTORE DUP4 SWAP3 SWAP2 DUP6 DUP1 DUP1 DUP1 DUP1 DUP1 PUSH2 0x608 JUMP JUMPDEST PUSH4 0x4E487B71 PUSH1 0xE0 SHL DUP10 MSTORE PUSH1 0x11 DUP11 MSTORE PUSH1 0x24 DUP10 REVERT JUMPDEST POP DUP11 SLOAD ISZERO ISZERO PUSH2 0x603 JUMP JUMPDEST TIMESTAMP AND SWAP1 PUSH8 0xFFFFFFFFFFFFFFFF NOT AND OR DUP2 SSTORE DUP11 DUP1 PUSH2 0x5C7 JUMP JUMPDEST PUSH2 0x2710 PUSH2 0x752 DUP3 PUSH2 0x74C PUSH2 0x75A SWAP5 PUSH2 0x11B9 JUMP JUMPDEST SWAP1 PUSH2 0x101A JUMP JUMPDEST DIV DUP9 SLOAD PUSH2 0xFEA JUMP JUMPDEST DUP8 SSTORE DUP8 PUSH2 0x54E JUMP JUMPDEST DUP4 MLOAD PUSH4 0xAD6177F PUSH1 0xE0 SHL DUP2 MSTORE DUP1 DUP9 ADD SWAP3 SWAP1 SWAP3 MSTORE PUSH1 0x24 DUP3 ADD MSTORE PUSH1 0x44 SWAP1 REVERT JUMPDEST MLOAD PUSH4 0x1F2A2005 PUSH1 0xE0 SHL DUP2 MSTORE DUP4 SWAP1 REVERT JUMPDEST DUP4 DUP3 CALLVALUE PUSH2 0x225 JUMPI DUP2 PUSH1 0x3 NOT CALLDATASIZE ADD SLT PUSH2 0x225 JUMPI PUSH1 0x20 SWAP1 MLOAD PUSH10 0x152D02C7E14AF6800000 DUP2 MSTORE RETURN JUMPDEST DUP4 DUP3 CALLVALUE PUSH2 0x225 JUMPI DUP2 PUSH1 0x3 NOT CALLDATASIZE ADD SLT PUSH2 0x225 JUMPI PUSH1 0x20 SWAP1 PUSH1 0x5 SLOAD SWAP1 MLOAD SWAP1 DUP2 MSTORE RETURN JUMPDEST DUP4 DUP3 CALLVALUE PUSH2 0x225 JUMPI DUP2 PUSH1 0x3 NOT CALLDATASIZE ADD SLT PUSH2 0x225 JUMPI SWAP1 SLOAD SWAP1 MLOAD PUSH1 0x8 SWAP2 SWAP1 SWAP2 SHR PUSH1 0x1 PUSH1 0x1 PUSH1 0xA0 SHL SUB AND DUP2 MSTORE PUSH1 0x20 SWAP1 RETURN JUMPDEST SWAP2 POP CALLVALUE PUSH2 0x36F JUMPI PUSH1 0x20 CALLDATASIZE PUSH1 0x3 NOT ADD SLT PUSH2 0x36F JUMPI DUP2 CALLDATALOAD SWAP2 PUSH2 0x81C PUSH2 0x104D JUMP JUMPDEST CALLER DUP5 MSTORE PUSH1 0x7 PUSH1 0x20 MSTORE PUSH1 0xFF DUP3 DUP6 KECCAK256 SLOAD AND ISZERO DUP1 PUSH2 0x923 JUMPI JUMPDEST PUSH2 0x915 JUMPI DUP3 ISZERO PUSH2 0x907 JUMPI PUSH2 0x868 DUP4 ADDRESS CALLER PUSH32 0x0 PUSH2 0x1223 JUMP JUMPDEST DUP1 SLOAD ISZERO PUSH2 0x8F2 JUMPI PUSH8 0xDE0B6B3A7640000 DUP4 MUL SWAP1 PUSH8 0xDE0B6B3A763FFFF NOT DUP5 DUP4 DIV ADD PUSH2 0x8DF JUMPI PUSH2 0x89C SWAP2 PUSH2 0x6D7 SWAP2 SLOAD SWAP1 PUSH2 0x102D JUMP JUMPDEST PUSH1 0x5 SSTORE JUMPDEST MLOAD SWAP1 DUP2 MSTORE PUSH32 0xB8B27D0DB504FA5D914F1FD330347096E88D5FF94B6C612D32797E7C12A8F66F PUSH1 0x20 CALLER SWAP3 LOG2 PUSH1 0x1 PUSH1 0x0 DUP1 MLOAD PUSH1 0x20 PUSH2 0x12F6 DUP4 CODECOPY DUP2 MLOAD SWAP2 MSTORE SSTORE DUP1 RETURN JUMPDEST PUSH4 0x4E487B71 PUSH1 0xE0 SHL DUP6 MSTORE PUSH1 0x11 SWAP1 MSTORE PUSH1 0x24 DUP5 REVERT JUMPDEST POP PUSH2 0x8FF DUP3 PUSH1 0x6 SLOAD PUSH2 0x100D JUMP JUMPDEST PUSH1 0x6 SSTORE PUSH2 0x8A0 JUMP JUMPDEST SWAP1 MLOAD PUSH4 0x1F2A2005 PUSH1 0xE0 SHL DUP2 MSTORE REVERT JUMPDEST SWAP1 MLOAD PUSH4 0x3CC50B45 PUSH1 0xE0 SHL DUP2 MSTORE REVERT JUMPDEST POP DUP4 SLOAD CALLER PUSH1 0x8 SWAP2 SWAP1 SWAP2 SHR PUSH1 0x1 PUSH1 0x1 PUSH1 0xA0 SHL SUB AND EQ ISZERO PUSH2 0x832 JUMP JUMPDEST DUP4 DUP3 CALLVALUE PUSH2 0x225 JUMPI DUP2 PUSH1 0x3 NOT CALLDATASIZE ADD SLT PUSH2 0x225 JUMPI PUSH1 0x20 PUSH32 0x62E78CEA01BEE320CD4E420270B5EA74000D11B0C9F74754EBDBFC544B05A258 SWAP2 PUSH2 0x97B PUSH2 0x118A JUMP JUMPDEST PUSH2 0x983 PUSH2 0x107D JUMP JUMPDEST DUP4 SLOAD PUSH1 0xFF NOT AND PUSH1 0x1 OR DUP5 SSTORE MLOAD CALLER DUP2 MSTORE LOG1 DUP1 RETURN JUMPDEST DUP4 DUP3 CALLVALUE PUSH2 0x225 JUMPI DUP2 PUSH1 0x3 NOT CALLDATASIZE ADD SLT PUSH2 0x225 JUMPI PUSH1 0x20 SWAP1 PUSH1 0x3 SLOAD SWAP1 MLOAD SWAP1 DUP2 MSTORE RETURN JUMPDEST SWAP1 SWAP2 POP CALLVALUE PUSH2 0x36F JUMPI DUP3 PUSH1 0x3 NOT CALLDATASIZE ADD SLT PUSH2 0x36F JUMPI PUSH1 0x1 SLOAD PUSH1 0x1 PUSH1 0x1 PUSH1 0xA0 SHL SUB SWAP3 SWAP1 SWAP2 SWAP1 CALLER DUP5 DUP5 AND SUB PUSH2 0xA3F JUMPI POP POP PUSH1 0x1 PUSH1 0x1 PUSH1 0xA0 SHL SUB NOT AND PUSH1 0x1 SSTORE DUP2 SLOAD PUSH2 0x100 PUSH1 0x1 PUSH1 0xA8 SHL SUB NOT DUP2 AND CALLER PUSH1 0x8 DUP2 DUP2 SHL PUSH2 0x100 PUSH1 0x1 PUSH1 0xA8 SHL SUB AND SWAP3 SWAP1 SWAP3 OR DUP6 SSTORE SWAP3 SWAP2 SWAP1 SHR AND PUSH32 0x8BE0079C531659141344CD1FD0A4F28419497F9722A3DAAFE3B4186F6B6457E0 DUP4 DUP1 LOG3 DUP1 RETURN JUMPDEST PUSH1 0x24 SWAP3 POP MLOAD SWAP1 PUSH4 0x118CDAA7 PUSH1 0xE0 SHL DUP3 MSTORE CALLER SWAP1 DUP3 ADD MSTORE REVERT JUMPDEST DUP4 CALLVALUE PUSH2 0x1F9 JUMPI DUP1 PUSH1 0x3 NOT CALLDATASIZE ADD SLT PUSH2 0x1F9 JUMPI PUSH2 0xA6F PUSH2 0x118A JUMP JUMPDEST PUSH1 0x1 DUP1 SLOAD PUSH1 0x1 PUSH1 0x1 PUSH1 0xA0 SHL SUB NOT AND SWAP1 SSTORE DUP1 SLOAD PUSH2 0x100 PUSH1 0x1 PUSH1 0xA8 SHL SUB NOT DUP2 AND DUP3 SSTORE DUP2 SWAP1 PUSH1 0x8 SHR PUSH1 0x1 PUSH1 0x1 PUSH1 0xA0 SHL SUB AND PUSH32 0x8BE0079C531659141344CD1FD0A4F28419497F9722A3DAAFE3B4186F6B6457E0 DUP3 DUP1 LOG3 DUP1 RETURN JUMPDEST DUP4 DUP3 CALLVALUE PUSH2 0x225 JUMPI DUP1 PUSH1 0x3 NOT CALLDATASIZE ADD SLT PUSH2 0x225 JUMPI PUSH2 0xADE PUSH2 0xFCF JUMP JUMPDEST PUSH1 0x24 CALLDATALOAD SWAP1 DUP2 ISZERO ISZERO DUP1 SWAP3 SUB PUSH2 0xB42 JUMPI PUSH32 0x39A9D042226D79715733AD9813464B1DC2AC69065753FD66D6678D28371480BE SWAP2 PUSH1 0x20 SWAP2 PUSH2 0xB19 PUSH2 0x118A JUMP JUMPDEST PUSH1 0x1 PUSH1 0x1 PUSH1 0xA0 SHL SUB AND DUP1 DUP7 MSTORE PUSH1 0x7 DUP4 MSTORE DUP5 DUP7 KECCAK256 DUP1 SLOAD PUSH1 0xFF NOT AND PUSH1 0xFF DUP5 AND OR SWAP1 SSTORE SWAP4 MLOAD SWAP1 DUP2 MSTORE LOG2 DUP1 RETURN JUMPDEST DUP4 DUP1 REVERT JUMPDEST DUP4 DUP3 CALLVALUE PUSH2 0x225 JUMPI PUSH1 0x20 CALLDATASIZE PUSH1 0x3 NOT ADD SLT PUSH2 0x225 JUMPI PUSH1 0x20 SWAP2 PUSH2 0x499 SWAP1 DUP3 SWAP1 PUSH1 0x1 PUSH1 0x1 PUSH1 0xA0 SHL SUB PUSH2 0xB72 PUSH2 0xFCF JUMP JUMPDEST AND DUP2 MSTORE PUSH1 0x2 DUP6 MSTORE KECCAK256 SLOAD PUSH2 0x11B9 JUMP JUMPDEST DUP4 DUP3 CALLVALUE PUSH2 0x225 JUMPI DUP2 PUSH1 0x3 NOT CALLDATASIZE ADD SLT PUSH2 0x225 JUMPI PUSH1 0x20 SWAP1 MLOAD PUSH11 0x84595161401484A000000 DUP2 MSTORE RETURN JUMPDEST DUP4 DUP3 CALLVALUE PUSH2 0x225 JUMPI DUP2 PUSH1 0x3 NOT CALLDATASIZE ADD SLT PUSH2 0x225 JUMPI PUSH1 0xFF PUSH1 0x20 SWAP3 SLOAD AND SWAP1 MLOAD SWAP1 ISZERO ISZERO DUP2 MSTORE RETURN JUMPDEST DUP4 DUP3 CALLVALUE PUSH2 0x225 JUMPI DUP2 PUSH1 0x3 NOT CALLDATASIZE ADD SLT PUSH2 0x225 JUMPI PUSH1 0x20 SWAP1 MLOAD PUSH3 0x1D4C0 DUP2 MSTORE RETURN JUMPDEST SWAP1 SWAP2 POP CALLVALUE PUSH2 0x36F JUMPI DUP3 PUSH1 0x3 NOT CALLDATASIZE ADD SLT PUSH2 0x36F JUMPI PUSH1 0x20 SWAP3 POP SLOAD SWAP1 MLOAD SWAP1 DUP2 MSTORE RETURN JUMPDEST SWAP1 SWAP2 POP CALLVALUE PUSH2 0x36F JUMPI DUP3 PUSH1 0x3 NOT CALLDATASIZE ADD SLT PUSH2 0x36F JUMPI PUSH2 0xC20 PUSH2 0x118A JUMP JUMPDEST DUP3 SLOAD SWAP1 PUSH1 0xFF DUP3 AND ISZERO PUSH2 0xC60 JUMPI POP PUSH1 0xFF NOT AND DUP3 SSTORE MLOAD CALLER DUP2 MSTORE PUSH32 0x5DB9EE0A495BF2E6FF9C91A7834C1BA4FDD244A5E8AA4E537BD38AEAE4B073AA SWAP1 PUSH1 0x20 SWAP1 LOG1 DUP1 RETURN JUMPDEST DUP3 MLOAD PUSH4 0x8DFC202B PUSH1 0xE0 SHL DUP2 MSTORE REVERT JUMPDEST SWAP2 POP CALLVALUE PUSH2 0x36F JUMPI DUP3 PUSH1 0x3 NOT CALLDATASIZE ADD SLT PUSH2 0x36F JUMPI PUSH2 0xC88 PUSH2 0x104D JUMP JUMPDEST PUSH2 0xC90 PUSH2 0x107D JUMP JUMPDEST PUSH2 0xC99 CALLER PUSH2 0x109B JUMP JUMPDEST CALLER DUP4 MSTORE PUSH1 0x2 PUSH1 0x20 MSTORE DUP1 DUP4 KECCAK256 PUSH1 0x2 DUP2 ADD DUP1 SLOAD SWAP4 DUP5 ISZERO PUSH2 0xD46 JUMPI POP DUP5 SWAP1 SSTORE PUSH1 0x3 ADD DUP1 SLOAD PUSH8 0xFFFFFFFFFFFFFFFF PUSH1 0x80 SHL NOT AND TIMESTAMP PUSH1 0x80 SHL PUSH8 0xFFFFFFFFFFFFFFFF PUSH1 0x80 SHL AND OR SWAP1 SSTORE PUSH2 0xD07 DUP3 CALLER PUSH32 0x0 PUSH2 0x1109 JUMP JUMPDEST MLOAD SWAP1 DUP2 MSTORE PUSH32 0xFC30CDDEA38E2BF4D6EA7D3F9ED3B6AD7F176419F4963BD81318067A4AEE73FE PUSH1 0x20 CALLER SWAP3 LOG2 PUSH1 0x1 PUSH1 0x0 DUP1 MLOAD PUSH1 0x20 PUSH2 0x12F6 DUP4 CODECOPY DUP2 MLOAD SWAP2 MSTORE SSTORE DUP1 RETURN JUMPDEST DUP4 MLOAD PUSH4 0x12D37EE5 PUSH1 0xE3 SHL DUP2 MSTORE REVERT JUMPDEST DUP4 DUP3 CALLVALUE PUSH2 0x225 JUMPI DUP2 PUSH1 0x3 NOT CALLDATASIZE ADD SLT PUSH2 0x225 JUMPI PUSH1 0x20 SWAP1 PUSH1 0x6 SLOAD SWAP1 MLOAD SWAP1 DUP2 MSTORE RETURN JUMPDEST DUP4 DUP3 CALLVALUE PUSH2 0x225 JUMPI PUSH1 0x20 CALLDATASIZE PUSH1 0x3 NOT ADD SLT PUSH2 0x225 JUMPI PUSH1 0x20 SWAP2 PUSH1 0xFF SWAP1 DUP3 SWAP1 PUSH1 0x1 PUSH1 0x1 PUSH1 0xA0 SHL SUB PUSH2 0xD9E PUSH2 0xFCF JUMP JUMPDEST AND DUP2 MSTORE PUSH1 0x7 DUP6 MSTORE KECCAK256 SLOAD AND SWAP1 MLOAD SWAP1 ISZERO ISZERO DUP2 MSTORE RETURN JUMPDEST DUP4 DUP3 CALLVALUE PUSH2 0x225 JUMPI PUSH1 0x20 CALLDATASIZE PUSH1 0x3 NOT ADD SLT PUSH2 0x225 JUMPI DUP3 CALLDATALOAD SWAP1 PUSH2 0xDCF PUSH2 0x104D JUMP JUMPDEST PUSH2 0xDD7 PUSH2 0x107D JUMP JUMPDEST CALLER DUP4 MSTORE PUSH1 0x2 PUSH1 0x20 MSTORE DUP1 DUP4 KECCAK256 DUP3 ISZERO PUSH2 0xF29 JUMPI DUP1 SLOAD DUP1 DUP5 GT PUSH2 0xF0D JUMPI POP PUSH2 0xDFB CALLER PUSH2 0x109B JUMP JUMPDEST DUP1 SLOAD PUSH2 0xE07 DUP5 DUP3 PUSH2 0xFEA JUMP JUMPDEST SWAP1 DUP2 ISZERO ISZERO DUP1 PUSH2 0xEFA JUMPI JUMPDEST PUSH2 0xED3 JUMPI PUSH2 0xEA4 PUSH2 0xE61 PUSH2 0x42D PUSH32 0x7FC4727E062E336010F2C282598EF5F14FACB3DE68CF8195C2F23E1454B2B74E SWAP8 SWAP9 SWAP10 PUSH1 0x1 SWAP6 PUSH2 0xE69 PUSH8 0xDE0B6B3A7640000 SWAP7 PUSH2 0x2710 SWAP6 DUP2 PUSH2 0x74C DUP9 SWAP4 PUSH2 0x11B9 JUMP JUMPDEST DIV DUP4 SLOAD PUSH2 0xFEA JUMP JUMPDEST DUP3 SSTORE DUP1 DUP9 SSTORE PUSH2 0xE7A DUP12 PUSH1 0x3 SLOAD PUSH2 0xFEA JUMP JUMPDEST PUSH1 0x3 SSTORE PUSH2 0xE86 DUP2 PUSH2 0x11B9 JUMP JUMPDEST SWAP2 PUSH2 0xE9D DUP6 PUSH2 0xE95 DUP6 DUP6 PUSH2 0x101A JUMP JUMPDEST DIV DUP3 SLOAD PUSH2 0x100D JUMP JUMPDEST SWAP1 SSTORE PUSH2 0x101A JUMP JUMPDEST DIV SWAP2 ADD SSTORE PUSH2 0x658 DUP4 CALLER PUSH32 0x0 PUSH2 0x1109 JUMP JUMPDEST DUP4 MLOAD PUSH4 0xAD6177F PUSH1 0xE0 SHL DUP2 MSTORE DUP1 DUP9 ADD DUP4 SWAP1 MSTORE PUSH10 0x152D02C7E14AF6800000 PUSH1 0x24 DUP3 ADD MSTORE PUSH1 0x44 SWAP1 REVERT JUMPDEST POP PUSH10 0x152D02C7E14AF6800000 DUP3 LT PUSH2 0xE11 JUMP JUMPDEST DUP6 PUSH1 0x44 SWAP2 DUP6 DUP6 MLOAD SWAP3 PUSH4 0xFC77371 PUSH1 0xE3 SHL DUP5 MSTORE DUP4 ADD MSTORE PUSH1 0x24 DUP3 ADD MSTORE REVERT JUMPDEST DUP2 MLOAD PUSH4 0x1F2A2005 PUSH1 0xE0 SHL DUP2 MSTORE DUP6 SWAP1 REVERT JUMPDEST DUP4 DUP3 CALLVALUE PUSH2 0x225 JUMPI DUP2 PUSH1 0x3 NOT CALLDATASIZE ADD SLT PUSH2 0x225 JUMPI PUSH1 0x20 SWAP1 MLOAD PUSH2 0xC350 DUP2 MSTORE RETURN JUMPDEST SWAP3 POP POP CALLVALUE PUSH2 0x36F JUMPI PUSH1 0x20 CALLDATASIZE PUSH1 0x3 NOT ADD SLT PUSH2 0x36F JUMPI PUSH1 0xC0 SWAP3 DUP2 SWAP1 PUSH1 0x1 PUSH1 0x1 PUSH1 0xA0 SHL SUB PUSH2 0xF7F PUSH2 0xFCF JUMP JUMPDEST AND DUP2 MSTORE PUSH1 0x2 PUSH1 0x20 MSTORE KECCAK256 SWAP1 DUP2 SLOAD PUSH1 0x1 DUP4 ADD SLOAD SWAP3 PUSH1 0x3 PUSH1 0x2 DUP3 ADD SLOAD SWAP2 ADD SLOAD SWAP3 DUP4 SWAP2 PUSH8 0xFFFFFFFFFFFFFFFF SWAP6 DUP7 SWAP5 DUP9 MSTORE PUSH1 0x20 DUP9 ADD MSTORE DUP2 DUP8 ADD MSTORE DUP3 DUP3 AND PUSH1 0x60 DUP8 ADD MSTORE SHR AND PUSH1 0x80 DUP5 ADD MSTORE PUSH1 0x80 SHR AND PUSH1 0xA0 DUP3 ADD MSTORE RETURN JUMPDEST PUSH1 0x4 CALLDATALOAD SWAP1 PUSH1 0x1 PUSH1 0x1 PUSH1 0xA0 SHL SUB DUP3 AND DUP3 SUB PUSH2 0xFE5 JUMPI JUMP JUMPDEST PUSH1 0x0 DUP1 REVERT JUMPDEST SWAP2 SWAP1 DUP3 SUB SWAP2 DUP3 GT PUSH2 0xFF7 JUMPI JUMP JUMPDEST PUSH4 0x4E487B71 PUSH1 0xE0 SHL PUSH1 0x0 MSTORE PUSH1 0x11 PUSH1 0x4 MSTORE PUSH1 0x24 PUSH1 0x0 REVERT JUMPDEST SWAP2 SWAP1 DUP3 ADD DUP1 SWAP3 GT PUSH2 0xFF7 JUMPI JUMP JUMPDEST DUP2 DUP2 MUL SWAP3 SWAP2 DUP2 ISZERO SWAP2 DUP5 DIV EQ OR ISZERO PUSH2 0xFF7 JUMPI JUMP JUMPDEST DUP2 ISZERO PUSH2 0x1037 JUMPI DIV SWAP1 JUMP JUMPDEST PUSH4 0x4E487B71 PUSH1 0xE0 SHL PUSH1 0x0 MSTORE PUSH1 0x12 PUSH1 0x4 MSTORE PUSH1 0x24 PUSH1 0x0 REVERT JUMPDEST PUSH1 0x0 DUP1 MLOAD PUSH1 0x20 PUSH2 0x12F6 DUP4 CODECOPY DUP2 MLOAD SWAP2 MSTORE PUSH1 0x2 DUP2 SLOAD EQ PUSH2 0x106B JUMPI PUSH1 0x2 SWAP1 SSTORE JUMP JUMPDEST PUSH1 0x40 MLOAD PUSH4 0x3EE5AEB5 PUSH1 0xE0 SHL DUP2 MSTORE PUSH1 0x4 SWAP1 REVERT JUMPDEST PUSH1 0xFF PUSH1 0x0 SLOAD AND PUSH2 0x1089 JUMPI JUMP JUMPDEST PUSH1 0x40 MLOAD PUSH4 0xD93C0665 PUSH1 0xE0 SHL DUP2 MSTORE PUSH1 0x4 SWAP1 REVERT JUMPDEST PUSH1 0x1 PUSH1 0x1 PUSH1 0xA0 SHL SUB AND PUSH1 0x0 SWAP1 DUP2 MSTORE PUSH1 0x2 PUSH1 0x20 MSTORE PUSH1 0x40 SWAP1 KECCAK256 DUP1 SLOAD DUP1 ISZERO PUSH2 0x1105 JUMPI PUSH2 0x10D6 PUSH2 0x2710 PUSH2 0x42D DUP4 PUSH2 0x74C PUSH8 0xDE0B6B3A7640000 SWAP6 PUSH2 0x11B9 JUMP JUMPDEST DIV PUSH1 0x1 DUP3 ADD SLOAD DUP1 DUP3 GT PUSH2 0x10E8 JUMPI POP POP POP JUMP JUMPDEST PUSH2 0x10F7 PUSH1 0x2 SWAP2 PUSH2 0x1101 SWAP4 PUSH2 0xFEA JUMP JUMPDEST SWAP3 ADD SWAP2 DUP3 SLOAD PUSH2 0x100D JUMP JUMPDEST SWAP1 SSTORE JUMP JUMPDEST POP POP JUMP JUMPDEST PUSH1 0x40 MLOAD PUSH4 0xA9059CBB PUSH1 0xE0 SHL PUSH1 0x0 SWAP1 DUP2 MSTORE PUSH1 0x1 PUSH1 0x1 PUSH1 0xA0 SHL SUB SWAP4 DUP5 AND PUSH1 0x4 MSTORE PUSH1 0x24 SWAP5 SWAP1 SWAP5 MSTORE SWAP3 PUSH1 0x20 SWAP1 PUSH1 0x44 DUP2 DUP1 DUP6 GAS CALL PUSH1 0x1 PUSH1 0x0 MLOAD EQ DUP2 AND ISZERO PUSH2 0x116A JUMPI JUMPDEST DUP4 PUSH1 0x40 MSTORE ISZERO PUSH2 0x1154 JUMPI POP POP POP JUMP JUMPDEST PUSH4 0x5274AFE7 PUSH1 0xE0 SHL DUP4 MSTORE AND PUSH1 0x4 DUP3 ADD MSTORE PUSH1 0x24 SWAP2 POP REVERT JUMPDEST PUSH1 0x1 DUP2 ISZERO AND PUSH2 0x1180 JUMPI DUP2 EXTCODESIZE ISZERO ISZERO RETURNDATASIZE ISZERO AND AND PUSH2 0x1146 JUMP JUMPDEST DUP4 RETURNDATASIZE PUSH1 0x0 DUP3 RETURNDATACOPY RETURNDATASIZE SWAP1 REVERT JUMPDEST PUSH1 0x0 SLOAD PUSH1 0x8 SHR PUSH1 0x1 PUSH1 0x1 PUSH1 0xA0 SHL SUB AND CALLER SUB PUSH2 0x11A1 JUMPI JUMP JUMPDEST PUSH1 0x40 MLOAD PUSH4 0x118CDAA7 PUSH1 0xE0 SHL DUP2 MSTORE CALLER PUSH1 0x4 DUP3 ADD MSTORE PUSH1 0x24 SWAP1 REVERT JUMPDEST PUSH11 0x52B7D2DCC80CD2E4000000 DUP2 LT ISZERO PUSH2 0x121B JUMPI PUSH11 0x84595161401484A000000 DUP2 LT ISZERO PUSH2 0x1214 JUMPI PUSH10 0xD3C21BCECCEDA1000000 DUP2 LT ISZERO PUSH2 0x120D JUMPI PUSH10 0x152D02C7E14AF6800000 GT ISZERO PUSH2 0x1207 JUMPI PUSH1 0x0 SWAP1 JUMP JUMPDEST PUSH2 0x2710 SWAP1 JUMP JUMPDEST POP PUSH2 0x4E20 SWAP1 JUMP JUMPDEST POP PUSH2 0xC350 SWAP1 JUMP JUMPDEST POP PUSH3 0x1D4C0 SWAP1 JUMP JUMPDEST PUSH1 0x40 MLOAD PUSH4 0x23B872DD PUSH1 0xE0 SHL PUSH1 0x0 SWAP1 DUP2 MSTORE PUSH1 0x1 PUSH1 0x1 PUSH1 0xA0 SHL SUB SWAP4 DUP5 AND PUSH1 0x4 MSTORE SWAP4 DUP4 AND PUSH1 0x24 MSTORE PUSH1 0x44 SWAP5 SWAP1 SWAP5 MSTORE SWAP1 SWAP2 PUSH1 0x20 SWAP1 PUSH1 0x64 DUP2 DUP1 DUP6 GAS CALL PUSH1 0x1 PUSH1 0x0 MLOAD EQ DUP2 AND ISZERO PUSH2 0x127A JUMPI JUMPDEST DUP4 PUSH1 0x40 MSTORE PUSH1 0x0 PUSH1 0x60 MSTORE ISZERO PUSH2 0x1154 JUMPI POP POP POP JUMP JUMPDEST PUSH1 0x1 DUP2 ISZERO AND PUSH2 0x1180 JUMPI DUP2 EXTCODESIZE ISZERO ISZERO RETURNDATASIZE ISZERO AND AND PUSH2 0x1267 JUMP JUMPDEST PUSH11 0x52B7D2DCC80CD2E4000000 DUP2 LT ISZERO PUSH2 0x12EF JUMPI PUSH11 0x84595161401484A000000 DUP2 LT ISZERO PUSH2 0x12E9 JUMPI PUSH10 0xD3C21BCECCEDA1000000 DUP2 LT ISZERO PUSH2 0x12E3 JUMPI PUSH10 0x152D02C7E14AF6800000 GT ISZERO PUSH2 0x12DE JUMPI PUSH1 0x0 SWAP1 JUMP JUMPDEST PUSH1 0x1 SWAP1 JUMP JUMPDEST POP PUSH1 0x2 SWAP1 JUMP JUMPDEST POP PUSH1 0x3 SWAP1 JUMP JUMPDEST POP PUSH1 0x4 SWAP1 JUMP INVALID SWAP12 PUSH24 0x9B17422D0DF92223018B32B4D1FA46E071723D6817E2486D STOP EXTCODESIZE 0xEC 0xC5 PUSH0 STOP LOG2 PUSH5 0x6970667358 0x22 SLT KECCAK256 0xE4 SELFBALANCE SSTORE DUP16 DELEGATECALL 0xBE 0xD GASLIMIT PUSH14 0x3FB541EDC18D6C7BCDBE0AE3D6A7 PUSH23 0x89571524944AE63364736F6C6343000818003300000000 "},"methodIdentifiers":{"GROWER_BOOST()":"de0f9093","GROWER_MIN()":"9a14ef0d","SHLONG_BOOST()":"2b2893ba","SHLONG_MIN()":"679f5418","SHOWER_BOOST()":"e18c7dfc","SHOWER_MIN()":"e080f071","WHALE_BOOST()":"5152f67f","WHALE_MIN()":"d4e6c5c4","accRewardPerShare()":"939d6237","acceptOwnership()":"79ba5097","bufferedRewards()":"34279192","claimRewards()":"372500ab","depositRewards(uint256)":"8bdf67f2","emergencyWithdraw()":"db2e21bc","getBoost(address)":"67ba3d90","getStakeInfo(address)":"c3453153","getTier(address)":"b45aae52","isDepositor(address)":"2f70d1ba","owner()":"8da5cb5b","pause()":"8456cb59","paused()":"5c975abb","pendingOwner()":"e30c3978","renounceOwnership()":"715018a6","setDepositor(address,bool)":"6f860d74","sizeToken()":"a6df0831","stake(uint256)":"a694fc3a","stakes(address)":"16934fc4","totalEffectiveStaked()":"47d62809","totalStaked()":"817b1cd2","transferOwnership(address)":"f2fde38b","unpause()":"3f4ba83a","unstake(uint256)":"2e17de78"}}}}}