{"contracts/SizeGifting.sol":{"SizeGifting":{"abi":[{"inputs":[{"internalType":"address","name":"_sizeToken","type":"address"}],"stateMutability":"nonpayable","type":"constructor"},{"inputs":[],"name":"MessageTooLong","type":"error"},{"inputs":[],"name":"ReentrancyGuardReentrantCall","type":"error"},{"inputs":[{"internalType":"address","name":"token","type":"address"}],"name":"SafeERC20FailedOperation","type":"error"},{"inputs":[],"name":"SelfGift","type":"error"},{"inputs":[],"name":"ZeroAmount","type":"error"},{"anonymous":false,"inputs":[{"indexed":true,"internalType":"address","name":"from","type":"address"},{"indexed":true,"internalType":"address","name":"to","type":"address"},{"indexed":false,"internalType":"uint256","name":"amount","type":"uint256"},{"indexed":false,"internalType":"bytes32","name":"postId","type":"bytes32"},{"indexed":false,"internalType":"string","name":"message","type":"string"}],"name":"Gift","type":"event"},{"anonymous":false,"inputs":[{"indexed":true,"internalType":"address","name":"from","type":"address"},{"indexed":true,"internalType":"address","name":"postAuthor","type":"address"},{"indexed":false,"internalType":"uint256","name":"amount","type":"uint256"},{"indexed":false,"internalType":"bytes32","name":"postId","type":"bytes32"}],"name":"PostTip","type":"event"},{"inputs":[{"internalType":"address[]","name":"_recipients","type":"address[]"},{"internalType":"uint256[]","name":"_amounts","type":"uint256[]"}],"name":"batchGift","outputs":[],"stateMutability":"nonpayable","type":"function"},{"inputs":[{"internalType":"address","name":"_to","type":"address"},{"internalType":"uint256","name":"_amount","type":"uint256"},{"internalType":"bytes32","name":"_postId","type":"bytes32"},{"internalType":"string","name":"_message","type":"string"}],"name":"gift","outputs":[],"stateMutability":"nonpayable","type":"function"},{"inputs":[],"name":"sizeToken","outputs":[{"internalType":"contract IERC20","name":"","type":"address"}],"stateMutability":"view","type":"function"}],"evm":{"bytecode":{"linkReferences":{},"object":"60a03461009c57601f6106dd38819003918201601f19168301916001600160401b038311848410176100a15780849260209460405283398101031261009c57516001600160a01b0381169081900361009c5760017f9b779b17422d0df92223018b32b4d1fa46e071723d6817e2486d003becc55f005560805260405161062590816100b8823960805181818160570152818160fd01526103bd0152f35b600080fd5b634e487b7160e01b600052604160045260246000fdfe6040608081526004908136101561001557600080fd5b600091823560e01c9081631386b2d51461030d57816368cbe3881461008a575063a6df08311461004457600080fd5b34610086578160031936011261008657517f00000000000000000000000000000000000000000000000000000000000000006001600160a01b03168152602090f35b5080fd5b9190503461030957806003193601126103095767ffffffffffffffff908235828111610305576100bd90369085016104b0565b602494919493602435908111610301576100da90369084016104b0565b9590916100e5610520565b8681036102cc578791885b88811061024d57506101257f000000000000000000000000000000000000000000000000000000000000000093303386610562565b885b828110610156578960017f9b779b17422d0df92223018b32b4d1fa46e071723d6817e2486d003becc55f005580f35b6101696101648285856104e6565b61050c565b610174828b886104e6565b885163a9059cbb60e01b8d526001600160a01b03928316895290358a5260209190828d604481808b5af18d60018091511482161561022f575b50818b521561021a57509082918b8d6101d7856101d06101646001998c8c6104e6565b938c6104e6565b35818d51956060928752860152808d86015284015216907f9f1e2b2937aeef46b6320d93242ddf7992586ecb4f619ee50ce470877fffe7e960803392a301610127565b635274afe760e01b8152908616818901528990fd5b81151661024457873b15153d151616386101ad565b503d8d823e3d90fd5b92610259848a876104e6565b35156102bc57336001600160a01b036102766101648787876104e6565b16146102ac57610287848a876104e6565b35810180911161029a57926001016100f0565b634e487b7160e01b8a5260118652878afd5b8651636996c19360e01b81528690fd5b8651631f2a200560e01b81528690fd5b845162461bcd60e51b8152602081860152600f60248201526e098cadccee8d040dad2e6dac2e8c6d608b1b6044820152606490fd5b8680fd5b8480fd5b8280fd5b9050346103095760803660031901126103095780356001600160a01b038116928382036103055760243592604435926064359067ffffffffffffffff928383116104ac57366023840112156104ac57828101359384116104ac5736602485850101116104ac5761037b610520565b861561049e5733881461049057608c841161048257508692916103e1877f9f1e2b2937aeef46b6320d93242ddf7992586ecb4f619ee50ce470877fffe7e993337f0000000000000000000000000000000000000000000000000000000000000000610562565b82602486519289845288602085015260608885015282606085015201608083013788608084830101526080813394601f80199101168101030190a38161044a575b8460017f9b779b17422d0df92223018b32b4d1fa46e071723d6817e2486d003becc55f005580f35b7f585d4deaddd0e69dcae4245296cd2f67ddf80496727fc4d93780c62311d7cd6091815193845260208401523392a338808080610422565b84516347e8b47560e11b8152fd5b8451636996c19360e01b8152fd5b8451631f2a200560e01b8152fd5b8880fd5b9181601f840112156104e15782359167ffffffffffffffff83116104e1576020808501948460051b0101116104e157565b600080fd5b91908110156104f65760051b0190565b634e487b7160e01b600052603260045260246000fd5b356001600160a01b03811681036104e15790565b7f9b779b17422d0df92223018b32b4d1fa46e071723d6817e2486d003becc55f0060028154146105505760029055565b604051633ee5aeb560e01b8152600490fd5b6040516323b872dd60e01b60009081526001600160a01b03938416600452938316602452604494909452909160209060648180855af16001600051148116156105cf575b836040526000606052156105b957505050565b635274afe760e01b835216600482015260249150fd5b60018115166105e557813b15153d1516166105a6565b833d6000823e3d90fdfea264697066735822122037ff81aed021a0168e61d1613dee2dcea1c8d302f8187de0fa786be40284059564736f6c63430008180033","opcodes":"PUSH1 0xA0 CALLVALUE PUSH2 0x9C JUMPI PUSH1 0x1F PUSH2 0x6DD CODESIZE DUP2 SWAP1 SUB SWAP2 DUP3 ADD PUSH1 0x1F NOT AND DUP4 ADD SWAP2 PUSH1 0x1 PUSH1 0x1 PUSH1 0x40 SHL SUB DUP4 GT DUP5 DUP5 LT OR PUSH2 0xA1 JUMPI DUP1 DUP5 SWAP3 PUSH1 0x20 SWAP5 PUSH1 0x40 MSTORE DUP4 CODECOPY DUP2 ADD SUB SLT PUSH2 0x9C JUMPI MLOAD PUSH1 0x1 PUSH1 0x1 PUSH1 0xA0 SHL SUB DUP2 AND SWAP1 DUP2 SWAP1 SUB PUSH2 0x9C JUMPI PUSH1 0x1 PUSH32 0x9B779B17422D0DF92223018B32B4D1FA46E071723D6817E2486D003BECC55F00 SSTORE PUSH1 0x80 MSTORE PUSH1 0x40 MLOAD PUSH2 0x625 SWAP1 DUP2 PUSH2 0xB8 DUP3 CODECOPY PUSH1 0x80 MLOAD DUP2 DUP2 DUP2 PUSH1 0x57 ADD MSTORE DUP2 DUP2 PUSH1 0xFD ADD MSTORE PUSH2 0x3BD ADD MSTORE RETURN JUMPDEST PUSH1 0x0 DUP1 REVERT JUMPDEST PUSH4 0x4E487B71 PUSH1 0xE0 SHL PUSH1 0x0 MSTORE PUSH1 0x41 PUSH1 0x4 MSTORE PUSH1 0x24 PUSH1 0x0 REVERT INVALID PUSH1 0x40 PUSH1 0x80 DUP2 MSTORE PUSH1 0x4 SWAP1 DUP2 CALLDATASIZE LT ISZERO PUSH2 0x15 JUMPI PUSH1 0x0 DUP1 REVERT JUMPDEST PUSH1 0x0 SWAP2 DUP3 CALLDATALOAD PUSH1 0xE0 SHR SWAP1 DUP2 PUSH4 0x1386B2D5 EQ PUSH2 0x30D JUMPI DUP2 PUSH4 0x68CBE388 EQ PUSH2 0x8A JUMPI POP PUSH4 0xA6DF0831 EQ PUSH2 0x44 JUMPI PUSH1 0x0 DUP1 REVERT JUMPDEST CALLVALUE PUSH2 0x86 JUMPI DUP2 PUSH1 0x3 NOT CALLDATASIZE ADD SLT PUSH2 0x86 JUMPI MLOAD PUSH32 0x0 PUSH1 0x1 PUSH1 0x1 PUSH1 0xA0 SHL SUB AND DUP2 MSTORE PUSH1 0x20 SWAP1 RETURN JUMPDEST POP DUP1 REVERT JUMPDEST SWAP2 SWAP1 POP CALLVALUE PUSH2 0x309 JUMPI DUP1 PUSH1 0x3 NOT CALLDATASIZE ADD SLT PUSH2 0x309 JUMPI PUSH8 0xFFFFFFFFFFFFFFFF SWAP1 DUP3 CALLDATALOAD DUP3 DUP2 GT PUSH2 0x305 JUMPI PUSH2 0xBD SWAP1 CALLDATASIZE SWAP1 DUP6 ADD PUSH2 0x4B0 JUMP JUMPDEST PUSH1 0x24 SWAP5 SWAP2 SWAP5 SWAP4 PUSH1 0x24 CALLDATALOAD SWAP1 DUP2 GT PUSH2 0x301 JUMPI PUSH2 0xDA SWAP1 CALLDATASIZE SWAP1 DUP5 ADD PUSH2 0x4B0 JUMP JUMPDEST SWAP6 SWAP1 SWAP2 PUSH2 0xE5 PUSH2 0x520 JUMP JUMPDEST DUP7 DUP2 SUB PUSH2 0x2CC JUMPI DUP8 SWAP2 DUP9 JUMPDEST DUP9 DUP2 LT PUSH2 0x24D JUMPI POP PUSH2 0x125 PUSH32 0x0 SWAP4 ADDRESS CALLER DUP7 PUSH2 0x562 JUMP JUMPDEST DUP9 JUMPDEST DUP3 DUP2 LT PUSH2 0x156 JUMPI DUP10 PUSH1 0x1 PUSH32 0x9B779B17422D0DF92223018B32B4D1FA46E071723D6817E2486D003BECC55F00 SSTORE DUP1 RETURN JUMPDEST PUSH2 0x169 PUSH2 0x164 DUP3 DUP6 DUP6 PUSH2 0x4E6 JUMP JUMPDEST PUSH2 0x50C JUMP JUMPDEST PUSH2 0x174 DUP3 DUP12 DUP9 PUSH2 0x4E6 JUMP JUMPDEST DUP9 MLOAD PUSH4 0xA9059CBB PUSH1 0xE0 SHL DUP14 MSTORE PUSH1 0x1 PUSH1 0x1 PUSH1 0xA0 SHL SUB SWAP3 DUP4 AND DUP10 MSTORE SWAP1 CALLDATALOAD DUP11 MSTORE PUSH1 0x20 SWAP2 SWAP1 DUP3 DUP14 PUSH1 0x44 DUP2 DUP1 DUP12 GAS CALL DUP14 PUSH1 0x1 DUP1 SWAP2 MLOAD EQ DUP3 AND ISZERO PUSH2 0x22F JUMPI JUMPDEST POP DUP2 DUP12 MSTORE ISZERO PUSH2 0x21A JUMPI POP SWAP1 DUP3 SWAP2 DUP12 DUP14 PUSH2 0x1D7 DUP6 PUSH2 0x1D0 PUSH2 0x164 PUSH1 0x1 SWAP10 DUP13 DUP13 PUSH2 0x4E6 JUMP JUMPDEST SWAP4 DUP13 PUSH2 0x4E6 JUMP JUMPDEST CALLDATALOAD DUP2 DUP14 MLOAD SWAP6 PUSH1 0x60 SWAP3 DUP8 MSTORE DUP7 ADD MSTORE DUP1 DUP14 DUP7 ADD MSTORE DUP5 ADD MSTORE AND SWAP1 PUSH32 0x9F1E2B2937AEEF46B6320D93242DDF7992586ECB4F619EE50CE470877FFFE7E9 PUSH1 0x80 CALLER SWAP3 LOG3 ADD PUSH2 0x127 JUMP JUMPDEST PUSH4 0x5274AFE7 PUSH1 0xE0 SHL DUP2 MSTORE SWAP1 DUP7 AND DUP2 DUP10 ADD MSTORE DUP10 SWAP1 REVERT JUMPDEST DUP2 ISZERO AND PUSH2 0x244 JUMPI DUP8 EXTCODESIZE ISZERO ISZERO RETURNDATASIZE ISZERO AND AND CODESIZE PUSH2 0x1AD JUMP JUMPDEST POP RETURNDATASIZE DUP14 DUP3 RETURNDATACOPY RETURNDATASIZE SWAP1 REVERT JUMPDEST SWAP3 PUSH2 0x259 DUP5 DUP11 DUP8 PUSH2 0x4E6 JUMP JUMPDEST CALLDATALOAD ISZERO PUSH2 0x2BC JUMPI CALLER PUSH1 0x1 PUSH1 0x1 PUSH1 0xA0 SHL SUB PUSH2 0x276 PUSH2 0x164 DUP8 DUP8 DUP8 PUSH2 0x4E6 JUMP JUMPDEST AND EQ PUSH2 0x2AC JUMPI PUSH2 0x287 DUP5 DUP11 DUP8 PUSH2 0x4E6 JUMP JUMPDEST CALLDATALOAD DUP2 ADD DUP1 SWAP2 GT PUSH2 0x29A JUMPI SWAP3 PUSH1 0x1 ADD PUSH2 0xF0 JUMP JUMPDEST PUSH4 0x4E487B71 PUSH1 0xE0 SHL DUP11 MSTORE PUSH1 0x11 DUP7 MSTORE DUP8 DUP11 REVERT JUMPDEST DUP7 MLOAD PUSH4 0x6996C193 PUSH1 0xE0 SHL DUP2 MSTORE DUP7 SWAP1 REVERT JUMPDEST DUP7 MLOAD PUSH4 0x1F2A2005 PUSH1 0xE0 SHL DUP2 MSTORE DUP7 SWAP1 REVERT JUMPDEST DUP5 MLOAD PUSH3 0x461BCD PUSH1 0xE5 SHL DUP2 MSTORE PUSH1 0x20 DUP2 DUP7 ADD MSTORE PUSH1 0xF PUSH1 0x24 DUP3 ADD MSTORE PUSH15 0x98CADCCEE8D040DAD2E6DAC2E8C6D PUSH1 0x8B SHL PUSH1 0x44 DUP3 ADD MSTORE PUSH1 0x64 SWAP1 REVERT JUMPDEST DUP7 DUP1 REVERT JUMPDEST DUP5 DUP1 REVERT JUMPDEST DUP3 DUP1 REVERT JUMPDEST SWAP1 POP CALLVALUE PUSH2 0x309 JUMPI PUSH1 0x80 CALLDATASIZE PUSH1 0x3 NOT ADD SLT PUSH2 0x309 JUMPI DUP1 CALLDATALOAD PUSH1 0x1 PUSH1 0x1 PUSH1 0xA0 SHL SUB DUP2 AND SWAP3 DUP4 DUP3 SUB PUSH2 0x305 JUMPI PUSH1 0x24 CALLDATALOAD SWAP3 PUSH1 0x44 CALLDATALOAD SWAP3 PUSH1 0x64 CALLDATALOAD SWAP1 PUSH8 0xFFFFFFFFFFFFFFFF SWAP3 DUP4 DUP4 GT PUSH2 0x4AC JUMPI CALLDATASIZE PUSH1 0x23 DUP5 ADD SLT ISZERO PUSH2 0x4AC JUMPI DUP3 DUP2 ADD CALLDATALOAD SWAP4 DUP5 GT PUSH2 0x4AC JUMPI CALLDATASIZE PUSH1 0x24 DUP6 DUP6 ADD ADD GT PUSH2 0x4AC JUMPI PUSH2 0x37B PUSH2 0x520 JUMP JUMPDEST DUP7 ISZERO PUSH2 0x49E JUMPI CALLER DUP9 EQ PUSH2 0x490 JUMPI PUSH1 0x8C DUP5 GT PUSH2 0x482 JUMPI POP DUP7 SWAP3 SWAP2 PUSH2 0x3E1 DUP8 PUSH32 0x9F1E2B2937AEEF46B6320D93242DDF7992586ECB4F619EE50CE470877FFFE7E9 SWAP4 CALLER PUSH32 0x0 PUSH2 0x562 JUMP JUMPDEST DUP3 PUSH1 0x24 DUP7 MLOAD SWAP3 DUP10 DUP5 MSTORE DUP9 PUSH1 0x20 DUP6 ADD MSTORE PUSH1 0x60 DUP9 DUP6 ADD MSTORE DUP3 PUSH1 0x60 DUP6 ADD MSTORE ADD PUSH1 0x80 DUP4 ADD CALLDATACOPY DUP9 PUSH1 0x80 DUP5 DUP4 ADD ADD MSTORE PUSH1 0x80 DUP2 CALLER SWAP5 PUSH1 0x1F DUP1 NOT SWAP2 ADD AND DUP2 ADD SUB ADD SWAP1 LOG3 DUP2 PUSH2 0x44A JUMPI JUMPDEST DUP5 PUSH1 0x1 PUSH32 0x9B779B17422D0DF92223018B32B4D1FA46E071723D6817E2486D003BECC55F00 SSTORE DUP1 RETURN JUMPDEST PUSH32 0x585D4DEADDD0E69DCAE4245296CD2F67DDF80496727FC4D93780C62311D7CD60 SWAP2 DUP2 MLOAD SWAP4 DUP5 MSTORE PUSH1 0x20 DUP5 ADD MSTORE CALLER SWAP3 LOG3 CODESIZE DUP1 DUP1 DUP1 PUSH2 0x422 JUMP JUMPDEST DUP5 MLOAD PUSH4 0x47E8B475 PUSH1 0xE1 SHL DUP2 MSTORE REVERT JUMPDEST DUP5 MLOAD PUSH4 0x6996C193 PUSH1 0xE0 SHL DUP2 MSTORE REVERT JUMPDEST DUP5 MLOAD PUSH4 0x1F2A2005 PUSH1 0xE0 SHL DUP2 MSTORE REVERT JUMPDEST DUP9 DUP1 REVERT JUMPDEST SWAP2 DUP2 PUSH1 0x1F DUP5 ADD SLT ISZERO PUSH2 0x4E1 JUMPI DUP3 CALLDATALOAD SWAP2 PUSH8 0xFFFFFFFFFFFFFFFF DUP4 GT PUSH2 0x4E1 JUMPI PUSH1 0x20 DUP1 DUP6 ADD SWAP5 DUP5 PUSH1 0x5 SHL ADD ADD GT PUSH2 0x4E1 JUMPI JUMP JUMPDEST PUSH1 0x0 DUP1 REVERT JUMPDEST SWAP2 SWAP1 DUP2 LT ISZERO PUSH2 0x4F6 JUMPI PUSH1 0x5 SHL ADD SWAP1 JUMP JUMPDEST PUSH4 0x4E487B71 PUSH1 0xE0 SHL PUSH1 0x0 MSTORE PUSH1 0x32 PUSH1 0x4 MSTORE PUSH1 0x24 PUSH1 0x0 REVERT JUMPDEST CALLDATALOAD PUSH1 0x1 PUSH1 0x1 PUSH1 0xA0 SHL SUB DUP2 AND DUP2 SUB PUSH2 0x4E1 JUMPI SWAP1 JUMP JUMPDEST PUSH32 0x9B779B17422D0DF92223018B32B4D1FA46E071723D6817E2486D003BECC55F00 PUSH1 0x2 DUP2 SLOAD EQ PUSH2 0x550 JUMPI PUSH1 0x2 SWAP1 SSTORE JUMP JUMPDEST PUSH1 0x40 MLOAD PUSH4 0x3EE5AEB5 PUSH1 0xE0 SHL DUP2 MSTORE PUSH1 0x4 SWAP1 REVERT JUMPDEST PUSH1 0x40 MLOAD PUSH4 0x23B872DD PUSH1 0xE0 SHL PUSH1 0x0 SWAP1 DUP2 MSTORE PUSH1 0x1 PUSH1 0x1 PUSH1 0xA0 SHL SUB SWAP4 DUP5 AND PUSH1 0x4 MSTORE SWAP4 DUP4 AND PUSH1 0x24 MSTORE PUSH1 0x44 SWAP5 SWAP1 SWAP5 MSTORE SWAP1 SWAP2 PUSH1 0x20 SWAP1 PUSH1 0x64 DUP2 DUP1 DUP6 GAS CALL PUSH1 0x1 PUSH1 0x0 MLOAD EQ DUP2 AND ISZERO PUSH2 0x5CF JUMPI JUMPDEST DUP4 PUSH1 0x40 MSTORE PUSH1 0x0 PUSH1 0x60 MSTORE ISZERO PUSH2 0x5B9 JUMPI POP POP POP JUMP JUMPDEST PUSH4 0x5274AFE7 PUSH1 0xE0 SHL DUP4 MSTORE AND PUSH1 0x4 DUP3 ADD MSTORE PUSH1 0x24 SWAP2 POP REVERT JUMPDEST PUSH1 0x1 DUP2 ISZERO AND PUSH2 0x5E5 JUMPI DUP2 EXTCODESIZE ISZERO ISZERO RETURNDATASIZE ISZERO AND AND PUSH2 0x5A6 JUMP JUMPDEST DUP4 RETURNDATASIZE PUSH1 0x0 DUP3 RETURNDATACOPY RETURNDATASIZE SWAP1 REVERT INVALID LOG2 PUSH5 0x6970667358 0x22 SLT KECCAK256 CALLDATACOPY SELFDESTRUCT DUP2 0xAE 0xD0 0x21 LOG0 AND DUP15 PUSH2 0xD161 RETURNDATASIZE 0xEE 0x2D 0xCE LOG1 0xC8 0xD3 MUL 0xF8 XOR PUSH30 0xE0FA786BE40284059564736F6C6343000818003300000000000000000000 "},"methodIdentifiers":{"batchGift(address[],uint256[])":"68cbe388","gift(address,uint256,bytes32,string)":"1386b2d5","sizeToken()":"a6df0831"}}}}}