{"contracts/SizeDickCoinFactory.sol":{"SizeDickCoinFactory":{"abi":[{"inputs":[{"internalType":"address","name":"_protocolWallet","type":"address"},{"internalType":"address","name":"_gasWallet","type":"address"}],"stateMutability":"nonpayable","type":"constructor"},{"inputs":[],"name":"AlreadyRegistered","type":"error"},{"inputs":[],"name":"NotRegistered","type":"error"},{"inputs":[{"internalType":"address","name":"owner","type":"address"}],"name":"OwnableInvalidOwner","type":"error"},{"inputs":[{"internalType":"address","name":"account","type":"address"}],"name":"OwnableUnauthorizedAccount","type":"error"},{"inputs":[],"name":"ReentrancyGuardReentrantCall","type":"error"},{"inputs":[],"name":"TransferFailed","type":"error"},{"inputs":[],"name":"ZeroAddress","type":"error"},{"anonymous":false,"inputs":[{"indexed":true,"internalType":"address","name":"tokenAddress","type":"address"},{"indexed":false,"internalType":"uint256","name":"totalFees","type":"uint256"}],"name":"AutoStakeThresholdReached","type":"event"},{"anonymous":false,"inputs":[{"indexed":true,"internalType":"address","name":"creator","type":"address"},{"indexed":false,"internalType":"uint256","name":"amount","type":"uint256"}],"name":"CreatorPaid","type":"event"},{"anonymous":false,"inputs":[{"indexed":true,"internalType":"address","name":"tokenAddress","type":"address"},{"indexed":true,"internalType":"address","name":"creator","type":"address"}],"name":"DickCoinRegistered","type":"event"},{"anonymous":false,"inputs":[{"indexed":true,"internalType":"address","name":"tokenAddress","type":"address"},{"indexed":false,"internalType":"uint256","name":"amount","type":"uint256"}],"name":"FeesReceived","type":"event"},{"anonymous":false,"inputs":[{"indexed":true,"internalType":"address","name":"tokenAddress","type":"address"},{"indexed":false,"internalType":"uint256","name":"creatorAmount","type":"uint256"},{"indexed":false,"internalType":"uint256","name":"protocolAmount","type":"uint256"},{"indexed":false,"internalType":"uint256","name":"gasAmount","type":"uint256"}],"name":"FeesSplit","type":"event"},{"anonymous":false,"inputs":[{"indexed":false,"internalType":"address","name":"oldWallet","type":"address"},{"indexed":false,"internalType":"address","name":"newWallet","type":"address"}],"name":"GasWalletUpdated","type":"event"},{"anonymous":false,"inputs":[{"indexed":true,"internalType":"address","name":"previousOwner","type":"address"},{"indexed":true,"internalType":"address","name":"newOwner","type":"address"}],"name":"OwnershipTransferStarted","type":"event"},{"anonymous":false,"inputs":[{"indexed":true,"internalType":"address","name":"previousOwner","type":"address"},{"indexed":true,"internalType":"address","name":"newOwner","type":"address"}],"name":"OwnershipTransferred","type":"event"},{"anonymous":false,"inputs":[{"indexed":false,"internalType":"address","name":"oldWallet","type":"address"},{"indexed":false,"internalType":"address","name":"newWallet","type":"address"}],"name":"ProtocolWalletUpdated","type":"event"},{"inputs":[],"name":"CREATOR_BPS","outputs":[{"internalType":"uint256","name":"","type":"uint256"}],"stateMutability":"view","type":"function"},{"inputs":[],"name":"GAS_BPS","outputs":[{"internalType":"uint256","name":"","type":"uint256"}],"stateMutability":"view","type":"function"},{"inputs":[],"name":"PROTOCOL_BPS","outputs":[{"internalType":"uint256","name":"","type":"uint256"}],"stateMutability":"view","type":"function"},{"inputs":[],"name":"TOTAL_BPS","outputs":[{"internalType":"uint256","name":"","type":"uint256"}],"stateMutability":"view","type":"function"},{"inputs":[],"name":"acceptOwnership","outputs":[],"stateMutability":"nonpayable","type":"function"},{"inputs":[{"internalType":"uint256","name":"","type":"uint256"}],"name":"allDickCoins","outputs":[{"internalType":"address","name":"","type":"address"}],"stateMutability":"view","type":"function"},{"inputs":[],"name":"autoStakeThreshold","outputs":[{"internalType":"uint256","name":"","type":"uint256"}],"stateMutability":"view","type":"function"},{"inputs":[{"internalType":"address","name":"","type":"address"}],"name":"dickCoins","outputs":[{"internalType":"address","name":"creator","type":"address"},{"internalType":"address","name":"tokenAddress","type":"address"},{"internalType":"uint256","name":"totalFeesReceived","type":"uint256"},{"internalType":"uint256","name":"creatorPaid","type":"uint256"},{"internalType":"uint256","name":"stakingDeployed","type":"uint256"},{"internalType":"bool","name":"active","type":"bool"}],"stateMutability":"view","type":"function"},{"inputs":[{"internalType":"address","name":"_tokenAddress","type":"address"}],"name":"distributeFees","outputs":[],"stateMutability":"payable","type":"function"},{"inputs":[],"name":"gasWallet","outputs":[{"internalType":"address","name":"","type":"address"}],"stateMutability":"view","type":"function"},{"inputs":[],"name":"getDickCoinCount","outputs":[{"internalType":"uint256","name":"","type":"uint256"}],"stateMutability":"view","type":"function"},{"inputs":[{"internalType":"address","name":"_tokenAddress","type":"address"}],"name":"getDickCoinInfo","outputs":[{"internalType":"address","name":"creator","type":"address"},{"internalType":"uint256","name":"totalFeesReceived","type":"uint256"},{"internalType":"uint256","name":"creatorPaid","type":"uint256"},{"internalType":"bool","name":"stakingActive","type":"bool"},{"internalType":"bool","name":"active","type":"bool"}],"stateMutability":"view","type":"function"},{"inputs":[{"internalType":"address","name":"_tokenAddress","type":"address"}],"name":"isAutoStakeReady","outputs":[{"internalType":"bool","name":"","type":"bool"}],"stateMutability":"view","type":"function"},{"inputs":[],"name":"owner","outputs":[{"internalType":"address","name":"","type":"address"}],"stateMutability":"view","type":"function"},{"inputs":[],"name":"pendingOwner","outputs":[{"internalType":"address","name":"","type":"address"}],"stateMutability":"view","type":"function"},{"inputs":[],"name":"protocolWallet","outputs":[{"internalType":"address","name":"","type":"address"}],"stateMutability":"view","type":"function"},{"inputs":[{"internalType":"address","name":"_tokenAddress","type":"address"},{"internalType":"address","name":"_creator","type":"address"}],"name":"registerDickCoin","outputs":[],"stateMutability":"nonpayable","type":"function"},{"inputs":[],"name":"renounceOwnership","outputs":[],"stateMutability":"nonpayable","type":"function"},{"inputs":[{"internalType":"uint256","name":"_threshold","type":"uint256"}],"name":"setAutoStakeThreshold","outputs":[],"stateMutability":"nonpayable","type":"function"},{"inputs":[{"internalType":"address","name":"_wallet","type":"address"}],"name":"setGasWallet","outputs":[],"stateMutability":"nonpayable","type":"function"},{"inputs":[{"internalType":"address","name":"_wallet","type":"address"}],"name":"setProtocolWallet","outputs":[],"stateMutability":"nonpayable","type":"function"},{"inputs":[{"internalType":"address","name":"newOwner","type":"address"}],"name":"transferOwnership","outputs":[],"stateMutability":"nonpayable","type":"function"},{"stateMutability":"payable","type":"receive"}],"evm":{"bytecode":{"linkReferences":{},"object":"60803461013f57601f610d7938819003918201601f19168301916001600160401b0383118484101761014457808492604094855283398101031261013f57610052602061004b8361015a565b920161015a565b9033156101265760018060a01b031991826001541660015560005460018060a01b038093338684161760005560405192823391167f8be0079c531659141344cd1fd0a4f28419497f9722a3daafe3b4186f6b6457e0600080a360017f9b779b17422d0df92223018b32b4d1fa46e071723d6817e2486d003becc55f00556706f05b59d3b2000060065516908115801561011c575b61010d575083600254161760025516906003541617600355604051610c0a908161016f8239f35b63d92e233d60e01b8152600490fd5b50838316156100e6565b604051631e4fbdf760e01b815260006004820152602490fd5b600080fd5b634e487b7160e01b600052604160045260246000fd5b51906001600160a01b038216820361013f5756fe6080604090808252600480361015610022575b505050361561002057600080fd5b005b600092833560e01c92836306d6e63f14610a8a575082633a4ffa3914610a1357826345904567146109f657826345a5858e146109d457826352e199c5146109ab5782635fa2582c146107fd578263715018a61461079857826375615d9b1461077957826376a2140d1461073857826377ae7710146106cb57826379ba5097146106485782638da5cb5b146106205782639413f25c146103c7578263c1e7af35146103aa578263c4fd89141461038e578263d3cd52bc14610371578263d7bf0c9014610352578263e15c17ec146102e6578263e30c3978146102b9578263e45c17e114610230578263f01e9a8b1461019557505063f2fde38b14610126578080610012565b346101925760203660031901126101925761013f610aaf565b610147610ba8565b600180546001600160a01b0319166001600160a01b0392831690811790915582549091167f38d16b8cac22d99fc7c124b9cd0de2d3fa1faef420bfe791d8c362d765e227008380a380f35b80fd5b9091503461022c57602036600319011261022c576101b1610aaf565b6101b9610ba8565b6001600160a01b0381811693841561021e575060025492516001600160a01b0391841682168152911660208201527f82034a08527e1556af5c41ac50e5176dc09e241059cf64334802c9ab02935aee90604090a16001600160a01b0319161760025580f35b835163d92e233d60e01b8152fd5b8280fd5b9091503461022c57602036600319011261022c5761024c610aaf565b610254610ba8565b6001600160a01b0381811693841561021e575060035492516001600160a01b0391841682168152911660208201527fe74fa16c7ef5ca8ce93bdcb8c4adf6ef2c7d0b7f3c541d9aac1cd296fb88852690604090a16001600160a01b0319161760035580f35b8390346102e257816003193601126102e25760015490516001600160a01b039091168152602090f35b5080fd5b9091503461022c57602036600319011261022c5760209281906001600160a01b0361030f610aaf565b1681528385522060ff6005820154169283610346575b5082610335575b50519015158152f35b60020154600654111591503861032c565b81015415925038610325565b8390346102e257816003193601126102e2576020906005549051908152f35b8390346102e257816003193601126102e257602090516127108152f35b8390346102e257816003193601126102e2576020905160c88152f35b8390346102e257816003193601126102e257602090516103208152f35b83906020908160031936011261022c576103df610aaf565b937f9b779b17422d0df92223018b32b4d1fa46e071723d6817e2486d003becc55f00926002845414610611576002845560018060a01b03809616928386528282528086209260ff60058501541615610603576002840193610441348654610b17565b8555612328803402341591348204148217156105f0576127108091049161032090813402913483041417156105dd57048a8a8080808661048a876104858334610b3a565b610b3a565b958954165af1610498610b47565b50156105cd578a8080808f869060038a016104b48a8254610b17565b9055600254165af16104c4610b47565b50156105cd578a8080808f8590600354165af16104df610b47565b50156105cd5760019a9b897f22514265b5fb0bd8542ba18da00ccde26bf6b9c32d210330f08c9fc11307884b60607f14f433c13badc2239830ab3bb19e75dec63d39f851363844cc4e4650d0c9b601958b95847f2ccfc58c2cef4ee590b5f16be0548cc54afc12e1c66a67b362b7d640fd16bb2d888e51348152a28b5191898352878301528b820152a2845416928651908152a20192835415806105c0575b61058a575b8787875580f35b7f3890264206cfa5c6518b7c1d4cc28dc6df609fe7c0ca9092c444587055bd76c393429055549051908152a28380808080610583565b508054600654111561057e565b85516312171d8360e31b81528590fd5b634e487b7160e01b8b526011855260248bfd5b634e487b7160e01b8a526011845260248afd5b905163aba4733960e01b8152fd5b509051633ee5aeb560e01b8152fd5b8390346102e257816003193601126102e257905490516001600160a01b039091168152602090f35b9091503461022c578260031936011261022c57600154916001600160a01b039133838516036106b45750506001600160a01b031991821660015582543392811683178455167f8be0079c531659141344cd1fd0a4f28419497f9722a3daafe3b4186f6b6457e08380a380f35b60249250519063118cdaa760e01b82523390820152fd5b9091503461022c57602036600319011261022c5760a0926001600160a01b03908290826106f6610aaf565b1681528460205220908154169260028201549260ff60056003850154938501541515940154169381519586526020860152840152606083015215156080820152f35b91503461022c57602036600319011261022c5735916005548310156101925750610763602092610aca565b905491519160018060a01b039160031b1c168152f35b8390346102e257816003193601126102e2576020906006549051908152f35b83346101925780600319360112610192576107b1610ba8565b600180546001600160a01b03199081169091558154908116825581906001600160a01b03167f8be0079c531659141344cd1fd0a4f28419497f9722a3daafe3b4186f6b6457e08280a380f35b9091503461022c578060031936011261022c57610818610aaf565b6001600160a01b03602435818116949192908590036109a757829061083b610ba8565b16928315801561099f575b610992578386528160205260ff60058288200154166109855780519060c0820182811067ffffffffffffffff8211176109725791818893600593528782526020820187815281830185815260608401918683528860808601948886528b60a088019960018b5252896020528d209551166bffffffffffffffffffffffff60a01b90818754161786558960018701925116908254161790555160028401555160038301555184820155019051151560ff80198354169116179055600554906801000000000000000082101561095f57508060016109259201600555610aca565b819291549060031b9184831b921b19161790557f7ac4b53a75180b3fbc3c14438b9f73a323e276863e3d20209e801773fe5ad23b8380a380f35b634e487b7160e01b865260419052602485fd5b634e487b7160e01b885260418452602488fd5b51630ea075bf60e21b8152fd5b5163d92e233d60e01b8152fd5b508415610846565b8580fd5b8390346102e257816003193601126102e25760035490516001600160a01b039091168152602090f35b8382346102e25760203660031901126102e2576109ef610ba8565b3560065580f35b8390346102e257816003193601126102e257602090516123288152f35b8390346102e25760203660031901126102e25760c0926001600160a01b0392829084610a3d610aaf565b16815282602052209083825416936001830154169260028301549060ff600560038601549486015495015416948151968752602087015285015260608401526080830152151560a0820152f35b8490346102e257816003193601126102e2576002546001600160a01b03168152602090f35b600435906001600160a01b0382168203610ac557565b600080fd5b600554811015610b015760056000527f036b6384b5eca791c62761152d0c79bb0604c104a5fb6f4eb0703f3154bb3db00190600090565b634e487b7160e01b600052603260045260246000fd5b91908201809211610b2457565b634e487b7160e01b600052601160045260246000fd5b91908203918211610b2457565b3d15610ba35767ffffffffffffffff903d828111610b8d5760405192601f8201601f19908116603f0116840190811184821017610b8d5760405282523d6000602084013e565b634e487b7160e01b600052604160045260246000fd5b606090565b6000546001600160a01b03163303610bbc57565b60405163118cdaa760e01b8152336004820152602490fdfea2646970667358221220f241e3ac8cc30dd15cdf824a1747d09b14bf2d4f56e73159363aa985930b869164736f6c63430008180033","opcodes":"PUSH1 0x80 CALLVALUE PUSH2 0x13F JUMPI PUSH1 0x1F PUSH2 0xD79 CODESIZE DUP2 SWAP1 SUB SWAP2 DUP3 ADD PUSH1 0x1F NOT AND DUP4 ADD SWAP2 PUSH1 0x1 PUSH1 0x1 PUSH1 0x40 SHL SUB DUP4 GT DUP5 DUP5 LT OR PUSH2 0x144 JUMPI DUP1 DUP5 SWAP3 PUSH1 0x40 SWAP5 DUP6 MSTORE DUP4 CODECOPY DUP2 ADD SUB SLT PUSH2 0x13F JUMPI PUSH2 0x52 PUSH1 0x20 PUSH2 0x4B DUP4 PUSH2 0x15A JUMP JUMPDEST SWAP3 ADD PUSH2 0x15A JUMP JUMPDEST SWAP1 CALLER ISZERO PUSH2 0x126 JUMPI PUSH1 0x1 DUP1 PUSH1 0xA0 SHL SUB NOT SWAP2 DUP3 PUSH1 0x1 SLOAD AND PUSH1 0x1 SSTORE PUSH1 0x0 SLOAD PUSH1 0x1 DUP1 PUSH1 0xA0 SHL SUB DUP1 SWAP4 CALLER DUP7 DUP5 AND OR PUSH1 0x0 SSTORE PUSH1 0x40 MLOAD SWAP3 DUP3 CALLER SWAP2 AND PUSH32 0x8BE0079C531659141344CD1FD0A4F28419497F9722A3DAAFE3B4186F6B6457E0 PUSH1 0x0 DUP1 LOG3 PUSH1 0x1 PUSH32 0x9B779B17422D0DF92223018B32B4D1FA46E071723D6817E2486D003BECC55F00 SSTORE PUSH8 0x6F05B59D3B20000 PUSH1 0x6 SSTORE AND SWAP1 DUP2 ISZERO DUP1 ISZERO PUSH2 0x11C JUMPI JUMPDEST PUSH2 0x10D JUMPI POP DUP4 PUSH1 0x2 SLOAD AND OR PUSH1 0x2 SSTORE AND SWAP1 PUSH1 0x3 SLOAD AND OR PUSH1 0x3 SSTORE PUSH1 0x40 MLOAD PUSH2 0xC0A SWAP1 DUP2 PUSH2 0x16F DUP3 CODECOPY RETURN JUMPDEST PUSH4 0xD92E233D PUSH1 0xE0 SHL DUP2 MSTORE PUSH1 0x4 SWAP1 REVERT JUMPDEST POP DUP4 DUP4 AND ISZERO PUSH2 0xE6 JUMP JUMPDEST PUSH1 0x40 MLOAD PUSH4 0x1E4FBDF7 PUSH1 0xE0 SHL DUP2 MSTORE PUSH1 0x0 PUSH1 0x4 DUP3 ADD MSTORE PUSH1 0x24 SWAP1 REVERT JUMPDEST PUSH1 0x0 DUP1 REVERT JUMPDEST PUSH4 0x4E487B71 PUSH1 0xE0 SHL PUSH1 0x0 MSTORE PUSH1 0x41 PUSH1 0x4 MSTORE PUSH1 0x24 PUSH1 0x0 REVERT JUMPDEST MLOAD SWAP1 PUSH1 0x1 PUSH1 0x1 PUSH1 0xA0 SHL SUB DUP3 AND DUP3 SUB PUSH2 0x13F JUMPI JUMP INVALID PUSH1 0x80 PUSH1 0x40 SWAP1 DUP1 DUP3 MSTORE PUSH1 0x4 DUP1 CALLDATASIZE LT ISZERO PUSH2 0x22 JUMPI JUMPDEST POP POP POP CALLDATASIZE ISZERO PUSH2 0x20 JUMPI PUSH1 0x0 DUP1 REVERT JUMPDEST STOP JUMPDEST PUSH1 0x0 SWAP3 DUP4 CALLDATALOAD PUSH1 0xE0 SHR SWAP3 DUP4 PUSH4 0x6D6E63F EQ PUSH2 0xA8A JUMPI POP DUP3 PUSH4 0x3A4FFA39 EQ PUSH2 0xA13 JUMPI DUP3 PUSH4 0x45904567 EQ PUSH2 0x9F6 JUMPI DUP3 PUSH4 0x45A5858E EQ PUSH2 0x9D4 JUMPI DUP3 PUSH4 0x52E199C5 EQ PUSH2 0x9AB JUMPI DUP3 PUSH4 0x5FA2582C EQ PUSH2 0x7FD JUMPI DUP3 PUSH4 0x715018A6 EQ PUSH2 0x798 JUMPI DUP3 PUSH4 0x75615D9B EQ PUSH2 0x779 JUMPI DUP3 PUSH4 0x76A2140D EQ PUSH2 0x738 JUMPI DUP3 PUSH4 0x77AE7710 EQ PUSH2 0x6CB JUMPI DUP3 PUSH4 0x79BA5097 EQ PUSH2 0x648 JUMPI DUP3 PUSH4 0x8DA5CB5B EQ PUSH2 0x620 JUMPI DUP3 PUSH4 0x9413F25C EQ PUSH2 0x3C7 JUMPI DUP3 PUSH4 0xC1E7AF35 EQ PUSH2 0x3AA JUMPI DUP3 PUSH4 0xC4FD8914 EQ PUSH2 0x38E JUMPI DUP3 PUSH4 0xD3CD52BC EQ PUSH2 0x371 JUMPI DUP3 PUSH4 0xD7BF0C90 EQ PUSH2 0x352 JUMPI DUP3 PUSH4 0xE15C17EC EQ PUSH2 0x2E6 JUMPI DUP3 PUSH4 0xE30C3978 EQ PUSH2 0x2B9 JUMPI DUP3 PUSH4 0xE45C17E1 EQ PUSH2 0x230 JUMPI DUP3 PUSH4 0xF01E9A8B EQ PUSH2 0x195 JUMPI POP POP PUSH4 0xF2FDE38B EQ PUSH2 0x126 JUMPI DUP1 DUP1 PUSH2 0x12 JUMP JUMPDEST CALLVALUE PUSH2 0x192 JUMPI PUSH1 0x20 CALLDATASIZE PUSH1 0x3 NOT ADD SLT PUSH2 0x192 JUMPI PUSH2 0x13F PUSH2 0xAAF JUMP JUMPDEST PUSH2 0x147 PUSH2 0xBA8 JUMP JUMPDEST PUSH1 0x1 DUP1 SLOAD PUSH1 0x1 PUSH1 0x1 PUSH1 0xA0 SHL SUB NOT AND PUSH1 0x1 PUSH1 0x1 PUSH1 0xA0 SHL SUB SWAP3 DUP4 AND SWAP1 DUP2 OR SWAP1 SWAP2 SSTORE DUP3 SLOAD SWAP1 SWAP2 AND PUSH32 0x38D16B8CAC22D99FC7C124B9CD0DE2D3FA1FAEF420BFE791D8C362D765E22700 DUP4 DUP1 LOG3 DUP1 RETURN JUMPDEST DUP1 REVERT JUMPDEST SWAP1 SWAP2 POP CALLVALUE PUSH2 0x22C JUMPI PUSH1 0x20 CALLDATASIZE PUSH1 0x3 NOT ADD SLT PUSH2 0x22C JUMPI PUSH2 0x1B1 PUSH2 0xAAF JUMP JUMPDEST PUSH2 0x1B9 PUSH2 0xBA8 JUMP JUMPDEST PUSH1 0x1 PUSH1 0x1 PUSH1 0xA0 SHL SUB DUP2 DUP2 AND SWAP4 DUP5 ISZERO PUSH2 0x21E JUMPI POP PUSH1 0x2 SLOAD SWAP3 MLOAD PUSH1 0x1 PUSH1 0x1 PUSH1 0xA0 SHL SUB SWAP2 DUP5 AND DUP3 AND DUP2 MSTORE SWAP2 AND PUSH1 0x20 DUP3 ADD MSTORE PUSH32 0x82034A08527E1556AF5C41AC50E5176DC09E241059CF64334802C9AB02935AEE SWAP1 PUSH1 0x40 SWAP1 LOG1 PUSH1 0x1 PUSH1 0x1 PUSH1 0xA0 SHL SUB NOT AND OR PUSH1 0x2 SSTORE DUP1 RETURN JUMPDEST DUP4 MLOAD PUSH4 0xD92E233D PUSH1 0xE0 SHL DUP2 MSTORE REVERT JUMPDEST DUP3 DUP1 REVERT JUMPDEST SWAP1 SWAP2 POP CALLVALUE PUSH2 0x22C JUMPI PUSH1 0x20 CALLDATASIZE PUSH1 0x3 NOT ADD SLT PUSH2 0x22C JUMPI PUSH2 0x24C PUSH2 0xAAF JUMP JUMPDEST PUSH2 0x254 PUSH2 0xBA8 JUMP JUMPDEST PUSH1 0x1 PUSH1 0x1 PUSH1 0xA0 SHL SUB DUP2 DUP2 AND SWAP4 DUP5 ISZERO PUSH2 0x21E JUMPI POP PUSH1 0x3 SLOAD SWAP3 MLOAD PUSH1 0x1 PUSH1 0x1 PUSH1 0xA0 SHL SUB SWAP2 DUP5 AND DUP3 AND DUP2 MSTORE SWAP2 AND PUSH1 0x20 DUP3 ADD MSTORE PUSH32 0xE74FA16C7EF5CA8CE93BDCB8C4ADF6EF2C7D0B7F3C541D9AAC1CD296FB888526 SWAP1 PUSH1 0x40 SWAP1 LOG1 PUSH1 0x1 PUSH1 0x1 PUSH1 0xA0 SHL SUB NOT AND OR PUSH1 0x3 SSTORE DUP1 RETURN JUMPDEST DUP4 SWAP1 CALLVALUE PUSH2 0x2E2 JUMPI DUP2 PUSH1 0x3 NOT CALLDATASIZE ADD SLT PUSH2 0x2E2 JUMPI PUSH1 0x1 SLOAD SWAP1 MLOAD PUSH1 0x1 PUSH1 0x1 PUSH1 0xA0 SHL SUB SWAP1 SWAP2 AND DUP2 MSTORE PUSH1 0x20 SWAP1 RETURN JUMPDEST POP DUP1 REVERT JUMPDEST SWAP1 SWAP2 POP CALLVALUE PUSH2 0x22C JUMPI PUSH1 0x20 CALLDATASIZE PUSH1 0x3 NOT ADD SLT PUSH2 0x22C JUMPI PUSH1 0x20 SWAP3 DUP2 SWAP1 PUSH1 0x1 PUSH1 0x1 PUSH1 0xA0 SHL SUB PUSH2 0x30F PUSH2 0xAAF JUMP JUMPDEST AND DUP2 MSTORE DUP4 DUP6 MSTORE KECCAK256 PUSH1 0xFF PUSH1 0x5 DUP3 ADD SLOAD AND SWAP3 DUP4 PUSH2 0x346 JUMPI JUMPDEST POP DUP3 PUSH2 0x335 JUMPI JUMPDEST POP MLOAD SWAP1 ISZERO ISZERO DUP2 MSTORE RETURN JUMPDEST PUSH1 0x2 ADD SLOAD PUSH1 0x6 SLOAD GT ISZERO SWAP2 POP CODESIZE PUSH2 0x32C JUMP JUMPDEST DUP2 ADD SLOAD ISZERO SWAP3 POP CODESIZE PUSH2 0x325 JUMP JUMPDEST DUP4 SWAP1 CALLVALUE PUSH2 0x2E2 JUMPI DUP2 PUSH1 0x3 NOT CALLDATASIZE ADD SLT PUSH2 0x2E2 JUMPI PUSH1 0x20 SWAP1 PUSH1 0x5 SLOAD SWAP1 MLOAD SWAP1 DUP2 MSTORE RETURN JUMPDEST DUP4 SWAP1 CALLVALUE PUSH2 0x2E2 JUMPI DUP2 PUSH1 0x3 NOT CALLDATASIZE ADD SLT PUSH2 0x2E2 JUMPI PUSH1 0x20 SWAP1 MLOAD PUSH2 0x2710 DUP2 MSTORE RETURN JUMPDEST DUP4 SWAP1 CALLVALUE PUSH2 0x2E2 JUMPI DUP2 PUSH1 0x3 NOT CALLDATASIZE ADD SLT PUSH2 0x2E2 JUMPI PUSH1 0x20 SWAP1 MLOAD PUSH1 0xC8 DUP2 MSTORE RETURN JUMPDEST DUP4 SWAP1 CALLVALUE PUSH2 0x2E2 JUMPI DUP2 PUSH1 0x3 NOT CALLDATASIZE ADD SLT PUSH2 0x2E2 JUMPI PUSH1 0x20 SWAP1 MLOAD PUSH2 0x320 DUP2 MSTORE RETURN JUMPDEST DUP4 SWAP1 PUSH1 0x20 SWAP1 DUP2 PUSH1 0x3 NOT CALLDATASIZE ADD SLT PUSH2 0x22C JUMPI PUSH2 0x3DF PUSH2 0xAAF JUMP JUMPDEST SWAP4 PUSH32 0x9B779B17422D0DF92223018B32B4D1FA46E071723D6817E2486D003BECC55F00 SWAP3 PUSH1 0x2 DUP5 SLOAD EQ PUSH2 0x611 JUMPI PUSH1 0x2 DUP5 SSTORE PUSH1 0x1 DUP1 PUSH1 0xA0 SHL SUB DUP1 SWAP7 AND SWAP3 DUP4 DUP7 MSTORE DUP3 DUP3 MSTORE DUP1 DUP7 KECCAK256 SWAP3 PUSH1 0xFF PUSH1 0x5 DUP6 ADD SLOAD AND ISZERO PUSH2 0x603 JUMPI PUSH1 0x2 DUP5 ADD SWAP4 PUSH2 0x441 CALLVALUE DUP7 SLOAD PUSH2 0xB17 JUMP JUMPDEST DUP6 SSTORE PUSH2 0x2328 DUP1 CALLVALUE MUL CALLVALUE ISZERO SWAP2 CALLVALUE DUP3 DIV EQ DUP3 OR ISZERO PUSH2 0x5F0 JUMPI PUSH2 0x2710 DUP1 SWAP2 DIV SWAP2 PUSH2 0x320 SWAP1 DUP2 CALLVALUE MUL SWAP2 CALLVALUE DUP4 DIV EQ OR ISZERO PUSH2 0x5DD JUMPI DIV DUP11 DUP11 DUP1 DUP1 DUP1 DUP7 PUSH2 0x48A DUP8 PUSH2 0x485 DUP4 CALLVALUE PUSH2 0xB3A JUMP JUMPDEST PUSH2 0xB3A JUMP JUMPDEST SWAP6 DUP10 SLOAD AND GAS CALL PUSH2 0x498 PUSH2 0xB47 JUMP JUMPDEST POP ISZERO PUSH2 0x5CD JUMPI DUP11 DUP1 DUP1 DUP1 DUP16 DUP7 SWAP1 PUSH1 0x3 DUP11 ADD PUSH2 0x4B4 DUP11 DUP3 SLOAD PUSH2 0xB17 JUMP JUMPDEST SWAP1 SSTORE PUSH1 0x2 SLOAD AND GAS CALL PUSH2 0x4C4 PUSH2 0xB47 JUMP JUMPDEST POP ISZERO PUSH2 0x5CD JUMPI DUP11 DUP1 DUP1 DUP1 DUP16 DUP6 SWAP1 PUSH1 0x3 SLOAD AND GAS CALL PUSH2 0x4DF PUSH2 0xB47 JUMP JUMPDEST POP ISZERO PUSH2 0x5CD JUMPI PUSH1 0x1 SWAP11 SWAP12 DUP10 PUSH32 0x22514265B5FB0BD8542BA18DA00CCDE26BF6B9C32D210330F08C9FC11307884B PUSH1 0x60 PUSH32 0x14F433C13BADC2239830AB3BB19E75DEC63D39F851363844CC4E4650D0C9B601 SWAP6 DUP12 SWAP6 DUP5 PUSH32 0x2CCFC58C2CEF4EE590B5F16BE0548CC54AFC12E1C66A67B362B7D640FD16BB2D DUP9 DUP15 MLOAD CALLVALUE DUP2 MSTORE LOG2 DUP12 MLOAD SWAP2 DUP10 DUP4 MSTORE DUP8 DUP4 ADD MSTORE DUP12 DUP3 ADD MSTORE LOG2 DUP5 SLOAD AND SWAP3 DUP7 MLOAD SWAP1 DUP2 MSTORE LOG2 ADD SWAP3 DUP4 SLOAD ISZERO DUP1 PUSH2 0x5C0 JUMPI JUMPDEST PUSH2 0x58A JUMPI JUMPDEST DUP8 DUP8 DUP8 SSTORE DUP1 RETURN JUMPDEST PUSH32 0x3890264206CFA5C6518B7C1D4CC28DC6DF609FE7C0CA9092C444587055BD76C3 SWAP4 TIMESTAMP SWAP1 SSTORE SLOAD SWAP1 MLOAD SWAP1 DUP2 MSTORE LOG2 DUP4 DUP1 DUP1 DUP1 DUP1 PUSH2 0x583 JUMP JUMPDEST POP DUP1 SLOAD PUSH1 0x6 SLOAD GT ISZERO PUSH2 0x57E JUMP JUMPDEST DUP6 MLOAD PUSH4 0x12171D83 PUSH1 0xE3 SHL DUP2 MSTORE DUP6 SWAP1 REVERT JUMPDEST PUSH4 0x4E487B71 PUSH1 0xE0 SHL DUP12 MSTORE PUSH1 0x11 DUP6 MSTORE PUSH1 0x24 DUP12 REVERT JUMPDEST PUSH4 0x4E487B71 PUSH1 0xE0 SHL DUP11 MSTORE PUSH1 0x11 DUP5 MSTORE PUSH1 0x24 DUP11 REVERT JUMPDEST SWAP1 MLOAD PUSH4 0xABA47339 PUSH1 0xE0 SHL DUP2 MSTORE REVERT JUMPDEST POP SWAP1 MLOAD PUSH4 0x3EE5AEB5 PUSH1 0xE0 SHL DUP2 MSTORE REVERT JUMPDEST DUP4 SWAP1 CALLVALUE PUSH2 0x2E2 JUMPI DUP2 PUSH1 0x3 NOT CALLDATASIZE ADD SLT PUSH2 0x2E2 JUMPI SWAP1 SLOAD SWAP1 MLOAD PUSH1 0x1 PUSH1 0x1 PUSH1 0xA0 SHL SUB SWAP1 SWAP2 AND DUP2 MSTORE PUSH1 0x20 SWAP1 RETURN JUMPDEST SWAP1 SWAP2 POP CALLVALUE PUSH2 0x22C JUMPI DUP3 PUSH1 0x3 NOT CALLDATASIZE ADD SLT PUSH2 0x22C JUMPI PUSH1 0x1 SLOAD SWAP2 PUSH1 0x1 PUSH1 0x1 PUSH1 0xA0 SHL SUB SWAP2 CALLER DUP4 DUP6 AND SUB PUSH2 0x6B4 JUMPI POP POP PUSH1 0x1 PUSH1 0x1 PUSH1 0xA0 SHL SUB NOT SWAP2 DUP3 AND PUSH1 0x1 SSTORE DUP3 SLOAD CALLER SWAP3 DUP2 AND DUP4 OR DUP5 SSTORE AND PUSH32 0x8BE0079C531659141344CD1FD0A4F28419497F9722A3DAAFE3B4186F6B6457E0 DUP4 DUP1 LOG3 DUP1 RETURN JUMPDEST PUSH1 0x24 SWAP3 POP MLOAD SWAP1 PUSH4 0x118CDAA7 PUSH1 0xE0 SHL DUP3 MSTORE CALLER SWAP1 DUP3 ADD MSTORE REVERT JUMPDEST SWAP1 SWAP2 POP CALLVALUE PUSH2 0x22C JUMPI PUSH1 0x20 CALLDATASIZE PUSH1 0x3 NOT ADD SLT PUSH2 0x22C JUMPI PUSH1 0xA0 SWAP3 PUSH1 0x1 PUSH1 0x1 PUSH1 0xA0 SHL SUB SWAP1 DUP3 SWAP1 DUP3 PUSH2 0x6F6 PUSH2 0xAAF JUMP JUMPDEST AND DUP2 MSTORE DUP5 PUSH1 0x20 MSTORE KECCAK256 SWAP1 DUP2 SLOAD AND SWAP3 PUSH1 0x2 DUP3 ADD SLOAD SWAP3 PUSH1 0xFF PUSH1 0x5 PUSH1 0x3 DUP6 ADD SLOAD SWAP4 DUP6 ADD SLOAD ISZERO ISZERO SWAP5 ADD SLOAD AND SWAP4 DUP2 MLOAD SWAP6 DUP7 MSTORE PUSH1 0x20 DUP7 ADD MSTORE DUP5 ADD MSTORE PUSH1 0x60 DUP4 ADD MSTORE ISZERO ISZERO PUSH1 0x80 DUP3 ADD MSTORE RETURN JUMPDEST SWAP2 POP CALLVALUE PUSH2 0x22C JUMPI PUSH1 0x20 CALLDATASIZE PUSH1 0x3 NOT ADD SLT PUSH2 0x22C JUMPI CALLDATALOAD SWAP2 PUSH1 0x5 SLOAD DUP4 LT ISZERO PUSH2 0x192 JUMPI POP PUSH2 0x763 PUSH1 0x20 SWAP3 PUSH2 0xACA JUMP JUMPDEST SWAP1 SLOAD SWAP2 MLOAD SWAP2 PUSH1 0x1 DUP1 PUSH1 0xA0 SHL SUB SWAP2 PUSH1 0x3 SHL SHR AND DUP2 MSTORE RETURN JUMPDEST DUP4 SWAP1 CALLVALUE PUSH2 0x2E2 JUMPI DUP2 PUSH1 0x3 NOT CALLDATASIZE ADD SLT PUSH2 0x2E2 JUMPI PUSH1 0x20 SWAP1 PUSH1 0x6 SLOAD SWAP1 MLOAD SWAP1 DUP2 MSTORE RETURN JUMPDEST DUP4 CALLVALUE PUSH2 0x192 JUMPI DUP1 PUSH1 0x3 NOT CALLDATASIZE ADD SLT PUSH2 0x192 JUMPI PUSH2 0x7B1 PUSH2 0xBA8 JUMP JUMPDEST PUSH1 0x1 DUP1 SLOAD PUSH1 0x1 PUSH1 0x1 PUSH1 0xA0 SHL SUB NOT SWAP1 DUP2 AND SWAP1 SWAP2 SSTORE DUP2 SLOAD SWAP1 DUP2 AND DUP3 SSTORE DUP2 SWAP1 PUSH1 0x1 PUSH1 0x1 PUSH1 0xA0 SHL SUB AND PUSH32 0x8BE0079C531659141344CD1FD0A4F28419497F9722A3DAAFE3B4186F6B6457E0 DUP3 DUP1 LOG3 DUP1 RETURN JUMPDEST SWAP1 SWAP2 POP CALLVALUE PUSH2 0x22C JUMPI DUP1 PUSH1 0x3 NOT CALLDATASIZE ADD SLT PUSH2 0x22C JUMPI PUSH2 0x818 PUSH2 0xAAF JUMP JUMPDEST PUSH1 0x1 PUSH1 0x1 PUSH1 0xA0 SHL SUB PUSH1 0x24 CALLDATALOAD DUP2 DUP2 AND SWAP5 SWAP2 SWAP3 SWAP1 DUP6 SWAP1 SUB PUSH2 0x9A7 JUMPI DUP3 SWAP1 PUSH2 0x83B PUSH2 0xBA8 JUMP JUMPDEST AND SWAP3 DUP4 ISZERO DUP1 ISZERO PUSH2 0x99F JUMPI JUMPDEST PUSH2 0x992 JUMPI DUP4 DUP7 MSTORE DUP2 PUSH1 0x20 MSTORE PUSH1 0xFF PUSH1 0x5 DUP3 DUP9 KECCAK256 ADD SLOAD AND PUSH2 0x985 JUMPI DUP1 MLOAD SWAP1 PUSH1 0xC0 DUP3 ADD DUP3 DUP2 LT PUSH8 0xFFFFFFFFFFFFFFFF DUP3 GT OR PUSH2 0x972 JUMPI SWAP2 DUP2 DUP9 SWAP4 PUSH1 0x5 SWAP4 MSTORE DUP8 DUP3 MSTORE PUSH1 0x20 DUP3 ADD DUP8 DUP2 MSTORE DUP2 DUP4 ADD DUP6 DUP2 MSTORE PUSH1 0x60 DUP5 ADD SWAP2 DUP7 DUP4 MSTORE DUP9 PUSH1 0x80 DUP7 ADD SWAP5 DUP9 DUP7 MSTORE DUP12 PUSH1 0xA0 DUP9 ADD SWAP10 PUSH1 0x1 DUP12 MSTORE MSTORE DUP10 PUSH1 0x20 MSTORE DUP14 KECCAK256 SWAP6 MLOAD AND PUSH12 0xFFFFFFFFFFFFFFFFFFFFFFFF PUSH1 0xA0 SHL SWAP1 DUP2 DUP8 SLOAD AND OR DUP7 SSTORE DUP10 PUSH1 0x1 DUP8 ADD SWAP3 MLOAD AND SWAP1 DUP3 SLOAD AND OR SWAP1 SSTORE MLOAD PUSH1 0x2 DUP5 ADD SSTORE MLOAD PUSH1 0x3 DUP4 ADD SSTORE MLOAD DUP5 DUP3 ADD SSTORE ADD SWAP1 MLOAD ISZERO ISZERO PUSH1 0xFF DUP1 NOT DUP4 SLOAD AND SWAP2 AND OR SWAP1 SSTORE PUSH1 0x5 SLOAD SWAP1 PUSH9 0x10000000000000000 DUP3 LT ISZERO PUSH2 0x95F JUMPI POP DUP1 PUSH1 0x1 PUSH2 0x925 SWAP3 ADD PUSH1 0x5 SSTORE PUSH2 0xACA JUMP JUMPDEST DUP2 SWAP3 SWAP2 SLOAD SWAP1 PUSH1 0x3 SHL SWAP2 DUP5 DUP4 SHL SWAP3 SHL NOT AND OR SWAP1 SSTORE PUSH32 0x7AC4B53A75180B3FBC3C14438B9F73A323E276863E3D20209E801773FE5AD23B DUP4 DUP1 LOG3 DUP1 RETURN JUMPDEST PUSH4 0x4E487B71 PUSH1 0xE0 SHL DUP7 MSTORE PUSH1 0x41 SWAP1 MSTORE PUSH1 0x24 DUP6 REVERT JUMPDEST PUSH4 0x4E487B71 PUSH1 0xE0 SHL DUP9 MSTORE PUSH1 0x41 DUP5 MSTORE PUSH1 0x24 DUP9 REVERT JUMPDEST MLOAD PUSH4 0xEA075BF PUSH1 0xE2 SHL DUP2 MSTORE REVERT JUMPDEST MLOAD PUSH4 0xD92E233D PUSH1 0xE0 SHL DUP2 MSTORE REVERT JUMPDEST POP DUP5 ISZERO PUSH2 0x846 JUMP JUMPDEST DUP6 DUP1 REVERT JUMPDEST DUP4 SWAP1 CALLVALUE PUSH2 0x2E2 JUMPI DUP2 PUSH1 0x3 NOT CALLDATASIZE ADD SLT PUSH2 0x2E2 JUMPI PUSH1 0x3 SLOAD SWAP1 MLOAD PUSH1 0x1 PUSH1 0x1 PUSH1 0xA0 SHL SUB SWAP1 SWAP2 AND DUP2 MSTORE PUSH1 0x20 SWAP1 RETURN JUMPDEST DUP4 DUP3 CALLVALUE PUSH2 0x2E2 JUMPI PUSH1 0x20 CALLDATASIZE PUSH1 0x3 NOT ADD SLT PUSH2 0x2E2 JUMPI PUSH2 0x9EF PUSH2 0xBA8 JUMP JUMPDEST CALLDATALOAD PUSH1 0x6 SSTORE DUP1 RETURN JUMPDEST DUP4 SWAP1 CALLVALUE PUSH2 0x2E2 JUMPI DUP2 PUSH1 0x3 NOT CALLDATASIZE ADD SLT PUSH2 0x2E2 JUMPI PUSH1 0x20 SWAP1 MLOAD PUSH2 0x2328 DUP2 MSTORE RETURN JUMPDEST DUP4 SWAP1 CALLVALUE PUSH2 0x2E2 JUMPI PUSH1 0x20 CALLDATASIZE PUSH1 0x3 NOT ADD SLT PUSH2 0x2E2 JUMPI PUSH1 0xC0 SWAP3 PUSH1 0x1 PUSH1 0x1 PUSH1 0xA0 SHL SUB SWAP3 DUP3 SWAP1 DUP5 PUSH2 0xA3D PUSH2 0xAAF JUMP JUMPDEST AND DUP2 MSTORE DUP3 PUSH1 0x20 MSTORE KECCAK256 SWAP1 DUP4 DUP3 SLOAD AND SWAP4 PUSH1 0x1 DUP4 ADD SLOAD AND SWAP3 PUSH1 0x2 DUP4 ADD SLOAD SWAP1 PUSH1 0xFF PUSH1 0x5 PUSH1 0x3 DUP7 ADD SLOAD SWAP5 DUP7 ADD SLOAD SWAP6 ADD SLOAD AND SWAP5 DUP2 MLOAD SWAP7 DUP8 MSTORE PUSH1 0x20 DUP8 ADD MSTORE DUP6 ADD MSTORE PUSH1 0x60 DUP5 ADD MSTORE PUSH1 0x80 DUP4 ADD MSTORE ISZERO ISZERO PUSH1 0xA0 DUP3 ADD MSTORE RETURN JUMPDEST DUP5 SWAP1 CALLVALUE PUSH2 0x2E2 JUMPI DUP2 PUSH1 0x3 NOT CALLDATASIZE ADD SLT PUSH2 0x2E2 JUMPI PUSH1 0x2 SLOAD PUSH1 0x1 PUSH1 0x1 PUSH1 0xA0 SHL SUB AND DUP2 MSTORE PUSH1 0x20 SWAP1 RETURN JUMPDEST PUSH1 0x4 CALLDATALOAD SWAP1 PUSH1 0x1 PUSH1 0x1 PUSH1 0xA0 SHL SUB DUP3 AND DUP3 SUB PUSH2 0xAC5 JUMPI JUMP JUMPDEST PUSH1 0x0 DUP1 REVERT JUMPDEST PUSH1 0x5 SLOAD DUP2 LT ISZERO PUSH2 0xB01 JUMPI PUSH1 0x5 PUSH1 0x0 MSTORE PUSH32 0x36B6384B5ECA791C62761152D0C79BB0604C104A5FB6F4EB0703F3154BB3DB0 ADD SWAP1 PUSH1 0x0 SWAP1 JUMP JUMPDEST PUSH4 0x4E487B71 PUSH1 0xE0 SHL PUSH1 0x0 MSTORE PUSH1 0x32 PUSH1 0x4 MSTORE PUSH1 0x24 PUSH1 0x0 REVERT JUMPDEST SWAP2 SWAP1 DUP3 ADD DUP1 SWAP3 GT PUSH2 0xB24 JUMPI JUMP JUMPDEST PUSH4 0x4E487B71 PUSH1 0xE0 SHL PUSH1 0x0 MSTORE PUSH1 0x11 PUSH1 0x4 MSTORE PUSH1 0x24 PUSH1 0x0 REVERT JUMPDEST SWAP2 SWAP1 DUP3 SUB SWAP2 DUP3 GT PUSH2 0xB24 JUMPI JUMP JUMPDEST RETURNDATASIZE ISZERO PUSH2 0xBA3 JUMPI PUSH8 0xFFFFFFFFFFFFFFFF SWAP1 RETURNDATASIZE DUP3 DUP2 GT PUSH2 0xB8D JUMPI PUSH1 0x40 MLOAD SWAP3 PUSH1 0x1F DUP3 ADD PUSH1 0x1F NOT SWAP1 DUP2 AND PUSH1 0x3F ADD AND DUP5 ADD SWAP1 DUP2 GT DUP5 DUP3 LT OR PUSH2 0xB8D JUMPI PUSH1 0x40 MSTORE DUP3 MSTORE RETURNDATASIZE PUSH1 0x0 PUSH1 0x20 DUP5 ADD RETURNDATACOPY JUMP JUMPDEST PUSH4 0x4E487B71 PUSH1 0xE0 SHL PUSH1 0x0 MSTORE PUSH1 0x41 PUSH1 0x4 MSTORE PUSH1 0x24 PUSH1 0x0 REVERT JUMPDEST PUSH1 0x60 SWAP1 JUMP JUMPDEST PUSH1 0x0 SLOAD PUSH1 0x1 PUSH1 0x1 PUSH1 0xA0 SHL SUB AND CALLER SUB PUSH2 0xBBC JUMPI JUMP JUMPDEST PUSH1 0x40 MLOAD PUSH4 0x118CDAA7 PUSH1 0xE0 SHL DUP2 MSTORE CALLER PUSH1 0x4 DUP3 ADD MSTORE PUSH1 0x24 SWAP1 REVERT INVALID LOG2 PUSH5 0x6970667358 0x22 SLT KECCAK256 CALLCODE COINBASE 0xE3 0xAC DUP13 0xC3 0xD 0xD1 TLOAD 0xDF DUP3 BLOBBASEFEE OR SELFBALANCE 0xD0 SWAP12 EQ 0xBF 0x2D 0x4F JUMP 0xE7 BALANCE MSIZE CALLDATASIZE GASPRICE 0xA9 DUP6 SWAP4 SIGNEXTEND DUP7 SWAP2 PUSH5 0x736F6C6343 STOP ADDMOD XOR STOP CALLER "},"methodIdentifiers":{"CREATOR_BPS()":"45904567","GAS_BPS()":"c4fd8914","PROTOCOL_BPS()":"c1e7af35","TOTAL_BPS()":"d3cd52bc","acceptOwnership()":"79ba5097","allDickCoins(uint256)":"76a2140d","autoStakeThreshold()":"75615d9b","dickCoins(address)":"3a4ffa39","distributeFees(address)":"9413f25c","gasWallet()":"52e199c5","getDickCoinCount()":"d7bf0c90","getDickCoinInfo(address)":"77ae7710","isAutoStakeReady(address)":"e15c17ec","owner()":"8da5cb5b","pendingOwner()":"e30c3978","protocolWallet()":"06d6e63f","registerDickCoin(address,address)":"5fa2582c","renounceOwnership()":"715018a6","setAutoStakeThreshold(uint256)":"45a5858e","setGasWallet(address)":"e45c17e1","setProtocolWallet(address)":"f01e9a8b","transferOwnership(address)":"f2fde38b"}}}}}