{
  "_format": "hh-sol-artifact-1",
  "contractName": "SizeGifting",
  "sourceName": "contracts/SizeGifting.sol",
  "abi": [
    {
      "inputs": [
        {
          "internalType": "address",
          "name": "_sizeToken",
          "type": "address"
        }
      ],
      "stateMutability": "nonpayable",
      "type": "constructor"
    },
    {
      "inputs": [],
      "name": "MessageTooLong",
      "type": "error"
    },
    {
      "inputs": [],
      "name": "ReentrancyGuardReentrantCall",
      "type": "error"
    },
    {
      "inputs": [
        {
          "internalType": "address",
          "name": "token",
          "type": "address"
        }
      ],
      "name": "SafeERC20FailedOperation",
      "type": "error"
    },
    {
      "inputs": [],
      "name": "SelfGift",
      "type": "error"
    },
    {
      "inputs": [],
      "name": "ZeroAmount",
      "type": "error"
    },
    {
      "anonymous": false,
      "inputs": [
        {
          "indexed": true,
          "internalType": "address",
          "name": "from",
          "type": "address"
        },
        {
          "indexed": true,
          "internalType": "address",
          "name": "to",
          "type": "address"
        },
        {
          "indexed": false,
          "internalType": "uint256",
          "name": "amount",
          "type": "uint256"
        },
        {
          "indexed": false,
          "internalType": "bytes32",
          "name": "postId",
          "type": "bytes32"
        },
        {
          "indexed": false,
          "internalType": "string",
          "name": "message",
          "type": "string"
        }
      ],
      "name": "Gift",
      "type": "event"
    },
    {
      "anonymous": false,
      "inputs": [
        {
          "indexed": true,
          "internalType": "address",
          "name": "from",
          "type": "address"
        },
        {
          "indexed": true,
          "internalType": "address",
          "name": "postAuthor",
          "type": "address"
        },
        {
          "indexed": false,
          "internalType": "uint256",
          "name": "amount",
          "type": "uint256"
        },
        {
          "indexed": false,
          "internalType": "bytes32",
          "name": "postId",
          "type": "bytes32"
        }
      ],
      "name": "PostTip",
      "type": "event"
    },
    {
      "inputs": [
        {
          "internalType": "address[]",
          "name": "_recipients",
          "type": "address[]"
        },
        {
          "internalType": "uint256[]",
          "name": "_amounts",
          "type": "uint256[]"
        }
      ],
      "name": "batchGift",
      "outputs": [],
      "stateMutability": "nonpayable",
      "type": "function"
    },
    {
      "inputs": [
        {
          "internalType": "address",
          "name": "_to",
          "type": "address"
        },
        {
          "internalType": "uint256",
          "name": "_amount",
          "type": "uint256"
        },
        {
          "internalType": "bytes32",
          "name": "_postId",
          "type": "bytes32"
        },
        {
          "internalType": "string",
          "name": "_message",
          "type": "string"
        }
      ],
      "name": "gift",
      "outputs": [],
      "stateMutability": "nonpayable",
      "type": "function"
    },
    {
      "inputs": [],
      "name": "sizeToken",
      "outputs": [
        {
          "internalType": "contract IERC20",
          "name": "",
          "type": "address"
        }
      ],
      "stateMutability": "view",
      "type": "function"
    }
  ],
  "bytecode": "0x60a03461009c57601f6106dd38819003918201601f19168301916001600160401b038311848410176100a15780849260209460405283398101031261009c57516001600160a01b0381169081900361009c5760017f9b779b17422d0df92223018b32b4d1fa46e071723d6817e2486d003becc55f005560805260405161062590816100b8823960805181818160570152818160fd01526103bd0152f35b600080fd5b634e487b7160e01b600052604160045260246000fdfe6040608081526004908136101561001557600080fd5b600091823560e01c9081631386b2d51461030d57816368cbe3881461008a575063a6df08311461004457600080fd5b34610086578160031936011261008657517f00000000000000000000000000000000000000000000000000000000000000006001600160a01b03168152602090f35b5080fd5b9190503461030957806003193601126103095767ffffffffffffffff908235828111610305576100bd90369085016104b0565b602494919493602435908111610301576100da90369084016104b0565b9590916100e5610520565b8681036102cc578791885b88811061024d57506101257f000000000000000000000000000000000000000000000000000000000000000093303386610562565b885b828110610156578960017f9b779b17422d0df92223018b32b4d1fa46e071723d6817e2486d003becc55f005580f35b6101696101648285856104e6565b61050c565b610174828b886104e6565b885163a9059cbb60e01b8d526001600160a01b03928316895290358a5260209190828d604481808b5af18d60018091511482161561022f575b50818b521561021a57509082918b8d6101d7856101d06101646001998c8c6104e6565b938c6104e6565b35818d51956060928752860152808d86015284015216907f9f1e2b2937aeef46b6320d93242ddf7992586ecb4f619ee50ce470877fffe7e960803392a301610127565b635274afe760e01b8152908616818901528990fd5b81151661024457873b15153d151616386101ad565b503d8d823e3d90fd5b92610259848a876104e6565b35156102bc57336001600160a01b036102766101648787876104e6565b16146102ac57610287848a876104e6565b35810180911161029a57926001016100f0565b634e487b7160e01b8a5260118652878afd5b8651636996c19360e01b81528690fd5b8651631f2a200560e01b81528690fd5b845162461bcd60e51b8152602081860152600f60248201526e098cadccee8d040dad2e6dac2e8c6d608b1b6044820152606490fd5b8680fd5b8480fd5b8280fd5b9050346103095760803660031901126103095780356001600160a01b038116928382036103055760243592604435926064359067ffffffffffffffff928383116104ac57366023840112156104ac57828101359384116104ac5736602485850101116104ac5761037b610520565b861561049e5733881461049057608c841161048257508692916103e1877f9f1e2b2937aeef46b6320d93242ddf7992586ecb4f619ee50ce470877fffe7e993337f0000000000000000000000000000000000000000000000000000000000000000610562565b82602486519289845288602085015260608885015282606085015201608083013788608084830101526080813394601f80199101168101030190a38161044a575b8460017f9b779b17422d0df92223018b32b4d1fa46e071723d6817e2486d003becc55f005580f35b7f585d4deaddd0e69dcae4245296cd2f67ddf80496727fc4d93780c62311d7cd6091815193845260208401523392a338808080610422565b84516347e8b47560e11b8152fd5b8451636996c19360e01b8152fd5b8451631f2a200560e01b8152fd5b8880fd5b9181601f840112156104e15782359167ffffffffffffffff83116104e1576020808501948460051b0101116104e157565b600080fd5b91908110156104f65760051b0190565b634e487b7160e01b600052603260045260246000fd5b356001600160a01b03811681036104e15790565b7f9b779b17422d0df92223018b32b4d1fa46e071723d6817e2486d003becc55f0060028154146105505760029055565b604051633ee5aeb560e01b8152600490fd5b6040516323b872dd60e01b60009081526001600160a01b03938416600452938316602452604494909452909160209060648180855af16001600051148116156105cf575b836040526000606052156105b957505050565b635274afe760e01b835216600482015260249150fd5b60018115166105e557813b15153d1516166105a6565b833d6000823e3d90fdfea264697066735822122037ff81aed021a0168e61d1613dee2dcea1c8d302f8187de0fa786be40284059564736f6c63430008180033",
  "linkReferences": {},
  "deployedLinkReferences": {}
}