{
  "_format": "hh-sol-artifact-1",
  "contractName": "SizeGifting",
  "sourceName": "contracts/SizeGifting.sol",
  "abi": [
    {
      "inputs": [
        {
          "internalType": "address",
          "name": "_sizeToken",
          "type": "address"
        }
      ],
      "stateMutability": "nonpayable",
      "type": "constructor"
    },
    {
      "inputs": [],
      "name": "BatchTooLarge",
      "type": "error"
    },
    {
      "inputs": [],
      "name": "MessageTooLong",
      "type": "error"
    },
    {
      "inputs": [],
      "name": "ReentrancyGuardReentrantCall",
      "type": "error"
    },
    {
      "inputs": [
        {
          "internalType": "address",
          "name": "token",
          "type": "address"
        }
      ],
      "name": "SafeERC20FailedOperation",
      "type": "error"
    },
    {
      "inputs": [],
      "name": "SelfGift",
      "type": "error"
    },
    {
      "inputs": [],
      "name": "ZeroAddress",
      "type": "error"
    },
    {
      "inputs": [],
      "name": "ZeroAmount",
      "type": "error"
    },
    {
      "anonymous": false,
      "inputs": [
        {
          "indexed": true,
          "internalType": "address",
          "name": "from",
          "type": "address"
        },
        {
          "indexed": true,
          "internalType": "address",
          "name": "to",
          "type": "address"
        },
        {
          "indexed": false,
          "internalType": "uint256",
          "name": "amount",
          "type": "uint256"
        },
        {
          "indexed": false,
          "internalType": "bytes32",
          "name": "postId",
          "type": "bytes32"
        },
        {
          "indexed": false,
          "internalType": "string",
          "name": "message",
          "type": "string"
        }
      ],
      "name": "Gift",
      "type": "event"
    },
    {
      "anonymous": false,
      "inputs": [
        {
          "indexed": true,
          "internalType": "address",
          "name": "from",
          "type": "address"
        },
        {
          "indexed": true,
          "internalType": "address",
          "name": "postAuthor",
          "type": "address"
        },
        {
          "indexed": false,
          "internalType": "uint256",
          "name": "amount",
          "type": "uint256"
        },
        {
          "indexed": false,
          "internalType": "bytes32",
          "name": "postId",
          "type": "bytes32"
        }
      ],
      "name": "PostTip",
      "type": "event"
    },
    {
      "inputs": [],
      "name": "MAX_BATCH",
      "outputs": [
        {
          "internalType": "uint256",
          "name": "",
          "type": "uint256"
        }
      ],
      "stateMutability": "view",
      "type": "function"
    },
    {
      "inputs": [
        {
          "internalType": "address[]",
          "name": "_recipients",
          "type": "address[]"
        },
        {
          "internalType": "uint256[]",
          "name": "_amounts",
          "type": "uint256[]"
        }
      ],
      "name": "batchGift",
      "outputs": [],
      "stateMutability": "nonpayable",
      "type": "function"
    },
    {
      "inputs": [
        {
          "internalType": "address",
          "name": "_to",
          "type": "address"
        },
        {
          "internalType": "uint256",
          "name": "_amount",
          "type": "uint256"
        },
        {
          "internalType": "bytes32",
          "name": "_postId",
          "type": "bytes32"
        },
        {
          "internalType": "string",
          "name": "_message",
          "type": "string"
        }
      ],
      "name": "gift",
      "outputs": [],
      "stateMutability": "nonpayable",
      "type": "function"
    },
    {
      "inputs": [],
      "name": "sizeToken",
      "outputs": [
        {
          "internalType": "contract IERC20",
          "name": "",
          "type": "address"
        }
      ],
      "stateMutability": "view",
      "type": "function"
    }
  ],
  "bytecode": "0x60a0346100b557601f61078438819003918201601f19168301916001600160401b038311848410176100ba578084926020946040528339810103126100b557516001600160a01b038116908190036100b55760017f9b779b17422d0df92223018b32b4d1fa46e071723d6817e2486d003becc55f005580156100a3576080526040516106b390816100d18239608051818181606201528181610131015261043d0152f35b60405163d92e233d60e01b8152600490fd5b600080fd5b634e487b7160e01b600052604160045260246000fdfe6040608081526004908136101561001557600080fd5b600091823560e01c9081631386b2d51461038757816368cbe388146100b057508063950bff9f146100955763a6df08311461004f57600080fd5b34610091578160031936011261009157517f00000000000000000000000000000000000000000000000000000000000000006001600160a01b03168152602090f35b5080fd5b50346100915781600319360112610091576020905160648152f35b9190503461038357806003193601126103835767ffffffffffffffff90823582811161037f576100e3903690850161053e565b60249491949360243590811161037b57610100903690840161053e565b95909161010b6105ae565b8681036103465760648111610336578015610326578791885b88811061028157506101597f0000000000000000000000000000000000000000000000000000000000000000933033866105f0565b885b82811061018a578960017f9b779b17422d0df92223018b32b4d1fa46e071723d6817e2486d003becc55f005580f35b61019d610198828585610574565b61059a565b6101a8828b88610574565b885163a9059cbb60e01b8d526001600160a01b03928316895290358a5260209190828d604481808b5af18d600180915114821615610263575b50818b521561024e57509082918b8d61020b856102046101986001998c8c610574565b938c610574565b35818d51956060928752860152808d86015284015216907f9f1e2b2937aeef46b6320d93242ddf7992586ecb4f619ee50ce470877fffe7e960803392a30161015b565b635274afe760e01b8152908616818901528990fd5b81151661027857873b15153d151616386101e1565b503d8d823e3d90fd5b9261028d848a87610574565b3515610316576001600160a01b03806102aa610198878787610574565b16156103065733906102c0610198878787610574565b16146102f6576102d1848a87610574565b3581018091116102e45792600101610124565b634e487b7160e01b8a5260118652878afd5b8651636996c19360e01b81528690fd5b875163d92e233d60e01b81528790fd5b8651631f2a200560e01b81528690fd5b8451631f2a200560e01b81528490fd5b84516305beb17160e11b81528490fd5b845162461bcd60e51b8152602081860152600f60248201526e098cadccee8d040dad2e6dac2e8c6d608b1b6044820152606490fd5b8680fd5b8480fd5b8280fd5b9050346103835760803660031901126103835780356001600160a01b0381169283820361037f5760243592604435926064359067ffffffffffffffff9283831161053a573660238401121561053a578281013593841161053a57366024858501011161053a576103f56105ae565b861561052c57871561051e5733881461051057608c84116105025750869291610461877f9f1e2b2937aeef46b6320d93242ddf7992586ecb4f619ee50ce470877fffe7e993337f00000000000000000000000000000000000000000000000000000000000000006105f0565b82602486519289845288602085015260608885015282606085015201608083013788608084830101526080813394601f80199101168101030190a3816104ca575b8460017f9b779b17422d0df92223018b32b4d1fa46e071723d6817e2486d003becc55f005580f35b7f585d4deaddd0e69dcae4245296cd2f67ddf80496727fc4d93780c62311d7cd6091815193845260208401523392a3388080806104a2565b84516347e8b47560e11b8152fd5b8451636996c19360e01b8152fd5b845163d92e233d60e01b8152fd5b8451631f2a200560e01b8152fd5b8880fd5b9181601f8401121561056f5782359167ffffffffffffffff831161056f576020808501948460051b01011161056f57565b600080fd5b91908110156105845760051b0190565b634e487b7160e01b600052603260045260246000fd5b356001600160a01b038116810361056f5790565b7f9b779b17422d0df92223018b32b4d1fa46e071723d6817e2486d003becc55f0060028154146105de5760029055565b604051633ee5aeb560e01b8152600490fd5b6040516323b872dd60e01b60009081526001600160a01b03938416600452938316602452604494909452909160209060648180855af160016000511481161561065d575b8360405260006060521561064757505050565b635274afe760e01b835216600482015260249150fd5b600181151661067357813b15153d151616610634565b833d6000823e3d90fdfea26469706673582212203f046ad719f38f947f9584d00ae86e5f8d95dbc2d0fe9c0d337f82012039ce6a64736f6c63430008180033",
  "linkReferences": {},
  "deployedLinkReferences": {}
}