{
  "_format": "hh-sol-artifact-1",
  "contractName": "SizeDickCoinFactory",
  "sourceName": "contracts/SizeDickCoinFactory.sol",
  "abi": [
    {
      "inputs": [
        {
          "internalType": "address",
          "name": "_protocolWallet",
          "type": "address"
        },
        {
          "internalType": "address",
          "name": "_gasWallet",
          "type": "address"
        }
      ],
      "stateMutability": "nonpayable",
      "type": "constructor"
    },
    {
      "inputs": [],
      "name": "AlreadyRegistered",
      "type": "error"
    },
    {
      "inputs": [],
      "name": "NotRegistered",
      "type": "error"
    },
    {
      "inputs": [],
      "name": "NothingToWithdraw",
      "type": "error"
    },
    {
      "inputs": [
        {
          "internalType": "address",
          "name": "owner",
          "type": "address"
        }
      ],
      "name": "OwnableInvalidOwner",
      "type": "error"
    },
    {
      "inputs": [
        {
          "internalType": "address",
          "name": "account",
          "type": "address"
        }
      ],
      "name": "OwnableUnauthorizedAccount",
      "type": "error"
    },
    {
      "inputs": [],
      "name": "ReentrancyGuardReentrantCall",
      "type": "error"
    },
    {
      "inputs": [],
      "name": "TooManyCoins",
      "type": "error"
    },
    {
      "inputs": [],
      "name": "ZeroAddress",
      "type": "error"
    },
    {
      "inputs": [],
      "name": "ZeroAmount",
      "type": "error"
    },
    {
      "anonymous": false,
      "inputs": [
        {
          "indexed": true,
          "internalType": "address",
          "name": "tokenAddress",
          "type": "address"
        },
        {
          "indexed": false,
          "internalType": "uint256",
          "name": "totalFees",
          "type": "uint256"
        }
      ],
      "name": "AutoStakeThresholdReached",
      "type": "event"
    },
    {
      "anonymous": false,
      "inputs": [
        {
          "indexed": true,
          "internalType": "address",
          "name": "creator",
          "type": "address"
        },
        {
          "indexed": false,
          "internalType": "uint256",
          "name": "amount",
          "type": "uint256"
        }
      ],
      "name": "CreatorPaid",
      "type": "event"
    },
    {
      "anonymous": false,
      "inputs": [
        {
          "indexed": true,
          "internalType": "address",
          "name": "tokenAddress",
          "type": "address"
        },
        {
          "indexed": true,
          "internalType": "address",
          "name": "creator",
          "type": "address"
        }
      ],
      "name": "DickCoinRegistered",
      "type": "event"
    },
    {
      "anonymous": false,
      "inputs": [
        {
          "indexed": true,
          "internalType": "address",
          "name": "tokenAddress",
          "type": "address"
        },
        {
          "indexed": false,
          "internalType": "uint256",
          "name": "amount",
          "type": "uint256"
        }
      ],
      "name": "FeesReceived",
      "type": "event"
    },
    {
      "anonymous": false,
      "inputs": [
        {
          "indexed": true,
          "internalType": "address",
          "name": "tokenAddress",
          "type": "address"
        },
        {
          "indexed": false,
          "internalType": "uint256",
          "name": "creatorAmount",
          "type": "uint256"
        },
        {
          "indexed": false,
          "internalType": "uint256",
          "name": "protocolAmount",
          "type": "uint256"
        },
        {
          "indexed": false,
          "internalType": "uint256",
          "name": "gasAmount",
          "type": "uint256"
        }
      ],
      "name": "FeesSplit",
      "type": "event"
    },
    {
      "anonymous": false,
      "inputs": [
        {
          "indexed": false,
          "internalType": "address",
          "name": "oldWallet",
          "type": "address"
        },
        {
          "indexed": false,
          "internalType": "address",
          "name": "newWallet",
          "type": "address"
        }
      ],
      "name": "GasWalletUpdated",
      "type": "event"
    },
    {
      "anonymous": false,
      "inputs": [
        {
          "indexed": true,
          "internalType": "address",
          "name": "previousOwner",
          "type": "address"
        },
        {
          "indexed": true,
          "internalType": "address",
          "name": "newOwner",
          "type": "address"
        }
      ],
      "name": "OwnershipTransferStarted",
      "type": "event"
    },
    {
      "anonymous": false,
      "inputs": [
        {
          "indexed": true,
          "internalType": "address",
          "name": "previousOwner",
          "type": "address"
        },
        {
          "indexed": true,
          "internalType": "address",
          "name": "newOwner",
          "type": "address"
        }
      ],
      "name": "OwnershipTransferred",
      "type": "event"
    },
    {
      "anonymous": false,
      "inputs": [
        {
          "indexed": false,
          "internalType": "address",
          "name": "oldWallet",
          "type": "address"
        },
        {
          "indexed": false,
          "internalType": "address",
          "name": "newWallet",
          "type": "address"
        }
      ],
      "name": "ProtocolWalletUpdated",
      "type": "event"
    },
    {
      "anonymous": false,
      "inputs": [
        {
          "indexed": true,
          "internalType": "address",
          "name": "recipient",
          "type": "address"
        },
        {
          "indexed": false,
          "internalType": "uint256",
          "name": "amount",
          "type": "uint256"
        }
      ],
      "name": "WithdrawalPending",
      "type": "event"
    },
    {
      "inputs": [],
      "name": "CREATOR_BPS",
      "outputs": [
        {
          "internalType": "uint256",
          "name": "",
          "type": "uint256"
        }
      ],
      "stateMutability": "view",
      "type": "function"
    },
    {
      "inputs": [],
      "name": "GAS_BPS",
      "outputs": [
        {
          "internalType": "uint256",
          "name": "",
          "type": "uint256"
        }
      ],
      "stateMutability": "view",
      "type": "function"
    },
    {
      "inputs": [],
      "name": "MAX_DICKCOINS",
      "outputs": [
        {
          "internalType": "uint256",
          "name": "",
          "type": "uint256"
        }
      ],
      "stateMutability": "view",
      "type": "function"
    },
    {
      "inputs": [],
      "name": "PROTOCOL_BPS",
      "outputs": [
        {
          "internalType": "uint256",
          "name": "",
          "type": "uint256"
        }
      ],
      "stateMutability": "view",
      "type": "function"
    },
    {
      "inputs": [],
      "name": "TOTAL_BPS",
      "outputs": [
        {
          "internalType": "uint256",
          "name": "",
          "type": "uint256"
        }
      ],
      "stateMutability": "view",
      "type": "function"
    },
    {
      "inputs": [],
      "name": "acceptOwnership",
      "outputs": [],
      "stateMutability": "nonpayable",
      "type": "function"
    },
    {
      "inputs": [
        {
          "internalType": "uint256",
          "name": "",
          "type": "uint256"
        }
      ],
      "name": "allDickCoins",
      "outputs": [
        {
          "internalType": "address",
          "name": "",
          "type": "address"
        }
      ],
      "stateMutability": "view",
      "type": "function"
    },
    {
      "inputs": [],
      "name": "autoStakeThreshold",
      "outputs": [
        {
          "internalType": "uint256",
          "name": "",
          "type": "uint256"
        }
      ],
      "stateMutability": "view",
      "type": "function"
    },
    {
      "inputs": [
        {
          "internalType": "address",
          "name": "",
          "type": "address"
        }
      ],
      "name": "dickCoins",
      "outputs": [
        {
          "internalType": "address",
          "name": "creator",
          "type": "address"
        },
        {
          "internalType": "address",
          "name": "tokenAddress",
          "type": "address"
        },
        {
          "internalType": "uint256",
          "name": "totalFeesReceived",
          "type": "uint256"
        },
        {
          "internalType": "uint256",
          "name": "creatorPaid",
          "type": "uint256"
        },
        {
          "internalType": "uint256",
          "name": "stakingDeployed",
          "type": "uint256"
        },
        {
          "internalType": "bool",
          "name": "active",
          "type": "bool"
        }
      ],
      "stateMutability": "view",
      "type": "function"
    },
    {
      "inputs": [
        {
          "internalType": "address",
          "name": "_tokenAddress",
          "type": "address"
        }
      ],
      "name": "distributeFees",
      "outputs": [],
      "stateMutability": "payable",
      "type": "function"
    },
    {
      "inputs": [],
      "name": "gasWallet",
      "outputs": [
        {
          "internalType": "address",
          "name": "",
          "type": "address"
        }
      ],
      "stateMutability": "view",
      "type": "function"
    },
    {
      "inputs": [],
      "name": "getDickCoinCount",
      "outputs": [
        {
          "internalType": "uint256",
          "name": "",
          "type": "uint256"
        }
      ],
      "stateMutability": "view",
      "type": "function"
    },
    {
      "inputs": [
        {
          "internalType": "address",
          "name": "_tokenAddress",
          "type": "address"
        }
      ],
      "name": "getDickCoinInfo",
      "outputs": [
        {
          "internalType": "address",
          "name": "creator",
          "type": "address"
        },
        {
          "internalType": "uint256",
          "name": "totalFeesReceived",
          "type": "uint256"
        },
        {
          "internalType": "uint256",
          "name": "creatorPaid",
          "type": "uint256"
        },
        {
          "internalType": "bool",
          "name": "stakingActive",
          "type": "bool"
        },
        {
          "internalType": "bool",
          "name": "active",
          "type": "bool"
        }
      ],
      "stateMutability": "view",
      "type": "function"
    },
    {
      "inputs": [
        {
          "internalType": "address",
          "name": "_tokenAddress",
          "type": "address"
        }
      ],
      "name": "isAutoStakeReady",
      "outputs": [
        {
          "internalType": "bool",
          "name": "",
          "type": "bool"
        }
      ],
      "stateMutability": "view",
      "type": "function"
    },
    {
      "inputs": [],
      "name": "owner",
      "outputs": [
        {
          "internalType": "address",
          "name": "",
          "type": "address"
        }
      ],
      "stateMutability": "view",
      "type": "function"
    },
    {
      "inputs": [],
      "name": "pendingOwner",
      "outputs": [
        {
          "internalType": "address",
          "name": "",
          "type": "address"
        }
      ],
      "stateMutability": "view",
      "type": "function"
    },
    {
      "inputs": [
        {
          "internalType": "address",
          "name": "",
          "type": "address"
        }
      ],
      "name": "pendingWithdrawals",
      "outputs": [
        {
          "internalType": "uint256",
          "name": "",
          "type": "uint256"
        }
      ],
      "stateMutability": "view",
      "type": "function"
    },
    {
      "inputs": [],
      "name": "protocolWallet",
      "outputs": [
        {
          "internalType": "address",
          "name": "",
          "type": "address"
        }
      ],
      "stateMutability": "view",
      "type": "function"
    },
    {
      "inputs": [
        {
          "internalType": "address",
          "name": "_tokenAddress",
          "type": "address"
        },
        {
          "internalType": "address",
          "name": "_creator",
          "type": "address"
        }
      ],
      "name": "registerDickCoin",
      "outputs": [],
      "stateMutability": "nonpayable",
      "type": "function"
    },
    {
      "inputs": [],
      "name": "renounceOwnership",
      "outputs": [],
      "stateMutability": "nonpayable",
      "type": "function"
    },
    {
      "inputs": [
        {
          "internalType": "uint256",
          "name": "_threshold",
          "type": "uint256"
        }
      ],
      "name": "setAutoStakeThreshold",
      "outputs": [],
      "stateMutability": "nonpayable",
      "type": "function"
    },
    {
      "inputs": [
        {
          "internalType": "address",
          "name": "_wallet",
          "type": "address"
        }
      ],
      "name": "setGasWallet",
      "outputs": [],
      "stateMutability": "nonpayable",
      "type": "function"
    },
    {
      "inputs": [
        {
          "internalType": "address",
          "name": "_wallet",
          "type": "address"
        }
      ],
      "name": "setProtocolWallet",
      "outputs": [],
      "stateMutability": "nonpayable",
      "type": "function"
    },
    {
      "inputs": [
        {
          "internalType": "address",
          "name": "newOwner",
          "type": "address"
        }
      ],
      "name": "transferOwnership",
      "outputs": [],
      "stateMutability": "nonpayable",
      "type": "function"
    },
    {
      "inputs": [],
      "name": "withdraw",
      "outputs": [],
      "stateMutability": "nonpayable",
      "type": "function"
    },
    {
      "stateMutability": "payable",
      "type": "receive"
    }
  ],
  "bytecode": "0x60803461013f57601f610f0a38819003918201601f19168301916001600160401b0383118484101761014457808492604094855283398101031261013f57610052602061004b8361015a565b920161015a565b9033156101265760018060a01b031991826001541660015560005460018060a01b038093338684161760005560405192823391167f8be0079c531659141344cd1fd0a4f28419497f9722a3daafe3b4186f6b6457e0600080a360017f9b779b17422d0df92223018b32b4d1fa46e071723d6817e2486d003becc55f00556706f05b59d3b2000060075516908115801561011c575b61010d575083600254161760025516906003541617600355604051610d9b908161016f8239f35b63d92e233d60e01b8152600490fd5b50838316156100e6565b604051631e4fbdf760e01b815260006004820152602490fd5b600080fd5b634e487b7160e01b600052604160045260246000fd5b51906001600160a01b038216820361013f5756fe6080604081815260049182361015610022575b505050361561002057600080fd5b005b600092833560e01c91826306d6e63f14610b445750816313659ac0146103c75781633a4ffa3914610acd5781633ccfd60b14610a325781634590456714610a1557816345a5858e146109f357816352e199c5146109ca5781635fa2582c14610804578163715018a61461079f57816375615d9b1461078057816376a2140d1461073f57816377ae7710146106d257816379ba50971461064f5781638da5cb5b146106275781639413f25c14610405578163c1e7af35146103e8578163c4fd8914146103cc578163d3cd52bc146103c7578163d7bf0c90146103a8578163e15c17ec1461033c578163e30c397814610313578163e45c17e11461028a578163f01e9a8b146101ef57508063f2fde38b1461017f5763f3f43703146101455780610012565b3461017b57602036600319011261017b5760209181906001600160a01b0361016b610b8b565b1681526006845220549051908152f35b5080fd5b82346101ec5760203660031901126101ec57610199610b8b565b6101a1610cc1565b600180546001600160a01b0319166001600160a01b0392831690811790915582549091167f38d16b8cac22d99fc7c124b9cd0de2d3fa1faef420bfe791d8c362d765e227008380a380f35b80fd5b919050346102865760203660031901126102865761020b610b8b565b610213610cc1565b6001600160a01b03818116938415610278575060025492516001600160a01b0391841682168152911660208201527f82034a08527e1556af5c41ac50e5176dc09e241059cf64334802c9ab02935aee90604090a16001600160a01b0319161760025580f35b835163d92e233d60e01b8152fd5b8280fd5b91905034610286576020366003190112610286576102a6610b8b565b6102ae610cc1565b6001600160a01b03818116938415610278575060035492516001600160a01b0391841682168152911660208201527fe74fa16c7ef5ca8ce93bdcb8c4adf6ef2c7d0b7f3c541d9aac1cd296fb88852690604090a16001600160a01b0319161760035580f35b50503461017b578160031936011261017b5760015490516001600160a01b039091168152602090f35b919050346102865760203660031901126102865760209281906001600160a01b03610365610b8b565b1681528385522060ff600582015416928361039c575b508261038b575b50519015158152f35b600201546007541115915038610382565b8101541592503861037b565b50503461017b578160031936011261017b576020906005549051908152f35b610b69565b50503461017b578160031936011261017b576020905160c88152f35b50503461017b578160031936011261017b57602090516103208152f35b9190506020806003193601126106235761041d610b8b565b91610426610c7f565b6001600160a01b03928316808652848352818620600581015491959160ff1615610614573415610605576002810194610460348754610c4f565b86556123289081340291348304036105f2576127108092049161032080340290348204036105df5791897f22514265b5fb0bd8542ba18da00ccde26bf6b9c32d210330f08c9fc11307884b60608784847f2ccfc58c2cef4ee590b5f16be0548cc54afc12e1c66a67b362b7d640fd16bb2d8e8e8c6105286003849d7f14f433c13badc2239830ab3bb19e75dec63d39f851363844cc4e4650d0c9b6019f049861051f846105168c6105118334610c72565b610c72565b9a835416610ced565b01918254610c4f565b9055610538868b60025416610ced565b610546858b60035416610ced565b51348152a28b5191898352878301528b820152a2845416928651908152a20192835415806105d2575b61059c575b8560017f9b779b17422d0df92223018b32b4d1fa46e071723d6817e2486d003becc55f005580f35b7f3890264206cfa5c6518b7c1d4cc28dc6df609fe7c0ca9092c444587055bd76c393429055549051908152a23880808080610574565b508054600754111561056f565b634e487b7160e01b8b526011865260248bfd5b634e487b7160e01b895260118452602489fd5b509051631f2a200560e01b8152fd5b50905163aba4733960e01b8152fd5b8380fd5b50503461017b578160031936011261017b57905490516001600160a01b039091168152602090f35b91905034610286578260031936011261028657600154916001600160a01b039133838516036106bb5750506001600160a01b031991821660015582543392811683178455167f8be0079c531659141344cd1fd0a4f28419497f9722a3daafe3b4186f6b6457e08380a380f35b60249250519063118cdaa760e01b82523390820152fd5b919050346102865760203660031901126102865760a0926001600160a01b03908290826106fd610b8b565b1681528460205220908154169260028201549260ff60056003850154938501541515940154169381519586526020860152840152606083015215156080820152f35b9050346102865760203660031901126102865735916005548310156101ec575061076a602092610ba1565b905491519160018060a01b039160031b1c168152f35b50503461017b578160031936011261017b576020906007549051908152f35b83346101ec57806003193601126101ec576107b8610cc1565b600180546001600160a01b03199081169091558154908116825581906001600160a01b03167f8be0079c531659141344cd1fd0a4f28419497f9722a3daafe3b4186f6b6457e08280a380f35b9190503461028657806003193601126102865761081f610b8b565b6001600160a01b03602435818116949192908590036109c6578290610842610cc1565b1692831580156109be575b6109b1578386528160205260ff60058288200154166109a45761271060055410156109985780519060c0820182811067ffffffffffffffff8211176109855791818893600593528782526020820187815281830185815260608401918683528860808601948886528b60a088019960018b5252896020528d209551166bffffffffffffffffffffffff60a01b90818754161786558960018701925116908254161790555160028401555160038301555184820155019051151560ff80198354169116179055600554906801000000000000000082101561097257508060016109389201600555610ba1565b819291549060031b9184831b921b19161790557f7ac4b53a75180b3fbc3c14438b9f73a323e276863e3d20209e801773fe5ad23b8380a380f35b634e487b7160e01b865260419052602485fd5b634e487b7160e01b885260418452602488fd5b5162b19bd760e51b8152fd5b51630ea075bf60e21b8152fd5b5163d92e233d60e01b8152fd5b50841561084d565b8580fd5b50503461017b578160031936011261017b5760035490516001600160a01b039091168152602090f35b83903461017b57602036600319011261017b57610a0e610cc1565b3560075580f35b50503461017b578160031936011261017b57602090516123288152f35b91905034610286578260031936011261028657610a4d610c7f565b338352600660205280832054918215610abf5750338352600660205282818120558280808085335af1610a7e610bee565b5015610aad575b8260017f9b779b17422d0df92223018b32b4d1fa46e071723d6817e2486d003becc55f005580f35b33835260066020528220553880610a85565b9051630686827b60e51b8152fd5b83833461017b57602036600319011261017b5760c0926001600160a01b0392829084610af7610b8b565b16815282602052209083825416936001830154169260028301549060ff600560038601549486015495015416948151968752602087015285015260608401526080830152151560a0820152f35b84903461017b578160031936011261017b576002546001600160a01b03168152602090f35b34610b86576000366003190112610b865760206040516127108152f35b600080fd5b600435906001600160a01b0382168203610b8657565b600554811015610bd85760056000527f036b6384b5eca791c62761152d0c79bb0604c104a5fb6f4eb0703f3154bb3db00190600090565b634e487b7160e01b600052603260045260246000fd5b3d15610c4a5767ffffffffffffffff903d828111610c345760405192601f8201601f19908116603f0116840190811184821017610c345760405282523d6000602084013e565b634e487b7160e01b600052604160045260246000fd5b606090565b91908201809211610c5c57565b634e487b7160e01b600052601160045260246000fd5b91908203918211610c5c57565b7f9b779b17422d0df92223018b32b4d1fa46e071723d6817e2486d003becc55f006002815414610caf5760029055565b604051633ee5aeb560e01b8152600490fd5b6000546001600160a01b03163303610cd557565b60405163118cdaa760e01b8152336004820152602490fd5b8115610d61576001600160a01b0316906000808080808587617530f1610d11610bee565b5015610d1c57505050565b7f31b5a21eaa66e072a85415f32552ffd06f73ac2b42f41a3f31c4e19a5ed87e299160408285602094526006845220610d56828254610c4f565b9055604051908152a2565b505056fea26469706673582212201e4f4bead1d840efce3647ecfe95c98371cbe393d303cba643abb9af6e8ccaf564736f6c63430008180033",
  "linkReferences": {},
  "deployedLinkReferences": {}
}